{
  "_format": "hh-sol-artifact-1",
  "contractName": "ConditionalTokens",
  "sourceName": "contracts/gnosis/ConditionalTokens.sol",
  "abi": [
    {
      "inputs": [],
      "stateMutability": "nonpayable",
      "type": "constructor"
    },
    {
      "inputs": [
        {
          "internalType": "address",
          "name": "sender",
          "type": "address"
        },
        {
          "internalType": "uint256",
          "name": "balance",
          "type": "uint256"
        },
        {
          "internalType": "uint256",
          "name": "needed",
          "type": "uint256"
        },
        {
          "internalType": "uint256",
          "name": "tokenId",
          "type": "uint256"
        }
      ],
      "name": "ERC1155InsufficientBalance",
      "type": "error"
    },
    {
      "inputs": [
        {
          "internalType": "address",
          "name": "approver",
          "type": "address"
        }
      ],
      "name": "ERC1155InvalidApprover",
      "type": "error"
    },
    {
      "inputs": [
        {
          "internalType": "uint256",
          "name": "idsLength",
          "type": "uint256"
        },
        {
          "internalType": "uint256",
          "name": "valuesLength",
          "type": "uint256"
        }
      ],
      "name": "ERC1155InvalidArrayLength",
      "type": "error"
    },
    {
      "inputs": [
        {
          "internalType": "address",
          "name": "operator",
          "type": "address"
        }
      ],
      "name": "ERC1155InvalidOperator",
      "type": "error"
    },
    {
      "inputs": [
        {
          "internalType": "address",
          "name": "receiver",
          "type": "address"
        }
      ],
      "name": "ERC1155InvalidReceiver",
      "type": "error"
    },
    {
      "inputs": [
        {
          "internalType": "address",
          "name": "sender",
          "type": "address"
        }
      ],
      "name": "ERC1155InvalidSender",
      "type": "error"
    },
    {
      "inputs": [
        {
          "internalType": "address",
          "name": "operator",
          "type": "address"
        },
        {
          "internalType": "address",
          "name": "owner",
          "type": "address"
        }
      ],
      "name": "ERC1155MissingApprovalForAll",
      "type": "error"
    },
    {
      "anonymous": false,
      "inputs": [
        {
          "indexed": true,
          "internalType": "address",
          "name": "account",
          "type": "address"
        },
        {
          "indexed": true,
          "internalType": "address",
          "name": "operator",
          "type": "address"
        },
        {
          "indexed": false,
          "internalType": "bool",
          "name": "approved",
          "type": "bool"
        }
      ],
      "name": "ApprovalForAll",
      "type": "event"
    },
    {
      "anonymous": false,
      "inputs": [
        {
          "indexed": true,
          "internalType": "bytes32",
          "name": "conditionId",
          "type": "bytes32"
        },
        {
          "indexed": true,
          "internalType": "address",
          "name": "oracle",
          "type": "address"
        },
        {
          "indexed": true,
          "internalType": "bytes32",
          "name": "questionId",
          "type": "bytes32"
        },
        {
          "indexed": false,
          "internalType": "uint256",
          "name": "outcomeSlotCount",
          "type": "uint256"
        }
      ],
      "name": "ConditionPreparation",
      "type": "event"
    },
    {
      "anonymous": false,
      "inputs": [
        {
          "indexed": true,
          "internalType": "bytes32",
          "name": "conditionId",
          "type": "bytes32"
        },
        {
          "indexed": true,
          "internalType": "address",
          "name": "oracle",
          "type": "address"
        },
        {
          "indexed": true,
          "internalType": "bytes32",
          "name": "questionId",
          "type": "bytes32"
        },
        {
          "indexed": false,
          "internalType": "uint256",
          "name": "outcomeSlotCount",
          "type": "uint256"
        },
        {
          "indexed": false,
          "internalType": "uint256[]",
          "name": "payoutNumerators",
          "type": "uint256[]"
        }
      ],
      "name": "ConditionResolution",
      "type": "event"
    },
    {
      "anonymous": false,
      "inputs": [
        {
          "indexed": true,
          "internalType": "address",
          "name": "redeemer",
          "type": "address"
        },
        {
          "indexed": true,
          "internalType": "contract IERC20",
          "name": "collateralToken",
          "type": "address"
        },
        {
          "indexed": true,
          "internalType": "bytes32",
          "name": "parentCollectionId",
          "type": "bytes32"
        },
        {
          "indexed": false,
          "internalType": "bytes32",
          "name": "conditionId",
          "type": "bytes32"
        },
        {
          "indexed": false,
          "internalType": "uint256[]",
          "name": "indexSets",
          "type": "uint256[]"
        },
        {
          "indexed": false,
          "internalType": "uint256",
          "name": "payout",
          "type": "uint256"
        }
      ],
      "name": "PayoutRedemption",
      "type": "event"
    },
    {
      "anonymous": false,
      "inputs": [
        {
          "indexed": true,
          "internalType": "address",
          "name": "stakeholder",
          "type": "address"
        },
        {
          "indexed": false,
          "internalType": "contract IERC20",
          "name": "collateralToken",
          "type": "address"
        },
        {
          "indexed": true,
          "internalType": "bytes32",
          "name": "parentCollectionId",
          "type": "bytes32"
        },
        {
          "indexed": true,
          "internalType": "bytes32",
          "name": "conditionId",
          "type": "bytes32"
        },
        {
          "indexed": false,
          "internalType": "uint256[]",
          "name": "partition",
          "type": "uint256[]"
        },
        {
          "indexed": false,
          "internalType": "uint256",
          "name": "amount",
          "type": "uint256"
        }
      ],
      "name": "PositionSplit",
      "type": "event"
    },
    {
      "anonymous": false,
      "inputs": [
        {
          "indexed": true,
          "internalType": "address",
          "name": "stakeholder",
          "type": "address"
        },
        {
          "indexed": false,
          "internalType": "contract IERC20",
          "name": "collateralToken",
          "type": "address"
        },
        {
          "indexed": true,
          "internalType": "bytes32",
          "name": "parentCollectionId",
          "type": "bytes32"
        },
        {
          "indexed": true,
          "internalType": "bytes32",
          "name": "conditionId",
          "type": "bytes32"
        },
        {
          "indexed": false,
          "internalType": "uint256[]",
          "name": "partition",
          "type": "uint256[]"
        },
        {
          "indexed": false,
          "internalType": "uint256",
          "name": "amount",
          "type": "uint256"
        }
      ],
      "name": "PositionsMerge",
      "type": "event"
    },
    {
      "anonymous": false,
      "inputs": [
        {
          "indexed": true,
          "internalType": "address",
          "name": "operator",
          "type": "address"
        },
        {
          "indexed": true,
          "internalType": "address",
          "name": "from",
          "type": "address"
        },
        {
          "indexed": true,
          "internalType": "address",
          "name": "to",
          "type": "address"
        },
        {
          "indexed": false,
          "internalType": "uint256[]",
          "name": "ids",
          "type": "uint256[]"
        },
        {
          "indexed": false,
          "internalType": "uint256[]",
          "name": "values",
          "type": "uint256[]"
        }
      ],
      "name": "TransferBatch",
      "type": "event"
    },
    {
      "anonymous": false,
      "inputs": [
        {
          "indexed": true,
          "internalType": "address",
          "name": "operator",
          "type": "address"
        },
        {
          "indexed": true,
          "internalType": "address",
          "name": "from",
          "type": "address"
        },
        {
          "indexed": true,
          "internalType": "address",
          "name": "to",
          "type": "address"
        },
        {
          "indexed": false,
          "internalType": "uint256",
          "name": "id",
          "type": "uint256"
        },
        {
          "indexed": false,
          "internalType": "uint256",
          "name": "value",
          "type": "uint256"
        }
      ],
      "name": "TransferSingle",
      "type": "event"
    },
    {
      "anonymous": false,
      "inputs": [
        {
          "indexed": false,
          "internalType": "string",
          "name": "value",
          "type": "string"
        },
        {
          "indexed": true,
          "internalType": "uint256",
          "name": "id",
          "type": "uint256"
        }
      ],
      "name": "URI",
      "type": "event"
    },
    {
      "inputs": [
        {
          "internalType": "address",
          "name": "account",
          "type": "address"
        },
        {
          "internalType": "uint256",
          "name": "id",
          "type": "uint256"
        }
      ],
      "name": "balanceOf",
      "outputs": [
        {
          "internalType": "uint256",
          "name": "",
          "type": "uint256"
        }
      ],
      "stateMutability": "view",
      "type": "function"
    },
    {
      "inputs": [
        {
          "internalType": "address[]",
          "name": "accounts",
          "type": "address[]"
        },
        {
          "internalType": "uint256[]",
          "name": "ids",
          "type": "uint256[]"
        }
      ],
      "name": "balanceOfBatch",
      "outputs": [
        {
          "internalType": "uint256[]",
          "name": "",
          "type": "uint256[]"
        }
      ],
      "stateMutability": "view",
      "type": "function"
    },
    {
      "inputs": [
        {
          "internalType": "bytes32",
          "name": "parentCollectionId",
          "type": "bytes32"
        },
        {
          "internalType": "bytes32",
          "name": "conditionId",
          "type": "bytes32"
        },
        {
          "internalType": "uint256",
          "name": "indexSet",
          "type": "uint256"
        }
      ],
      "name": "getCollectionId",
      "outputs": [
        {
          "internalType": "bytes32",
          "name": "",
          "type": "bytes32"
        }
      ],
      "stateMutability": "view",
      "type": "function"
    },
    {
      "inputs": [
        {
          "internalType": "address",
          "name": "oracle",
          "type": "address"
        },
        {
          "internalType": "bytes32",
          "name": "questionId",
          "type": "bytes32"
        },
        {
          "internalType": "uint256",
          "name": "outcomeSlotCount",
          "type": "uint256"
        }
      ],
      "name": "getConditionId",
      "outputs": [
        {
          "internalType": "bytes32",
          "name": "",
          "type": "bytes32"
        }
      ],
      "stateMutability": "pure",
      "type": "function"
    },
    {
      "inputs": [
        {
          "internalType": "bytes32",
          "name": "conditionId",
          "type": "bytes32"
        }
      ],
      "name": "getOutcomeSlotCount",
      "outputs": [
        {
          "internalType": "uint256",
          "name": "",
          "type": "uint256"
        }
      ],
      "stateMutability": "view",
      "type": "function"
    },
    {
      "inputs": [
        {
          "internalType": "contract IERC20",
          "name": "collateralToken",
          "type": "address"
        },
        {
          "internalType": "bytes32",
          "name": "collectionId",
          "type": "bytes32"
        }
      ],
      "name": "getPositionId",
      "outputs": [
        {
          "internalType": "uint256",
          "name": "",
          "type": "uint256"
        }
      ],
      "stateMutability": "pure",
      "type": "function"
    },
    {
      "inputs": [
        {
          "internalType": "address",
          "name": "account",
          "type": "address"
        },
        {
          "internalType": "address",
          "name": "operator",
          "type": "address"
        }
      ],
      "name": "isApprovedForAll",
      "outputs": [
        {
          "internalType": "bool",
          "name": "",
          "type": "bool"
        }
      ],
      "stateMutability": "view",
      "type": "function"
    },
    {
      "inputs": [
        {
          "internalType": "contract IERC20",
          "name": "collateralToken",
          "type": "address"
        },
        {
          "internalType": "bytes32",
          "name": "parentCollectionId",
          "type": "bytes32"
        },
        {
          "internalType": "bytes32",
          "name": "conditionId",
          "type": "bytes32"
        },
        {
          "internalType": "uint256[]",
          "name": "partition",
          "type": "uint256[]"
        },
        {
          "internalType": "uint256",
          "name": "amount",
          "type": "uint256"
        }
      ],
      "name": "mergePositions",
      "outputs": [],
      "stateMutability": "nonpayable",
      "type": "function"
    },
    {
      "inputs": [
        {
          "internalType": "bytes32",
          "name": "",
          "type": "bytes32"
        }
      ],
      "name": "payoutDenominator",
      "outputs": [
        {
          "internalType": "uint256",
          "name": "",
          "type": "uint256"
        }
      ],
      "stateMutability": "view",
      "type": "function"
    },
    {
      "inputs": [
        {
          "internalType": "bytes32",
          "name": "",
          "type": "bytes32"
        },
        {
          "internalType": "uint256",
          "name": "",
          "type": "uint256"
        }
      ],
      "name": "payoutNumerators",
      "outputs": [
        {
          "internalType": "uint256",
          "name": "",
          "type": "uint256"
        }
      ],
      "stateMutability": "view",
      "type": "function"
    },
    {
      "inputs": [
        {
          "internalType": "address",
          "name": "oracle",
          "type": "address"
        },
        {
          "internalType": "bytes32",
          "name": "questionId",
          "type": "bytes32"
        },
        {
          "internalType": "uint256",
          "name": "outcomeSlotCount",
          "type": "uint256"
        }
      ],
      "name": "prepareCondition",
      "outputs": [],
      "stateMutability": "nonpayable",
      "type": "function"
    },
    {
      "inputs": [
        {
          "internalType": "contract IERC20",
          "name": "collateralToken",
          "type": "address"
        },
        {
          "internalType": "bytes32",
          "name": "parentCollectionId",
          "type": "bytes32"
        },
        {
          "internalType": "bytes32",
          "name": "conditionId",
          "type": "bytes32"
        },
        {
          "internalType": "uint256[]",
          "name": "indexSets",
          "type": "uint256[]"
        }
      ],
      "name": "redeemPositions",
      "outputs": [],
      "stateMutability": "nonpayable",
      "type": "function"
    },
    {
      "inputs": [
        {
          "internalType": "bytes32",
          "name": "questionId",
          "type": "bytes32"
        },
        {
          "internalType": "uint256[]",
          "name": "payouts",
          "type": "uint256[]"
        }
      ],
      "name": "reportPayouts",
      "outputs": [],
      "stateMutability": "nonpayable",
      "type": "function"
    },
    {
      "inputs": [
        {
          "internalType": "address",
          "name": "from",
          "type": "address"
        },
        {
          "internalType": "address",
          "name": "to",
          "type": "address"
        },
        {
          "internalType": "uint256[]",
          "name": "ids",
          "type": "uint256[]"
        },
        {
          "internalType": "uint256[]",
          "name": "values",
          "type": "uint256[]"
        },
        {
          "internalType": "bytes",
          "name": "data",
          "type": "bytes"
        }
      ],
      "name": "safeBatchTransferFrom",
      "outputs": [],
      "stateMutability": "nonpayable",
      "type": "function"
    },
    {
      "inputs": [
        {
          "internalType": "address",
          "name": "from",
          "type": "address"
        },
        {
          "internalType": "address",
          "name": "to",
          "type": "address"
        },
        {
          "internalType": "uint256",
          "name": "id",
          "type": "uint256"
        },
        {
          "internalType": "uint256",
          "name": "value",
          "type": "uint256"
        },
        {
          "internalType": "bytes",
          "name": "data",
          "type": "bytes"
        }
      ],
      "name": "safeTransferFrom",
      "outputs": [],
      "stateMutability": "nonpayable",
      "type": "function"
    },
    {
      "inputs": [
        {
          "internalType": "address",
          "name": "operator",
          "type": "address"
        },
        {
          "internalType": "bool",
          "name": "approved",
          "type": "bool"
        }
      ],
      "name": "setApprovalForAll",
      "outputs": [],
      "stateMutability": "nonpayable",
      "type": "function"
    },
    {
      "inputs": [
        {
          "internalType": "contract IERC20",
          "name": "collateralToken",
          "type": "address"
        },
        {
          "internalType": "bytes32",
          "name": "parentCollectionId",
          "type": "bytes32"
        },
        {
          "internalType": "bytes32",
          "name": "conditionId",
          "type": "bytes32"
        },
        {
          "internalType": "uint256[]",
          "name": "partition",
          "type": "uint256[]"
        },
        {
          "internalType": "uint256",
          "name": "amount",
          "type": "uint256"
        }
      ],
      "name": "splitPosition",
      "outputs": [],
      "stateMutability": "nonpayable",
      "type": "function"
    },
    {
      "inputs": [
        {
          "internalType": "bytes4",
          "name": "interfaceId",
          "type": "bytes4"
        }
      ],
      "name": "supportsInterface",
      "outputs": [
        {
          "internalType": "bool",
          "name": "",
          "type": "bool"
        }
      ],
      "stateMutability": "view",
      "type": "function"
    },
    {
      "inputs": [
        {
          "internalType": "uint256",
          "name": "",
          "type": "uint256"
        }
      ],
      "name": "uri",
      "outputs": [
        {
          "internalType": "string",
          "name": "",
          "type": "string"
        }
      ],
      "stateMutability": "view",
      "type": "function"
    }
  ],
  "bytecode": "0x608034620000e157602081016001600160401b03811182821017620000cb5760405260008091526002546001908181811c91168015620000c0575b6020821014620000ac57601f811162000062575b82600255604051613f169081620000e78239f35b60028352601f0160051c7f405787fa12a823e0f2b7631cc41b3ba8828b3321ca811111fa75cd3aa3bb5ace908101905b818110620000a157506200004e565b838155820162000092565b634e487b7160e01b83526022600452602483fd5b90607f16906200003a565b634e487b7160e01b600052604160045260246000fd5b600080fdfe6080604052600436101561001257600080fd5b60003560e01c8062fdd58e1461014657806301b7037c1461014157806301ffc9a71461013c5780630504c814146101375780630e89341c146101325780632eb2c2d61461012d57806339dd7530146101285780634e1273f41461012357806372ce42751461011e578063852c6ae214610119578063856296f7146101145780639e7212ad1461010f578063a22cb4651461010a578063c49298ac14610105578063d42dc0c214610100578063d96ee754146100fb578063dd34de67146100f6578063e985e9c5146100f15763f242432a146100ec57600080fd5b611205565b6111ad565b611181565b6110a7565b61107b565b610f43565b610e8d565b610cf2565b610cce565b610cb5565b610aad565b6109aa565b610932565b610815565b6105df565b610543565b610472565b6101d0565b610161565b6001600160a01b0381160361015c57565b600080fd5b3461015c57604036600319011261015c5760206101976004356101838161014b565b6024356000526000835260406000206112fd565b54604051908152f35b9181601f8401121561015c578235916001600160401b03831161015c576020808501948460051b01011161015c57565b3461015c57608036600319011261015c576004356101ed8161014b565b602435906044356064356001600160401b03811161015c576102139036906004016101a0565b61021f839492946104e0565b549161022c831515613d67565b610235846104f0565b5492610242841515611f54565b60009360019161025383831b611f9d565b91865b88878b8d82851061036c57918b84918b8261029b575b610296600080516020613eea8339815191529360405193849360018060a01b031697339785613e2b565b0390a4005b856103375760405163a9059cbb60e01b815292602084806102c0843360048401613cb8565b038160006001600160a01b0387165af1908115610332576102fc61029692600080516020613eea83398151915296600091610304575b50613dcb565b93505061026c565b610325915060203d811161032b575b61031d818361071b565b810190612051565b8a6102f6565b503d610313565b611934565b610296600080516020613eea833981519152936103676103578985613c75565b82610360611940565b9133613d1e565b6102fc565b61037d8561039e9461039894611e20565b3593849182151580610457575b61039390611fc8565b61220e565b88613c75565b90600090815b85811061040d5750506103bf336103ba84610500565b6112fd565b5490816103d8575b5050506103d39061136d565b610256565b906103fe6103d394939b6103f8886103f36104059686611c9c565b613dc1565b90611864565b9a3361212a565b9038806103c7565b8c89821b8316610427575b506104229061136d565b6103a4565b81936103f86104446104229461043f61044e956104f0565b610526565b90549060031b1c90565b9290508c610418565b5089831061038a565b6001600160e01b031981160361015c57565b3461015c57602036600319011261015c57602060043561049181610460565b63ffffffff60e01b16636cdb3d1360e11b81149081156104cf575b81156104be575b506040519015158152f35b6301ffc9a760e01b149050386104b3565b6303a24d0760e21b811491506104ac565b6000526004602052604060002090565b6000526003602052604060002090565b6000526000602052604060002090565b634e487b7160e01b600052603260045260246000fd5b805482101561053e5760005260206000200190600090565b610510565b3461015c57604036600319011261015c5760243560043560005260036020526040600020805482101561015c5760209161057c91610526565b90549060031b1c604051908152f35b919082519283825260005b8481106105b7575050826000602080949584010152601f8019910116010190565b602081830181015184830182015201610596565b9060206105dc92818152019061058b565b90565b3461015c5760208060031936011261015c576040519060009060025460019181831c928083169283156106db575b82851084146106c75784875260208701939081156106a8575060011461064e575b61064a8661063e8188038261071b565b604051918291826105cb565b0390f35b6002600090815294509192917f405787fa12a823e0f2b7631cc41b3ba8828b3321ca811111fa75cd3aa3bb5ace5b838610610697575050509101905061063e8261064a3861062e565b80548587015294820194810161067c565b60ff1916845250505090151560051b01905061063e8261064a3861062e565b634e487b7160e01b86526022600452602486fd5b93607f169361060d565b634e487b7160e01b600052604160045260246000fd5b602081019081106001600160401b0382111761071657604052565b6106e5565b601f909101601f19168101906001600160401b0382119082101761071657604052565b6001600160401b0381116107165760051b60200190565b81601f8201121561015c5780359161076c8361073e565b9261077a604051948561071b565b808452602092838086019260051b82010192831161015c578301905b8282106107a4575050505090565b81358152908301908301610796565b6001600160401b03811161071657601f01601f191660200190565b81601f8201121561015c578035906107e5826107b3565b926107f3604051948561071b565b8284526020838301011161015c57816000926020809301838601378301015290565b3461015c5760a036600319011261015c57600480356108338161014b565b60243561083f8161014b565b6001600160401b039060443582811161015c5761085f9036908601610755565b9060643583811161015c576108779036908701610755565b9260843590811161015c5761088f90369087016107ce565b936001600160a01b03808216903382141580610910575b6108f1578316156108d957156108c2576108c0955061169c565b005b604051626a0d4560e21b8152600081880152602490fd5b604051632bfa23e760e11b8152600081890152602490fd5b60405163711bec9160e11b81528061090c8533838d01611418565b0390fd5b5081600052600160205260ff61092a3360406000206112fd565b5416156108a6565b3461015c57604036600319011261015c57602061095d6004356109548161014b565b60243590613c75565b604051908152f35b90815180825260208080930193019160005b828110610985575050505090565b835185529381019392810192600101610977565b9060206105dc928181520190610965565b3461015c57604036600319011261015c576004356001600160401b0380821161015c573660238301121561015c5781600401356109e68161073e565b926109f4604051948561071b565b81845260209160248386019160051b8301019136831161015c57602401905b828210610a4c578560243586811161015c5761064a91610a3a610a40923690600401610755565b90611395565b60405191829182610999565b8380918335610a5a8161014b565b815201910190610a13565b9060a060031983011261015c57600435610a7e8161014b565b916024359160443591606435906001600160401b03821161015c57610aa5916004016101a0565b909160843590565b3461015c57610abb36610a65565b91610acb60018397959711611f09565b610aeb6001610ad9886104f0565b54610ae5811515611f54565b1b611f9d565b80938688610af886611325565b93610b0287611325565b9760005b888110610c1c575081610bea57505050610bba576040516323b872dd60e01b8152336004820152306024820152604481018290529160208360648160006001600160a01b038c165af190811561033257600080516020613e6a83398151915296610b7f610b8e9361029696600091610b9c575b50612066565b610b87611940565b913361210d565b6040519384933397856120e2565b610bb4915060203d811161032b5761031d818361071b565b38610b79565b610b8e61029692600080516020613e6a83398151915296610be584610bdf8c8c613c75565b3361212a565b610b7f565b84610bdf610c16610b8e966102969996600080516020613e6a8339815191529d96610be596189161220e565b8c613c75565b9092610c5d610c7f93610c6392610c34858d8d611e20565b35809281151580610c89575b610c4990611fc8565b610c56828281161461200c565b189761220e565b8b613c75565b610c6d8288611381565b5284610c79828b611381565b5261136d565b918a918a93610b06565b50888210610c40565b606090600319011261015c57600435610caa8161014b565b906024359060443590565b3461015c57602061095d610cc836610c92565b91611d3a565b3461015c57606036600319011261015c57602061095d60443560243560043561220e565b3461015c57610d0036610a65565b91610d1060018397959711611f09565b610d1e6001610ad9886104f0565b80610d2884611325565b610d3185611325565b908860005b8b888210610e1d5750505090610d4c9133613d44565b81610df757505084610dd25760405163a9059cbb60e01b81529260208480610d78843360048401613cb8565b038160006001600160a01b038a165af190811561033257610b8e61029692600080516020613eaa83398151915296600091610db4575b50613cd3565b610dcc915060203d811161032b5761031d818361071b565b38610dae565b610296600080516020613eaa83398151915293610df26103578888613c75565b610b8e565b93610df261035761039861029694600080516020613eaa83398151915298188b8b61220e565b610c5d610e739397610e5d92610e34858d8d611e20565b35809281151580610e7a575b610e4990611fc8565b610e56828281161461200c565b189961220e565b610e678285611381565b5288610c798286611381565b8990610d36565b508a8210610e40565b8015150361015c57565b3461015c57604036600319011261015c57600435610eaa8161014b565b602435610eb681610e83565b6001600160a01b038216918215610f2b57610ede9033600052600160205260406000206112fd565b60ff1981541660ff831515161790557f17307eab39ab6107e8899845ad3d59bd9653f200f220920489ca2b5937696c3160405180610f26339482919091602081019215159052565b0390a3005b60405162ced3e160e81b815260006004820152602490fd5b3461015c57604036600319011261015c576004356024356001600160401b03811161015c57610f769036906004016101a0565b90610f8360018311611bf4565b610f8e828433611d3a565b90610fa383610f9c846104f0565b5414611d88565b610fb6610faf836104e0565b5415611dd4565b600090815b848110611014575050610fcf811515611e7b565b610fd8826104e0565b557fb44d84d3289691f71497564b85d4233648d9dbae8cbdbb4329f301c3a0185894610296611006836104f0565b604051918291339683611ebe565b80611071611031611029611076948987611e20565b358096611864565b9461104b6110456104448561043f8b6104f0565b15611e30565b6110588361043f896104f0565b90919082549060031b91821b91600019901b1916179055565b61136d565b610fbb565b3461015c57602036600319011261015c5760043560005260036020526020604060002054604051908152f35b3461015c576110b536610c92565b90916101008211611143576110cc60018311611bf4565b7fab3760c3bd2bb38b5bcf54dc79802ed67338b4cf29f3054ded67ed24661e41776102966110fb848685611d3a565b9261110f611108856104f0565b5415611c53565b61112961111b86611325565b611124866104f0565b611caf565b6040519485526001600160a01b0316939081906020820190565b60405162461bcd60e51b8152602060048201526016602482015275746f6f206d616e79206f7574636f6d6520736c6f747360501b6044820152606490fd5b3461015c57602036600319011261015c5760043560005260046020526020604060002054604051908152f35b3461015c57604036600319011261015c57602060ff6111f96004356111d18161014b565b602435906111de8261014b565b6001600160a01b0316600090815260018552604090206112fd565b54166040519015158152f35b3461015c5760a036600319011261015c576004356112228161014b565b60243561122e8161014b565b6084356001600160401b03811161015c5761124d9036906004016107ce565b906001600160a01b038381169033821415806112db575b6112bf578216156112a6571561128e576108c092611286606435604435611896565b92909161169c565b604051626a0d4560e21b815260006004820152602490fd5b604051632bfa23e760e11b815260006004820152602490fd5b60405163711bec9160e11b81528061090c873360048401611418565b5081600052600160205260ff6112f53360406000206112fd565b541615611264565b9060018060a01b0316600052602052604060002090565b908152602081019190915260400190565b9061132f8261073e565b61133c604051918261071b565b828152809261134d601f199161073e565b0190602036910137565b634e487b7160e01b600052601160045260246000fd5b600019811461137c5760010190565b611357565b805182101561053e5760209160051b010190565b919091805183518082036113fc5750506113af8151611325565b90600090815b81518110156113f457806113e46113ef9260051b85602080808489010151938c010151825252604086206112fd565b54610c798287611381565b6113b5565b509193505050565b61090c604051928392635b05999160e01b845260048401611314565b6001600160a01b0391821681529116602082015260400190565b6001600160a01b03909116815260200190565b9080518351908181036113fc57505060005b81518110156114b857600581901b8281016020908101519186010151611491929185906001600160a01b038216611496575b50505061136d565b611457565b6114ae916103ba6114a692610500565b918254611864565b9055388481611489565b5080519193929160010361154a5760208101516000602084015191600080516020613e8a833981519152604051806114fb60018060a01b038b1696339583611314565b0390a45b6001600160a01b038416611514575b50505050565b805160010361153b5790602080611532959301519101519133611983565b3880808061150e565b6115459333611b88565b611532565b6040516001600160a01b038516906000903390600080516020613e4a8339815191529080611579888883611871565b0390a46114ff565b92919080518251908181036113fc57505060005b815181101561162157600581901b82810160209081015191850101516001600160a01b0387166115d0575b50506115cb9061136d565b611595565b6115dd876103ba84610500565b5481811061160257876103ba6115cb9594936115fa930393610500565b5590386115c0565b8761090c84846040519485946303dee4c560e01b865260048601611840565b509060009293916001815114841461166f576020908101519101516040516001600160a01b03909316923392600080516020613e8a83398151915292829161166a919083611314565b0390a4565b6040516001600160a01b03909316923392600080516020613e4a83398151915292829161166a9183611871565b9491909181518451908181036113fc57505060005b825181101561176b57600581901b83810160209081015191870101516001600160a01b03929186908a8516611712575b6116f39482166116f85750505061136d565b6116b1565b611708916103ba6114a692610500565b9055388581611489565b91929390506117248a6103ba84610500565b5483811061174c57918791846116f3969594036117448d6103ba85610500565b5594506116e1565b8a61090c84866040519485946303dee4c560e01b865260048601611840565b509491939290936001855114600014611807576020850151602083015160405191600080516020613e8a83398151915260018060a01b0393806117b6868816968a1695339583611314565b0390a45b6001600160a01b0381166117d0575b5050505050565b84516001036117f6576020806117ec9601519201519233611a71565b38808080806117c9565b61180294919233611bbd565b6117ec565b6040516001600160a01b0382811691908516903390600080516020613e4a8339815191529080611838888c83611871565b0390a46117ba565b90949392606092608083019660018060a01b03168352602083015260408201520152565b9190820180921161137c57565b90916118886105dc93604084526040840190610965565b916020818403910152610965565b9160405192600184526020840152604083019160018352606084015260808301604052565b9081602091031261015c57516105dc81610460565b909260a0926105dc9594600180861b031683526000602084015260408301526060820152816080820152019061058b565b91926105dc95949160a094600180871b03809216855216602084015260408301526060820152816080820152019061058b565b6040513d6000823e3d90fd5b6040519061194d826106fb565b60008252565b3d1561197e573d90611964826107b3565b91611972604051938461071b565b82523d6000602084013e565b606090565b9293919093843b611995575050505050565b6020916119b8604051948593849363f23a6e6160e01b98898652600486016118d0565b038160006001600160a01b0388165af160009181611a41575b50611a0a57826119df611953565b8051919082611a0357604051632bfa23e760e11b81528061090c8460048301611432565b9050602001fd5b6001600160e01b03191603611a24575038808080806117c9565b604051632bfa23e760e11b815290819061090c9060048301611432565b611a6391925060203d8111611a6a575b611a5b818361071b565b8101906118bb565b90386119d1565b503d611a51565b939290949194853b611a86575b505050505050565b611aa9602093604051958694859463f23a6e6160e01b998a875260048701611901565b038160006001600160a01b0388165af160009181611aeb575b50611ad057826119df611953565b6001600160e01b03191603611a245750388080808080611a7e565b611b0491925060203d8111611a6a57611a5b818361071b565b9038611ac2565b92611b3a6105dc9593611b489360018060a01b031686526000602087015260a0604087015260a0860190610965565b908482036060860152610965565b91608081840391015261058b565b93906105dc9593611b3a91611b489460018060a01b03809216885216602087015260a0604087015260a0860190610965565b9293919093843b611b9a575050505050565b6020916119b8604051948593849363bc197c8160e01b9889865260048601611b0b565b939290949194853b611bd157505050505050565b611aa9602093604051958694859463bc197c8160e01b998a875260048701611b56565b15611bfb57565b60405162461bcd60e51b815260206004820152602a60248201527f74686572652073686f756c64206265206d6f7265207468616e206f6e65206f756044820152691d18dbdb59481cdb1bdd60b21b6064820152608490fd5b15611c5a57565b60405162461bcd60e51b815260206004820152601a60248201527918dbdb991a5d1a5bdb88185b1c9958591e481c1c995c185c995960321b6044820152606490fd5b8181029291811591840414171561137c57565b8151916001600160401b03831161071657600160401b8311610716578154838355808410611d11575b50611ced602080920192600052602060002090565b9060005b848110611cff575050505050565b83518382015592810192600101611cf1565b6000838152846020822092830192015b828110611d2f575050611cd8565b818155600101611d21565b60405160609190911b6001600160601b03191660208201908152603482019290925260548082019390935291825290608081016001600160401b038111828210176107165760405251902090565b15611d8f57565b60405162461bcd60e51b815260206004820152601f60248201527f636f6e646974696f6e206e6f74207072657061726564206f7220666f756e64006044820152606490fd5b15611ddb57565b60405162461bcd60e51b815260206004820152601e60248201527f7061796f75742064656e6f6d696e61746f7220616c72656164792073657400006044820152606490fd5b919081101561053e5760051b0190565b15611e3757565b60405162461bcd60e51b815260206004820152601c60248201527b1c185e5bdd5d081b9d5b595c985d1bdc88185b1c9958591e481cd95d60221b6044820152606490fd5b15611e8257565b60405162461bcd60e51b81526020600482015260146024820152737061796f757420697320616c6c207a65726f657360601b6044820152606490fd5b906040820190825260606020926040848201528454809352019260005281600020916000905b828210611ef2575050505090565b835485529384019360019384019390910190611ee4565b15611f1057565b606460405162461bcd60e51b815260206004820152602060248201527f676f7420656d707479206f722073696e676c65746f6e20706172746974696f6e6044820152fd5b15611f5b57565b60405162461bcd60e51b815260206004820152601a60248201527918dbdb991a5d1a5bdb881b9bdd081c1c995c185c9959081e595d60321b6044820152606490fd5b60001981019190821161137c57565b90600080516020613eca83398151915291820391821161137c57565b15611fcf57565b60405162461bcd60e51b815260206004820152601560248201527419dbdd081a5b9d985b1a59081a5b99195e081cd95d605a1b6044820152606490fd5b1561201357565b60405162461bcd60e51b81526020600482015260166024820152751c185c9d1a5d1a5bdb881b9bdd08191a5cda9bda5b9d60521b6044820152606490fd5b9081602091031261015c57516105dc81610e83565b1561206d57565b60405162461bcd60e51b815260206004820152602360248201527f636f756c64206e6f74207265636569766520636f6c6c61746572616c20746f6b604482015262656e7360e81b6064820152608490fd5b81835290916001600160fb1b03831161015c5760209260051b809284830137010190565b949392916040926121089260018060a01b031687526060602088015260608701916120be565b930152565b9291906001600160a01b038416156112a65761212893611445565b565b906001600160a01b0382161561128e576121289261214791611896565b916000604051612156816106fb565b52611581565b634e487b7160e01b600052601260045260246000fd5b1561217957565b60405162461bcd60e51b815260206004820152601c60248201527b1a5b9d985b1a59081c185c995b9d0818dbdb1b1958dd1a5bdb88125160221b6044820152606490fd5b156121c457565b60405162461bcd60e51b815260206004820152600c60248201526b1958d859190819985a5b195960a21b6044820152606490fd5b919082604091031261015c576020825192015190565b604080516020810193845280820194909452835292601f199290919061223560608261071b565b519020918260ff1c1593841591600092836001948180965b15612299575b50505060009361229457600195600080516020613eca83398151915296879108968796600381879a818180099009088861228c8261243a565b92999661224d565b61215c565b61229457600080516020613eca833981519152828009146122bb578085612253565b94968161242e575b8115612414575b50612404575b816122ef575b5050506001809116146122e65790565b600160fe1b1890565b6001600160fe1b0382169460fe9290921c158015949193919290916122945760019561239d6123c3956000956123918a998897600080516020613eca8339815191529182600381808b80098b0908906123478261243a565b92816123f9575b81156123e0575b506123cd575b819282612369930914612172565b6040519586936020850198899094939260609260808301968352602083015260408201520152565b0390810183528261071b565b519060065afa6123b46123ae611953565b916121bd565b602080825183010191016121f8565b92909291386122d6565b6123d961236992611fac565b915061235b565b9050806123ee575b38612355565b508c808316146123e8565b838f1615915061234e565b9261240e90611fac565b926122d0565b905080612422575b386122ca565b5060018085161461241c565b600186161591506122c3565b600080516020613eca833981519152818009600080516020613eca83398151915281800980600080516020613eca8339815191529109600080516020613eca83398151915291099081600080516020613eca83398151915291099081600080516020613eca833981519152910990600080516020613eca833981519152828009600080516020613eca833981519152818009600080516020613eca83398151915290820980600080516020613eca833981519152910980600080516020613eca8339815191529109600080516020613eca8339815191529109600080516020613eca833981519152910990600080516020613eca83398151915282800980600080516020613eca8339815191529109600080516020613eca833981519152910990600080516020613eca83398151915282800980600080516020613eca833981519152910980600080516020613eca8339815191529109600080516020613eca833981519152908309600080516020613eca833981519152910990600080516020613eca83398151915282800980600080516020613eca833981519152910980600080516020613eca8339815191529109600080516020613eca833981519152908309600080516020613eca83398151915291099081600080516020613eca833981519152910990600080516020613eca83398151915282800980600080516020613eca8339815191529109600080516020613eca833981519152910990600080516020613eca833981519152828009600080516020613eca83398151915281800980600080516020613eca833981519152910980600080516020613eca8339815191529109600080516020613eca8339815191529109600080516020613eca83398151915291099081600080516020613eca833981519152910990600080516020613eca83398151915282800980600080516020613eca833981519152910980600080516020613eca8339815191529109600080516020613eca833981519152910990600080516020613eca83398151915282800980600080516020613eca8339815191529109600080516020613eca83398151915290830980600080516020613eca833981519152910980600080516020613eca8339815191529109600080516020613eca833981519152908309600080516020613eca833981519152910990600080516020613eca833981519152828009600080516020613eca83398151915281800980600080516020613eca8339815191529109600080516020613eca833981519152908209600080516020613eca83398151915290840980600080516020613eca833981519152910980600080516020613eca833981519152910980600080516020613eca833981519152910980600080516020613eca8339815191529109600080516020613eca8339815191529109600080516020613eca833981519152910990600080516020613eca833981519152828009600080516020613eca833981519152908309600080516020613eca833981519152910990600080516020613eca833981519152828009600080516020613eca83398151915290830980600080516020613eca8339815191529109600080516020613eca833981519152818009600080516020613eca833981519152908209600080516020613eca83398151915281800980600080516020613eca833981519152910980600080516020613eca833981519152910980600080516020613eca833981519152910980600080516020613eca8339815191529109600080516020613eca8339815191529109600080516020613eca8339815191529109600080516020613eca83398151915291099081600080516020613eca833981519152910990600080516020613eca833981519152828009600080516020613eca83398151915291099081600080516020613eca83398151915291099081600080516020613eca83398151915291099081600080516020613eca83398151915291099081600080516020613eca833981519152910990600080516020613eca833981519152828009600080516020613eca83398151915290830980600080516020613eca8339815191529109600080516020613eca833981519152910990600080516020613eca83398151915282800980600080516020613eca8339815191529109600080516020613eca83398151915291099081600080516020613eca833981519152910990600080516020613eca833981519152828009600080516020613eca833981519152908309600080516020613eca83398151915291099081600080516020613eca83398151915291099081600080516020613eca8339815191529109600080516020613eca833981519152818309600080516020613eca83398151915282840990600080516020613eca833981519152910980600080516020613eca8339815191529109600080516020613eca83398151915282840990600080516020613eca8339815191529109600080516020613eca83398151915290820991600080516020613eca833981519152838009600080516020613eca83398151915290840991600080516020613eca833981519152910990600080516020613eca83398151915291099081600080516020613eca83398151915291099081600080516020613eca83398151915291099081600080516020613eca83398151915291099081600080516020613eca833981519152910990600080516020613eca833981519152828009600080516020613eca83398151915290830980600080516020613eca8339815191529109600080516020613eca83398151915291099081600080516020613eca833981519152910990600080516020613eca833981519152828009600080516020613eca83398151915290830980600080516020613eca8339815191529109600080516020613eca833981519152910990600080516020613eca833981519152828009600080516020613eca83398151915281800980600080516020613eca8339815191529109600080516020613eca833981519152908209600080516020613eca83398151915290840980600080516020613eca833981519152910980600080516020613eca833981519152910980600080516020613eca833981519152910980600080516020613eca8339815191529109600080516020613eca8339815191529109600080516020613eca83398151915291099081600080516020613eca83398151915291099081600080516020613eca83398151915291099081600080516020613eca833981519152910990600080516020613eca833981519152828009600080516020613eca83398151915290830980600080516020613eca833981519152910980600080516020613eca833981519152910980600080516020613eca8339815191529109600080516020613eca833981519152908309600080516020613eca833981519152910990600080516020613eca833981519152828009600080516020613eca83398151915290830980600080516020613eca8339815191529109600080516020613eca833981519152910990600080516020613eca833981519152828009600080516020613eca833981519152908309600080516020613eca83398151915291099081600080516020613eca833981519152910990600080516020613eca83398151915282800980600080516020613eca8339815191529109600080516020613eca83398151915291099081600080516020613eca833981519152910990600080516020613eca833981519152828009600080516020613eca83398151915291099081600080516020613eca83398151915291099081600080516020613eca833981519152910990600080516020613eca833981519152828009600080516020613eca833981519152908309600080516020613eca83398151915291099081600080516020613eca833981519152910990600080516020613eca833981519152828009600080516020613eca83398151915290830980600080516020613eca833981519152910980600080516020613eca8339815191529109600080516020613eca833981519152910990600080516020613eca83398151915282800980600080516020613eca833981519152910980600080516020613eca8339815191529109600080516020613eca833981519152908309600080516020613eca83398151915291099081600080516020613eca833981519152910990600080516020613eca833981519152828009600080516020613eca83398151915281840980600080516020613eca833981519152910980600080516020613eca8339815191529109600080516020613eca8339815191529109600080516020613eca833981519152910990600080516020613eca833981519152828009600080516020613eca83398151915291099081600080516020613eca83398151915291099081600080516020613eca83398151915291099081600080516020613eca83398151915291099081600080516020613eca83398151915291099081600080516020613eca833981519152910990600080516020613eca833981519152828009600080516020613eca833981519152908309600080516020613eca83398151915281840980600080516020613eca833981519152910980600080516020613eca8339815191529109600080516020613eca8339815191529109600080516020613eca83398151915291099081600080516020613eca83398151915291099081600080516020613eca8339815191529109600080516020613eca833981519152818309600080516020613eca833981519152908209600080516020613eca833981519152828409600080516020613eca83398151915290830990600080516020613eca8339815191529109600080516020613eca833981519152828409600080516020613eca83398151915290830990600080516020613eca8339815191529109600080516020613eca83398151915282840990600080516020613eca8339815191529109600080516020613eca833981519152828409600080516020613eca83398151915290830990600080516020613eca833981519152910980600080516020613eca833981519152910980600080516020613eca833981519152910980600080516020613eca833981519152910980600080516020613eca833981519152910980600080516020613eca833981519152910980600080516020613eca833981519152910980600080516020613eca833981519152910980600080516020613eca833981519152910980600080516020613eca833981519152910980600080516020613eca833981519152910980600080516020613eca833981519152910980600080516020613eca833981519152910980600080516020613eca833981519152910980600080516020613eca833981519152910980600080516020613eca833981519152910980600080516020613eca833981519152910980600080516020613eca833981519152910980600080516020613eca833981519152910980600080516020613eca833981519152910980600080516020613eca833981519152910980600080516020613eca833981519152910980600080516020613eca833981519152910980600080516020613eca833981519152910980600080516020613eca833981519152910980600080516020613eca833981519152910980600080516020613eca833981519152910980600080516020613eca833981519152910980600080516020613eca833981519152910980600080516020613eca833981519152910980600080516020613eca833981519152910980600080516020613eca833981519152910980600080516020613eca833981519152910980600080516020613eca833981519152910980600080516020613eca833981519152910980600080516020613eca833981519152910980600080516020613eca833981519152910980600080516020613eca833981519152910980600080516020613eca833981519152910980600080516020613eca833981519152910980600080516020613eca833981519152910980600080516020613eca833981519152910980600080516020613eca833981519152910980600080516020613eca833981519152910980600080516020613eca833981519152910980600080516020613eca833981519152910980600080516020613eca833981519152910980600080516020613eca833981519152910980600080516020613eca833981519152910980600080516020613eca833981519152910980600080516020613eca833981519152910980600080516020613eca833981519152910980600080516020613eca833981519152910980600080516020613eca833981519152910980600080516020613eca833981519152910980600080516020613eca833981519152910980600080516020613eca833981519152910980600080516020613eca833981519152910980600080516020613eca833981519152910980600080516020613eca833981519152910980600080516020613eca833981519152910980600080516020613eca833981519152910980600080516020613eca833981519152910980600080516020613eca833981519152910980600080516020613eca833981519152910980600080516020613eca833981519152910980600080516020613eca833981519152910980600080516020613eca833981519152910980600080516020613eca833981519152910980600080516020613eca833981519152910980600080516020613eca833981519152910980600080516020613eca833981519152910980600080516020613eca833981519152910980600080516020613eca833981519152910980600080516020613eca833981519152910980600080516020613eca833981519152910980600080516020613eca833981519152910980600080516020613eca833981519152910980600080516020613eca833981519152910980600080516020613eca833981519152910980600080516020613eca833981519152910980600080516020613eca833981519152910980600080516020613eca833981519152910980600080516020613eca833981519152910980600080516020613eca833981519152910980600080516020613eca833981519152910980600080516020613eca833981519152910980600080516020613eca833981519152910980600080516020613eca833981519152910980600080516020613eca833981519152910980600080516020613eca833981519152910980600080516020613eca833981519152910980600080516020613eca833981519152910980600080516020613eca833981519152910980600080516020613eca833981519152910980600080516020613eca833981519152910980600080516020613eca833981519152910980600080516020613eca833981519152910980600080516020613eca833981519152910980600080516020613eca833981519152910980600080516020613eca833981519152910980600080516020613eca833981519152910980600080516020613eca833981519152910980600080516020613eca833981519152910980600080516020613eca833981519152910980600080516020613eca833981519152910980600080516020613eca833981519152910980600080516020613eca833981519152910980600080516020613eca833981519152910980600080516020613eca833981519152910980600080516020613eca833981519152910980600080516020613eca833981519152910980600080516020613eca833981519152910980600080516020613eca833981519152910980600080516020613eca833981519152910980600080516020613eca833981519152910980600080516020613eca833981519152910980600080516020613eca833981519152910980600080516020613eca833981519152910980600080516020613eca833981519152910980600080516020613eca833981519152910980600080516020613eca833981519152910980600080516020613eca833981519152910980600080516020613eca833981519152910980600080516020613eca833981519152910980600080516020613eca833981519152910980600080516020613eca833981519152910991600080516020613eca833981519152828209600080516020613eca833981519152908309600080516020613eca833981519152838309600080516020613eca83398151915290840990600080516020613eca8339815191529109600080516020613eca833981519152838309600080516020613eca83398151915290840990600080516020613eca833981519152910991600080516020613eca833981519152910990600080516020613eca833981519152910990600080516020613eca833981519152910990565b604051606091821b6001600160601b031916602082019081526034808301949094529281529081016001600160401b038111828210176107165760405251902090565b6001600160a01b039091168152602081019190915260400190565b15613cda57565b606460405162461bcd60e51b815260206004820152602060248201527f636f756c64206e6f742073656e6420636f6c6c61746572616c20746f6b656e736044820152fd5b919291906001600160a01b038216156112a65761212893613d3e91611896565b91611445565b91906001600160a01b0383161561128e57612128926000604051612156816106fb565b15613d6e57565b60405162461bcd60e51b815260206004820152602560248201527f726573756c7420666f7220636f6e646974696f6e206e6f74207265636569766560448201526419081e595d60da1b6064820152608490fd5b8115612294570490565b15613dd257565b60405162461bcd60e51b815260206004820152602b60248201527f636f756c64206e6f74207472616e73666572207061796f757420746f206d657360448201526a39b0b3b29039b2b73232b960a91b6064820152608490fd5b949392916040926121089287526060602088015260608701916120be56fe4a39dc06d4c0dbc64b70af90fd698a233a518aa5d07e595d983b8c0526c8f7fb2e6bb91f8cbcda0c93623c54d0403a43514fabc40084ec96b6d5379a74786298c3d58168c5ae7397731d063d5bbf3d657854427343f4c083240f7aacaa2d0f626f13ca62553fcc2bcd2372180a43949c1e4cebba603901ede2f4e14f36b282ca30644e72e131a029b85045b68181585d97816a916871ca8d3c208c16d87cfd472682012a4a4f1973119f1c9b90745d1bd91fa2bab387344f044cb3586864d18da164736f6c6343000814000a",
  "linkReferences": {},
  "deployedLinkReferences": {}
}