{
  "_format": "hh-sol-artifact-1",
  "contractName": "MarketFactory",
  "sourceName": "contracts/MarketFactory.sol",
  "abi": [
    {
      "inputs": [
        {
          "internalType": "address",
          "name": "_liquidityPool",
          "type": "address"
        },
        {
          "internalType": "address",
          "name": "_whitelist",
          "type": "address"
        },
        {
          "internalType": "address",
          "name": "_resultsConsumer",
          "type": "address"
        },
        {
          "internalType": "address",
          "name": "_usdc",
          "type": "address"
        },
        {
          "internalType": "address",
          "name": "_conditionalTokens",
          "type": "address"
        },
        {
          "internalType": "address",
          "name": "_lmsrFactory",
          "type": "address"
        },
        {
          "internalType": "address",
          "name": "_roundConsumer",
          "type": "address"
        }
      ],
      "stateMutability": "nonpayable",
      "type": "constructor"
    },
    {
      "inputs": [],
      "name": "FailedDeployment",
      "type": "error"
    },
    {
      "inputs": [
        {
          "internalType": "uint256",
          "name": "balance",
          "type": "uint256"
        },
        {
          "internalType": "uint256",
          "name": "needed",
          "type": "uint256"
        }
      ],
      "name": "InsufficientBalance",
      "type": "error"
    },
    {
      "inputs": [
        {
          "internalType": "address",
          "name": "owner",
          "type": "address"
        }
      ],
      "name": "OwnableInvalidOwner",
      "type": "error"
    },
    {
      "inputs": [
        {
          "internalType": "address",
          "name": "account",
          "type": "address"
        }
      ],
      "name": "OwnableUnauthorizedAccount",
      "type": "error"
    },
    {
      "anonymous": false,
      "inputs": [
        {
          "indexed": true,
          "internalType": "address",
          "name": "previousOwner",
          "type": "address"
        },
        {
          "indexed": true,
          "internalType": "address",
          "name": "newOwner",
          "type": "address"
        }
      ],
      "name": "OwnershipTransferred",
      "type": "event"
    },
    {
      "anonymous": false,
      "inputs": [
        {
          "indexed": false,
          "internalType": "uint256",
          "name": "amount",
          "type": "uint256"
        }
      ],
      "name": "PlatformProfitAdded",
      "type": "event"
    },
    {
      "anonymous": false,
      "inputs": [
        {
          "indexed": false,
          "internalType": "uint256",
          "name": "matchId",
          "type": "uint256"
        },
        {
          "indexed": false,
          "internalType": "address",
          "name": "marketAddress",
          "type": "address"
        },
        {
          "indexed": false,
          "internalType": "uint256",
          "name": "matchTimestamp",
          "type": "uint256"
        }
      ],
      "name": "PredictionMarketDeployed",
      "type": "event"
    },
    {
      "anonymous": false,
      "inputs": [
        {
          "indexed": false,
          "internalType": "uint256",
          "name": "matchId",
          "type": "uint256"
        },
        {
          "indexed": false,
          "internalType": "uint8",
          "name": "outcome",
          "type": "uint8"
        }
      ],
      "name": "PredictionMarketResolved",
      "type": "event"
    },
    {
      "anonymous": false,
      "inputs": [
        {
          "indexed": true,
          "internalType": "uint256",
          "name": "tournamentId",
          "type": "uint256"
        }
      ],
      "name": "RoundProcessingFailed",
      "type": "event"
    },
    {
      "anonymous": false,
      "inputs": [
        {
          "indexed": true,
          "internalType": "uint256",
          "name": "tournamentId",
          "type": "uint256"
        }
      ],
      "name": "RoundQueued",
      "type": "event"
    },
    {
      "anonymous": false,
      "inputs": [
        {
          "indexed": true,
          "internalType": "uint256",
          "name": "tournamentId",
          "type": "uint256"
        },
        {
          "indexed": true,
          "internalType": "address",
          "name": "marketAddress",
          "type": "address"
        }
      ],
      "name": "TournamentDeployed",
      "type": "event"
    },
    {
      "inputs": [],
      "name": "MATCH_DURATION",
      "outputs": [
        {
          "internalType": "uint256",
          "name": "",
          "type": "uint256"
        }
      ],
      "stateMutability": "view",
      "type": "function"
    },
    {
      "inputs": [],
      "name": "RESOLUTION_COOLDOWN",
      "outputs": [
        {
          "internalType": "uint256",
          "name": "",
          "type": "uint256"
        }
      ],
      "stateMutability": "view",
      "type": "function"
    },
    {
      "inputs": [],
      "name": "ROUND_COOLDOWN",
      "outputs": [
        {
          "internalType": "uint256",
          "name": "",
          "type": "uint256"
        }
      ],
      "stateMutability": "view",
      "type": "function"
    },
    {
      "inputs": [
        {
          "internalType": "uint256",
          "name": "tid",
          "type": "uint256"
        }
      ],
      "name": "_processSingleRound",
      "outputs": [],
      "stateMutability": "nonpayable",
      "type": "function"
    },
    {
      "inputs": [],
      "name": "acceptRoundConsumerOwnership",
      "outputs": [],
      "stateMutability": "nonpayable",
      "type": "function"
    },
    {
      "inputs": [
        {
          "internalType": "uint256",
          "name": "",
          "type": "uint256"
        }
      ],
      "name": "activeMatches",
      "outputs": [
        {
          "internalType": "uint256",
          "name": "",
          "type": "uint256"
        }
      ],
      "stateMutability": "view",
      "type": "function"
    },
    {
      "inputs": [
        {
          "internalType": "uint256",
          "name": "",
          "type": "uint256"
        }
      ],
      "name": "activeTournaments",
      "outputs": [
        {
          "internalType": "uint256",
          "name": "",
          "type": "uint256"
        }
      ],
      "stateMutability": "view",
      "type": "function"
    },
    {
      "inputs": [
        {
          "internalType": "uint256",
          "name": "amount",
          "type": "uint256"
        }
      ],
      "name": "addToPlatformProfit",
      "outputs": [],
      "stateMutability": "nonpayable",
      "type": "function"
    },
    {
      "inputs": [
        {
          "internalType": "uint256",
          "name": "",
          "type": "uint256"
        }
      ],
      "name": "allMatchIds",
      "outputs": [
        {
          "internalType": "uint256",
          "name": "",
          "type": "uint256"
        }
      ],
      "stateMutability": "view",
      "type": "function"
    },
    {
      "inputs": [],
      "name": "botAddress",
      "outputs": [
        {
          "internalType": "address",
          "name": "",
          "type": "address"
        }
      ],
      "stateMutability": "view",
      "type": "function"
    },
    {
      "inputs": [
        {
          "internalType": "bytes",
          "name": "",
          "type": "bytes"
        }
      ],
      "name": "checkUpkeep",
      "outputs": [
        {
          "internalType": "bool",
          "name": "upkeepNeeded",
          "type": "bool"
        },
        {
          "internalType": "bytes",
          "name": "performData",
          "type": "bytes"
        }
      ],
      "stateMutability": "view",
      "type": "function"
    },
    {
      "inputs": [],
      "name": "conditionalTokens",
      "outputs": [
        {
          "internalType": "contract ConditionalTokens",
          "name": "",
          "type": "address"
        }
      ],
      "stateMutability": "view",
      "type": "function"
    },
    {
      "inputs": [
        {
          "internalType": "uint256",
          "name": "matchId",
          "type": "uint256"
        },
        {
          "internalType": "uint256",
          "name": "matchTimestamp",
          "type": "uint256"
        }
      ],
      "name": "deployPredictionMarket",
      "outputs": [],
      "stateMutability": "nonpayable",
      "type": "function"
    },
    {
      "inputs": [
        {
          "internalType": "uint256",
          "name": "tournamentId",
          "type": "uint256"
        },
        {
          "internalType": "uint256[]",
          "name": "teamIds",
          "type": "uint256[]"
        },
        {
          "internalType": "uint256",
          "name": "season",
          "type": "uint256"
        }
      ],
      "name": "deployTournament",
      "outputs": [],
      "stateMutability": "nonpayable",
      "type": "function"
    },
    {
      "inputs": [
        {
          "internalType": "uint256",
          "name": "",
          "type": "uint256"
        }
      ],
      "name": "deploymentTimestamps",
      "outputs": [
        {
          "internalType": "uint256",
          "name": "",
          "type": "uint256"
        }
      ],
      "stateMutability": "view",
      "type": "function"
    },
    {
      "inputs": [
        {
          "internalType": "uint256",
          "name": "",
          "type": "uint256"
        }
      ],
      "name": "fixtureTs",
      "outputs": [
        {
          "internalType": "uint256",
          "name": "",
          "type": "uint256"
        }
      ],
      "stateMutability": "view",
      "type": "function"
    },
    {
      "inputs": [],
      "name": "getActiveMatches",
      "outputs": [
        {
          "internalType": "uint256[]",
          "name": "",
          "type": "uint256[]"
        }
      ],
      "stateMutability": "view",
      "type": "function"
    },
    {
      "inputs": [],
      "name": "getActiveTournaments",
      "outputs": [
        {
          "internalType": "uint256[]",
          "name": "",
          "type": "uint256[]"
        }
      ],
      "stateMutability": "view",
      "type": "function"
    },
    {
      "inputs": [
        {
          "internalType": "uint256",
          "name": "matchId",
          "type": "uint256"
        }
      ],
      "name": "getPredictionMarket",
      "outputs": [
        {
          "internalType": "address",
          "name": "",
          "type": "address"
        }
      ],
      "stateMutability": "view",
      "type": "function"
    },
    {
      "inputs": [
        {
          "internalType": "uint256",
          "name": "tournamentId",
          "type": "uint256"
        }
      ],
      "name": "getTournamentMarket",
      "outputs": [
        {
          "internalType": "address",
          "name": "",
          "type": "address"
        }
      ],
      "stateMutability": "view",
      "type": "function"
    },
    {
      "inputs": [],
      "name": "initialize",
      "outputs": [],
      "stateMutability": "nonpayable",
      "type": "function"
    },
    {
      "inputs": [],
      "name": "initialized",
      "outputs": [
        {
          "internalType": "bool",
          "name": "",
          "type": "bool"
        }
      ],
      "stateMutability": "view",
      "type": "function"
    },
    {
      "inputs": [
        {
          "internalType": "uint256",
          "name": "",
          "type": "uint256"
        }
      ],
      "name": "lastResolutionAttempt",
      "outputs": [
        {
          "internalType": "uint256",
          "name": "",
          "type": "uint256"
        }
      ],
      "stateMutability": "view",
      "type": "function"
    },
    {
      "inputs": [
        {
          "internalType": "uint256",
          "name": "",
          "type": "uint256"
        }
      ],
      "name": "lastRoundFetch",
      "outputs": [
        {
          "internalType": "uint256",
          "name": "",
          "type": "uint256"
        }
      ],
      "stateMutability": "view",
      "type": "function"
    },
    {
      "inputs": [],
      "name": "liquidityPool",
      "outputs": [
        {
          "internalType": "contract ILiquidityPool",
          "name": "",
          "type": "address"
        }
      ],
      "stateMutability": "view",
      "type": "function"
    },
    {
      "inputs": [],
      "name": "lmsrFactory",
      "outputs": [
        {
          "internalType": "contract LMSRMarketMakerFactory",
          "name": "",
          "type": "address"
        }
      ],
      "stateMutability": "view",
      "type": "function"
    },
    {
      "inputs": [
        {
          "internalType": "uint256",
          "name": "",
          "type": "uint256"
        }
      ],
      "name": "lmsrMarketMakers",
      "outputs": [
        {
          "internalType": "address",
          "name": "",
          "type": "address"
        }
      ],
      "stateMutability": "view",
      "type": "function"
    },
    {
      "inputs": [
        {
          "internalType": "uint256",
          "name": "",
          "type": "uint256"
        }
      ],
      "name": "matchConditionIds",
      "outputs": [
        {
          "internalType": "bytes32",
          "name": "",
          "type": "bytes32"
        }
      ],
      "stateMutability": "view",
      "type": "function"
    },
    {
      "inputs": [
        {
          "internalType": "uint256",
          "name": "",
          "type": "uint256"
        }
      ],
      "name": "matchTimestamps",
      "outputs": [
        {
          "internalType": "uint256",
          "name": "",
          "type": "uint256"
        }
      ],
      "stateMutability": "view",
      "type": "function"
    },
    {
      "inputs": [
        {
          "internalType": "uint256",
          "name": "tournamentId",
          "type": "uint256"
        }
      ],
      "name": "onRawDataReady",
      "outputs": [],
      "stateMutability": "nonpayable",
      "type": "function"
    },
    {
      "inputs": [],
      "name": "owner",
      "outputs": [
        {
          "internalType": "address",
          "name": "",
          "type": "address"
        }
      ],
      "stateMutability": "view",
      "type": "function"
    },
    {
      "inputs": [
        {
          "internalType": "uint256",
          "name": "",
          "type": "uint256"
        }
      ],
      "name": "pendingRounds",
      "outputs": [
        {
          "internalType": "uint256",
          "name": "",
          "type": "uint256"
        }
      ],
      "stateMutability": "view",
      "type": "function"
    },
    {
      "inputs": [
        {
          "internalType": "bytes",
          "name": "performData",
          "type": "bytes"
        }
      ],
      "name": "performUpkeep",
      "outputs": [],
      "stateMutability": "nonpayable",
      "type": "function"
    },
    {
      "inputs": [],
      "name": "platformProfitPool",
      "outputs": [
        {
          "internalType": "uint256",
          "name": "",
          "type": "uint256"
        }
      ],
      "stateMutability": "view",
      "type": "function"
    },
    {
      "inputs": [],
      "name": "predictionMarketTemplate",
      "outputs": [
        {
          "internalType": "address",
          "name": "",
          "type": "address"
        }
      ],
      "stateMutability": "view",
      "type": "function"
    },
    {
      "inputs": [
        {
          "internalType": "uint256",
          "name": "",
          "type": "uint256"
        }
      ],
      "name": "predictionMarkets",
      "outputs": [
        {
          "internalType": "address",
          "name": "",
          "type": "address"
        }
      ],
      "stateMutability": "view",
      "type": "function"
    },
    {
      "inputs": [
        {
          "internalType": "uint256",
          "name": "tournamentId",
          "type": "uint256"
        }
      ],
      "name": "removeActiveTournament",
      "outputs": [],
      "stateMutability": "nonpayable",
      "type": "function"
    },
    {
      "inputs": [],
      "name": "renounceOwnership",
      "outputs": [],
      "stateMutability": "nonpayable",
      "type": "function"
    },
    {
      "inputs": [],
      "name": "resultsConsumer",
      "outputs": [
        {
          "internalType": "contract IResultsConsumer",
          "name": "",
          "type": "address"
        }
      ],
      "stateMutability": "view",
      "type": "function"
    },
    {
      "inputs": [],
      "name": "roundConsumer",
      "outputs": [
        {
          "internalType": "contract RoundConsumer",
          "name": "",
          "type": "address"
        }
      ],
      "stateMutability": "view",
      "type": "function"
    },
    {
      "inputs": [
        {
          "internalType": "uint256",
          "name": "",
          "type": "uint256"
        }
      ],
      "name": "roundReady",
      "outputs": [
        {
          "internalType": "bool",
          "name": "",
          "type": "bool"
        }
      ],
      "stateMutability": "view",
      "type": "function"
    },
    {
      "inputs": [
        {
          "internalType": "address",
          "name": "_botAddress",
          "type": "address"
        }
      ],
      "name": "setBotAddress",
      "outputs": [],
      "stateMutability": "nonpayable",
      "type": "function"
    },
    {
      "inputs": [
        {
          "internalType": "address",
          "name": "_roundConsumer",
          "type": "address"
        }
      ],
      "name": "setRoundConsumer",
      "outputs": [],
      "stateMutability": "nonpayable",
      "type": "function"
    },
    {
      "inputs": [
        {
          "internalType": "uint256",
          "name": "",
          "type": "uint256"
        }
      ],
      "name": "tournamentFixturesToResolve",
      "outputs": [
        {
          "internalType": "uint256",
          "name": "",
          "type": "uint256"
        }
      ],
      "stateMutability": "view",
      "type": "function"
    },
    {
      "inputs": [],
      "name": "tournamentMarketTemplate",
      "outputs": [
        {
          "internalType": "address",
          "name": "",
          "type": "address"
        }
      ],
      "stateMutability": "view",
      "type": "function"
    },
    {
      "inputs": [
        {
          "internalType": "uint256",
          "name": "",
          "type": "uint256"
        }
      ],
      "name": "tournamentMarkets",
      "outputs": [
        {
          "internalType": "address",
          "name": "",
          "type": "address"
        }
      ],
      "stateMutability": "view",
      "type": "function"
    },
    {
      "inputs": [
        {
          "internalType": "uint256",
          "name": "",
          "type": "uint256"
        }
      ],
      "name": "tournamentSeason",
      "outputs": [
        {
          "internalType": "uint256",
          "name": "",
          "type": "uint256"
        }
      ],
      "stateMutability": "view",
      "type": "function"
    },
    {
      "inputs": [
        {
          "internalType": "address",
          "name": "newOwner",
          "type": "address"
        }
      ],
      "name": "transferOwnership",
      "outputs": [],
      "stateMutability": "nonpayable",
      "type": "function"
    },
    {
      "inputs": [],
      "name": "usdc",
      "outputs": [
        {
          "internalType": "contract IERC20",
          "name": "",
          "type": "address"
        }
      ],
      "stateMutability": "view",
      "type": "function"
    },
    {
      "inputs": [
        {
          "internalType": "address",
          "name": "user",
          "type": "address"
        }
      ],
      "name": "verifyUser",
      "outputs": [],
      "stateMutability": "nonpayable",
      "type": "function"
    },
    {
      "inputs": [],
      "name": "whitelist",
      "outputs": [
        {
          "internalType": "contract Whitelist",
          "name": "",
          "type": "address"
        }
      ],
      "stateMutability": "view",
      "type": "function"
    },
    {
      "inputs": [
        {
          "internalType": "uint256",
          "name": "amount",
          "type": "uint256"
        }
      ],
      "name": "withdrawPlatformProfit",
      "outputs": [],
      "stateMutability": "nonpayable",
      "type": "function"
    }
  ],
  "bytecode": "0x6080346200040557601f6200b0ab38819003918201601f1916830192916001600160401b0391828511848610176200040a578160e092859260409788528339810103126200040557620000528262000420565b906020906200006382850162000420565b936200007186820162000420565b92620000806060830162000420565b916200008f6080820162000420565b620000ab60c0620000a360a0850162000420565b930162000420565b933315620003ed5760008054336001600160a01b0319808316821784558d51909c6001600160a01b039c949b94919390928d929183167f8be0079c531659141344cd1fd0a4f28419497f9722a3daafe3b4186f6b6457e08e80a316918215620003ab57508a1691821562000367578a1692831562000323578a16938415620002df578a1694851562000291578a169586156200024e575090899695949392918b60105416176010558a601154161760115589601254161760125588601454161760145587601554161760155586601654161760165516806200023e575b50845161349480820190828210848311176200022a57908291620040de8339039083f0801562000220578316846017541617601755845190613b3980830191838310908311176200020c57908291620075728339039082f09081156200020157501690601854161760185551613ca89081620004368239f35b8451903d90823e3d90fd5b634e487b7160e01b84526041600452602484fd5b85513d84823e3d90fd5b634e487b7160e01b85526041600452602485fd5b8460135416176013553862000188565b6064908d519062461bcd60e51b82526004820152601b60248201527f496e76616c6964204c4d5352466163746f7279206164647265737300000000006044820152fd5b8c5162461bcd60e51b815260048101889052602160248201527f496e76616c696420436f6e646974696f6e616c546f6b656e73206164647265736044820152607360f81b6064820152608490fd5b8c5162461bcd60e51b815260048101889052601460248201527f496e76616c6964205553444320616464726573730000000000000000000000006044820152606490fd5b8c5162461bcd60e51b815260048101889052601f60248201527f496e76616c696420526573756c7473436f6e73756d65722061646472657373006044820152606490fd5b8c5162461bcd60e51b815260048101889052601960248201527f496e76616c69642057686974656c6973742061646472657373000000000000006044820152606490fd5b62461bcd60e51b815260048101889052601d60248201527f496e76616c6964204c6971756964697479506f6f6c20616464726573730000006044820152606490fd5b8951631e4fbdf760e01b815260006004820152602490fd5b600080fd5b634e487b7160e01b600052604160045260246000fd5b51906001600160a01b0382168203620004055756fe60e080604052600436101561001357600080fd5b600060a05260003560e01c908163043a86821461366d575080630442a0571461363f578063051d6e30146135ac57806309870f89146135465780631044880f1461345d578063158ef93e1461343857806317f528df1461340a57806319f87d66146133dc5780631aad2a98146132ce578063285d033e1461328f5780632d4f40c6146131de5780633e413bee146131b35780634585e33b146122c85780634bf4f4231461229d5780634d8131201461224d5780634f90ff9c1461222d57806354f276b9146122045780635531407b146121a7578063565cb8fa1461217c57806357a2149e146121495780635bd9e2991461211e5780635fabcef4146120e857806360d23e8d14611a1a57806364b22bac146119ef5780636581d4a7146119c4578063665a11ca14611999578063692734fe146119245780636e04ff0d14611442578063715018a6146113f557806377988c25146113d55780637b2655821461132d5780638129fc1c14611205578063867fbf5f146111cf578063889fbfaa146111995780638d3bf1b31461117a5780638da5cb5b1461115157806393e59dc11461112657806395baa028146110fd5780639e2f0fcf14610dfe578063af3d6ab614610ddf578063bcda266714610db1578063c441544614610d88578063ca78210d14610ce5578063ce1e6fcb14610cba578063d4e7729314610c8f578063db7dc91d146104cd578063e7813ce41461049f578063f1534fcd14610471578063f27f6f7a1461043a578063f2fde38b146103bf578063fb3776891461039d5763fe80d5091461026057600080fd5b346103975760208060031936011261039757600435908115610354576014546040516323b872dd60e01b81523360048201523060248201526044810184905260a05190918391839160649183916001600160a01b03165af180156103475761031a575b50600f5491808301809311610304577fec3d8e712434bc641261268bdddd841bdb3626da155721dda83c7064dab087d692600f55604051908152a160a05180f35b634e487b7160e01b600052601160045260246000fd5b61033990823d8411610340575b610331818361382d565b8101906138cc565b50386102c3565b503d610327565b6040513d60a051823e3d90fd5b6064906040519062461bcd60e51b825280600483015260248201527f416d6f756e74206d7573742062652067726561746572207468616e207a65726f6044820152fd5b60a05180fd5b34610397576020366003190112610397576103b9600435613921565b60a05180f35b34610397576020366003190112610397576004356001600160a01b0381811691829003610397576103ee6137b8565b8115610420576000548260018060a01b031982161760005516600080516020613c7c833981519152600080a360a05180f35b604051631e4fbdf760e01b815260a0516004820152602490fd5b3461039757602036600319011261039757600435600c54811015610397576104636020916136e1565b90546040519160031b1c8152f35b346103975760203660031901126103975760043560a0515260066020526020604060a0512054604051908152f35b346103975760203660031901126103975760043560a0515260056020526020604060a0512054604051908152f35b34610397576040366003190112610397576104e66137b8565b60a08051600435905260016020525160409020546001600160a01b0316610c52576010546001600160a01b0316803b1561039757604051906305430f9560e11b825264037e11d60060048301528160248160a05180945af1801561034757610c3d575b5060145460165460405163095ea7b360e01b81526001600160a01b03918216600482015264037e11d600602482015260a051909260209284926044928492165af1801561034757610c1e575b5060175460a08051608883901c62ffffff16763d602d80600a3d3981f3363d3d373d3d3d363d7300000017905260789190911b6001600160781b0319166e5af43d82803e903d91602b57fd5bf317602052516001600160a01b0390603790600990f0168015610c0c5760405160208101906d026b0ba31b4102932b9bab63a1d160951b8252600435602e820152602e815261062f816137f7565b5190206015546001600160a01b0316803b15610397576040519063365bb9d560e21b8252306004830152826024830152600360448301528160648160a05180945af1801561034757610bf7575b50601554604051634296357160e11b815230600482015260248101839052600360448201529190602090839060649082906001600160a01b03165afa9182156103475760a05192610bbe575b508115610b805760043560a05152600360205281604060a0512055604051916106f083613812565b60018352602036818501378061070584613867565b52601654601554601454601154604051637c8b2c0760e01b81526001600160a01b039384166004820152918316602483015260c06044830152865160c48301819052919693831693879360e485019392169160209091019060005b818110610b67575050508260209492819260006064840152608483015264037e11d60060a4830152039160a051905af19283156103475760a05193610b36575b5060a0805160043590526002602052516040812080546001600160a01b0319166001600160a01b038681169190911790915560105460145460155483169490831693919092169190873b15610a8b575060405163380e90bd60e01b81526004803590820152602481019590955260448501526001600160a01b0385166064850152608484015260a483015260c482015260a0518160e48183875af1801561034757610b21575b506019546001600160a01b03168015610acd57823b1561039757604051906316a7a06360e11b8252600482015260a0518160248183875af1801561034757610ab8575b5060405161089681613812565b6001815260203681830137826108ab82613867565b526011546001600160a01b031690813b15610397576040518092637f64978360e01b825281806108e160a0519560048301613888565b039160a051905af1801561034757610aa3575b506001600160a01b0381163b156103975760405163f2fde38b60e01b81526004810183905260a05190918290602490829084906001600160a01b03165af1801561034757610a8e575b506010546001600160a01b0316803b15610397576040519063f2862e6760e01b82528260048301528160248160a05180945af1801561034757610a78575b5060a0805160043590526001602052516040902080546001600160a01b03191682179055600c54600160401b9081811015610a62576109c38160016109df9301600c556136e1565b6004929192359083549060031b91821b91600019901b19161790565b9055600b5490811015610a62577f58bd247b7f302594aff9cee4341ccc0389b32ad4fcc57882996a93e5a85783d591610a236109c383600160609501600b556136c6565b905560043560a05152600460205260243560a051816040822055600560205260404291205560405191600435835260208301526040820152a160a05180f35b634e487b7160e01b600052604160045260246000fd5b610a81906137e4565b60a051801561097b575b80fd5b610a97906137e4565b60a051801561093d5780fd5b610aac906137e4565b60a05180156108f45780fd5b610ac1906137e4565b60a05180156108895780fd5b60405162461bcd60e51b815260206004820152602660248201527f426f7420616464726573732063616e6e6f7420626520746865207a65726f206160448201526564647265737360d01b6064820152608490fd5b610b2a906137e4565b60a05180156108465780fd5b610b5991935060203d602011610b60575b610b51818361382d565b8101906138e4565b91846107a0565b503d610b47565b8251855289955060209485019490920191600101610760565b60405162461bcd60e51b815260206004820152601660248201527510dbdb991a5d1a5bdb881251081b9bdd08199bdd5b9960521b6044820152606490fd5b9091506020813d602011610bef575b81610bda6020938361382d565b81010312610bea575190836106c8565b600080fd5b3d9150610bcd565b610c00906137e4565b60a051801561067c5780fd5b60405163b06ebf3d60e01b8152600490fd5b610c369060203d60201161034057610331818361382d565b5080610595565b610c46906137e4565b60a05180156105495780fd5b60405162461bcd60e51b81526020600482015260156024820152744d61726b657420616c72656164792065786973747360581b6044820152606490fd5b346103975760a05180600319360112610a8b576016546040516001600160a01b039091168152602090f35b346103975760a05180600319360112610a8b576018546040516001600160a01b039091168152602090f35b34610397576020366003190112610397576004358060a05152600160205260018060a01b0380604060a05120541615610d335760209160a0515260018252604060a051205416604051908152f35b60405162461bcd60e51b815260206004820152602760248201527f4d61726b657420646f6573206e6f7420657869737420666f722074686973206d604482015266185d18da08125160ca1b6064820152608490fd5b3461039757602036600319011261039757600435600e5481101561039757610463602091613695565b346103975760203660031901126103975760043560a05152601a6020526020604060a0512054604051908152f35b346103975760a05180600319360112610a8b57602060405161012c8152f35b346103975760203660031901126103975760043560a05152600d60205260018060a01b03604060a05120541660018060a01b0360135416604051906380158e9d60e01b825260043560048301528160248160a051935afa9081156103475760a0519161107c575b5080519160038360021c93161580611071575b1561103b57600119830192831161102357602082015160e01c90602483015160e01c9060a0515b8560011c8110610f1f5760a08051600435905260096020525160408120805460ff191690556013546001600160a01b031690813b15610a8b575060405190632779a42960e21b825260043560048301528160248160a05180945af1801561034757610f0a5760a05180f35b610f13906137e4565b60a05180156103b95780fd5b60208160020160021b8601015160e01c9060206002828960011c010160021b8701015160e01c600186146001871461101a575b843b1561039757604051634d4fbc2360e11b8152600481018590528387146024820152901515604482015260a0518160648183895af1801561034757611005575b508260a05152601a602052604060a05120805415610fbd575b5050610fb89150613a69565b610e9f565b55601b918254600160401b811015610a6257610fe581610fb8956001610ffc940190556136fc565b819391549060031b91821b91600019901b19161790565b90558780610fac565b61100e906137e4565b60a0518015610f935780fd5b50848214610f52565b634e487b7160e01b60a051526011600452602460a051fd5b60405162461bcd60e51b815260206004820152600e60248201526d42616420726f756e64206461746160901b6044820152606490fd5b506002831015610e78565b903d8091833e61108c818361382d565b8101906020818303126103975780516001600160401b039182821161039757019082601f83011215610397578151908111610a6257604051926110d9601f8301601f19166020018561382d565b81845260208284010111610397576110f79160208085019101613795565b82610e65565b3461039757602036600319011261039757600435601b54811015610397576104636020916136fc565b346103975760a05180600319360112610a8b576011546040516001600160a01b039091168152602090f35b346103975760a05180600319360112610a8b57546040516001600160a01b039091168152602090f35b346103975760a05180600319360112610a8b576020604051611c208152f35b346103975760203660031901126103975760043560a05152600d602052602060018060a01b03604060a051205416604051908152f35b346103975760203660031901126103975760043560a051526001602052602060018060a01b03604060a051205416604051908152f35b346103975760a05180600319360112610a8b576112206137b8565b601c5460ff81166112f25760ff1916600117601c556010546001600160a01b03908116803b15610397576040519063f2862e6760e01b82523060048301528160248160a05180945af18015610347576112dd575b506040519061128282613812565b60018252602036818401373061129783613867565b526011541690813b15610397576040518092637f64978360e01b825281806112c560a0519560048301613888565b039160a051905af1801561034757610f0a5760a05180f35b6112e6906137e4565b60a05180156112745780fd5b60405162461bcd60e51b8152602060048201526013602482015272105b1c9958591e481a5b9a5d1a585b1a5e9959606a1b6044820152606490fd5b34610397576020366003190112610397576004358060a05152600d60205260018060a01b0380604060a0512054161561137b5760209160a05152600d8252604060a051205416604051908152f35b60405162461bcd60e51b815260206004820152602c60248201527f4d61726b657420646f6573206e6f7420657869737420666f722074686973207460448201526b1bdd5c9b985b595b9d08125160a21b6064820152608490fd5b346103975760a05180600319360112610a8b576020600f54604051908152f35b346103975760a05180600319360112610a8b576114106137b8565b600080546001600160a01b0319811682556001600160a01b0316600080516020613c7c8339815191528280a360a05180f35b346103975761145036613717565b5050600c5461145e81613a37565b90601b5461146b81613a37565b92600b549361147985613a37565b92600e549561148787613a37565b9660a05190819282948399845b81811061188c57505060a0515b81811061180257505060a0515b8181106117a157505060a0515b818110611724575050604051968793600a54808a52856020809b01600a6000528b6000209260005b8d82821061170e575050506114fa9250038661382d565b8215801590611705575b80156116fc575b80156116f2575b80156116e9575b156116b55760019761152a84613a37565b9361153483613a37565b9861153e85613a37565b9661154881613a37565b9960a0515b8281106116965750505060a0515b8281106116785750505060a0515b82811061165a5750505060a0515b818110611636575050869750611600936115e460a096946115d460609a956115c56115b26115f4976040519c8d9a8b015260c08a0190613761565b601f19998a8a83030160408b0152613761565b9088888303018d890152613761565b9086868303016080870152613761565b90848483030160a0850152613761565b0390810183528261382d565b6116286040519485931515845260408185015282519283918260408701528686019101613795565b601f01601f19168101030190f35b80611644611655928c613874565b5161164f8287613874565b52613a69565b611577565b806116686116739284613874565b5161164f828c613874565b611569565b806116866116919284613874565b5161164f828a613874565b61155b565b808c61164f826116a96116b09587613874565b5192613874565b61154d565b5050505050505050905060a051604051908282019180831060018060401b03841117610a6257606092604052818152611600565b50831515611519565b5084511515611512565b5081151561150b565b50801515611504565b855484526001958601958b9550930192016114e3565b61172d81613695565b90549060031b1c8060a05152600760205260a05160408120549062015180820180921161178a57508b9042101561176f575b505061176a90613a69565b6114bb565b996117829161164f8261176a959d613874565b98908a61175f565b634e487b7160e01b9052601160045260a051602490fd5b6117aa816136c6565b90549060031b1c8060a05152600560205260a051604081205490624f1a00820180921161178a575042116117e8575b506117e390613a69565b6114ae565b866117fb9161164f6117e394998d613874565b95906117d9565b61180b816136fc565b90549060031b1c8060a05152600660205260a05160408120549061012c8201821161178a575061012c014210611863578060a05152601a60205260a051604081205490611c20820180921161178a5750421015611872575b5061186d90613a69565b6114a1565b866118859161164f61186d94998c613874565b9590611863565b611895816136e1565b90549060031b1c8060a05152600660205260a05160408120549061012c8201821161178a575061012c01421061191a578060a05152600460205260a051604081205490611c20820180921161178a57508b904210156118ff575b50506118fa90613a69565b611494565b966119129161164f826118fa959a613874565b95908a6118ef565b506118fa90613a69565b346103975760a05180600319360112610a8b5760405180600e54808252826020809301600e600052836000209260005b858282106119835750505061196b9250038361382d565b61197f604051928284938452830190613761565b0390f35b8554845260019586019588955093019201611954565b346103975760a05180600319360112610a8b576010546040516001600160a01b039091168152602090f35b346103975760a05180600319360112610a8b576017546040516001600160a01b039091168152602090f35b346103975760a05180600319360112610a8b576012546040516001600160a01b039091168152602090f35b34610397576060366003190112610397576001600160401b036024358110610397573660236024350112156103975760243560040135116103975736602480356004013560051b813501011161039757611a726137b8565b60a080516004359052600d6020525160409020546001600160a01b03166120af576010546001600160a01b0316803b1561039757604051906305430f9560e11b82526404a817c80060048301528160248160a05180945af180156103475761209a575b5060145460165460405163095ea7b360e01b81526001600160a01b0391821660048201526404a817c800602482015260a051909260209284926044928492165af180156103475761207b575b5060185460a08051608883901c62ffffff16763d602d80600a3d3981f3363d3d373d3d3d363d7300000017905260789190911b6001600160781b0319166e5af43d82803e903d91602b57fd5bf317602052516001600160a01b0390603790600990f0168015610c0c576040516020810190712a37bab93730b6b2b73a102bb4b73732b91d60711b8252600435603282015260328152611bbf816137f7565b5190206015546001600160a01b0316803b15610397576040519063365bb9d560e21b82528160a051918180611bff60243560040135883060048501613903565b039160a051905af1801561034757612066575b50601554604051634296357160e11b815291906001600160a01b031660208380611c49600460243581013590879030908501613903565b0381845afa9283156103475760a05193612032575b5060405190611c6c82613812565b600182526020820190602036833784611c8484613867565b52601654601454601154604051637c8b2c0760e01b815260048101949094526001600160a01b03918216602485015260c06044850152945160c48401819052929491811693859360e48501939092169160005b81811061201957505050826020949281926000606484015260848301526404a817c80060a4830152039160a051905af19081156103475760a05191611ffa575b506001600160a01b0381163b156103975760405163f2fde38b60e01b81526004810185905260a05181602481836001600160a01b0387165af1801561034757611fe5575b50604051611d6881613812565b600181526020368183013784611d7d82613867565b526011546001600160a01b031690813b15610397576040518092637f64978360e01b82528180611db360a0519560048301613888565b039160a051905af1801561034757611fd0575b506010546014546015546001600160a01b0390811693918116921690863b15610397576040516319a5c98b60e21b8152600480358183015261010060248084019190915235013561010482018190529096906001600160fb1b031061039757610124956024356004013560051b6024803501888a0137604488015260648701526001600160a01b0316608486015260a485015260c484015260e483015260a0519082906004602435013560051b8201829003018183865af1801561034757611fbb575b506010546001600160a01b0316803b15610397576040519063f2862e6760e01b82528260048301528160248160a05180945af1801561034757611fa6575b5060a080516004359052600d602052516040902080546001600160a01b03191682179055600e54600160401b811015610a62576109c3816001611f0d9301600e55613695565b90556040519060a051906004357f4f7f86237091744a7118b348fc137f2cd3b743f5a3a7b256913399a750e42b388380a36004359052600860205260443560a05190806040832055600760205242604083205560018060a01b036013541691823b15610a8b57506320b2154f60e01b8352600435600484015260248301528160448160a05180945af1801561034757610f0a5760a05180f35b611faf906137e4565b60a0518015611ec75780fd5b611fc4906137e4565b60a0518015611e895780fd5b611fd9906137e4565b60a0518015611dc65780fd5b611fee906137e4565b60a0518015611d5b5780fd5b612013915060203d602011610b6057610b51818361382d565b84611d17565b8251855287955060209485019490920191600101611cd7565b9092506020813d60201161205e575b8161204e6020938361382d565b81010312610bea57519184611c5e565b3d9150612041565b61206f906137e4565b60a0518015611c125780fd5b6120939060203d60201161034057610331818361382d565b5080611b21565b6120a3906137e4565b60a0518015611ad55780fd5b60405162461bcd60e51b8152602060048201526011602482015270546f75726e616d656e742065786973747360781b6044820152606490fd5b346103975760203660031901126103975760043560a051526002602052602060018060a01b03604060a051205416604051908152f35b346103975760a05180600319360112610a8b576015546040516001600160a01b039091168152602090f35b346103975760203660031901126103975760043560a051526009602052602060ff604060a0512054166040519015158152f35b346103975760a05180600319360112610a8b576013546040516001600160a01b039091168152602090f35b346103975760a05180600319360112610a8b5760405180600c54808252826020809301600c600052836000209260005b858282106121ee5750505061196b9250038361382d565b85548452600195860195889550930192016121d7565b3461039757602036600319011261039757600435600b54811015610397576104636020916136c6565b346103975760a05180600319360112610a8b576020604051620151808152f35b34610397576020366003190112610397576004356001600160a01b03818116918290036103975761227c6137b8565b6040519161228983613812565b600183526020368185013761129783613867565b346103975760a05180600319360112610a8b576019546040516001600160a01b039091168152602090f35b34610397576122d636613717565b810160a0828203126103975781356001600160401b03811161039757816122fe918401613a78565b9060208301356001600160401b038111610397578161231e918501613a78565b9260408101356001600160401b038111610397578261233e918301613a78565b9060608101356001600160401b038111610397578361235e918301613a78565b9260808201356001600160401b0381116103975761237c9201613a78565b9060a0515b8451811015612796576123948186613874565b518060a05152600660205260a0514260408220556004602052604081205490611c20820180921161178a5750421061275157601254604051632f47996360e21b8152600481018390526001600160a01b0390911690602081602481855afa80156103475760019160a05191612732575b501515036126de57506012546040516338ee5a9360e21b815260048101839052929190606090849060249082906001600160a01b03165afa60a05193816126ab575b5061245b57506124569150613a69565b612381565b60018060a01b03601554168160a0515260036020526124a6602085604060a05120546040519384928392630141320560e21b84526004840190815260ff909116602082015260400190565b0381855afa9081156103475760a05191612679575b50156125ac575b5060a0805182905260016020525160408120546001600160a01b03169390843b15610a8b575060ff6040519163f21ffa6b60e01b835216938460048301528160248160a05180945af1801561034757612597575b5061252081613b06565b1561255d5760407f8e5357198b8c9c6b705306c36d9103b8b29d5ebe4efc43878f0c89b93b28b834916124569482519182526020820152a1613a69565b60405162461bcd60e51b815260206004820152601260248201527113585d18da0814995b5bdd985b0811985a5b60721b6044820152606490fd5b6125a0906137e4565b60a05180156125165780fd5b60405160208101906d026b0ba31b4102932b9bab63a1d160951b8252602e848183015281526125da816137f7565b519020604051906001600160401b036080830190811190831117610a625760808201604052600382526060366020840137600161261a60ff881684613874565b52823b1561039757604051928391633124a62b60e21b8352600483015260406024830152818061265160a051956044830190613761565b039160a051905af1801561034757156124c25761266d906137e4565b60a05180156124c25780fd5b90506020813d6020116126a3575b816126946020938361382d565b81010312610bea57518a6124bb565b3d9150612687565b6126ce91945060603d6060116126d7575b6126c6818361382d565b810190613ae4565b50509289612446565b503d6126bc565b803b1561039757604051916326b2acc360e01b835260048301528160248160a05180945af1908161271d575b50906124569115600003613a6957613a69565b612726906137e4565b60a051801561270a5780fd5b61274b915060203d60201161034057610331818361382d565b8a612404565b60405162461bcd60e51b815260206004820152601d60248201527f4d61746368206475726174696f6e20686173206e6f74207061737365640000006044820152606490fd5b508460a0515b8351811015612e59576127af8185613874565b518060a05152600660205242604060a051205560018060a01b0360125416604051632f47996360e21b8152826004820152602081602481855afa9081156103475760a05191612e3a575b5015612df157506012546040516338ee5a9360e21b8152600481018390529190606090839060249082906001600160a01b03165afa60a051928360c0528184608052612dc8575b5061285557505061285090613a69565b61279c565b9395909460a09392935196875b600e54811015612da15761287581613695565b90549060031b1c8060a05152600d60205260018060a01b03604060a051205416906040516318fe2af360e21b8152896004820152602081602481865afa9081156103475760a05191612d82575b506128d8575b50506128d390613a69565b612862565b6040516363669aef60e11b8152600481018a9052602081602481865afa9081156103475760a05191612d63575b506040516335e00d9b60e11b8152600481018b905292602084602481845afa9384156103475760a05194612d42575b5083612a41575b803b156103975760405190637af37c0560e01b82528b600483015260ff60c0511660248301528c604483015260805160648301528160848160a05180945af19081612a2c575b50612992575050506128d390613a69565b60019b50909181612a23575b506129ae575b506128d38a6128c8565b8060a05152600760205260a05142604082205560018060a01b0360135416906008602052604081205490823b15610a8b5750604051926320b2154f60e01b8452600484015260248301528160448160a05180945af1801561034757156129a457612a17906137e4565b60a05180156129a45780fd5b9050158b61299e565b612a35906137e4565b60a05180156129815780fd5b60405163129b0ce360e11b8152602081600481855afa9081156103475760a05191612d10575b50604051635dae8c8d60e01b8152602081600481865afa9081156103475760a05191612cde575b5060c05160ff16612c6f576040516352db3ce160e11b8152600481018f9052602081602481875afa9081156103475760a05191612c35575b50905b6040516308c20cad60e41b8152602081600481885afa9081156103475760a05191612c02575b506020612afe612b4792613a37565b936001612b0e60ff831687613874565b52601554604051630141320560e21b8152600481019790975260ff90911660248701526001600160a01b03169491829081906044820190565b0381875afa9081156103475760a05191612bd0575b5015612b6b575b50505061293b565b823b1561039757604051928391633124a62b60e21b83526004830152604060248301528180612ba160a051956044830190613761565b039160a051905af1801561034757612bbb575b8080612b63565b612bc4906137e4565b60a0518015612bb45780fd5b90506020813d602011612bfa575b81612beb6020938361382d565b81010312610bea575138612b5c565b3d9150612bde565b90506020813d602011612c2d575b81612c1d6020938361382d565b81010312610bea57516020612aef565b3d9150612c10565b90506020813d602011612c67575b81612c506020938361382d565b8101031261039757612c6190613ad6565b38612ac6565b3d9150612c43565b6040516352db3ce160e11b81526080516004820152602081602481875afa9081156103475760a05191612ca4575b5090612ac9565b90506020813d602011612cd6575b81612cbf6020938361382d565b8101031261039757612cd090613ad6565b38612c9d565b3d9150612cb2565b90506020813d602011612d08575b81612cf96020938361382d565b81010312610bea57518f612a8e565b3d9150612cec565b90506020813d602011612d3a575b81612d2b6020938361382d565b81010312610bea57518e612a67565b3d9150612d1e565b612d5c91945060203d60201161034057610331818361382d565b928d612934565b612d7c915060203d60201161034057610331818361382d565b8c612905565b612d9b915060203d60201161034057610331818361382d565b8c6128c2565b509490955061285092939196612db8575b50613a69565b612dc190613bae565b5086612db2565b612de291935060603d6060116126d7576126c6818361382d565b939160c0529260805288612840565b803b1561039757604051916326b2acc360e01b835260048301528160248160a05180945af1612e25575b5061285090613a69565b612e2e906137e4565b60a0518015612e1b5780fd5b612e53915060203d60201161034057610331818361382d565b886127f9565b508360a0515b8251811015612fcd57612e728184613874565b518060a0515260058060205260a051604081205490624f1a00820180921161178a57504211612eac575b5050612ea790613a69565b612e5f565b8160a051526001908160205260a05190604082209060018060a01b03199182815416905560205260006040832055600260205260408220908154169055600660205260006040822055816003918260205260006040822055600460205260006040822055905b612f1e575b5050612e9c565b600b80549081831015612fc65785612f35846136c6565b905490861b1c14612f52575050612f4c8391613a69565b90612f12565b60001996955092935085810190811161102357610fe5612f74612f80926136c6565b905490861b1c926136c6565b90558054938415612fb05780612ea7950192612f9b846136c6565b81939154921b1b191690555590858080612f17565b634e487b7160e01b600052603160045260246000fd5b5050612f17565b508260a0515b815181101561306b57612fe68183613874565b518060a05152600760205260a05142604082205560018060a01b0360135416906008602052604081205490823b15610a8b5750604051926320b2154f60e01b8452600484015260248301528160448160a05180945af1801561034757613056575b5061305190613a69565b612fd3565b61305f906137e4565b60a05180156130475780fd5b8260a0515b815181101561317b576130838183613874565b51303b1561039757604051639e2f0fcf60e01b81526004810182905260a051602492919081848183305af19081613166575b5061315b57604051918160a051817f47e36d9ea37994f490e3d591053bc5fc5e0f92d20cfbb47e3d3c104a7fbbf1798280a252600960205260a05160408120805460ff191690556013546001600160a01b03169290833b15610a8b5750908391632779a42960e21b835260048301528160a05180945af1801561034757613146575b5061314190613a69565b613070565b61314f906137e4565b60a05180156131375780fd5b505061314190613a69565b61316f906137e4565b60a05180156130b55780fd5b600a5460a05180600a55816131905760a05180f35b600a9052602060a05120908101905b818110156103b9576000815560010161319f565b346103975760a05180600319360112610a8b576014546040516001600160a01b039091168152602090f35b34610397576020366003190112610397576004356001600160a01b038116908190036103975761320c6137b8565b801561322c57601980546001600160a01b03191691909117905560a05180f35b60405162461bcd60e51b815260206004820152603560248201527f4d61726b6574466163746f72793a20426f7420616464726573732063616e6e6f6044820152747420626520746865207a65726f206164647265737360581b6064820152608490fd5b3461039757602036600319011261039757600435600a5481101561039757600a600052600080516020613c5c8339815191520154604051908152602090f35b34610397576020366003190112610397576004358060a05152600d60205260018060a01b03604060a051205416330361339a5760a0515b600e8054908183101561339157839161331d84613695565b939054600394851b1c1461333c5750505061333790613a69565b613305565b919350916000199182810190811161102357610fe561335d61336992613695565b905490871b1c92613695565b905581548015612fb05781019261337f84613695565b81939154921b1b191690555560a05180f35b505050506103b9565b60405162461bcd60e51b815260206004820152601a60248201527927b7363c903a3432903a37bab93730b6b2b73a1034ba39b2b63360311b6044820152606490fd5b346103975760203660031901126103975760043560a0515260046020526020604060a0512054604051908152f35b346103975760203660031901126103975760043560a0515260036020526020604060a0512054604051908152f35b346103975760a05180600319360112610a8b57602060ff601c54166040519015158152f35b34610397576020366003190112610397576004356134796137b8565b600f548082116134f55781810390811161030457600f5560145460405163a9059cbb60e01b8152336004820152602481019290925260a05160209183916044918391906001600160a01b03165af18015610347576134d75760a05180f35b6134ee9060203d811161034057610331818361382d565b50806103b9565b60405162461bcd60e51b815260206004820152602360248201527f416d6f756e74206578636565647320706c6174666f726d2070726f66697420706044820152621bdbdb60ea1b6064820152608490fd5b346103975760a05180600319360112610a8b576135616137b8565b6013546001600160a01b0316803b1561039757604051906379ba509760e01b82528160048160a05180945af180156103475761359d5760a05180f35b6135a6906137e4565b806103b9565b34610397576020366003190112610397576004356001600160a01b03811690819003610397576135da6137b8565b80156135fa57601380546001600160a01b03191691909117905560a05180f35b60405162461bcd60e51b815260206004820152601d60248201527f496e76616c696420526f756e64436f6e73756d657220616464726573730000006044820152606490fd5b346103975760203660031901126103975760043560a0515260076020526020604060a0512054604051908152f35b34610bea576020366003190112610bea57602090600435600052600882526040600020548152f35b600e548110156136b057600e60005260206000200190600090565b634e487b7160e01b600052603260045260246000fd5b600b548110156136b057600b60005260206000200190600090565b600c548110156136b057600c60005260206000200190600090565b601b548110156136b057601b60005260206000200190600090565b906020600319830112610bea576001600160401b039160043590838211610bea5780602383011215610bea578160040135938411610bea5760248483010111610bea576024019190565b90815180825260208080930193019160005b828110613781575050505090565b835185529381019392810192600101613773565b60005b8381106137a85750506000910152565b8181015183820152602001613798565b6000546001600160a01b031633036137cc57565b60405163118cdaa760e01b8152336004820152602490fd5b6001600160401b038111610a6257604052565b606081019081106001600160401b03821117610a6257604052565b604081019081106001600160401b03821117610a6257604052565b601f909101601f19168101906001600160401b03821190821017610a6257604052565b6001600160401b038111610a625760051b60200190565b8051156136b05760200190565b80518210156136b05760209160051b010190565b6020908160408183019282815285518094520193019160005b8281106138af575050505090565b83516001600160a01b0316855293810193928101926001016138a1565b90816020910312610bea57518015158103610bea5790565b90816020910312610bea57516001600160a01b0381168103610bea5790565b604091949392606082019560018060a01b0316825260208201520152565b6013546001600160a01b0390811633036139fd57600090828252600d602052604082205416156139f957600960205260408120805460ff811615613966575b50505050565b60ff19166001179055600a54600160401b8110156139e5576001810180600a558110156139d157600a8252600080516020613c5c833981519152018290557f7d0aa81802409b7192071df4a878a097b916284c6d918e806260e002d963a40e9080a238808080613960565b634e487b7160e01b82526032600452602482fd5b634e487b7160e01b82526041600452602482fd5b5050565b60405162461bcd60e51b815260206004820152601260248201527127b7363c902937bab73221b7b739bab6b2b960711b6044820152606490fd5b90613a4182613850565b613a4e604051918261382d565b8281528092613a5f601f1991613850565b0190602036910137565b60001981146103045760010190565b81601f82011215610bea57803591613a8f83613850565b92613a9d604051948561382d565b808452602092838086019260051b820101928311610bea578301905b828210613ac7575050505090565b81358152908301908301613ab9565b519060ff82168203610bea57565b90816060910312610bea57613af881613ad6565b916040602083015192015190565b60005b600c80549081831015613ba5578391613b21846136e1565b939054600394851b1c14613b4057505050613b3b90613a69565b613b09565b919350916000199182810190811161030457808203613b81575b505081548015612fb057810192613b70846136e1565b81939154921b1b1916905555600190565b610fe5613b90613b9c926136e1565b905490871b1c926136e1565b90553880613b5a565b50505050600090565b60005b601b9081549182821015613ba5578392613bca836136fc565b949054600395861b1c14613be9575050613be49150613a69565b613bb1565b90916000199182810190811161030457808203613c37575b505081548015612fb057810192613c17846136fc565b81939154921b1b1916905555600052601a60205260006040812055600190565b610fe5613c46613c52926136fc565b905490871b1c926136fc565b90553880613c0156fec65a7bb8d6351c1cf70c95a316cc6a92839c986682d98bc35f958f4883f9d2a88be0079c531659141344cd1fd0a4f28419497f9722a3daafe3b4186f6b6457e0a164736f6c6343000814000a6080806040523461001657613478908161001c8239f35b600080fdfe608080604052600436101561001357600080fd5b60003560e01c90816301ffc9a714612b6c5750806315bd7611146121015780631c371e2b146120dd5780631f21f9af146120b45780632d4f40c614611ff75780632ddc7de714611fd95780632dfc8ee914611fa5578063326209b414611aeb5780633482b64414611aa2578063380e90bd146118be578063392e53cd146118985780633e413bee1461186f578063429c2ed7146118305780634bf4f42314611807578063591e791c146117755780635bd9e2991461174c578063665a11ca14611723578063715018a6146116cb5780638da5cb5b1461169557806399892e4714611677578063a2e3215c146113be578063aaafcf7f14611330578063b06a5c5214611312578063bc197c811461128a578063bf333f2c1461126d578063dbb3f53714611247578063dd9089aa14610b18578063f21ffa6b14610862578063f23a6e611461080d578063f2ccb3971461025a578063f2fde38b1461022f5763ffd4493c1461017f57600080fd5b3461022a57600036600319011261022a5760405180600854808352602080930180916008600052846000209060005b8682821061020d5786866101c482880383612c5a565b604051928392818401908285525180915260408401929160005b8281106101ed57505050500390f35b83516001600160a01b0316855286955093810193928101926001016101de565b83546001600160a01b0316855290930192600192830192016101ae565b600080fd5b3461022a57602036600319011261022a5761025861024b612bbf565b610253612d39565b612d72565b005b3461022a57604036600319011261022a57610273612beb565b60249060ff82359161029a82600754610290828260a01c16612e03565b60a81c1615612e41565b166102a760038210612e87565b6102b2821515612ec5565b60018060a01b03908160055416928260045416600254946040519563856296f760e01b875260006004880152878701526001841b60448701526020958681606481855afa80156105fc5787916000916107dc575b5060405163039dd75360e41b81529384918291610327919060048401613123565b0381845afa9182156105fc576000926107ad575b50604051627eeac760e11b8152868180610359863360048401613123565b0381855afa80156105fc57849160009161077c575b501061073a576040516103cb929161038582612c3f565b6003825260603689840137610399856132bf565b6103a3878461301e565b5287898860065416604051808098819463782d085b60e01b8352866004840152820188613032565b03915afa9384156105fc5760009461070b575b5060008412156106d257803b1561022a57846000916104169483604051809781958294637921219560e11b84523033600486016131cf565b03925af19081156105fc578792610459926106c3575b5086600654169060006040518096819582946315bd761160e01b8452604060048501526044840190613032565b908d83015203925af180156105fc57600090610695575b60009150856104a38660045416610486846132bf565b60405195868094819363a9059cbb60e01b83523360048401613123565b03925af19182156105fc576104ec926104c491600091610668575b506132d0565b6104cd816132bf565b84600052600a87526104e56040600020918254612fac565b90556132bf565b604051918252848201527f59bb1b9bbd3cec3437b204c969642374ba2f0fd9d3b7cfc39b49024d9e60d45460403392a360065416916040519263b20f8e7f60e01b8085526000600486015283858481855afa9485156105fc57600095610639575b50604051908082526001600483015284828581865afa9384156105fc578592600095610608575b50604051809481938252600260048301525afa9283156105fc576000936105be575b6000546040516000805160206133ec83398151915290806105b988888b846132a9565b0390a2005b90809350813d83116105f5575b6105d58183612c5a565b8101031261022a576000805160206133ec83398151915291519184610596565b503d6105cb565b6040513d6000823e3d90fd5b8381949296503d8311610632575b6106208183612c5a565b8101031261022a578491519387610574565b503d610616565b9094508381813d8311610661575b6106518183612c5a565b8101031261022a5751938561054d565b503d610647565b6106889150883d8a1161068e575b6106808183612c5a565b8101906130a7565b896104be565b503d610676565b508481813d83116106bc575b6106ab8183612c5a565b8101031261022a5760009051610470565b503d6106a1565b6106cc90612bfb565b8961042c565b60405162461bcd60e51b8152600481018990526012818b01527124b73b30b634b2103a3930b2329033b0b4b760711b6044820152606490fd5b9093508781813d8311610733575b6107238183612c5a565b8101031261022a575192896103de565b503d610719565b60405162461bcd60e51b815260048101879052601b818901527a496e73756666696369656e74206f7574636f6d6520746f6b656e7360281b6044820152606490fd5b809250888092503d83116107a6575b6107958183612c5a565b8101031261022a578390518961036e565b503d61078b565b9091508581813d83116107d5575b6107c58183612c5a565b8101031261022a5751908761033b565b503d6107bb565b82819392503d8311610806575b6107f38183612c5a565b8101031261022a57518690610327610306565b503d6107e9565b3461022a5760a036600319011261022a57610826612bbf565b5061082f612bd5565b506084356001600160401b03811161022a5761084f903690600401612ce3565b5060405163f23a6e6160e01b8152602090f35b3461022a5760208060031936011261022a5761087c612beb565b90610885612d39565b6007549161089860ff8460a01c16612e03565b6108a860ff8460a81c1615612e41565b60ff8116926108b960038510612e87565b61ffff60a81b191660b09190911b60ff60b01b1617600160a81b176007556006546001600160a01b0391908216803b1561022a57600080916004604051809481936321eb936b60e11b83525af180156105fc57610b09575b50600160ff60075460b01c161b6040519061092b82612c24565b6001825282368184013761093e82613011565b5282600554169083600454169060025492803b1561022a5761097a936000809460405196879586948593626dc0df60e21b855260048501613354565b03925af180156105fc57610afa575b50816004541690604051916370a0823160e01b83523060048401528183602481845afa9283156105fc57600093610acb575b5081836109e5928660015416600060405180968195829463095ea7b360e01b845260048401613123565b03925af180156105fc57610aad575b5050816001541690813b1561022a57600091602483926040519485938492634410462760e01b845260048401525af180156105fc57610a9e575b5060015416803b1561022a57600080916024604051809481936314a93dc160e11b83523060048401525af180156105fc57610a8f575b506000547f739f283563fb51ab6b89ee95d937b2e63a6cfcb83c385dbebb629f9d97bd43e6600080a3005b610a9890612bfb565b81610a64565b610aa790612bfb565b82610a2e565b81610ac392903d1061068e576106808183612c5a565b5083806109f4565b9092508181813d8311610af3575b610ae38183612c5a565b8101031261022a575191816109bb565b503d610ad9565b610b0390612bfb565b83610989565b610b1290612bfb565b83610911565b3461022a57604036600319011261022a57610b31612beb565b610b526024918235906007549060ff93848361029082809660a01c16612e03565b1690600390610b62828410612e87565b610b6d811515612ec5565b3360005260209260098452846040600020541615611221575b60009260005b86811682811015610bd157838103610bae575b50610ba990612f78565b610b8c565b610ba99195610bca91600052600a885260406000205490612f9f565b9490610b9f565b50509394509164746a52880090810180911161120c57610c02610c0a9184600052600a875260406000205490612fac565b821115612fb9565b60405192610c1784612c3f565b83526060368585013780610c2b838561301e565b5260065460405163782d085b60e01b8152600481018690526001600160a01b0394918690829087168180610c618c820188613032565b03915afa9081156105fc576000916111df575b50610c8160008213613066565b6101908082029082820414821517156111ca57612710900490600087610cd3610caa8585612f9f565b9460011c948960045416906040519485809481936323b872dd60e01b83523033600485016130bf565b03925af180156105fc57610cef916000916111ad575b506130e1565b85600454169286600654169188604051809681600081610d1e8763095ea7b360e01b9a8b845260048401613123565b03925af19182156105fc57610d3e8a938c97600091611190575b5061313e565b610d6e60008a6006541692604051988995869485936315bd761160e01b8552604060048601526044850190613032565b9183015203925af19283156105fc57600093611161575b5085600554168660045416906002546040519063856296f760e01b8252600060048301528b8201526001881b60448201528981606481855afa80156105fc578a91600091611130575b5060405163039dd75360e41b81529384918291610def919060048401613123565b0381845afa9182156105fc57600092611101575b50604051627eeac760e11b8152898180610e21863060048401613123565b0381855afa80156105fc5787906000906110d0575b610e429250101561318a565b803b1561022a5785600091610e709383604051809681958294637921219560e11b84523330600486016131cf565b03925af180156105fc576110c1575b50610ea687838860045416896001541660006040518096819582948a845260048401613123565b03925af180156105fc57610ec2916000916110a4575b50613203565b856001541690813b1561022a57600080928a6040518095819363e574831560e01b83528860048401525af19182156105fc57610f3192611095575b50878388600454166000805160206133ac8339815191529360008b8654169160405197889586948593845260048401613123565b03925af19182156105fc578792610f5091600091611078575b5061324f565b541690813b1561022a57600091888392604051948593849263fe80d50960e01b845260048401525af180156105fc57611069575b5082600052600a85526040600020610f9d828254612f9f565b9055604051918252848201527f58d1b6a27802b679fdc085f457b7699ca7b334df2e9f26f1bf92773f0810a3a260403392a360065416916040519263b20f8e7f60e01b8085526000600486015283858481855afa9485156105fc576000956106395750604051908082526001600483015284828581865afa9384156105fc5785926000956106085750604051809481938252600260048301525afa9283156105fc576000936105be576000546040516000805160206133ec83398151915290806105b988888b846132a9565b61107290612bfb565b86610f84565b61108f91508a3d8c1161068e576106808183612c5a565b8b610f4a565b61109e90612bfb565b89610efd565b6110bb9150893d8b1161068e576106808183612c5a565b8a610ebc565b6110ca90612bfb565b88610e7f565b50508981813d83116110fa575b6110e78183612c5a565b8101031261022a5786610e429151610e36565b503d6110dd565b9091508881813d8311611129575b6111198183612c5a565b8101031261022a5751908a610e03565b503d61110f565b82819392503d831161115a575b6111478183612c5a565b8101031261022a57518990610def610dce565b503d61113d565b9092508681813d8311611189575b6111798183612c5a565b8101031261022a57519188610d85565b503d61116f565b6111a79150853d871161068e576106808183612c5a565b8d610d38565b6111c49150893d8b1161068e576106808183612c5a565b8a610ce9565b87634e487b7160e01b60005260116004526000fd5b90508581813d8311611205575b6111f68183612c5a565b8101031261022a575187610c74565b503d6111ec565b85634e487b7160e01b60005260116004526000fd5b61122a33612f10565b33600052600984526040600020600160ff19825416179055610b86565b3461022a57600036600319011261022a57602060ff60075460a81c166040519015158152f35b3461022a57600036600319011261022a5760206040516101908152f35b3461022a5760a036600319011261022a576112a3612bbf565b506112ac612bd5565b506001600160401b0360443581811161022a576112cd903690600401612c7d565b5060643581811161022a576112e6903690600401612c7d565b5060843590811161022a576112ff903690600401612ce3565b5060405163bc197c8160e01b8152602090f35b3461022a57600036600319011261022a576020600354604051908152f35b3461022a5760208060031936011261022a5761134a612beb565b60065460405163b20f8e7f60e01b815260ff9290921660048301528290829060249082906001600160a01b03165afa9081156105fc57600091611391575b50604051908152f35b90508181813d83116113b7575b6113a88183612c5a565b8101031261022a575182611388565b503d61139e565b3461022a5760e036600319011261022a576113d7612beb565b60249081356084359060ff9283831680930361022a57839061140482600754610290828260a01c16612e03565b16600390611413828210612e87565b61141e831515612ec5565b3360005260209360098552856040600020541615611651575b60009360005b878116858110156114825784810361145f575b5061145a90612f78565b61143d565b61145a919661147b91600052600a895260406000205490612f9f565b9590611450565b5050909287959464746a52880090810180911161163c576114b46114bc9185600052600a885260406000205490612fac565b831115612fb9565b604051906114c982612c3f565b815260603686830137816114dd848361301e565b5260065460405163782d085b60e01b8152600481018790526001600160a01b03959187908290881681806115138d820189613032565b03915afa9081156105fc5760009161160f575b5061153360008213613066565b6101908082029082820414821517156115fa5761271090046115558183612f9f565b9060011c92876004541690813b1561022a5760009060e48c83604051958694859363d505accf60e01b8552336004860152309085015260443560448501526064356064850152608484015260a43560a484015260c43560c48401525af180156105fc576000928a92610cd3926115eb575b508960045416906040519485809481936323b872dd60e01b83523033600485016130bf565b6115f490612bfb565b8c6115c6565b88634e487b7160e01b60005260116004526000fd5b90508681813d8311611635575b6116268183612c5a565b8101031261022a575188611526565b503d61161c565b86634e487b7160e01b60005260116004526000fd5b61165a33612f10565b33600052600985526040600020600160ff19825416179055611437565b3461022a57600036600319011261022a576020600054604051908152f35b3461022a57600036600319011261022a576000805160206133ac833981519152546040516001600160a01b039091168152602090f35b3461022a57600036600319011261022a576116e4612d39565b6000805160206133ac83398151915280546001600160a01b031981169091556000906001600160a01b031660008051602061340c8339815191528280a3005b3461022a57600036600319011261022a576001546040516001600160a01b039091168152602090f35b3461022a57600036600319011261022a576005546040516001600160a01b039091168152602090f35b3461022a57604036600319011261022a5761178e612beb565b6117ec6040519161179e83612c3f565b600383526020928391606036848401376117be60ff60243592168361301e565b5260018060a01b0360065416604051808095819463782d085b60e01b83528660048401526024830190613032565b03915afa9081156105fc576000916113915750604051908152f35b3461022a57600036600319011261022a576007546040516001600160a01b039091168152602090f35b3461022a57602036600319011261022a576001600160a01b03611851612bbf565b166000526009602052602060ff604060002054166040519015158152f35b3461022a57600036600319011261022a576004546040516001600160a01b039091168152602090f35b3461022a57600036600319011261022a57602060ff60075460a01c166040519015158152f35b3461022a5760e036600319011261022a576001600160a01b036064358181169081900361022a5760843582811680910361022a5760a4359280841680940361022a5760c43590811680910361022a5760008051602061344c83398151915292835460ff8160401c16159360018060401b03821696871580611a9b575b60018099149081611a91575b159081611a88575b50611a76576001600160401b0319831688178755849286611a5b575b50611973612dd4565b61197b612dd4565b61198433612d72565b60043560005560443560025560243560035560018060a01b03199184836006541617600655828954161788558160045416176004556005541617600555813b1561022a5760009160448392604051948593849263a22cb46560e01b845260048401528960248401525af180156105fc57611a4c575b506007805460ff60a01b1916600160a01b179055611a1357005b805460ff60401b191690556040519081527fc7f505b2f371ae2175ee4913f4499e1f2633a7b5936321eed1cdaeb6115181d290602090a1005b611a5590612bfb565b836119f9565b6001600160481b0319166001600160401b011787558861196a565b60405163f92ee8a960e01b8152600490fd5b9050158961194e565b303b159150611946565b508561193a565b3461022a57602036600319011261022a5760043560085481101561022a57600860005260008051602061342c83398151915201546040516001600160a01b039091168152602090f35b3461022a57600036600319011261022a57600754611b0e60ff8260a01c16612e03565b60ff8160a81c1615611f6a5760ff60019160b01c161b604051611b3081612c24565b6001815260209182368184013780611b4783613011565b5260018060a01b0380600554168160045416600254936040519063856296f760e01b8252600060048301526024958683015260448201528681606481865afa80156105fc578791600091611f39575b5060405163039dd75360e41b81529283918291611bb7919060048401613123565b0381855afa9081156105fc57600091611f0c575b50604051627eeac760e11b8152868180611be9853360048401613123565b0381865afa9081156105fc57600091611edf575b508015611e8f57823b1561022a57611c319260009283604051809681958294637921219560e11b84523033600486016131cf565b03925af180156105fc57611e80575b50806004541690604051936370a0823160e01b9283865230600487015286868681845afa9586156105fc57600096611e51575b5082600554169160025492803b1561022a57611ca9936000809460405196879586948593626dc0df60e21b855260048501613354565b03925af180156105fc57611e42575b50600454169260405191825230600483015284828481875afa80156105fc57600090611e13575b611ce99250612fac565b918215611dc15783604051809263a9059cbb60e01b825281600081611d12893360048401613123565b03925af19081156105fc57600091611da4575b5015611d6257507f810c0a3d2e7f4765a144ddb7039e632b1abd74268600d3f570c128cb7b6a09b660ff60075460b01c16926040519283523392a3005b82601c6064926040519262461bcd60e51b845260048401528201527b1554d110c81d1c985b9cd9995c881d1bc81d5cd95c8819985a5b195960221b6044820152fd5b611dbb9150843d861161068e576106808183612c5a565b84611d25565b60405162461bcd60e51b8152600481018590526025818401527f526564656d7074696f6e206661696c65642c206e6f207061796f757420726563604482015264195a5d995960da1b6064820152608490fd5b508482813d8311611e3b575b611e298183612c5a565b8101031261022a57611ce99151611cdf565b503d611e1f565b611e4b90612bfb565b85611cb8565b9095508681813d8311611e79575b611e698183612c5a565b8101031261022a57519487611c73565b503d611e5f565b611e8990612bfb565b84611c40565b60405162461bcd60e51b8152600481018890526023818701527f4e6f2077696e6e696e67206f7574636f6d6520746f6b656e7320746f2072656460448201526265656d60e81b6064820152608490fd5b90508681813d8311611f05575b611ef68183612c5a565b8101031261022a575187611bfd565b503d611eec565b90508581813d8311611f32575b611f238183612c5a565b8101031261022a575186611bcb565b503d611f19565b82819392503d8311611f63575b611f508183612c5a565b8101031261022a57518690611bb7611b96565b503d611f46565b60405162461bcd60e51b815260206004820152601360248201527213585c9ad95d081b9bdd081c995cdbdb1d9959606a1b6044820152606490fd5b3461022a57602036600319011261022a5760ff611fc0612beb565b16600052600a6020526020604060002054604051908152f35b3461022a57600036600319011261022a576020600254604051908152f35b3461022a57602036600319011261022a57612010612bbf565b612018612d39565b6001600160a01b0316801561206057600780546001600160a01b031916821790557f96cd6a760d83e26ae66b3539eb11bc97ec455ed70727aca67b5b1a9c727abf2c600080a2005b60405162461bcd60e51b815260206004820152602660248201527f426f7420616464726573732063616e6e6f7420626520746865207a65726f206160448201526564647265737360d01b6064820152608490fd5b3461022a57600036600319011261022a576006546040516001600160a01b039091168152602090f35b3461022a57600036600319011261022a57602060ff60075460b01c16604051908152f35b3461022a57604036600319011261022a576004356001600160401b0380821161022a573660238301121561022a5781600401351161022a57366024826004013560051b8301011161022a576007546001600160a01b0381163303612b285760ff81610290826121739460a01c16612e03565b6003816004013503612ae45760005b816004013560ff821610156123e85760006121a860ff8316846004013560248601613313565b35126121bd575b6121b890612f78565b612182565b6005546004805460025460405163856296f760e01b81526000938101939093526024830152600160ff85161b60448301526001600160a01b0392831693921690602081606481875afa9081156105fc576000916123b4575b5060405163039dd75360e41b815291602091839182916122389160048401613123565b0381865afa9081156105fc57600091612382575b5061226b61226560ff8416866004013560248801613313565b356132bf565b604051627eeac760e11b815260208180612289863360048401613123565b0381885afa80156105fc57829160009161234d575b50106122fc57833b1561022a576122d19360009283604051809781958294637921219560e11b84523033600486016131cf565b03925af19182156105fc576121b8926122ed575b5090506121af565b6122f690612bfb565b836122e5565b60405162461bcd60e51b815260206004820152602360248201527f496e73756666696369656e74206f7574636f6d6520746f6b656e7320746f2073604482015262195b1b60ea1b6064820152608490fd5b9150506020813d60201161237a575b8161236960209383612c5a565b8101031261022a578190518761229e565b3d915061235c565b90506020813d6020116123ac575b8161239d60209383612c5a565b8101031261022a57518461224c565b3d9150612390565b90506020813d6020116123e0575b816123cf60209383612c5a565b8101031261022a5751612238612215565b3d91506123c2565b5060018060a01b03600654166020604051809263782d085b60e01b8252826004830152818061242260248201886004013560248a01613323565b03915afa9081156105fc57600091612ab2575b506000811361294e575b5060018060a01b036006541690602060405180936315bd761160e01b8252604060048301528160008161247d60448201886004013560248a01613323565b602435602483015203925af19182156105fc5760009261291a575b506000821261289f575b60005b60ff81169082600401358210156126f85760006124ca83856004013560248701613313565b35136124e0575b6124db9150612f78565b6124a5565b6124f282846004013560248601613313565b6005546004805460025460405163856296f760e01b81526000938101939093526024830152600190951b60448201526001600160a01b0391821694909116913590602081606481885afa9081156105fc576000916126c4575b5060405163039dd75360e41b8152926020918491829161256e9160048401613123565b0381875afa9182156105fc57600092612690575b50604051627eeac760e11b8152602081806125a1863060048401613123565b0381885afa80156105fc57829160009161265b575b501061261257833b1561022a576125e99360009283604051809781958294637921219560e11b84523330600486016131cf565b03925af19182156105fc576124db92612603575b506124d1565b61260c90612bfb565b846125fd565b60405162461bcd60e51b815260206004820152602d60248201526000805160206133cc83398151915260448201526c65642066726f6d20747261646560981b6064820152608490fd5b9150506020813d602011612688575b8161267760209383612c5a565b8101031261022a57819051886125b6565b3d915061266a565b9091506020813d6020116126bc575b816126ac60209383612c5a565b8101031261022a57519086612582565b3d915061269f565b90506020813d6020116126f0575b816126df60209383612c5a565b8101031261022a575161256e61254b565b3d91506126d2565b837f65408b139d4dc3e12684209b6ac7c20580d3d775948ea036e9a0a22df03e5cea8461273960405191604083526040830190602481600401359101613323565b9260208201528033930390a260065460405163b20f8e7f60e01b8082526000600483015290916001600160a01b031690602083602481855afa9283156105fc5760009361286b575b506040519080825260016004830152602082602481865afa9182156105fc57600092612836575b506020906024604051809581938252600260048301525afa9182156105fc576000926127f4575b506000805160206133ec83398151915291926105b960005494604051938493846132a9565b91506020823d60201161282e575b8161280f60209383612c5a565b8101031261022a576000805160206133ec8339815191529151916127cf565b3d9150612802565b9091506020813d602011612863575b8161285260209383612c5a565b8101031261022a57519060206127a8565b3d9150612845565b9092506020813d602011612897575b8161288760209383612c5a565b8101031261022a57519183612781565b3d915061287a565b6004546000906020906128db906001600160a01b03166128be866132bf565b60405194858094819363a9059cbb60e01b83523360048401613123565b03925af180156105fc576128f6916000916128fb57506132d0565b6124a2565b612914915060203d60201161068e576106808183612c5a565b846104be565b9091506020813d602011612946575b8161293660209383612c5a565b8101031261022a57519082612498565b3d9150612929565b60018060a01b0360045416602060405180926323b872dd60e01b82528160008161297d883033600485016130bf565b03925af19081156105fc57600091612a93575b5015612a53576004805460065460405163095ea7b360e01b81529360209385936001600160a01b0390811693859360009385936129d09316908401613123565b03925af19081156105fc57600091612a34575b50156129ef578161243f565b60405162461bcd60e51b815260206004820152601d60248201527f417070726f766520746f206d61726b65744d616b6572206661696c65640000006044820152606490fd5b612a4d915060203d60201161068e576106808183612c5a565b826129e3565b60405162461bcd60e51b81526020600482015260186024820152771554d110c81d1c985b9cd9995c919c9bdb4819985a5b195960421b6044820152606490fd5b612aac915060203d60201161068e576106808183612c5a565b83612990565b90506020813d602011612adc575b81612acd60209383612c5a565b8101031261022a575182612435565b3d9150612ac0565b60405162461bcd60e51b815260206004820152601c60248201527b092dcecc2d8d2c840e8e4c2c8ca40c2dadeeadce8e640d8cadccee8d60231b6044820152606490fd5b606460405162461bcd60e51b815260206004820152602060248201527f43616c6c6572206973206e6f742074686520617574686f72697a656420626f746044820152fd5b3461022a57602036600319011261022a576004359063ffffffff60e01b821680920361022a57602091630271189760e51b8114908115612bae575b5015158152f35b6301ffc9a760e01b14905083612ba7565b600435906001600160a01b038216820361022a57565b602435906001600160a01b038216820361022a57565b6004359060ff8216820361022a57565b6001600160401b038111612c0e57604052565b634e487b7160e01b600052604160045260246000fd5b604081019081106001600160401b03821117612c0e57604052565b608081019081106001600160401b03821117612c0e57604052565b601f909101601f19168101906001600160401b03821190821017612c0e57604052565b9080601f8301121561022a578135906001600160401b038211612c0e578160051b60405193602093612cb185840187612c5a565b8552838086019282010192831161022a578301905b828210612cd4575050505090565b81358152908301908301612cc6565b81601f8201121561022a578035906001600160401b038211612c0e5760405192612d17601f8401601f191660200185612c5a565b8284526020838301011161022a57816000926020809301838601378301015290565b6000805160206133ac833981519152546001600160a01b03163303612d5a57565b60405163118cdaa760e01b8152336004820152602490fd5b6001600160a01b03908116908115612dbb576000805160206133ac83398151915280546001600160a01b0319811684179091551660008051602061340c833981519152600080a3565b604051631e4fbdf760e01b815260006004820152602490fd5b60ff60008051602061344c8339815191525460401c1615612df157565b604051631afcd79f60e31b8152600490fd5b15612e0a57565b60405162461bcd60e51b815260206004820152600f60248201526e139bdd081a5b9a5d1a585b1a5e9959608a1b6044820152606490fd5b15612e4857565b60405162461bcd60e51b815260206004820152601760248201527613585c9ad95d08185b1c9958591e481c995cdbdb1d9959604a1b6044820152606490fd5b15612e8e57565b60405162461bcd60e51b815260206004820152600f60248201526e496e76616c6964206f7574636f6d6560881b6044820152606490fd5b15612ecc57565b606460405162461bcd60e51b815260206004820152602060248201527f416d6f756e74206d7573742062652067726561746572207468616e207a65726f6044820152fd5b600854600160401b811015612c0e576001810180600855811015612f6257600860005260008051602061342c8339815191520180546001600160a01b0319166001600160a01b03909216919091179055565b634e487b7160e01b600052603260045260246000fd5b60ff1660ff8114612f895760010190565b634e487b7160e01b600052601160045260246000fd5b91908201809211612f8957565b91908203918211612f8957565b15612fc057565b60405162461bcd60e51b8152602060048201526024808201527f4265742065786365656473206d6178696d756d20616c6c6f7761626c6520616d6044820152631bdd5b9d60e21b6064820152608490fd5b805115612f625760200190565b8051821015612f625760209160051b010190565b90815180825260208080930193019160005b828110613052575050505090565b835185529381019392810192600101613044565b1561306d57565b60405162461bcd60e51b8152602060048201526012602482015271125b9d985b1a59081d1c9859194818dbdcdd60721b6044820152606490fd5b9081602091031261022a5751801515810361022a5790565b6001600160a01b03918216815291166020820152604081019190915260600190565b156130e857565b60405162461bcd60e51b81526020600482015260136024820152721d1c985b9cd9995c919c9bdb4819985a5b1959606a1b6044820152606490fd5b6001600160a01b039091168152602081019190915260400190565b1561314557565b60405162461bcd60e51b815260206004820152601d60248201527f617070726f766520746f206d61726b65744d616b6572206661696c65640000006044820152606490fd5b1561319157565b60405162461bcd60e51b815260206004820152602260248201526000805160206133cc833981519152604482015261195960f21b6064820152608490fd5b929060c0949260018060a01b0380921685521660208401526040830152606082015260a06080820152600060a08201520190565b1561320a57565b60405162461bcd60e51b815260206004820152601f60248201527f417070726f766520746f204c6971756964697479506f6f6c206661696c6564006044820152606490fd5b1561325657565b60405162461bcd60e51b815260206004820152602560248201527f417070726f766520746f206f776e65722f4d61726b6574466163746f72792066604482015264185a5b195960da1b6064820152608490fd5b6040919493926060820195825260208201520152565b600160ff1b8114612f895760000390565b156132d757565b60405162461bcd60e51b81526020600482015260146024820152731554d110c81d1c985b9cd9995c8819985a5b195960621b6044820152606490fd5b9190811015612f625760051b0190565b91908082526020809201929160005b828110613340575050505090565b833585529381019392810192600101613332565b91608083019160018060a01b0316835260a0602093849260008483015260408201526080606082015285518094520193019160005b828110613397575050505090565b83518552938101939281019260010161338956fe9016d09d72d40fdae2fd8ceac6b6234c7706214fd39c1cd1e609a0528c1993004e6f7420656e6f756768206f7574636f6d6520746f6b656e7320726563656976893ac9c513b4380780f867c7b8bd044b0c9868ae211e7b5c6daaa79c936e4dbe8be0079c531659141344cd1fd0a4f28419497f9722a3daafe3b4186f6b6457e0f3f7a9fe364faab93b216da50a3214154f22a0a2b415b23a84c8169e8b636ee3f0c57e16840df040f15088dc2f81fe391c3923bec73e23a9662efc9c229c6a00a164736f6c6343000814000a6080806040523461001657613b1d908161001c8239f35b600080fdfe608080604052600436101561001357600080fd5b600090813560e01c90816301ffc9a71461324b575080631c3421041461322d5780631f21f9af14613204578063253619c61461318f57806326dcfd37146131da5780632b6a9200146131ad5780632ddc7de71461318f5780632dfc8ee91461315d578063326209b414612cdb5780633482b64414612c91578063392e53cd14612c6b5780633e413bee14612c425780633f1cfdc614612c24578063429c2ed714612be557806354d0940d14612bc8578063591e791c14612b3f5780635bd9e29914612b165780635dae8c8d1461158257806363f8abcc14612ae7578063654c6daf14612188578063665a11ca14612abe5780636697262c1461273557806367bfef67146126c25780636bc01b361461267b578063715018a6146126225780637af37c05146121e257806388cbd000146121a95780638c20cad0146121885780638da5cb5b146121525780639a9f784614611f475780639b34ae0314611f23578063a2e3215c146116bc578063a5b679c21461163a578063aaafcf7f146115a0578063b06a5c5214611582578063bc197c81146114f9578063bf333f2c146114dc578063c6cd35de14611488578063cd5c843314611468578063d341295d1461144a578063dbb3f53714611424578063dd9089aa14610c79578063f21ffa6b14610924578063f23a6e61146108ca578063f2ccb39714610325578063f2fde38b146102f8578063f809ab43146102db5763ffd4493c1461023157600080fd5b346102d857806003193601126102d8576040518091600a549081835260208093018092600a835284832090835b8181106102bb5750505084610274910385613370565b60405193838594850191818652518092526040850193925b82811061029b57505050500390f35b83516001600160a01b03168552869550938101939281019260010161028c565b82546001600160a01b03168452928601926001928301920161025e565b80fd5b50346102d857806003193601126102d85760209054604051908152f35b50346102d85760203660031901126102d8576103226103156132e1565b61031d61345e565b613497565b80f35b50346102d85760403660031901126102d85761033f6132a0565b906024918235906009549061036960ff8361035f82809660a01c1661355f565b60a81c161561359d565b600194828087541692169061037f8383106135db565b61038a851515613615565b60018060a01b0391826007541695836006541696600554956040519663856296f760e01b88528a6004890152858801528a841b60448801526020968781606481865afa9081156106b1578b9161089b575b5060405163039dd75360e41b81529988918b9182916103fd916004840161384e565b0381855afa98891561078c578a9961086c575b50604051627eeac760e11b815287818061042e8d336004840161384e565b0381865afa9081156106b1579084918c9161083b575b50106108015761045390613710565b9061045d8361395e565b610467858461374f565b5285600854169887604051809b63782d085b60e01b825282600483015281806104928b820189613763565b03915afa998a156106b1578b9a6107d2575b508a8a121561079b57813b1561079757836104da928c9283604051809681958294637921219560e11b84523033600486016138a6565b03925af1801561078c578792918b9161076f575b505061051f908660085416908b604051809c819582946315bd761160e01b8452604060048501526044840190613763565b908a83015203925af1968715610764578897610735575b508785610567866006541661054a8b61395e565b60405194858094819363a9059cbb60e01b8352336004840161384e565b03925af190811561072a5789916106fd575b50156106c25761058c879994969961395e565b828952600c86526105a260408a209182546136ab565b90556105af88549761395e565b60405191825285820152867f0f13b83d52a44f453a59830044e922b8d4010375e70fb179f650ab6ce5d95f1060403393a48187815416976105ef89613710565b95889060085416925b61062a575b8888600080516020613ab18339815191528989610624604051928284938452830190613763565b0390a280f35b818116908a8210156106bc5760405163b20f8e7f60e01b8152600481018390529187838781885afa9283156106b1578b9361067b575b509161066f610675938a61374f565b526134f9565b846105f8565b92508783813d83116106aa575b6106928183613370565b810103126106a55791519161066f610660565b600080fd5b503d610688565b6040513d8d823e3d90fd5b506105fd565b60405162461bcd60e51b815260048101869052601481850152731554d110c81d1c985b9cd9995c8819985a5b195960621b6044820152606490fd5b61071d9150863d8811610723575b6107158183613370565b8101906137d2565b38610579565b503d61070b565b6040513d8b823e3d90fd5b9096508481813d831161075d575b61074d8183613370565b810103126106a557519538610536565b503d610743565b6040513d8a823e3d90fd5b61077b9192935061332c565b61078857859089386104ee565b8880fd5b6040513d8c823e3d90fd5b8a80fd5b60405162461bcd60e51b8152600481018990526010818801526f4e6f206761696e20706f737369626c6560801b6044820152606490fd5b9099508781813d83116107fa575b6107ea8183613370565b810103126106a5575198386104a4565b503d6107e0565b60405162461bcd60e51b81526004810188905260138187015272496e73756666696369656e7420746f6b656e7360681b6044820152606490fd5b809250898092503d8311610865575b6108548183613370565b810103126106a55783905138610444565b503d61084a565b9098508681813d8311610894575b6108848183613370565b810103126106a557519738610410565b503d61087a565b90508781813d83116108c3575b6108b28183613370565b810103126106a557516103fd6103db565b503d6108a8565b50346102d85760a03660031901126102d8576108e46132e1565b506108ed6132f7565b506084356001600160401b0381116109205761090d903690600401613408565b5060405163f23a6e6160e01b8152602090f35b5080fd5b50346102d85760208060031936011261092057816109406132a0565b9161094961345e565b6009549261095c60ff8560a01c1661355f565b61096c60ff8560a81c1615613985565b60ff600154169361098260ff83169586106135db565b61ffff60a81b191660b09190911b60ff60b01b1617600160a81b176009556008546001600160a01b0391908216803b15610be1578380916004604051809481936321eb936b60e11b83525af1908115610c56578491610c65575b50506040516109ea81613355565b600181528136818301376001851b610a0182613742565b5282600754169083600654169060055492803b15610c6157610a3c9387809460405196879586948593626dc0df60e21b855260048501613a02565b03925af1908115610c56578491610c42575b50506006546040516370a0823160e01b8152306004820152919083168183602481845afa928315610c03578593610c0e575b508183610aa99286600954168860405180968195829463095ea7b360e01b84526004840161384e565b03925af18015610c0357610be5575b5050816009541690813b15610be1578391602483926040519485938492634410462760e01b845260048401525af1908115610bc2578391610bcd575b50508060095416803b15610baa578280916024604051809481936314a93dc160e11b83523060048401525af1908115610bc2578391610bae575b5050600080516020613a7183398151915254168154813b15610baa578291602483926040519485938492630355a55360e31b845260048401525af18015610b9f57610b8b575b5054600080516020613a318339815191528380a380f35b610b949061332c565b610920578138610b74565b6040513d84823e3d90fd5b8280fd5b610bb79061332c565b610920578138610b2e565b6040513d85823e3d90fd5b610bd69061332c565b610920578138610af4565b8380fd5b81610bfb92903d10610723576107158183613370565b503880610ab8565b6040513d87823e3d90fd5b945091508084813d8111610c3b575b610c278183613370565b810103126106a55792518593909181610a80565b503d610c1d565b610c4b9061332c565b610baa578238610a4e565b6040513d86823e3d90fd5b8680fd5b610c6e9061332c565b610baa5782386109dc565b50346102d85760403660031901126102d857610c936132a0565b60095491610cac60ff8461035f82809760a01c1661355f565b610cbd8360015416848416106135db565b610cca6024351515613615565b338152600b60205282604082205416156113ff575b80818460015416905b85811682811015610d2e578686168103610d0c575b50610d07906134f9565b610ce8565b610d079193610d27918652600c60205260408620549061369e565b9290610cfd565b50509064746a5288009081018091116113eb5790610d6b610d61610d70938787168652600c6020526040862054906136ab565b60243511156136b8565b613710565b602435610d7f8585168361374f565b5260085460405163782d085b60e01b815260206004820181905290929183906001600160a01b03168180610db66024820187613763565b03915afa918215610bc25783926113b7575b50610dd4838313613797565b610190908183029183830414831517156113a357836020610e2a610dfc61271086048761369e565b6006546040516323b872dd60e01b81529485936001600160a01b0390921692849283913033600485016137ea565b03925af1908115610c035790610e47918691611384575b5061380c565b60065460085460405163095ea7b360e01b81529160209183916001600160a01b039081169183918a918391610e82918c91166004840161384e565b03925af1908115610c035791610ea5610ed6926020948891611367575b50613869565b60018060a01b036008541690866040518097819582946315bd761160e01b8452604060048501526044840190613763565b90602483015203925af1918215610bc2578392611333575b5060075460065460055460405163856296f760e01b815260048101879052602481019190915260018888161b60448201526001600160a01b039283169290911690602081606481865afa9081156112775786916112ff575b5060405163039dd75360e41b81529160209183918291610f69916004840161384e565b0381855afa908115610c035785916112cd575b50813b1561129657610fad85928392604051948580948193637921219560e11b8352602435903330600486016138a6565b03925af18015610c56579084916112b9575b505060065460095460405163095ea7b360e01b8152612710840460011c92909160209183916001600160a01b039182169183918a918391611006918a91166004840161384e565b03925af1908115610c03579061102391869161129a575b506138da565b6009546001600160a01b0316803b156112965784809160246040518094819363e574831560e01b83528760048401525af18015610c0357908591611282575b5050600654600080516020613a71833981519152805490916110ba916020916001600160a01b03918216911661109c8661271089046136ab565b918960405180968195829463095ea7b360e01b84526004840161384e565b03925af190811561127757916110df612710926110f095948991611258575b5061391a565b546001600160a01b031693046136ab565b813b15610be157839160248392604051948593849263fe80d50960e01b845260048401525af18015610bc257908391611244575b505083839493168252600c6020526040822061114182825461369e565b9055828254946040519260243584526020840152169084600080516020613af183398151915260403393a481600154169261117b84613710565b60085490916001600160a01b0390911690835b858116908782101561121b5760405163b20f8e7f60e01b81526004810183905291602083602481885afa9283156112105787936111da575b509161066f6111d5938761374f565b61118e565b92506020833d602011611208575b816111f560209383613370565b810103126106a55791519161066f6111c6565b3d91506111e8565b6040513d89823e3d90fd5b8583600080516020613ab183398151915261062488604051918291602083526020830190613763565b61124d9061332c565b610920578138611124565b611271915060203d602011610723576107158183613370565b386110d9565b6040513d88823e3d90fd5b61128b9061332c565b610be1578338611062565b8480fd5b6112b3915060203d602011610723576107158183613370565b3861101d565b6112c29061332c565b610baa578238610fbf565b90506020813d6020116112f7575b816112e860209383613370565b810103126106a5575138610f7c565b3d91506112db565b90506020813d60201161132b575b8161131a60209383613370565b810103126106a55751610f69610f46565b3d915061130d565b9091506020813d60201161135f575b8161134f60209383613370565b810103126106a557519038610eee565b3d9150611342565b61137e9150853d8711610723576107158183613370565b38610e9f565b61139d915060203d602011610723576107158183613370565b38610e41565b634e487b7160e01b84526011600452602484fd5b9091506020813d6020116113e3575b816113d360209383613370565b810103126106a557519038610dc8565b3d91506113c6565b634e487b7160e01b83526011600452602483fd5b6114083361364c565b338152600b60205260408120805460ff19166001179055610cdf565b50346102d857806003193601126102d857602060ff60095460a81c166040519015158152f35b50346102d857806003193601126102d8576020600f54604051908152f35b50346102d857806003193601126102d857602060405164746a5288008152f35b50346102d85760203660031901126102d85760ff60016114cb6040602094600435808252600d87526114be8684842054166139c4565b815260118652205461330d565b50015460101c166040519015158152f35b50346102d857806003193601126102d85760206040516101908152f35b50346102d85760a03660031901126102d8576115136132e1565b5061151c6132f7565b506001600160401b03604435818111610baa5761153d9036906004016133aa565b50606435818111610baa576115569036906004016133aa565b506084359081116109205761156f903690600401613408565b5060405163bc197c8160e01b8152602090f35b50346102d857806003193601126102d8576020600454604051908152f35b50346102d857602090816003193601126102d8576115bc6132a0565b60085460405163b20f8e7f60e01b815260ff9290921660048301528390829060249082906001600160a01b03165afa91821561162e5791611601575b50604051908152f35b90508181813d8311611627575b6116188183613370565b810103126106a55751386115f8565b503d61160e565b604051903d90823e3d90fd5b50346102d85760203660031901126102d85760043590818152600360205260ff60408220541660ff6001541611156116855760408160209360ff935260038452205416604051908152f35b60405162461bcd60e51b815260206004820152600f60248201526e125b9d985b1a59081d19585b481251608a1b6044820152606490fd5b50346102d85760e03660031901126102d8576116d66132a0565b906084359060ff821682036106a5576116fb60ff60095461035f828260a01c1661355f565b61170e60ff6001541660ff8516106135db565b61171b6024351515613615565b338152600b60205260ff60408220541615611efe575b808160ff60015416905b60ff8116828110156117835760ff87168103611761575b5061175c906134f9565b61173b565b61175c919361177c918652600c60205260408620549061369e565b9290611752565b848787858764746a528800908101809111611eea5790610d6b610d616117b99360ff87168852600c6020526040882054906136ab565b6024356117c960ff85168361374f565b5260085460405163782d085b60e01b815260206004820181905290939184906001600160a01b031681806118006024820188613763565b03915afa928315610c03578593611eb6575b5061181e858413613797565b61019090818402918483041484151715611ea2578561184161271084048661369e565b6006549092906001600160a01b0316803b15610baa5782809160e46040518096819363d505accf60e01b835233600484015230602484015260ff60443598896044860152606435606486015216608484015260a43560a484015260c43560c48401525af1928315611e95578493611e7c575b505010611e3d57859260206118ed859360018060a01b0360065416906040519586809481936323b872dd60e01b83523033600485016137ea565b03925af1918215610c56576119449261190c918691611e1e575061380c565b60065460085460405163095ea7b360e01b81529360209285926001600160a01b039182169284928a928492918d91166004840161384e565b03925af1908115610c5657611965611996926020948791611e015750613869565b60018060a01b036008541690856040518098819582946315bd761160e01b8452604060048501526044840190613763565b90602483015203925af1928315610b9f578293611dca575b5060075460065460055460405163856296f760e01b8152600481018690526024810191909152600160ff88161b60448201526001600160a01b0392831692909116602082606481865afa918215610c03578592611d90575b5060405163039dd75360e41b8152929160209184918291611a2b91906004840161384e565b0381845afa918215610c56578492611d59575b50803b15610be157604051637921219560e11b81529184918391829084908290611a7190602435903330600486016138a6565b03925af1908115610bc2578391611d45575b505060065460095460405163095ea7b360e01b8152612710840460011c92909160209183916001600160a01b0391821691839189918391611aca918a91166004840161384e565b03925af18015610c5657611ae4918591611d2657506138da565b6009546001600160a01b0316803b15610be15783809160246040518094819363e574831560e01b83528760048401525af1908115610c56578491611d12575b5050600654600080516020613a718339815191528054611b7a93926020916001600160a01b039081169116611b5c8561271089046136ab565b918860405180988195829463095ea7b360e01b84526004840161384e565b03925af1908115610c03576110df61271092611b9c958891611cf3575061391a565b813b15610baa57829160248392604051948593849263fe80d50960e01b845260048401525af18015610b9f57611cdf575b505060ff82168352600c60205260408320611be982825461369e565b905560ff8354926040519260243584526020840152169082600080516020613af183398151915260403393a460ff6001541691611c2583613710565b6008546001600160a01b0316825b60ff81169086821015611cb65760405163b20f8e7f60e01b81526004810183905291602083602481875afa928315611277578693611c80575b509161066f611c7b938661374f565b611c33565b92506020833d602011611cae575b81611c9b60209383613370565b810103126106a55791519161066f611c6c565b3d9150611c8e565b8486600080516020613ab183398151915261062487604051918291602083526020830190613763565b611ce89061332c565b610baa578284611bcd565b611d0c915060203d602011610723576107158183613370565b8b6110d9565b611d1b9061332c565b610baa578287611b23565b611d3f915060203d602011610723576107158183613370565b8861101d565b611d4e9061332c565b610920578186611a83565b935090506020833d602011611d88575b81611d7660209383613370565b810103126106a5578592519087611a3e565b3d9150611d69565b94509190506020843d602011611dc2575b81611dae60209383613370565b810103126106a55792518693916020611a06565b3d9150611da1565b915091506020813d602011611df9575b81611de760209383613370565b810103126106a55783905191856119ae565b3d9150611dda565b611e189150853d8711610723576107158183613370565b8a610e9f565b611e37915060203d602011610723576107158183613370565b89610e41565b60405162461bcd60e51b815260206004820152601760248201527614195c9b5a5d08185b5bdd5b9d081d1bdbc81cdb585b1b604a1b6044820152606490fd5b611e889192935061332c565b610c6157819087896118b3565b50604051903d90823e3d90fd5b634e487b7160e01b86526011600452602486fd5b9092506020813d602011611ee2575b81611ed260209383613370565b810103126106a557519185611812565b3d9150611ec5565b634e487b7160e01b85526011600452602485fd5b611f073361364c565b338152600b60205260408120805460ff19166001179055611731565b50346102d857806003193601126102d857602060ff60095460b01c16604051908152f35b50346102d85760603660031901126102d857600435602480358015158091036106a55760443591821515908184036106a557611f8161345e565b611f9260ff60095460a01c1661355f565b848652602093600d855260ff60408820541661211e57858752600d8552604087209060ff1991600183825416179055612115575b60405160a081016001600160401b0381118282101761210057604052868152858101918883526040820160ff815260608301918783526080840193878552601054600160401b8110156120ed57806001612023920160105561330d565b9190916120da579160ff600161204f95938295518155019751151591885416911617865551168461396f565b5115159062ff000063ff00000084549251151560181b169260101b169063ffff00001916171790556010549060001982019182116120c85750916040917f8689dff692a3bab12386007d12fd6229558fbb17748c43e0924d6a8f8c53dad79386885260118652838820558654948351928352820152a380f35b634e487b7160e01b8752601160045286fd5b634e487b7160e01b8d5260048d9052878dfd5b634e487b7160e01b8d526041600452878dfd5b83634e487b7160e01b60005260416004526000fd5b85600f55611fc6565b60405162461bcd60e51b815260048101869052600d818401526c105b1c9958591e481859191959609a1b6044820152606490fd5b50346102d857806003193601126102d857600080516020613a71833981519152546040516001600160a01b039091168152602090f35b50346102d857806003193601126102d857602060ff60015416604051908152f35b50346102d85760203660031901126102d857600435906002548210156102d85760206121d4836132b0565b90546040519160031b1c8152f35b50346102d85760803660031901126102d85760043590602480359060ff8083168093036106a55761221161345e565b60099061222381835460a01c1661355f565b85855260209060118252600161223c604088205461330d565b50019081549761224e828a1615613985565b8615808015612618575b156125e9576001899a60ff9a999a19161784556000146125d15760443587526003845261228c826040892054165b8461396f565b86549254927fc966558e8a6b004dfbb4ba4f8f2af2738a1b4295768775147f698f67eebf9c986040848660081c169a81519081528b88820152a3808260181c166122d4578580f35b6122dc61345e565b61230a8454916122f0818460a01c1661355f565b6122ff818460a81c1615613985565b6001541688106135db565b61ffff60a81b191660a89190911b60ff60b01b1617600160a81b1782556008546001600160a01b0392908316803b15612553578580916004604051809481936321eb936b60e11b83525af19081156112775786916125bd575b505060405161237181613355565b600181528236818301376001871b61238882613742565b5283600754169084600654169060055492803b15610788576123c39389809460405196879586948593626dc0df60e21b855260048501613a02565b03925af19081156112775786916125a9575b50506006546040516370a0823160e01b81523060048201529290841681848781845afa938415611210578794612575575b50818461242e92878654168a60405180968195829463095ea7b360e01b84526004840161384e565b03925af1801561121057612557575b50508281541691823b156125535785928584926040519586938492634410462760e01b845260048401525af18015610c03578392869161253a575b50505416803b15610be15783809184604051809481936314a93dc160e11b83523060048401525af1908115610c56578491612526575b5050600080516020613a718339815191525416825490803b15610be157839283926040519485938492630355a55360e31b845260048401525af18015610b9f57612512575b5054600080516020613a318339815191528380a3388181808080808580f35b61251b9061332c565b6109205781386124f3565b61252f9061332c565b610baa5782386124ae565b6125469192935061332c565b610be15781908438612478565b8580fd5b8161256d92903d10610723576107158183613370565b50388061243d565b965092508086813d81116125a2575b61258e8183613370565b810103126106a55794518795909281612406565b503d612584565b6125b29061332c565b6112965784386123d5565b6125c69061332c565b611296578438612363565b60643587526003845261228c82604089205416612286565b60405162461bcd60e51b815260048101869052600881890152674e6f20647261777360c01b6044820152606490fd5b5060028814612258565b50346102d857806003193601126102d85761263b61345e565b600080516020613a7183398151915280546001600160a01b031981169091556000906001600160a01b0316600080516020613a918339815191528280a380f35b50346102d85760203660031901126102d85760ff60016126b16040602094600435808252600d87526114be8684842054166139c4565b50015460181c166040519015158152f35b50346102d85760203660031901126102d857600435601054811015610920576126ea9061330d565b5080546001909101546040805192835260ff80831615156020850152600883901c811691840191909152601082901c81161515606084015260189190911c161515608082015260a090f35b50346102d8576101003660031901126102d8576001600160401b03602435818111610baa5736602382011215610baa5781816004013511610baa57366024826004013560051b83010111610baa57608435916001600160a01b0380841684036106a55760a4359080821682036106a55760c4359481861686036106a55760e4359282841684036106a557600080516020613ad18339815191525494851680159081612aae575b6001149081612aa4575b159081612a9b575b50612a89576001600160401b03198516600117600080516020613ad183398151915255604085901c60ff1615612a60575b612826613530565b61282e613530565b61283733613497565b6002866004013510612a3057909192600435885560ff86600401351660ff196001541617600155875b8860ff6001541660ff83161015612917575061288760ff8216886004013560248a01613520565b35600254600160401b81101561290357916128f8916128b18460018e9a99989796016002556132b0565b918154600393841b91821b91600019901b19161790556128dc60ff83168b6004013560248d01613520565b35885260205260408720805460ff191660ff83161790556134f9565b909192939450612860565b634e487b7160e01b8b52604160045260248bfd5b604435600455606435600555600880546001600160a01b0319908116878916179091556009805482168689161790556006805482168b89161790556007805491821685891690811790915588918391908216178789823b15610be1576044849283604051958694859363a22cb46560e01b8552166004840152600160248401525af18015610b9f57612a1c575b50506009805460ff60a01b1916600160a01b17905560401c60ff16156129c75780f35b60ff60401b19600080516020613ad18339815191525416600080516020613ad1833981519152557fc7f505b2f371ae2175ee4913f4499e1f2633a7b5936321eed1cdaeb6115181d2602060405160018152a180f35b612a259061332c565b6109205781836129a4565b60405162461bcd60e51b81526020600482015260086024820152674e6f207465616d7360c01b6044820152606490fd5b6001600160481b031985166001600160401b0117600080516020613ad18339815191525561281e565b60405163f92ee8a960e01b8152600490fd5b905015386127ed565b303b1591506127e5565b604087901c60ff161591506127db565b50346102d857806003193601126102d8576009546040516001600160a01b039091168152602090f35b50346102d85760203660031901126102d85760ff60406020926004358152600d84522054166040519015158152f35b50346102d857806003193601126102d8576007546040516001600160a01b039091168152602090f35b50346102d85760403660031901126102d857612baf90612b5d6132a0565b612b6b60ff60015416613710565b90612b7c60ff60243592168361374f565b5260018060a01b036008541690604051809263782d085b60e01b8252818060209788958660048401526024830190613763565b03915afa91821561162e57916116015750604051908152f35b50346102d85760203660031901126102d8576126ea60043561330d565b50346102d85760203660031901126102d85760209060ff906040906001600160a01b03612c106132e1565b168152600b84522054166040519015158152f35b50346102d857806003193601126102d8576020601054604051908152f35b50346102d857806003193601126102d8576006546040516001600160a01b039091168152602090f35b50346102d857806003193601126102d857602060ff60095460a01c166040519015158152f35b50346102d85760203660031901126102d857600435600a5481101561092057600a600052600080516020613a5183398151915201546040516001600160a01b039091168152602090f35b50346102d857806003193601126102d857600954612cfe60ff8260a01c1661355f565b60ff8160a81c16156131295760ff60019160b01c161b60018060a01b0390816007541691806006541690600554916040519463856296f760e01b8652866004870152602493848701528460448701526020958681606481855afa801561076457879189916130f8575b5060405163039dd75360e41b81529384918291612d8891906004840161384e565b0381845afa9182156112105787926130c9575b50604051627eeac760e11b815290868280612dba86336004840161384e565b0381845afa918215610764578892613096575b50811561305e57908188923b15610baa57612e019383604051809681958294637921219560e11b84523033600486016138a6565b03925af180156112775761304b575b5080600654169085604051946370a0823160e01b9384875230600488015287878781845afa968715610bc2578397613018575b5060405191612e5183613355565b60018352883681850137612e6483613742565b5283600754169160055492803b1561129657612e999385809460405196879586948593626dc0df60e21b855260048501613a02565b03925af18015610b9f57613004575b5050600654169260405191825230600483015284828481875afa8015611277578690612fd5575b612ed992506136ab565b918215612fa55783604051809263a9059cbb60e01b8252818881612f0189336004840161384e565b03925af1908115610c03578591612f88575b5015612f53575082547f8d66ebf0a44775d884fae55faa46cc18fd3ac1d68a32c95588f2c6e4bd588f8160ff60095460b01c16936040519384523393a480f35b82600f6064926040519262461bcd60e51b845260048401528201526e151c985b9cd9995c8819985a5b1959608a1b6044820152fd5b612f9f9150843d8611610723576107158183613370565b38612f13565b60405162461bcd60e51b81526004810185905260098184015268139bc81c185e5bdd5d60ba1b6044820152606490fd5b508482813d8311612ffd575b612feb8183613370565b810103126106a557612ed99151612ecf565b503d612fe1565b61300d9061332c565b612553578538612ea8565b88809298508194503d8311613044575b6130328183613370565b810103126106a5578791519538612e43565b503d613028565b6130579095919561332c565b9338612e10565b60405162461bcd60e51b815260048101889052601181870152704e6f2077696e6e696e6720746f6b656e7360781b6044820152606490fd5b9091508681813d83116130c2575b6130ae8183613370565b810103126130be57519038612dcd565b8780fd5b503d6130a4565b9091508581813d83116130f1575b6130e18183613370565b81010312610c6157519038612d9b565b503d6130d7565b82819392503d8311613122575b61310f8183613370565b810103126130be57518690612d88612d67565b503d613105565b60405162461bcd60e51b815260206004820152600c60248201526b139bdd081c995cdbdb1d995960a21b6044820152606490fd5b50346102d85760203660031901126102d857604060209160ff61317e6132a0565b168152600c83522054604051908152f35b50346102d857806003193601126102d8576020600554604051908152f35b50346102d85760203660031901126102d85760ff6040602092600435815260038452205416604051908152f35b50346102d85760203660031901126102d85760406020916004358152601183522054604051908152f35b50346102d857806003193601126102d8576008546040516001600160a01b039091168152602090f35b50346102d857806003193601126102d8576020600e54604051908152f35b9050346109205760203660031901126109205760043563ffffffff60e01b8116809103610baa5760209250630271189760e51b811490811561328f575b5015158152f35b6301ffc9a760e01b14905038613288565b6004359060ff821682036106a557565b6002548110156132cb57600260005260206000200190600090565b634e487b7160e01b600052603260045260246000fd5b600435906001600160a01b03821682036106a557565b602435906001600160a01b03821682036106a557565b6010548110156132cb57601060005260206000209060011b0190600090565b6001600160401b03811161333f57604052565b634e487b7160e01b600052604160045260246000fd5b604081019081106001600160401b0382111761333f57604052565b601f909101601f19168101906001600160401b0382119082101761333f57604052565b6001600160401b03811161333f5760051b60200190565b81601f820112156106a5578035916133c183613393565b926133cf6040519485613370565b808452602092838086019260051b8201019283116106a5578301905b8282106133f9575050505090565b813581529083019083016133eb565b81601f820112156106a5578035906001600160401b03821161333f576040519261343c601f8401601f191660200185613370565b828452602083830101116106a557816000926020809301838601378301015290565b600080516020613a71833981519152546001600160a01b0316330361347f57565b60405163118cdaa760e01b8152336004820152602490fd5b6001600160a01b039081169081156134e057600080516020613a7183398151915280546001600160a01b03198116841790915516600080516020613a91833981519152600080a3565b604051631e4fbdf760e01b815260006004820152602490fd5b60ff1660ff811461350a5760010190565b634e487b7160e01b600052601160045260246000fd5b91908110156132cb5760051b0190565b60ff600080516020613ad18339815191525460401c161561354d57565b604051631afcd79f60e31b8152600490fd5b1561356657565b60405162461bcd60e51b815260206004820152600f60248201526e139bdd081a5b9a5d1a585b1a5e9959608a1b6044820152606490fd5b156135a457565b60405162461bcd60e51b815260206004820152600f60248201526e13585c9ad95d081c995cdbdb1d9959608a1b6044820152606490fd5b156135e257565b60405162461bcd60e51b815260206004820152600b60248201526a426164206f7574636f6d6560a81b6044820152606490fd5b1561361c57565b60405162461bcd60e51b81526020600482015260086024820152670416d6f756e743d360c41b6044820152606490fd5b600a54600160401b81101561333f576001810180600a558110156132cb57600a600052600080516020613a518339815191520180546001600160a01b0319166001600160a01b03909216919091179055565b9190820180921161350a57565b9190820391821161350a57565b156136bf57565b60405162461bcd60e51b8152602060048201526024808201527f4265742065786365656473206d6178696d756d20616c6c6f7761626c6520616d6044820152631bdd5b9d60e21b6064820152608490fd5b9061371a82613393565b6137276040519182613370565b8281528092613738601f1991613393565b0190602036910137565b8051156132cb5760200190565b80518210156132cb5760209160051b010190565b90815180825260208080930193019160005b828110613783575050505090565b835185529381019392810192600101613775565b1561379e57565b60405162461bcd60e51b815260206004820152600c60248201526b125b9d985b1a590818dbdcdd60a21b6044820152606490fd5b908160209103126106a5575180151581036106a55790565b6001600160a01b03918216815291166020820152604081019190915260600190565b1561381357565b60405162461bcd60e51b81526020600482015260136024820152721d1c985b9cd9995c919c9bdb4819985a5b1959606a1b6044820152606490fd5b6001600160a01b039091168152602081019190915260400190565b1561387057565b60405162461bcd60e51b815260206004820152600e60248201526d185c1c1c9bdd994819985a5b195960921b6044820152606490fd5b929060c0949260018060a01b0380921685521660208401526040830152606082015260a06080820152600060a08201520190565b156138e157565b60405162461bcd60e51b8152602060048201526011602482015270185c1c1c9bdd994813140819985a5b1959607a1b6044820152606490fd5b1561392157565b60405162461bcd60e51b8152602060048201526015602482015274185c1c1c9bdd99481c1c9bd99a5d0819985a5b1959605a1b6044820152606490fd5b600160ff1b811461350a5760000390565b9061ff0082549160081b169061ff001916179055565b1561398c57565b60405162461bcd60e51b815260206004820152601060248201526f105b1c9958591e481c995cdbdb1d995960821b6044820152606490fd5b156139cb57565b60405162461bcd60e51b815260206004820152600f60248201526e556e6b6e6f776e206669787475726560881b6044820152606490fd5b613a2d939260809260018060a01b031682526000602083015260408201528160608201520190613763565b9056fe739f283563fb51ab6b89ee95d937b2e63a6cfcb83c385dbebb629f9d97bd43e6c65a7bb8d6351c1cf70c95a316cc6a92839c986682d98bc35f958f4883f9d2a89016d09d72d40fdae2fd8ceac6b6234c7706214fd39c1cd1e609a0528c1993008be0079c531659141344cd1fd0a4f28419497f9722a3daafe3b4186f6b6457e04c3ca26b0b8e1f9d699e3c1f4dbea6cbd5cfcec128538e6031fd392d27071407f0c57e16840df040f15088dc2f81fe391c3923bec73e23a9662efc9c229c6a00076c6e8ed1b80418739ec27cda2052c8c564c879512820aecbe5bbf76fcfb09fa164736f6c6343000814000a",
  "linkReferences": {},
  "deployedLinkReferences": {}
}