{
  "_format": "hh-sol-artifact-1",
  "contractName": "MockUSDC",
  "sourceName": "contracts/MockUSDC.sol",
  "abi": [
    {
      "inputs": [],
      "stateMutability": "nonpayable",
      "type": "constructor"
    },
    {
      "inputs": [],
      "name": "ECDSAInvalidSignature",
      "type": "error"
    },
    {
      "inputs": [
        {
          "internalType": "uint256",
          "name": "length",
          "type": "uint256"
        }
      ],
      "name": "ECDSAInvalidSignatureLength",
      "type": "error"
    },
    {
      "inputs": [
        {
          "internalType": "bytes32",
          "name": "s",
          "type": "bytes32"
        }
      ],
      "name": "ECDSAInvalidSignatureS",
      "type": "error"
    },
    {
      "inputs": [
        {
          "internalType": "address",
          "name": "spender",
          "type": "address"
        },
        {
          "internalType": "uint256",
          "name": "allowance",
          "type": "uint256"
        },
        {
          "internalType": "uint256",
          "name": "needed",
          "type": "uint256"
        }
      ],
      "name": "ERC20InsufficientAllowance",
      "type": "error"
    },
    {
      "inputs": [
        {
          "internalType": "address",
          "name": "sender",
          "type": "address"
        },
        {
          "internalType": "uint256",
          "name": "balance",
          "type": "uint256"
        },
        {
          "internalType": "uint256",
          "name": "needed",
          "type": "uint256"
        }
      ],
      "name": "ERC20InsufficientBalance",
      "type": "error"
    },
    {
      "inputs": [
        {
          "internalType": "address",
          "name": "approver",
          "type": "address"
        }
      ],
      "name": "ERC20InvalidApprover",
      "type": "error"
    },
    {
      "inputs": [
        {
          "internalType": "address",
          "name": "receiver",
          "type": "address"
        }
      ],
      "name": "ERC20InvalidReceiver",
      "type": "error"
    },
    {
      "inputs": [
        {
          "internalType": "address",
          "name": "sender",
          "type": "address"
        }
      ],
      "name": "ERC20InvalidSender",
      "type": "error"
    },
    {
      "inputs": [
        {
          "internalType": "address",
          "name": "spender",
          "type": "address"
        }
      ],
      "name": "ERC20InvalidSpender",
      "type": "error"
    },
    {
      "inputs": [
        {
          "internalType": "uint256",
          "name": "deadline",
          "type": "uint256"
        }
      ],
      "name": "ERC2612ExpiredSignature",
      "type": "error"
    },
    {
      "inputs": [
        {
          "internalType": "address",
          "name": "signer",
          "type": "address"
        },
        {
          "internalType": "address",
          "name": "owner",
          "type": "address"
        }
      ],
      "name": "ERC2612InvalidSigner",
      "type": "error"
    },
    {
      "inputs": [
        {
          "internalType": "address",
          "name": "account",
          "type": "address"
        },
        {
          "internalType": "uint256",
          "name": "currentNonce",
          "type": "uint256"
        }
      ],
      "name": "InvalidAccountNonce",
      "type": "error"
    },
    {
      "inputs": [],
      "name": "InvalidShortString",
      "type": "error"
    },
    {
      "inputs": [
        {
          "internalType": "string",
          "name": "str",
          "type": "string"
        }
      ],
      "name": "StringTooLong",
      "type": "error"
    },
    {
      "anonymous": false,
      "inputs": [
        {
          "indexed": true,
          "internalType": "address",
          "name": "owner",
          "type": "address"
        },
        {
          "indexed": true,
          "internalType": "address",
          "name": "spender",
          "type": "address"
        },
        {
          "indexed": false,
          "internalType": "uint256",
          "name": "value",
          "type": "uint256"
        }
      ],
      "name": "Approval",
      "type": "event"
    },
    {
      "anonymous": false,
      "inputs": [],
      "name": "EIP712DomainChanged",
      "type": "event"
    },
    {
      "anonymous": false,
      "inputs": [
        {
          "indexed": true,
          "internalType": "address",
          "name": "from",
          "type": "address"
        },
        {
          "indexed": true,
          "internalType": "address",
          "name": "to",
          "type": "address"
        },
        {
          "indexed": false,
          "internalType": "uint256",
          "name": "value",
          "type": "uint256"
        }
      ],
      "name": "Transfer",
      "type": "event"
    },
    {
      "inputs": [],
      "name": "DOMAIN_SEPARATOR",
      "outputs": [
        {
          "internalType": "bytes32",
          "name": "",
          "type": "bytes32"
        }
      ],
      "stateMutability": "view",
      "type": "function"
    },
    {
      "inputs": [],
      "name": "MINT_AMOUNT",
      "outputs": [
        {
          "internalType": "uint256",
          "name": "",
          "type": "uint256"
        }
      ],
      "stateMutability": "view",
      "type": "function"
    },
    {
      "inputs": [
        {
          "internalType": "address",
          "name": "owner",
          "type": "address"
        },
        {
          "internalType": "address",
          "name": "spender",
          "type": "address"
        }
      ],
      "name": "allowance",
      "outputs": [
        {
          "internalType": "uint256",
          "name": "",
          "type": "uint256"
        }
      ],
      "stateMutability": "view",
      "type": "function"
    },
    {
      "inputs": [
        {
          "internalType": "address",
          "name": "spender",
          "type": "address"
        },
        {
          "internalType": "uint256",
          "name": "value",
          "type": "uint256"
        }
      ],
      "name": "approve",
      "outputs": [
        {
          "internalType": "bool",
          "name": "",
          "type": "bool"
        }
      ],
      "stateMutability": "nonpayable",
      "type": "function"
    },
    {
      "inputs": [
        {
          "internalType": "address",
          "name": "account",
          "type": "address"
        }
      ],
      "name": "balanceOf",
      "outputs": [
        {
          "internalType": "uint256",
          "name": "",
          "type": "uint256"
        }
      ],
      "stateMutability": "view",
      "type": "function"
    },
    {
      "inputs": [],
      "name": "decimals",
      "outputs": [
        {
          "internalType": "uint8",
          "name": "",
          "type": "uint8"
        }
      ],
      "stateMutability": "pure",
      "type": "function"
    },
    {
      "inputs": [],
      "name": "eip712Domain",
      "outputs": [
        {
          "internalType": "bytes1",
          "name": "fields",
          "type": "bytes1"
        },
        {
          "internalType": "string",
          "name": "name",
          "type": "string"
        },
        {
          "internalType": "string",
          "name": "version",
          "type": "string"
        },
        {
          "internalType": "uint256",
          "name": "chainId",
          "type": "uint256"
        },
        {
          "internalType": "address",
          "name": "verifyingContract",
          "type": "address"
        },
        {
          "internalType": "bytes32",
          "name": "salt",
          "type": "bytes32"
        },
        {
          "internalType": "uint256[]",
          "name": "extensions",
          "type": "uint256[]"
        }
      ],
      "stateMutability": "view",
      "type": "function"
    },
    {
      "inputs": [
        {
          "internalType": "address",
          "name": "recipient",
          "type": "address"
        }
      ],
      "name": "mint",
      "outputs": [],
      "stateMutability": "nonpayable",
      "type": "function"
    },
    {
      "inputs": [
        {
          "internalType": "uint256",
          "name": "amount",
          "type": "uint256"
        }
      ],
      "name": "mint",
      "outputs": [],
      "stateMutability": "nonpayable",
      "type": "function"
    },
    {
      "inputs": [],
      "name": "name",
      "outputs": [
        {
          "internalType": "string",
          "name": "",
          "type": "string"
        }
      ],
      "stateMutability": "view",
      "type": "function"
    },
    {
      "inputs": [
        {
          "internalType": "address",
          "name": "owner",
          "type": "address"
        }
      ],
      "name": "nonces",
      "outputs": [
        {
          "internalType": "uint256",
          "name": "",
          "type": "uint256"
        }
      ],
      "stateMutability": "view",
      "type": "function"
    },
    {
      "inputs": [
        {
          "internalType": "address",
          "name": "owner",
          "type": "address"
        },
        {
          "internalType": "address",
          "name": "spender",
          "type": "address"
        },
        {
          "internalType": "uint256",
          "name": "value",
          "type": "uint256"
        },
        {
          "internalType": "uint256",
          "name": "deadline",
          "type": "uint256"
        },
        {
          "internalType": "uint8",
          "name": "v",
          "type": "uint8"
        },
        {
          "internalType": "bytes32",
          "name": "r",
          "type": "bytes32"
        },
        {
          "internalType": "bytes32",
          "name": "s",
          "type": "bytes32"
        }
      ],
      "name": "permit",
      "outputs": [],
      "stateMutability": "nonpayable",
      "type": "function"
    },
    {
      "inputs": [],
      "name": "symbol",
      "outputs": [
        {
          "internalType": "string",
          "name": "",
          "type": "string"
        }
      ],
      "stateMutability": "view",
      "type": "function"
    },
    {
      "inputs": [],
      "name": "totalSupply",
      "outputs": [
        {
          "internalType": "uint256",
          "name": "",
          "type": "uint256"
        }
      ],
      "stateMutability": "view",
      "type": "function"
    },
    {
      "inputs": [
        {
          "internalType": "address",
          "name": "to",
          "type": "address"
        },
        {
          "internalType": "uint256",
          "name": "value",
          "type": "uint256"
        }
      ],
      "name": "transfer",
      "outputs": [
        {
          "internalType": "bool",
          "name": "",
          "type": "bool"
        }
      ],
      "stateMutability": "nonpayable",
      "type": "function"
    },
    {
      "inputs": [
        {
          "internalType": "address",
          "name": "from",
          "type": "address"
        },
        {
          "internalType": "address",
          "name": "to",
          "type": "address"
        },
        {
          "internalType": "uint256",
          "name": "value",
          "type": "uint256"
        }
      ],
      "name": "transferFrom",
      "outputs": [
        {
          "internalType": "bool",
          "name": "",
          "type": "bool"
        }
      ],
      "stateMutability": "nonpayable",
      "type": "function"
    }
  ],
  "bytecode": "0x610160604081815234620004265762000018826200042b565b60098252602091828101684d6f636b205553444360b81b9283825280519362000041856200042b565b600985528585015280519462000057866200042b565b60058652646d5553444360d81b8187015281519162000076836200042b565b6001808452603160f81b83850190815287516001600160401b03989192919089811162000326576003908154928484811c941680156200041b575b8885101462000405578190601f94858111620003af575b50889085831160011462000348576000926200033c575b505060001982841b1c191690841b1781555b8a51918a8311620003265760049b8c548581811c911680156200031b575b898210146200030657828111620002bb575b5087918411600114620002505793839491849260009562000244575b50501b92600019911b1c19161788555b620001588662000447565b946101209586526200016a856200060b565b96610140978852519020938460e05251902096610100978089524660a0528251938401947f8b73c3c69bb8fe3d512ecc4cf759cc79239f7b179b0ffacaa9a75d522b39400f86528385015260608401524660808401523060a084015260a0835260c0830196838810908811176200022f57508590525190206080523060c052610f5e9384620007c4853960805184610c8c015260a05184610d56015260c05184610c56015260e05184610cdb01525183610d01015251826104750152518161049f0152f35b604190634e487b7160e01b6000525260246000fd5b0151935038806200013d565b9190601f198416928d60005284896000209460005b8b89838310620002a3575050501062000288575b50505050811b0188556200014d565b01519060f884600019921b161c191690553880808062000279565b86860151895590970196948501948893500162000265565b8d600052886000208380870160051c8201928b8810620002fc575b0160051c019086905b828110620002ef57505062000121565b60008155018690620002df565b92508192620002d6565b60228e634e487b7160e01b6000525260246000fd5b90607f16906200010f565b634e487b7160e01b600052604160045260246000fd5b015190503880620000df565b90869350601f19831691856000528a6000209260005b8c8282106200039857505084116200037f575b505050811b018155620000f1565b015160001983861b60f8161c1916905538808062000371565b8385015186558a979095019493840193016200035e565b90915083600052886000208580850160051c8201928b8610620003fb575b918891869594930160051c01915b828110620003eb575050620000c8565b60008155859450889101620003db565b92508192620003cd565b634e487b7160e01b600052602260045260246000fd5b93607f1693620000b1565b600080fd5b604081019081106001600160401b038211176200032657604052565b80516020919082811015620004e6575090601f8251116200048557808251920151908083106200047657501790565b82600019910360031b1b161790565b90604051809263305a27a960e01b82528060048301528251908160248401526000935b828510620004cc575050604492506000838284010152601f80199101168101030190fd5b8481018201518686016044015293810193859350620004a8565b6001600160401b03811162000326576005928354926001938481811c9116801562000600575b838210146200040557601f8111620005c9575b5081601f84116001146200055f575092829391839260009462000553575b50501b916000199060031b1c191617905560ff90565b0151925038806200053d565b919083601f1981168760005284600020946000905b88838310620005ae575050501062000594575b505050811b01905560ff90565b015160001960f88460031b161c1916905538808062000587565b85870151885590960195948501948793509081019062000574565b8560005284601f846000209201871c820191601f8601881c015b828110620005f35750506200051f565b60008155018590620005e3565b90607f16906200050c565b805160209081811015620006995750601f8251116200063857808251920151908083106200047657501790565b90604051809263305a27a960e01b82528060048301528251908160248401526000935b8285106200067f575050604492506000838284010152601f80199101168101030190fd5b84810182015186860160440152938101938593506200065b565b906001600160401b0382116200032657600654926001938481811c91168015620007b8575b838210146200040557601f81116200077e575b5081601f841160011462000712575092829391839260009462000706575b50501b916000199060031b1c19161760065560ff90565b015192503880620006ef565b919083601f198116600660005284600020946000905b8883831062000763575050501062000749575b505050811b0160065560ff90565b015160001960f88460031b161c191690553880806200073b565b85870151885590960195948501948793509081019062000728565b600660005284601f84600020920160051c820191601f860160051c015b828110620007ab575050620006d1565b600081550185906200079b565b90607f1690620006be56fe608060408181526004918236101561001657600080fd5b600092833560e01c91826306fdde031461081457508163095ea7b3146107ea57816318160ddd146107cb57816323b872dd146106de578163313ce567146106c25781633644e5151461069e5781635427789c1461067f5781636a627842146105e857816370a08231146105b15781637ecebe001461057957816384b0196e1461045d57816395d89b4114610394578163a0712d68146102b7578163a9059cbb14610286578163d505accf14610120575063dd62ed3e146100d557600080fd5b3461011c578060031936011261011c57806020926100f1610921565b6100f961093c565b6001600160a01b0391821683526001865283832091168252845220549051908152f35b5080fd5b8391503461011c5760e036600319011261011c5761013c610921565b61014461093c565b906044359260643560843560ff811681036102825781421161026b5760018060a01b0390818516928389526007602052898920908154916001830190558a519060208201927f6e71edae12b1b97f4d1f60370fef10105fa2faae0126114a169c64845d6126c98452868d840152858a1660608401528a608084015260a083015260c082015260c0815260e0810181811060018060401b03821117610258578b525190206102269161021d916101f7610c53565b908c519161190160f01b83526002830152602282015260c43591604260a4359220610b48565b90929192610bce565b1681810361023d578661023a878787610ab5565b80f35b87516325c0072360e11b815292830152602482015260449150fd5b634e487b7160e01b8b526041875260248bfd5b875163313c898160e11b8152808401839052602490fd5b8680fd5b50503461011c578060031936011261011c576020906102b06102a6610921565b60243590336109e0565b5160018152f35b9190503461039057602036600319011261039057813591821561034057331561032b57600254908382018092116103185750600255338352826020528083208281540190555190815281600080516020610f3283398151915260203393a380f35b634e487b7160e01b855260119052602484fd5b83602492519163ec442f0560e01b8352820152fd5b6020608492519162461bcd60e51b8352820152602560248201527f4d696e7420616d6f756e74206d7573742062652067726561746572207468616e604482015264207a65726f60d81b6064820152fd5b8280fd5b83833461011c578160031936011261011c57805191809380546103b681610952565b8086529160019180831690811561043257506001146103f7575b6103f386866103e1828b03836109bd565b519182916020835260208301906108e1565b0390f35b835260208084209096505b82841061041f57505050826103f3946103e19282010194866103d0565b8054868501880152928601928101610402565b90506103f397506103e19450602092508693915060ff191682840152151560051b82010194866103d0565b919050346103905782600319360112610390576104997f0000000000000000000000000000000000000000000000000000000000000000610d7c565b926104c37f0000000000000000000000000000000000000000000000000000000000000000610e77565b908251926020928385019585871060018060401b038811176105665750928061051c83889661050f998b9996528686528151998a99600f60f81b8b5260e0868c015260e08b01906108e1565b91898303908a01526108e1565b924660608801523060808801528460a088015286840360c088015251928381520193925b82811061054f57505050500390f35b835185528695509381019392810192600101610540565b634e487b7160e01b845260419052602483fd5b50503461011c57602036600319011261011c5760209181906001600160a01b036105a1610921565b1681526007845220549051908152f35b50503461011c57602036600319011261011c5760209181906001600160a01b036105d9610921565b16815280845220549051908152f35b905034610390576020366003190112610390576001600160a01b0361060b610921565b169182156106695760025463773594009283820180921161065657508492600080516020610f328339815191529260209260025585855284835280852082815401905551908152a380f35b634e487b7160e01b865260119052602485fd5b5163ec442f0560e01b8152908101839052602490fd5b50503461011c578160031936011261011c576020905163773594008152f35b50503461011c578160031936011261011c576020906106bb610c53565b9051908152f35b50503461011c578160031936011261011c576020905160068152f35b905082346107c85760603660031901126107c8576106fa610921565b61070261093c565b916044359360018060a01b03831680835260016020528683203384526020528683205491600019830361073e575b6020886102b08989896109e0565b8683106107a657811561078f573315610778575082526001602090815286832033845281529186902090859003905582906102b087610730565b8751634a1406b160e11b8152908101849052602490fd5b875163e602df0560e01b8152908101849052602490fd5b90506107c4868851938493637dc7a0d960e11b855233908501610a97565b0390fd5b80fd5b50503461011c578160031936011261011c576020906002549051908152f35b50503461011c578060031936011261011c576020906102b061080a610921565b6024359033610ab5565b849084346103905782600319360112610390578260035461083481610952565b808552906001908181169081156108b95750600114610860575b5050506103e1826103f39403836109bd565b60038352602095507fc2575a0e9e593c00f959f8c92f12db2869c3395a3b0502d05e2516446f71f85b5b8284106108a657505050826103f3946103e1928201019461084e565b805486850188015292860192810161088a565b6103f397506103e19450602092508693915060ff191682840152151560051b8201019461084e565b919082519283825260005b84811061090d575050826000602080949584010152601f8019910116010190565b6020818301810151848301820152016108ec565b600435906001600160a01b038216820361093757565b600080fd5b602435906001600160a01b038216820361093757565b90600182811c92168015610982575b602083101461096c57565b634e487b7160e01b600052602260045260246000fd5b91607f1691610961565b604081019081106001600160401b038211176109a757604052565b634e487b7160e01b600052604160045260246000fd5b601f909101601f19168101906001600160401b038211908210176109a757604052565b916001600160a01b03808416928315610a7e5716928315610a655760009083825281602052604082205490838210610a4857509160408282600080516020610f32833981519152958760209652828652038282205586815220818154019055604051908152a3565b6107c48460405193849363391434e360e21b855260048501610a97565b60405163ec442f0560e01b815260006004820152602490fd5b604051634b637e8f60e11b815260006004820152602490fd5b604091949392606082019560018060a01b0316825260208201520152565b6001600160a01b03908116918215610b2f5716918215610b165760207f8c5be1e5ebec7d5bd14f71427d1e84f3dd0314c0f7b2291e5b200ac8c7c3b925918360005260018252604060002085600052825280604060002055604051908152a3565b604051634a1406b160e11b815260006004820152602490fd5b60405163e602df0560e01b815260006004820152602490fd5b91906fa2a8918ca85bafe22016d0b997e4df60600160ff1b038411610bc257926020929160ff608095604051948552168484015260408301526060820152600092839182805260015afa15610bb65780516001600160a01b03811615610bad57918190565b50809160019190565b604051903d90823e3d90fd5b50505060009160039190565b6004811015610c3d5780610be0575050565b60018103610bfa5760405163f645eedf60e01b8152600490fd5b60028103610c1b5760405163fce698f760e01b815260048101839052602490fd5b600314610c255750565b602490604051906335e2f38360e21b82526004820152fd5b634e487b7160e01b600052602160045260246000fd5b307f00000000000000000000000000000000000000000000000000000000000000006001600160a01b03161480610d53575b15610cae577f000000000000000000000000000000000000000000000000000000000000000090565b60405160208101907f8b73c3c69bb8fe3d512ecc4cf759cc79239f7b179b0ffacaa9a75d522b39400f82527f000000000000000000000000000000000000000000000000000000000000000060408201527f000000000000000000000000000000000000000000000000000000000000000060608201524660808201523060a082015260a0815260c0810181811060018060401b038211176109a75760405251902090565b507f00000000000000000000000000000000000000000000000000000000000000004614610c85565b60ff8114610dba5760ff811690601f8211610da85760405191610d9e8361098c565b8252602082015290565b604051632cd44ac360e21b8152600490fd5b50604051600554816000610dcd83610952565b808352600193808516908115610e565750600114610df6575b50610df3925003826109bd565b90565b600560009081527f036b6384b5eca791c62761152d0c79bb0604c104a5fb6f4eb0703f3154bb3db094602093509091905b818310610e3e575050610df3935082010138610de6565b85548784018501529485019486945091830191610e27565b9050610df394506020925060ff191682840152151560051b82010138610de6565b60ff8114610e995760ff811690601f8211610da85760405191610d9e8361098c565b50604051600654816000610eac83610952565b808352600193808516908115610e565750600114610ed15750610df3925003826109bd565b600660009081527ff652222313e28459528d920b65115c16c04f3efc82aaedc97be59f3f377c0d3f94602093509091905b818310610f19575050610df3935082010138610de6565b85548784018501529485019486945091830191610f0256feddf252ad1be2c89b69c2b068fc378daa952ba7f163c4a11628f55a4df523b3efa164736f6c6343000814000a",
  "linkReferences": {},
  "deployedLinkReferences": {}
}