{
  "_format": "hh-sol-artifact-1",
  "contractName": "PredictionMarket",
  "sourceName": "contracts/PredictionMarket.sol",
  "abi": [
    {
      "inputs": [],
      "name": "InvalidInitialization",
      "type": "error"
    },
    {
      "inputs": [],
      "name": "NotInitializing",
      "type": "error"
    },
    {
      "inputs": [
        {
          "internalType": "address",
          "name": "owner",
          "type": "address"
        }
      ],
      "name": "OwnableInvalidOwner",
      "type": "error"
    },
    {
      "inputs": [
        {
          "internalType": "address",
          "name": "account",
          "type": "address"
        }
      ],
      "name": "OwnableUnauthorizedAccount",
      "type": "error"
    },
    {
      "anonymous": false,
      "inputs": [
        {
          "indexed": true,
          "internalType": "address",
          "name": "newBotAddress",
          "type": "address"
        }
      ],
      "name": "BotAddressSet",
      "type": "event"
    },
    {
      "anonymous": false,
      "inputs": [
        {
          "indexed": false,
          "internalType": "uint64",
          "name": "version",
          "type": "uint64"
        }
      ],
      "name": "Initialized",
      "type": "event"
    },
    {
      "anonymous": false,
      "inputs": [
        {
          "indexed": true,
          "internalType": "uint256",
          "name": "matchId",
          "type": "uint256"
        },
        {
          "indexed": true,
          "internalType": "uint8",
          "name": "outcome",
          "type": "uint8"
        }
      ],
      "name": "MarketResolved",
      "type": "event"
    },
    {
      "anonymous": false,
      "inputs": [
        {
          "indexed": true,
          "internalType": "uint256",
          "name": "matchId",
          "type": "uint256"
        },
        {
          "indexed": false,
          "internalType": "uint256",
          "name": "home",
          "type": "uint256"
        },
        {
          "indexed": false,
          "internalType": "uint256",
          "name": "draw",
          "type": "uint256"
        },
        {
          "indexed": false,
          "internalType": "uint256",
          "name": "away",
          "type": "uint256"
        }
      ],
      "name": "OddsUpdated",
      "type": "event"
    },
    {
      "anonymous": false,
      "inputs": [
        {
          "indexed": true,
          "internalType": "address",
          "name": "previousOwner",
          "type": "address"
        },
        {
          "indexed": true,
          "internalType": "address",
          "name": "newOwner",
          "type": "address"
        }
      ],
      "name": "OwnershipTransferred",
      "type": "event"
    },
    {
      "anonymous": false,
      "inputs": [
        {
          "indexed": true,
          "internalType": "address",
          "name": "redeemer",
          "type": "address"
        },
        {
          "indexed": true,
          "internalType": "uint8",
          "name": "outcome",
          "type": "uint8"
        },
        {
          "indexed": false,
          "internalType": "uint256",
          "name": "amount",
          "type": "uint256"
        }
      ],
      "name": "PayoutRedeemed",
      "type": "event"
    },
    {
      "anonymous": false,
      "inputs": [
        {
          "indexed": true,
          "internalType": "address",
          "name": "buyer",
          "type": "address"
        },
        {
          "indexed": true,
          "internalType": "uint8",
          "name": "outcome",
          "type": "uint8"
        },
        {
          "indexed": false,
          "internalType": "uint256",
          "name": "shares",
          "type": "uint256"
        },
        {
          "indexed": false,
          "internalType": "int256",
          "name": "actualCost",
          "type": "int256"
        }
      ],
      "name": "SharesPurchased",
      "type": "event"
    },
    {
      "anonymous": false,
      "inputs": [
        {
          "indexed": true,
          "internalType": "address",
          "name": "seller",
          "type": "address"
        },
        {
          "indexed": true,
          "internalType": "uint8",
          "name": "outcome",
          "type": "uint8"
        },
        {
          "indexed": false,
          "internalType": "uint256",
          "name": "shares",
          "type": "uint256"
        },
        {
          "indexed": false,
          "internalType": "int256",
          "name": "actualGain",
          "type": "int256"
        }
      ],
      "name": "SharesSold",
      "type": "event"
    },
    {
      "anonymous": false,
      "inputs": [
        {
          "indexed": true,
          "internalType": "address",
          "name": "user",
          "type": "address"
        },
        {
          "indexed": false,
          "internalType": "int256[]",
          "name": "tradeAmounts",
          "type": "int256[]"
        },
        {
          "indexed": false,
          "internalType": "int256",
          "name": "netCostOrGain",
          "type": "int256"
        }
      ],
      "name": "TradeExecuted",
      "type": "event"
    },
    {
      "inputs": [],
      "name": "FEE_BPS",
      "outputs": [
        {
          "internalType": "uint256",
          "name": "",
          "type": "uint256"
        }
      ],
      "stateMutability": "view",
      "type": "function"
    },
    {
      "inputs": [
        {
          "internalType": "uint256",
          "name": "",
          "type": "uint256"
        }
      ],
      "name": "bettors",
      "outputs": [
        {
          "internalType": "address",
          "name": "",
          "type": "address"
        }
      ],
      "stateMutability": "view",
      "type": "function"
    },
    {
      "inputs": [],
      "name": "botAddress",
      "outputs": [
        {
          "internalType": "address",
          "name": "",
          "type": "address"
        }
      ],
      "stateMutability": "view",
      "type": "function"
    },
    {
      "inputs": [
        {
          "internalType": "uint8",
          "name": "outcome",
          "type": "uint8"
        },
        {
          "internalType": "uint256",
          "name": "amount",
          "type": "uint256"
        }
      ],
      "name": "buyShares",
      "outputs": [],
      "stateMutability": "nonpayable",
      "type": "function"
    },
    {
      "inputs": [
        {
          "internalType": "uint8",
          "name": "outcome",
          "type": "uint8"
        },
        {
          "internalType": "uint256",
          "name": "amount",
          "type": "uint256"
        },
        {
          "internalType": "uint256",
          "name": "value",
          "type": "uint256"
        },
        {
          "internalType": "uint256",
          "name": "deadline",
          "type": "uint256"
        },
        {
          "internalType": "uint8",
          "name": "v",
          "type": "uint8"
        },
        {
          "internalType": "bytes32",
          "name": "r",
          "type": "bytes32"
        },
        {
          "internalType": "bytes32",
          "name": "s",
          "type": "bytes32"
        }
      ],
      "name": "buySharesWithPermit",
      "outputs": [],
      "stateMutability": "nonpayable",
      "type": "function"
    },
    {
      "inputs": [],
      "name": "conditionId",
      "outputs": [
        {
          "internalType": "bytes32",
          "name": "",
          "type": "bytes32"
        }
      ],
      "stateMutability": "view",
      "type": "function"
    },
    {
      "inputs": [],
      "name": "conditionalTokens",
      "outputs": [
        {
          "internalType": "contract ConditionalTokens",
          "name": "",
          "type": "address"
        }
      ],
      "stateMutability": "view",
      "type": "function"
    },
    {
      "inputs": [],
      "name": "getBettors",
      "outputs": [
        {
          "internalType": "address[]",
          "name": "",
          "type": "address[]"
        }
      ],
      "stateMutability": "view",
      "type": "function"
    },
    {
      "inputs": [
        {
          "internalType": "uint8",
          "name": "outcome",
          "type": "uint8"
        }
      ],
      "name": "getMarginalPrice",
      "outputs": [
        {
          "internalType": "uint256",
          "name": "",
          "type": "uint256"
        }
      ],
      "stateMutability": "view",
      "type": "function"
    },
    {
      "inputs": [
        {
          "internalType": "uint8",
          "name": "outcome",
          "type": "uint8"
        },
        {
          "internalType": "int256",
          "name": "amount",
          "type": "int256"
        }
      ],
      "name": "getNetCost",
      "outputs": [
        {
          "internalType": "int256",
          "name": "",
          "type": "int256"
        }
      ],
      "stateMutability": "view",
      "type": "function"
    },
    {
      "inputs": [
        {
          "internalType": "uint256",
          "name": "_matchId",
          "type": "uint256"
        },
        {
          "internalType": "bytes32",
          "name": "_questionId",
          "type": "bytes32"
        },
        {
          "internalType": "bytes32",
          "name": "_conditionId",
          "type": "bytes32"
        },
        {
          "internalType": "address",
          "name": "_marketMaker",
          "type": "address"
        },
        {
          "internalType": "address",
          "name": "_liquidityPool",
          "type": "address"
        },
        {
          "internalType": "address",
          "name": "_usdc",
          "type": "address"
        },
        {
          "internalType": "address",
          "name": "_conditionalTokens",
          "type": "address"
        }
      ],
      "name": "initializeMarket",
      "outputs": [],
      "stateMutability": "nonpayable",
      "type": "function"
    },
    {
      "inputs": [
        {
          "internalType": "address",
          "name": "",
          "type": "address"
        }
      ],
      "name": "isBettor",
      "outputs": [
        {
          "internalType": "bool",
          "name": "",
          "type": "bool"
        }
      ],
      "stateMutability": "view",
      "type": "function"
    },
    {
      "inputs": [],
      "name": "isInitialized",
      "outputs": [
        {
          "internalType": "bool",
          "name": "",
          "type": "bool"
        }
      ],
      "stateMutability": "view",
      "type": "function"
    },
    {
      "inputs": [],
      "name": "isResolved",
      "outputs": [
        {
          "internalType": "bool",
          "name": "",
          "type": "bool"
        }
      ],
      "stateMutability": "view",
      "type": "function"
    },
    {
      "inputs": [],
      "name": "liquidityPool",
      "outputs": [
        {
          "internalType": "contract ILiquidityPool",
          "name": "",
          "type": "address"
        }
      ],
      "stateMutability": "view",
      "type": "function"
    },
    {
      "inputs": [],
      "name": "marketMaker",
      "outputs": [
        {
          "internalType": "contract LMSRMarketMaker",
          "name": "",
          "type": "address"
        }
      ],
      "stateMutability": "view",
      "type": "function"
    },
    {
      "inputs": [],
      "name": "matchId",
      "outputs": [
        {
          "internalType": "uint256",
          "name": "",
          "type": "uint256"
        }
      ],
      "stateMutability": "view",
      "type": "function"
    },
    {
      "inputs": [
        {
          "internalType": "address",
          "name": "",
          "type": "address"
        },
        {
          "internalType": "address",
          "name": "",
          "type": "address"
        },
        {
          "internalType": "uint256[]",
          "name": "",
          "type": "uint256[]"
        },
        {
          "internalType": "uint256[]",
          "name": "",
          "type": "uint256[]"
        },
        {
          "internalType": "bytes",
          "name": "",
          "type": "bytes"
        }
      ],
      "name": "onERC1155BatchReceived",
      "outputs": [
        {
          "internalType": "bytes4",
          "name": "",
          "type": "bytes4"
        }
      ],
      "stateMutability": "nonpayable",
      "type": "function"
    },
    {
      "inputs": [
        {
          "internalType": "address",
          "name": "",
          "type": "address"
        },
        {
          "internalType": "address",
          "name": "",
          "type": "address"
        },
        {
          "internalType": "uint256",
          "name": "",
          "type": "uint256"
        },
        {
          "internalType": "uint256",
          "name": "",
          "type": "uint256"
        },
        {
          "internalType": "bytes",
          "name": "",
          "type": "bytes"
        }
      ],
      "name": "onERC1155Received",
      "outputs": [
        {
          "internalType": "bytes4",
          "name": "",
          "type": "bytes4"
        }
      ],
      "stateMutability": "nonpayable",
      "type": "function"
    },
    {
      "inputs": [],
      "name": "owner",
      "outputs": [
        {
          "internalType": "address",
          "name": "",
          "type": "address"
        }
      ],
      "stateMutability": "view",
      "type": "function"
    },
    {
      "inputs": [],
      "name": "questionId",
      "outputs": [
        {
          "internalType": "bytes32",
          "name": "",
          "type": "bytes32"
        }
      ],
      "stateMutability": "view",
      "type": "function"
    },
    {
      "inputs": [],
      "name": "redeemPayouts",
      "outputs": [],
      "stateMutability": "nonpayable",
      "type": "function"
    },
    {
      "inputs": [],
      "name": "renounceOwnership",
      "outputs": [],
      "stateMutability": "nonpayable",
      "type": "function"
    },
    {
      "inputs": [
        {
          "internalType": "uint8",
          "name": "result",
          "type": "uint8"
        }
      ],
      "name": "resolveMarket",
      "outputs": [],
      "stateMutability": "nonpayable",
      "type": "function"
    },
    {
      "inputs": [],
      "name": "resolvedOutcome",
      "outputs": [
        {
          "internalType": "uint8",
          "name": "",
          "type": "uint8"
        }
      ],
      "stateMutability": "view",
      "type": "function"
    },
    {
      "inputs": [
        {
          "internalType": "uint8",
          "name": "outcome",
          "type": "uint8"
        },
        {
          "internalType": "uint256",
          "name": "amount",
          "type": "uint256"
        }
      ],
      "name": "sellShares",
      "outputs": [],
      "stateMutability": "nonpayable",
      "type": "function"
    },
    {
      "inputs": [
        {
          "internalType": "address",
          "name": "_botAddress",
          "type": "address"
        }
      ],
      "name": "setBotAddress",
      "outputs": [],
      "stateMutability": "nonpayable",
      "type": "function"
    },
    {
      "inputs": [
        {
          "internalType": "bytes4",
          "name": "interfaceId",
          "type": "bytes4"
        }
      ],
      "name": "supportsInterface",
      "outputs": [
        {
          "internalType": "bool",
          "name": "",
          "type": "bool"
        }
      ],
      "stateMutability": "view",
      "type": "function"
    },
    {
      "inputs": [
        {
          "internalType": "uint8",
          "name": "",
          "type": "uint8"
        }
      ],
      "name": "totalWageredPerOutcome",
      "outputs": [
        {
          "internalType": "uint256",
          "name": "",
          "type": "uint256"
        }
      ],
      "stateMutability": "view",
      "type": "function"
    },
    {
      "inputs": [
        {
          "internalType": "int256[]",
          "name": "tradeAmounts",
          "type": "int256[]"
        },
        {
          "internalType": "int256",
          "name": "collateralLimit",
          "type": "int256"
        }
      ],
      "name": "trade",
      "outputs": [],
      "stateMutability": "nonpayable",
      "type": "function"
    },
    {
      "inputs": [
        {
          "internalType": "address",
          "name": "newOwner",
          "type": "address"
        }
      ],
      "name": "transferOwnership",
      "outputs": [],
      "stateMutability": "nonpayable",
      "type": "function"
    },
    {
      "inputs": [],
      "name": "usdc",
      "outputs": [
        {
          "internalType": "contract IERC20",
          "name": "",
          "type": "address"
        }
      ],
      "stateMutability": "view",
      "type": "function"
    }
  ],
  "bytecode": "0x6080806040523461001657613478908161001c8239f35b600080fdfe608080604052600436101561001357600080fd5b60003560e01c90816301ffc9a714612b6c5750806315bd7611146121015780631c371e2b146120dd5780631f21f9af146120b45780632d4f40c614611ff75780632ddc7de714611fd95780632dfc8ee914611fa5578063326209b414611aeb5780633482b64414611aa2578063380e90bd146118be578063392e53cd146118985780633e413bee1461186f578063429c2ed7146118305780634bf4f42314611807578063591e791c146117755780635bd9e2991461174c578063665a11ca14611723578063715018a6146116cb5780638da5cb5b1461169557806399892e4714611677578063a2e3215c146113be578063aaafcf7f14611330578063b06a5c5214611312578063bc197c811461128a578063bf333f2c1461126d578063dbb3f53714611247578063dd9089aa14610b18578063f21ffa6b14610862578063f23a6e611461080d578063f2ccb3971461025a578063f2fde38b1461022f5763ffd4493c1461017f57600080fd5b3461022a57600036600319011261022a5760405180600854808352602080930180916008600052846000209060005b8682821061020d5786866101c482880383612c5a565b604051928392818401908285525180915260408401929160005b8281106101ed57505050500390f35b83516001600160a01b0316855286955093810193928101926001016101de565b83546001600160a01b0316855290930192600192830192016101ae565b600080fd5b3461022a57602036600319011261022a5761025861024b612bbf565b610253612d39565b612d72565b005b3461022a57604036600319011261022a57610273612beb565b60249060ff82359161029a82600754610290828260a01c16612e03565b60a81c1615612e41565b166102a760038210612e87565b6102b2821515612ec5565b60018060a01b03908160055416928260045416600254946040519563856296f760e01b875260006004880152878701526001841b60448701526020958681606481855afa80156105fc5787916000916107dc575b5060405163039dd75360e41b81529384918291610327919060048401613123565b0381845afa9182156105fc576000926107ad575b50604051627eeac760e11b8152868180610359863360048401613123565b0381855afa80156105fc57849160009161077c575b501061073a576040516103cb929161038582612c3f565b6003825260603689840137610399856132bf565b6103a3878461301e565b5287898860065416604051808098819463782d085b60e01b8352866004840152820188613032565b03915afa9384156105fc5760009461070b575b5060008412156106d257803b1561022a57846000916104169483604051809781958294637921219560e11b84523033600486016131cf565b03925af19081156105fc578792610459926106c3575b5086600654169060006040518096819582946315bd761160e01b8452604060048501526044840190613032565b908d83015203925af180156105fc57600090610695575b60009150856104a38660045416610486846132bf565b60405195868094819363a9059cbb60e01b83523360048401613123565b03925af19182156105fc576104ec926104c491600091610668575b506132d0565b6104cd816132bf565b84600052600a87526104e56040600020918254612fac565b90556132bf565b604051918252848201527f59bb1b9bbd3cec3437b204c969642374ba2f0fd9d3b7cfc39b49024d9e60d45460403392a360065416916040519263b20f8e7f60e01b8085526000600486015283858481855afa9485156105fc57600095610639575b50604051908082526001600483015284828581865afa9384156105fc578592600095610608575b50604051809481938252600260048301525afa9283156105fc576000936105be575b6000546040516000805160206133ec83398151915290806105b988888b846132a9565b0390a2005b90809350813d83116105f5575b6105d58183612c5a565b8101031261022a576000805160206133ec83398151915291519184610596565b503d6105cb565b6040513d6000823e3d90fd5b8381949296503d8311610632575b6106208183612c5a565b8101031261022a578491519387610574565b503d610616565b9094508381813d8311610661575b6106518183612c5a565b8101031261022a5751938561054d565b503d610647565b6106889150883d8a1161068e575b6106808183612c5a565b8101906130a7565b896104be565b503d610676565b508481813d83116106bc575b6106ab8183612c5a565b8101031261022a5760009051610470565b503d6106a1565b6106cc90612bfb565b8961042c565b60405162461bcd60e51b8152600481018990526012818b01527124b73b30b634b2103a3930b2329033b0b4b760711b6044820152606490fd5b9093508781813d8311610733575b6107238183612c5a565b8101031261022a575192896103de565b503d610719565b60405162461bcd60e51b815260048101879052601b818901527a496e73756666696369656e74206f7574636f6d6520746f6b656e7360281b6044820152606490fd5b809250888092503d83116107a6575b6107958183612c5a565b8101031261022a578390518961036e565b503d61078b565b9091508581813d83116107d5575b6107c58183612c5a565b8101031261022a5751908761033b565b503d6107bb565b82819392503d8311610806575b6107f38183612c5a565b8101031261022a57518690610327610306565b503d6107e9565b3461022a5760a036600319011261022a57610826612bbf565b5061082f612bd5565b506084356001600160401b03811161022a5761084f903690600401612ce3565b5060405163f23a6e6160e01b8152602090f35b3461022a5760208060031936011261022a5761087c612beb565b90610885612d39565b6007549161089860ff8460a01c16612e03565b6108a860ff8460a81c1615612e41565b60ff8116926108b960038510612e87565b61ffff60a81b191660b09190911b60ff60b01b1617600160a81b176007556006546001600160a01b0391908216803b1561022a57600080916004604051809481936321eb936b60e11b83525af180156105fc57610b09575b50600160ff60075460b01c161b6040519061092b82612c24565b6001825282368184013761093e82613011565b5282600554169083600454169060025492803b1561022a5761097a936000809460405196879586948593626dc0df60e21b855260048501613354565b03925af180156105fc57610afa575b50816004541690604051916370a0823160e01b83523060048401528183602481845afa9283156105fc57600093610acb575b5081836109e5928660015416600060405180968195829463095ea7b360e01b845260048401613123565b03925af180156105fc57610aad575b5050816001541690813b1561022a57600091602483926040519485938492634410462760e01b845260048401525af180156105fc57610a9e575b5060015416803b1561022a57600080916024604051809481936314a93dc160e11b83523060048401525af180156105fc57610a8f575b506000547f739f283563fb51ab6b89ee95d937b2e63a6cfcb83c385dbebb629f9d97bd43e6600080a3005b610a9890612bfb565b81610a64565b610aa790612bfb565b82610a2e565b81610ac392903d1061068e576106808183612c5a565b5083806109f4565b9092508181813d8311610af3575b610ae38183612c5a565b8101031261022a575191816109bb565b503d610ad9565b610b0390612bfb565b83610989565b610b1290612bfb565b83610911565b3461022a57604036600319011261022a57610b31612beb565b610b526024918235906007549060ff93848361029082809660a01c16612e03565b1690600390610b62828410612e87565b610b6d811515612ec5565b3360005260209260098452846040600020541615611221575b60009260005b86811682811015610bd157838103610bae575b50610ba990612f78565b610b8c565b610ba99195610bca91600052600a885260406000205490612f9f565b9490610b9f565b50509394509164746a52880090810180911161120c57610c02610c0a9184600052600a875260406000205490612fac565b821115612fb9565b60405192610c1784612c3f565b83526060368585013780610c2b838561301e565b5260065460405163782d085b60e01b8152600481018690526001600160a01b0394918690829087168180610c618c820188613032565b03915afa9081156105fc576000916111df575b50610c8160008213613066565b6101908082029082820414821517156111ca57612710900490600087610cd3610caa8585612f9f565b9460011c948960045416906040519485809481936323b872dd60e01b83523033600485016130bf565b03925af180156105fc57610cef916000916111ad575b506130e1565b85600454169286600654169188604051809681600081610d1e8763095ea7b360e01b9a8b845260048401613123565b03925af19182156105fc57610d3e8a938c97600091611190575b5061313e565b610d6e60008a6006541692604051988995869485936315bd761160e01b8552604060048601526044850190613032565b9183015203925af19283156105fc57600093611161575b5085600554168660045416906002546040519063856296f760e01b8252600060048301528b8201526001881b60448201528981606481855afa80156105fc578a91600091611130575b5060405163039dd75360e41b81529384918291610def919060048401613123565b0381845afa9182156105fc57600092611101575b50604051627eeac760e11b8152898180610e21863060048401613123565b0381855afa80156105fc5787906000906110d0575b610e429250101561318a565b803b1561022a5785600091610e709383604051809681958294637921219560e11b84523330600486016131cf565b03925af180156105fc576110c1575b50610ea687838860045416896001541660006040518096819582948a845260048401613123565b03925af180156105fc57610ec2916000916110a4575b50613203565b856001541690813b1561022a57600080928a6040518095819363e574831560e01b83528860048401525af19182156105fc57610f3192611095575b50878388600454166000805160206133ac8339815191529360008b8654169160405197889586948593845260048401613123565b03925af19182156105fc578792610f5091600091611078575b5061324f565b541690813b1561022a57600091888392604051948593849263fe80d50960e01b845260048401525af180156105fc57611069575b5082600052600a85526040600020610f9d828254612f9f565b9055604051918252848201527f58d1b6a27802b679fdc085f457b7699ca7b334df2e9f26f1bf92773f0810a3a260403392a360065416916040519263b20f8e7f60e01b8085526000600486015283858481855afa9485156105fc576000956106395750604051908082526001600483015284828581865afa9384156105fc5785926000956106085750604051809481938252600260048301525afa9283156105fc576000936105be576000546040516000805160206133ec83398151915290806105b988888b846132a9565b61107290612bfb565b86610f84565b61108f91508a3d8c1161068e576106808183612c5a565b8b610f4a565b61109e90612bfb565b89610efd565b6110bb9150893d8b1161068e576106808183612c5a565b8a610ebc565b6110ca90612bfb565b88610e7f565b50508981813d83116110fa575b6110e78183612c5a565b8101031261022a5786610e429151610e36565b503d6110dd565b9091508881813d8311611129575b6111198183612c5a565b8101031261022a5751908a610e03565b503d61110f565b82819392503d831161115a575b6111478183612c5a565b8101031261022a57518990610def610dce565b503d61113d565b9092508681813d8311611189575b6111798183612c5a565b8101031261022a57519188610d85565b503d61116f565b6111a79150853d871161068e576106808183612c5a565b8d610d38565b6111c49150893d8b1161068e576106808183612c5a565b8a610ce9565b87634e487b7160e01b60005260116004526000fd5b90508581813d8311611205575b6111f68183612c5a565b8101031261022a575187610c74565b503d6111ec565b85634e487b7160e01b60005260116004526000fd5b61122a33612f10565b33600052600984526040600020600160ff19825416179055610b86565b3461022a57600036600319011261022a57602060ff60075460a81c166040519015158152f35b3461022a57600036600319011261022a5760206040516101908152f35b3461022a5760a036600319011261022a576112a3612bbf565b506112ac612bd5565b506001600160401b0360443581811161022a576112cd903690600401612c7d565b5060643581811161022a576112e6903690600401612c7d565b5060843590811161022a576112ff903690600401612ce3565b5060405163bc197c8160e01b8152602090f35b3461022a57600036600319011261022a576020600354604051908152f35b3461022a5760208060031936011261022a5761134a612beb565b60065460405163b20f8e7f60e01b815260ff9290921660048301528290829060249082906001600160a01b03165afa9081156105fc57600091611391575b50604051908152f35b90508181813d83116113b7575b6113a88183612c5a565b8101031261022a575182611388565b503d61139e565b3461022a5760e036600319011261022a576113d7612beb565b60249081356084359060ff9283831680930361022a57839061140482600754610290828260a01c16612e03565b16600390611413828210612e87565b61141e831515612ec5565b3360005260209360098552856040600020541615611651575b60009360005b878116858110156114825784810361145f575b5061145a90612f78565b61143d565b61145a919661147b91600052600a895260406000205490612f9f565b9590611450565b5050909287959464746a52880090810180911161163c576114b46114bc9185600052600a885260406000205490612fac565b831115612fb9565b604051906114c982612c3f565b815260603686830137816114dd848361301e565b5260065460405163782d085b60e01b8152600481018790526001600160a01b03959187908290881681806115138d820189613032565b03915afa9081156105fc5760009161160f575b5061153360008213613066565b6101908082029082820414821517156115fa5761271090046115558183612f9f565b9060011c92876004541690813b1561022a5760009060e48c83604051958694859363d505accf60e01b8552336004860152309085015260443560448501526064356064850152608484015260a43560a484015260c43560c48401525af180156105fc576000928a92610cd3926115eb575b508960045416906040519485809481936323b872dd60e01b83523033600485016130bf565b6115f490612bfb565b8c6115c6565b88634e487b7160e01b60005260116004526000fd5b90508681813d8311611635575b6116268183612c5a565b8101031261022a575188611526565b503d61161c565b86634e487b7160e01b60005260116004526000fd5b61165a33612f10565b33600052600985526040600020600160ff19825416179055611437565b3461022a57600036600319011261022a576020600054604051908152f35b3461022a57600036600319011261022a576000805160206133ac833981519152546040516001600160a01b039091168152602090f35b3461022a57600036600319011261022a576116e4612d39565b6000805160206133ac83398151915280546001600160a01b031981169091556000906001600160a01b031660008051602061340c8339815191528280a3005b3461022a57600036600319011261022a576001546040516001600160a01b039091168152602090f35b3461022a57600036600319011261022a576005546040516001600160a01b039091168152602090f35b3461022a57604036600319011261022a5761178e612beb565b6117ec6040519161179e83612c3f565b600383526020928391606036848401376117be60ff60243592168361301e565b5260018060a01b0360065416604051808095819463782d085b60e01b83528660048401526024830190613032565b03915afa9081156105fc576000916113915750604051908152f35b3461022a57600036600319011261022a576007546040516001600160a01b039091168152602090f35b3461022a57602036600319011261022a576001600160a01b03611851612bbf565b166000526009602052602060ff604060002054166040519015158152f35b3461022a57600036600319011261022a576004546040516001600160a01b039091168152602090f35b3461022a57600036600319011261022a57602060ff60075460a01c166040519015158152f35b3461022a5760e036600319011261022a576001600160a01b036064358181169081900361022a5760843582811680910361022a5760a4359280841680940361022a5760c43590811680910361022a5760008051602061344c83398151915292835460ff8160401c16159360018060401b03821696871580611a9b575b60018099149081611a91575b159081611a88575b50611a76576001600160401b0319831688178755849286611a5b575b50611973612dd4565b61197b612dd4565b61198433612d72565b60043560005560443560025560243560035560018060a01b03199184836006541617600655828954161788558160045416176004556005541617600555813b1561022a5760009160448392604051948593849263a22cb46560e01b845260048401528960248401525af180156105fc57611a4c575b506007805460ff60a01b1916600160a01b179055611a1357005b805460ff60401b191690556040519081527fc7f505b2f371ae2175ee4913f4499e1f2633a7b5936321eed1cdaeb6115181d290602090a1005b611a5590612bfb565b836119f9565b6001600160481b0319166001600160401b011787558861196a565b60405163f92ee8a960e01b8152600490fd5b9050158961194e565b303b159150611946565b508561193a565b3461022a57602036600319011261022a5760043560085481101561022a57600860005260008051602061342c83398151915201546040516001600160a01b039091168152602090f35b3461022a57600036600319011261022a57600754611b0e60ff8260a01c16612e03565b60ff8160a81c1615611f6a5760ff60019160b01c161b604051611b3081612c24565b6001815260209182368184013780611b4783613011565b5260018060a01b0380600554168160045416600254936040519063856296f760e01b8252600060048301526024958683015260448201528681606481865afa80156105fc578791600091611f39575b5060405163039dd75360e41b81529283918291611bb7919060048401613123565b0381855afa9081156105fc57600091611f0c575b50604051627eeac760e11b8152868180611be9853360048401613123565b0381865afa9081156105fc57600091611edf575b508015611e8f57823b1561022a57611c319260009283604051809681958294637921219560e11b84523033600486016131cf565b03925af180156105fc57611e80575b50806004541690604051936370a0823160e01b9283865230600487015286868681845afa9586156105fc57600096611e51575b5082600554169160025492803b1561022a57611ca9936000809460405196879586948593626dc0df60e21b855260048501613354565b03925af180156105fc57611e42575b50600454169260405191825230600483015284828481875afa80156105fc57600090611e13575b611ce99250612fac565b918215611dc15783604051809263a9059cbb60e01b825281600081611d12893360048401613123565b03925af19081156105fc57600091611da4575b5015611d6257507f810c0a3d2e7f4765a144ddb7039e632b1abd74268600d3f570c128cb7b6a09b660ff60075460b01c16926040519283523392a3005b82601c6064926040519262461bcd60e51b845260048401528201527b1554d110c81d1c985b9cd9995c881d1bc81d5cd95c8819985a5b195960221b6044820152fd5b611dbb9150843d861161068e576106808183612c5a565b84611d25565b60405162461bcd60e51b8152600481018590526025818401527f526564656d7074696f6e206661696c65642c206e6f207061796f757420726563604482015264195a5d995960da1b6064820152608490fd5b508482813d8311611e3b575b611e298183612c5a565b8101031261022a57611ce99151611cdf565b503d611e1f565b611e4b90612bfb565b85611cb8565b9095508681813d8311611e79575b611e698183612c5a565b8101031261022a57519487611c73565b503d611e5f565b611e8990612bfb565b84611c40565b60405162461bcd60e51b8152600481018890526023818701527f4e6f2077696e6e696e67206f7574636f6d6520746f6b656e7320746f2072656460448201526265656d60e81b6064820152608490fd5b90508681813d8311611f05575b611ef68183612c5a565b8101031261022a575187611bfd565b503d611eec565b90508581813d8311611f32575b611f238183612c5a565b8101031261022a575186611bcb565b503d611f19565b82819392503d8311611f63575b611f508183612c5a565b8101031261022a57518690611bb7611b96565b503d611f46565b60405162461bcd60e51b815260206004820152601360248201527213585c9ad95d081b9bdd081c995cdbdb1d9959606a1b6044820152606490fd5b3461022a57602036600319011261022a5760ff611fc0612beb565b16600052600a6020526020604060002054604051908152f35b3461022a57600036600319011261022a576020600254604051908152f35b3461022a57602036600319011261022a57612010612bbf565b612018612d39565b6001600160a01b0316801561206057600780546001600160a01b031916821790557f96cd6a760d83e26ae66b3539eb11bc97ec455ed70727aca67b5b1a9c727abf2c600080a2005b60405162461bcd60e51b815260206004820152602660248201527f426f7420616464726573732063616e6e6f7420626520746865207a65726f206160448201526564647265737360d01b6064820152608490fd5b3461022a57600036600319011261022a576006546040516001600160a01b039091168152602090f35b3461022a57600036600319011261022a57602060ff60075460b01c16604051908152f35b3461022a57604036600319011261022a576004356001600160401b0380821161022a573660238301121561022a5781600401351161022a57366024826004013560051b8301011161022a576007546001600160a01b0381163303612b285760ff81610290826121739460a01c16612e03565b6003816004013503612ae45760005b816004013560ff821610156123e85760006121a860ff8316846004013560248601613313565b35126121bd575b6121b890612f78565b612182565b6005546004805460025460405163856296f760e01b81526000938101939093526024830152600160ff85161b60448301526001600160a01b0392831693921690602081606481875afa9081156105fc576000916123b4575b5060405163039dd75360e41b815291602091839182916122389160048401613123565b0381865afa9081156105fc57600091612382575b5061226b61226560ff8416866004013560248801613313565b356132bf565b604051627eeac760e11b815260208180612289863360048401613123565b0381885afa80156105fc57829160009161234d575b50106122fc57833b1561022a576122d19360009283604051809781958294637921219560e11b84523033600486016131cf565b03925af19182156105fc576121b8926122ed575b5090506121af565b6122f690612bfb565b836122e5565b60405162461bcd60e51b815260206004820152602360248201527f496e73756666696369656e74206f7574636f6d6520746f6b656e7320746f2073604482015262195b1b60ea1b6064820152608490fd5b9150506020813d60201161237a575b8161236960209383612c5a565b8101031261022a578190518761229e565b3d915061235c565b90506020813d6020116123ac575b8161239d60209383612c5a565b8101031261022a57518461224c565b3d9150612390565b90506020813d6020116123e0575b816123cf60209383612c5a565b8101031261022a5751612238612215565b3d91506123c2565b5060018060a01b03600654166020604051809263782d085b60e01b8252826004830152818061242260248201886004013560248a01613323565b03915afa9081156105fc57600091612ab2575b506000811361294e575b5060018060a01b036006541690602060405180936315bd761160e01b8252604060048301528160008161247d60448201886004013560248a01613323565b602435602483015203925af19182156105fc5760009261291a575b506000821261289f575b60005b60ff81169082600401358210156126f85760006124ca83856004013560248701613313565b35136124e0575b6124db9150612f78565b6124a5565b6124f282846004013560248601613313565b6005546004805460025460405163856296f760e01b81526000938101939093526024830152600190951b60448201526001600160a01b0391821694909116913590602081606481885afa9081156105fc576000916126c4575b5060405163039dd75360e41b8152926020918491829161256e9160048401613123565b0381875afa9182156105fc57600092612690575b50604051627eeac760e11b8152602081806125a1863060048401613123565b0381885afa80156105fc57829160009161265b575b501061261257833b1561022a576125e99360009283604051809781958294637921219560e11b84523330600486016131cf565b03925af19182156105fc576124db92612603575b506124d1565b61260c90612bfb565b846125fd565b60405162461bcd60e51b815260206004820152602d60248201526000805160206133cc83398151915260448201526c65642066726f6d20747261646560981b6064820152608490fd5b9150506020813d602011612688575b8161267760209383612c5a565b8101031261022a57819051886125b6565b3d915061266a565b9091506020813d6020116126bc575b816126ac60209383612c5a565b8101031261022a57519086612582565b3d915061269f565b90506020813d6020116126f0575b816126df60209383612c5a565b8101031261022a575161256e61254b565b3d91506126d2565b837f65408b139d4dc3e12684209b6ac7c20580d3d775948ea036e9a0a22df03e5cea8461273960405191604083526040830190602481600401359101613323565b9260208201528033930390a260065460405163b20f8e7f60e01b8082526000600483015290916001600160a01b031690602083602481855afa9283156105fc5760009361286b575b506040519080825260016004830152602082602481865afa9182156105fc57600092612836575b506020906024604051809581938252600260048301525afa9182156105fc576000926127f4575b506000805160206133ec83398151915291926105b960005494604051938493846132a9565b91506020823d60201161282e575b8161280f60209383612c5a565b8101031261022a576000805160206133ec8339815191529151916127cf565b3d9150612802565b9091506020813d602011612863575b8161285260209383612c5a565b8101031261022a57519060206127a8565b3d9150612845565b9092506020813d602011612897575b8161288760209383612c5a565b8101031261022a57519183612781565b3d915061287a565b6004546000906020906128db906001600160a01b03166128be866132bf565b60405194858094819363a9059cbb60e01b83523360048401613123565b03925af180156105fc576128f6916000916128fb57506132d0565b6124a2565b612914915060203d60201161068e576106808183612c5a565b846104be565b9091506020813d602011612946575b8161293660209383612c5a565b8101031261022a57519082612498565b3d9150612929565b60018060a01b0360045416602060405180926323b872dd60e01b82528160008161297d883033600485016130bf565b03925af19081156105fc57600091612a93575b5015612a53576004805460065460405163095ea7b360e01b81529360209385936001600160a01b0390811693859360009385936129d09316908401613123565b03925af19081156105fc57600091612a34575b50156129ef578161243f565b60405162461bcd60e51b815260206004820152601d60248201527f417070726f766520746f206d61726b65744d616b6572206661696c65640000006044820152606490fd5b612a4d915060203d60201161068e576106808183612c5a565b826129e3565b60405162461bcd60e51b81526020600482015260186024820152771554d110c81d1c985b9cd9995c919c9bdb4819985a5b195960421b6044820152606490fd5b612aac915060203d60201161068e576106808183612c5a565b83612990565b90506020813d602011612adc575b81612acd60209383612c5a565b8101031261022a575182612435565b3d9150612ac0565b60405162461bcd60e51b815260206004820152601c60248201527b092dcecc2d8d2c840e8e4c2c8ca40c2dadeeadce8e640d8cadccee8d60231b6044820152606490fd5b606460405162461bcd60e51b815260206004820152602060248201527f43616c6c6572206973206e6f742074686520617574686f72697a656420626f746044820152fd5b3461022a57602036600319011261022a576004359063ffffffff60e01b821680920361022a57602091630271189760e51b8114908115612bae575b5015158152f35b6301ffc9a760e01b14905083612ba7565b600435906001600160a01b038216820361022a57565b602435906001600160a01b038216820361022a57565b6004359060ff8216820361022a57565b6001600160401b038111612c0e57604052565b634e487b7160e01b600052604160045260246000fd5b604081019081106001600160401b03821117612c0e57604052565b608081019081106001600160401b03821117612c0e57604052565b601f909101601f19168101906001600160401b03821190821017612c0e57604052565b9080601f8301121561022a578135906001600160401b038211612c0e578160051b60405193602093612cb185840187612c5a565b8552838086019282010192831161022a578301905b828210612cd4575050505090565b81358152908301908301612cc6565b81601f8201121561022a578035906001600160401b038211612c0e5760405192612d17601f8401601f191660200185612c5a565b8284526020838301011161022a57816000926020809301838601378301015290565b6000805160206133ac833981519152546001600160a01b03163303612d5a57565b60405163118cdaa760e01b8152336004820152602490fd5b6001600160a01b03908116908115612dbb576000805160206133ac83398151915280546001600160a01b0319811684179091551660008051602061340c833981519152600080a3565b604051631e4fbdf760e01b815260006004820152602490fd5b60ff60008051602061344c8339815191525460401c1615612df157565b604051631afcd79f60e31b8152600490fd5b15612e0a57565b60405162461bcd60e51b815260206004820152600f60248201526e139bdd081a5b9a5d1a585b1a5e9959608a1b6044820152606490fd5b15612e4857565b60405162461bcd60e51b815260206004820152601760248201527613585c9ad95d08185b1c9958591e481c995cdbdb1d9959604a1b6044820152606490fd5b15612e8e57565b60405162461bcd60e51b815260206004820152600f60248201526e496e76616c6964206f7574636f6d6560881b6044820152606490fd5b15612ecc57565b606460405162461bcd60e51b815260206004820152602060248201527f416d6f756e74206d7573742062652067726561746572207468616e207a65726f6044820152fd5b600854600160401b811015612c0e576001810180600855811015612f6257600860005260008051602061342c8339815191520180546001600160a01b0319166001600160a01b03909216919091179055565b634e487b7160e01b600052603260045260246000fd5b60ff1660ff8114612f895760010190565b634e487b7160e01b600052601160045260246000fd5b91908201809211612f8957565b91908203918211612f8957565b15612fc057565b60405162461bcd60e51b8152602060048201526024808201527f4265742065786365656473206d6178696d756d20616c6c6f7761626c6520616d6044820152631bdd5b9d60e21b6064820152608490fd5b805115612f625760200190565b8051821015612f625760209160051b010190565b90815180825260208080930193019160005b828110613052575050505090565b835185529381019392810192600101613044565b1561306d57565b60405162461bcd60e51b8152602060048201526012602482015271125b9d985b1a59081d1c9859194818dbdcdd60721b6044820152606490fd5b9081602091031261022a5751801515810361022a5790565b6001600160a01b03918216815291166020820152604081019190915260600190565b156130e857565b60405162461bcd60e51b81526020600482015260136024820152721d1c985b9cd9995c919c9bdb4819985a5b1959606a1b6044820152606490fd5b6001600160a01b039091168152602081019190915260400190565b1561314557565b60405162461bcd60e51b815260206004820152601d60248201527f617070726f766520746f206d61726b65744d616b6572206661696c65640000006044820152606490fd5b1561319157565b60405162461bcd60e51b815260206004820152602260248201526000805160206133cc833981519152604482015261195960f21b6064820152608490fd5b929060c0949260018060a01b0380921685521660208401526040830152606082015260a06080820152600060a08201520190565b1561320a57565b60405162461bcd60e51b815260206004820152601f60248201527f417070726f766520746f204c6971756964697479506f6f6c206661696c6564006044820152606490fd5b1561325657565b60405162461bcd60e51b815260206004820152602560248201527f417070726f766520746f206f776e65722f4d61726b6574466163746f72792066604482015264185a5b195960da1b6064820152608490fd5b6040919493926060820195825260208201520152565b600160ff1b8114612f895760000390565b156132d757565b60405162461bcd60e51b81526020600482015260146024820152731554d110c81d1c985b9cd9995c8819985a5b195960621b6044820152606490fd5b9190811015612f625760051b0190565b91908082526020809201929160005b828110613340575050505090565b833585529381019392810192600101613332565b91608083019160018060a01b0316835260a0602093849260008483015260408201526080606082015285518094520193019160005b828110613397575050505090565b83518552938101939281019260010161338956fe9016d09d72d40fdae2fd8ceac6b6234c7706214fd39c1cd1e609a0528c1993004e6f7420656e6f756768206f7574636f6d6520746f6b656e7320726563656976893ac9c513b4380780f867c7b8bd044b0c9868ae211e7b5c6daaa79c936e4dbe8be0079c531659141344cd1fd0a4f28419497f9722a3daafe3b4186f6b6457e0f3f7a9fe364faab93b216da50a3214154f22a0a2b415b23a84c8169e8b636ee3f0c57e16840df040f15088dc2f81fe391c3923bec73e23a9662efc9c229c6a00a164736f6c6343000814000a",
  "linkReferences": {},
  "deployedLinkReferences": {}
}