{
  "_format": "hh-sol-artifact-1",
  "contractName": "Whitelist",
  "sourceName": "contracts/gnosis/Whitelist.sol",
  "abi": [
    {
      "inputs": [],
      "stateMutability": "nonpayable",
      "type": "constructor"
    },
    {
      "inputs": [
        {
          "internalType": "address",
          "name": "owner",
          "type": "address"
        }
      ],
      "name": "OwnableInvalidOwner",
      "type": "error"
    },
    {
      "inputs": [
        {
          "internalType": "address",
          "name": "account",
          "type": "address"
        }
      ],
      "name": "OwnableUnauthorizedAccount",
      "type": "error"
    },
    {
      "anonymous": false,
      "inputs": [
        {
          "indexed": true,
          "internalType": "address",
          "name": "previousOwner",
          "type": "address"
        },
        {
          "indexed": true,
          "internalType": "address",
          "name": "newOwner",
          "type": "address"
        }
      ],
      "name": "OwnershipTransferred",
      "type": "event"
    },
    {
      "anonymous": false,
      "inputs": [
        {
          "indexed": false,
          "internalType": "address[]",
          "name": "users",
          "type": "address[]"
        }
      ],
      "name": "UsersAddedToWhitelist",
      "type": "event"
    },
    {
      "anonymous": false,
      "inputs": [
        {
          "indexed": false,
          "internalType": "address[]",
          "name": "users",
          "type": "address[]"
        }
      ],
      "name": "UsersRemovedFromWhitelist",
      "type": "event"
    },
    {
      "inputs": [
        {
          "internalType": "address[]",
          "name": "users",
          "type": "address[]"
        }
      ],
      "name": "addToWhitelist",
      "outputs": [],
      "stateMutability": "nonpayable",
      "type": "function"
    },
    {
      "inputs": [
        {
          "internalType": "address",
          "name": "",
          "type": "address"
        }
      ],
      "name": "isWhitelisted",
      "outputs": [
        {
          "internalType": "bool",
          "name": "",
          "type": "bool"
        }
      ],
      "stateMutability": "view",
      "type": "function"
    },
    {
      "inputs": [],
      "name": "owner",
      "outputs": [
        {
          "internalType": "address",
          "name": "",
          "type": "address"
        }
      ],
      "stateMutability": "view",
      "type": "function"
    },
    {
      "inputs": [
        {
          "internalType": "address[]",
          "name": "users",
          "type": "address[]"
        }
      ],
      "name": "removeFromWhitelist",
      "outputs": [],
      "stateMutability": "nonpayable",
      "type": "function"
    },
    {
      "inputs": [],
      "name": "renounceOwnership",
      "outputs": [],
      "stateMutability": "nonpayable",
      "type": "function"
    },
    {
      "inputs": [
        {
          "internalType": "address",
          "name": "newOwner",
          "type": "address"
        }
      ],
      "name": "transferOwnership",
      "outputs": [],
      "stateMutability": "nonpayable",
      "type": "function"
    }
  ],
  "bytecode": "0x6080806040523461007a5733156100645760008054336001600160a01b03198216811783556040519290916001600160a01b0316907f8be0079c531659141344cd1fd0a4f28419497f9722a3daafe3b4186f6b6457e09080a361041c90816100808239f35b631e4fbdf760e01b815260006004820152602490fd5b600080fdfe60806040818152600436101561001457600080fd5b600091823560e01c9081633af32abf1461026e57508063548db174146101e4578063715018a6146101995780637f649783146101015780638da5cb5b146100da5763f2fde38b1461006457600080fd5b346100d65760203660031901126100d65761007d6102ad565b610085610315565b6001600160a01b039081169182156100bf575082546001600160a01b0319811683178455166000805160206103f08339815191528380a380f35b51631e4fbdf760e01b815260048101849052602490fd5b5080fd5b50346100d657816003193601126100d657905490516001600160a01b039091168152602090f35b50346100d657610110366102c8565b91610119610315565b835b83811061015a5750906101547f571817b02d15d247d0d4961fca494acd141f951ca62623d639cbbcd882a5290d939251928392836103a0565b0390a180f35b610194906001600160a01b03610179610174838888610366565b61038c565b1686526001806020528387209060ff19825416179055610341565b61011b565b82346101e157806003193601126101e1576101b2610315565b80546001600160a01b03198116825581906001600160a01b03166000805160206103f08339815191528280a380f35b80fd5b5090346101e1576101f4366102c8565b906101fd610315565b825b82811061023757506101547f980469cd56680c471176aaf1931063250267d2044b92e69bd162f7f4bafba861939451928392836103a0565b610269906001600160a01b03610251610174838787610366565b1685526001602052858520805460ff19169055610341565b6101ff565b919050346102a95760203660031901126102a95760209260ff91906001600160a01b036102996102ad565b1681526001855220541615158152f35b8280fd5b600435906001600160a01b03821682036102c357565b600080fd5b9060206003198301126102c3576001600160401b0391600435908382116102c357806023830112156102c35781600401359384116102c35760248460051b830101116102c3576024019190565b6000546001600160a01b0316330361032957565b60405163118cdaa760e01b8152336004820152602490fd5b60001981146103505760010190565b634e487b7160e01b600052601160045260246000fd5b91908110156103765760051b0190565b634e487b7160e01b600052603260045260246000fd5b356001600160a01b03811681036102c35790565b9091604060209282848201858352520192916000805b8382106103c557505050505090565b9091929394853560018060a01b0381168091036102a95781528301948301939291600101906103b656fe8be0079c531659141344cd1fd0a4f28419497f9722a3daafe3b4186f6b6457e0a164736f6c6343000814000a",
  "linkReferences": {},
  "deployedLinkReferences": {}
}