{
  "_format": "hh-sol-artifact-1",
  "contractName": "ConditionalTokens",
  "sourceName": "contracts/gnosis/ConditionalTokens.sol",
  "abi": [
    {
      "inputs": [],
      "stateMutability": "nonpayable",
      "type": "constructor"
    },
    {
      "inputs": [
        {
          "internalType": "address",
          "name": "sender",
          "type": "address"
        },
        {
          "internalType": "uint256",
          "name": "balance",
          "type": "uint256"
        },
        {
          "internalType": "uint256",
          "name": "needed",
          "type": "uint256"
        },
        {
          "internalType": "uint256",
          "name": "tokenId",
          "type": "uint256"
        }
      ],
      "name": "ERC1155InsufficientBalance",
      "type": "error"
    },
    {
      "inputs": [
        {
          "internalType": "address",
          "name": "approver",
          "type": "address"
        }
      ],
      "name": "ERC1155InvalidApprover",
      "type": "error"
    },
    {
      "inputs": [
        {
          "internalType": "uint256",
          "name": "idsLength",
          "type": "uint256"
        },
        {
          "internalType": "uint256",
          "name": "valuesLength",
          "type": "uint256"
        }
      ],
      "name": "ERC1155InvalidArrayLength",
      "type": "error"
    },
    {
      "inputs": [
        {
          "internalType": "address",
          "name": "operator",
          "type": "address"
        }
      ],
      "name": "ERC1155InvalidOperator",
      "type": "error"
    },
    {
      "inputs": [
        {
          "internalType": "address",
          "name": "receiver",
          "type": "address"
        }
      ],
      "name": "ERC1155InvalidReceiver",
      "type": "error"
    },
    {
      "inputs": [
        {
          "internalType": "address",
          "name": "sender",
          "type": "address"
        }
      ],
      "name": "ERC1155InvalidSender",
      "type": "error"
    },
    {
      "inputs": [
        {
          "internalType": "address",
          "name": "operator",
          "type": "address"
        },
        {
          "internalType": "address",
          "name": "owner",
          "type": "address"
        }
      ],
      "name": "ERC1155MissingApprovalForAll",
      "type": "error"
    },
    {
      "anonymous": false,
      "inputs": [
        {
          "indexed": true,
          "internalType": "address",
          "name": "account",
          "type": "address"
        },
        {
          "indexed": true,
          "internalType": "address",
          "name": "operator",
          "type": "address"
        },
        {
          "indexed": false,
          "internalType": "bool",
          "name": "approved",
          "type": "bool"
        }
      ],
      "name": "ApprovalForAll",
      "type": "event"
    },
    {
      "anonymous": false,
      "inputs": [
        {
          "indexed": true,
          "internalType": "bytes32",
          "name": "conditionId",
          "type": "bytes32"
        },
        {
          "indexed": true,
          "internalType": "address",
          "name": "oracle",
          "type": "address"
        },
        {
          "indexed": true,
          "internalType": "bytes32",
          "name": "questionId",
          "type": "bytes32"
        },
        {
          "indexed": false,
          "internalType": "uint256",
          "name": "outcomeSlotCount",
          "type": "uint256"
        }
      ],
      "name": "ConditionPreparation",
      "type": "event"
    },
    {
      "anonymous": false,
      "inputs": [
        {
          "indexed": true,
          "internalType": "bytes32",
          "name": "conditionId",
          "type": "bytes32"
        },
        {
          "indexed": true,
          "internalType": "address",
          "name": "oracle",
          "type": "address"
        },
        {
          "indexed": true,
          "internalType": "bytes32",
          "name": "questionId",
          "type": "bytes32"
        },
        {
          "indexed": false,
          "internalType": "uint256",
          "name": "outcomeSlotCount",
          "type": "uint256"
        },
        {
          "indexed": false,
          "internalType": "uint256[]",
          "name": "payoutNumerators",
          "type": "uint256[]"
        }
      ],
      "name": "ConditionResolution",
      "type": "event"
    },
    {
      "anonymous": false,
      "inputs": [
        {
          "indexed": true,
          "internalType": "address",
          "name": "redeemer",
          "type": "address"
        },
        {
          "indexed": true,
          "internalType": "contract IERC20",
          "name": "collateralToken",
          "type": "address"
        },
        {
          "indexed": true,
          "internalType": "bytes32",
          "name": "parentCollectionId",
          "type": "bytes32"
        },
        {
          "indexed": false,
          "internalType": "bytes32",
          "name": "conditionId",
          "type": "bytes32"
        },
        {
          "indexed": false,
          "internalType": "uint256[]",
          "name": "indexSets",
          "type": "uint256[]"
        },
        {
          "indexed": false,
          "internalType": "uint256",
          "name": "payout",
          "type": "uint256"
        }
      ],
      "name": "PayoutRedemption",
      "type": "event"
    },
    {
      "anonymous": false,
      "inputs": [
        {
          "indexed": true,
          "internalType": "address",
          "name": "stakeholder",
          "type": "address"
        },
        {
          "indexed": false,
          "internalType": "contract IERC20",
          "name": "collateralToken",
          "type": "address"
        },
        {
          "indexed": true,
          "internalType": "bytes32",
          "name": "parentCollectionId",
          "type": "bytes32"
        },
        {
          "indexed": true,
          "internalType": "bytes32",
          "name": "conditionId",
          "type": "bytes32"
        },
        {
          "indexed": false,
          "internalType": "uint256[]",
          "name": "partition",
          "type": "uint256[]"
        },
        {
          "indexed": false,
          "internalType": "uint256",
          "name": "amount",
          "type": "uint256"
        }
      ],
      "name": "PositionSplit",
      "type": "event"
    },
    {
      "anonymous": false,
      "inputs": [
        {
          "indexed": true,
          "internalType": "address",
          "name": "stakeholder",
          "type": "address"
        },
        {
          "indexed": false,
          "internalType": "contract IERC20",
          "name": "collateralToken",
          "type": "address"
        },
        {
          "indexed": true,
          "internalType": "bytes32",
          "name": "parentCollectionId",
          "type": "bytes32"
        },
        {
          "indexed": true,
          "internalType": "bytes32",
          "name": "conditionId",
          "type": "bytes32"
        },
        {
          "indexed": false,
          "internalType": "uint256[]",
          "name": "partition",
          "type": "uint256[]"
        },
        {
          "indexed": false,
          "internalType": "uint256",
          "name": "amount",
          "type": "uint256"
        }
      ],
      "name": "PositionsMerge",
      "type": "event"
    },
    {
      "anonymous": false,
      "inputs": [
        {
          "indexed": true,
          "internalType": "address",
          "name": "operator",
          "type": "address"
        },
        {
          "indexed": true,
          "internalType": "address",
          "name": "from",
          "type": "address"
        },
        {
          "indexed": true,
          "internalType": "address",
          "name": "to",
          "type": "address"
        },
        {
          "indexed": false,
          "internalType": "uint256[]",
          "name": "ids",
          "type": "uint256[]"
        },
        {
          "indexed": false,
          "internalType": "uint256[]",
          "name": "values",
          "type": "uint256[]"
        }
      ],
      "name": "TransferBatch",
      "type": "event"
    },
    {
      "anonymous": false,
      "inputs": [
        {
          "indexed": true,
          "internalType": "address",
          "name": "operator",
          "type": "address"
        },
        {
          "indexed": true,
          "internalType": "address",
          "name": "from",
          "type": "address"
        },
        {
          "indexed": true,
          "internalType": "address",
          "name": "to",
          "type": "address"
        },
        {
          "indexed": false,
          "internalType": "uint256",
          "name": "id",
          "type": "uint256"
        },
        {
          "indexed": false,
          "internalType": "uint256",
          "name": "value",
          "type": "uint256"
        }
      ],
      "name": "TransferSingle",
      "type": "event"
    },
    {
      "anonymous": false,
      "inputs": [
        {
          "indexed": false,
          "internalType": "string",
          "name": "value",
          "type": "string"
        },
        {
          "indexed": true,
          "internalType": "uint256",
          "name": "id",
          "type": "uint256"
        }
      ],
      "name": "URI",
      "type": "event"
    },
    {
      "inputs": [
        {
          "internalType": "address",
          "name": "account",
          "type": "address"
        },
        {
          "internalType": "uint256",
          "name": "id",
          "type": "uint256"
        }
      ],
      "name": "balanceOf",
      "outputs": [
        {
          "internalType": "uint256",
          "name": "",
          "type": "uint256"
        }
      ],
      "stateMutability": "view",
      "type": "function"
    },
    {
      "inputs": [
        {
          "internalType": "address[]",
          "name": "accounts",
          "type": "address[]"
        },
        {
          "internalType": "uint256[]",
          "name": "ids",
          "type": "uint256[]"
        }
      ],
      "name": "balanceOfBatch",
      "outputs": [
        {
          "internalType": "uint256[]",
          "name": "",
          "type": "uint256[]"
        }
      ],
      "stateMutability": "view",
      "type": "function"
    },
    {
      "inputs": [
        {
          "internalType": "bytes32",
          "name": "parentCollectionId",
          "type": "bytes32"
        },
        {
          "internalType": "bytes32",
          "name": "conditionId",
          "type": "bytes32"
        },
        {
          "internalType": "uint256",
          "name": "indexSet",
          "type": "uint256"
        }
      ],
      "name": "getCollectionId",
      "outputs": [
        {
          "internalType": "bytes32",
          "name": "",
          "type": "bytes32"
        }
      ],
      "stateMutability": "view",
      "type": "function"
    },
    {
      "inputs": [
        {
          "internalType": "address",
          "name": "oracle",
          "type": "address"
        },
        {
          "internalType": "bytes32",
          "name": "questionId",
          "type": "bytes32"
        },
        {
          "internalType": "uint256",
          "name": "outcomeSlotCount",
          "type": "uint256"
        }
      ],
      "name": "getConditionId",
      "outputs": [
        {
          "internalType": "bytes32",
          "name": "",
          "type": "bytes32"
        }
      ],
      "stateMutability": "pure",
      "type": "function"
    },
    {
      "inputs": [
        {
          "internalType": "bytes32",
          "name": "conditionId",
          "type": "bytes32"
        }
      ],
      "name": "getOutcomeSlotCount",
      "outputs": [
        {
          "internalType": "uint256",
          "name": "",
          "type": "uint256"
        }
      ],
      "stateMutability": "view",
      "type": "function"
    },
    {
      "inputs": [
        {
          "internalType": "contract IERC20",
          "name": "collateralToken",
          "type": "address"
        },
        {
          "internalType": "bytes32",
          "name": "collectionId",
          "type": "bytes32"
        }
      ],
      "name": "getPositionId",
      "outputs": [
        {
          "internalType": "uint256",
          "name": "",
          "type": "uint256"
        }
      ],
      "stateMutability": "pure",
      "type": "function"
    },
    {
      "inputs": [
        {
          "internalType": "address",
          "name": "account",
          "type": "address"
        },
        {
          "internalType": "address",
          "name": "operator",
          "type": "address"
        }
      ],
      "name": "isApprovedForAll",
      "outputs": [
        {
          "internalType": "bool",
          "name": "",
          "type": "bool"
        }
      ],
      "stateMutability": "view",
      "type": "function"
    },
    {
      "inputs": [
        {
          "internalType": "contract IERC20",
          "name": "collateralToken",
          "type": "address"
        },
        {
          "internalType": "bytes32",
          "name": "parentCollectionId",
          "type": "bytes32"
        },
        {
          "internalType": "bytes32",
          "name": "conditionId",
          "type": "bytes32"
        },
        {
          "internalType": "uint256[]",
          "name": "partition",
          "type": "uint256[]"
        },
        {
          "internalType": "uint256",
          "name": "amount",
          "type": "uint256"
        }
      ],
      "name": "mergePositions",
      "outputs": [],
      "stateMutability": "nonpayable",
      "type": "function"
    },
    {
      "inputs": [
        {
          "internalType": "bytes32",
          "name": "",
          "type": "bytes32"
        }
      ],
      "name": "payoutDenominator",
      "outputs": [
        {
          "internalType": "uint256",
          "name": "",
          "type": "uint256"
        }
      ],
      "stateMutability": "view",
      "type": "function"
    },
    {
      "inputs": [
        {
          "internalType": "bytes32",
          "name": "",
          "type": "bytes32"
        },
        {
          "internalType": "uint256",
          "name": "",
          "type": "uint256"
        }
      ],
      "name": "payoutNumerators",
      "outputs": [
        {
          "internalType": "uint256",
          "name": "",
          "type": "uint256"
        }
      ],
      "stateMutability": "view",
      "type": "function"
    },
    {
      "inputs": [
        {
          "internalType": "address",
          "name": "oracle",
          "type": "address"
        },
        {
          "internalType": "bytes32",
          "name": "questionId",
          "type": "bytes32"
        },
        {
          "internalType": "uint256",
          "name": "outcomeSlotCount",
          "type": "uint256"
        }
      ],
      "name": "prepareCondition",
      "outputs": [],
      "stateMutability": "nonpayable",
      "type": "function"
    },
    {
      "inputs": [
        {
          "internalType": "contract IERC20",
          "name": "collateralToken",
          "type": "address"
        },
        {
          "internalType": "bytes32",
          "name": "parentCollectionId",
          "type": "bytes32"
        },
        {
          "internalType": "bytes32",
          "name": "conditionId",
          "type": "bytes32"
        },
        {
          "internalType": "uint256[]",
          "name": "indexSets",
          "type": "uint256[]"
        }
      ],
      "name": "redeemPositions",
      "outputs": [],
      "stateMutability": "nonpayable",
      "type": "function"
    },
    {
      "inputs": [
        {
          "internalType": "bytes32",
          "name": "questionId",
          "type": "bytes32"
        },
        {
          "internalType": "uint256[]",
          "name": "payouts",
          "type": "uint256[]"
        }
      ],
      "name": "reportPayouts",
      "outputs": [],
      "stateMutability": "nonpayable",
      "type": "function"
    },
    {
      "inputs": [
        {
          "internalType": "address",
          "name": "from",
          "type": "address"
        },
        {
          "internalType": "address",
          "name": "to",
          "type": "address"
        },
        {
          "internalType": "uint256[]",
          "name": "ids",
          "type": "uint256[]"
        },
        {
          "internalType": "uint256[]",
          "name": "values",
          "type": "uint256[]"
        },
        {
          "internalType": "bytes",
          "name": "data",
          "type": "bytes"
        }
      ],
      "name": "safeBatchTransferFrom",
      "outputs": [],
      "stateMutability": "nonpayable",
      "type": "function"
    },
    {
      "inputs": [
        {
          "internalType": "address",
          "name": "from",
          "type": "address"
        },
        {
          "internalType": "address",
          "name": "to",
          "type": "address"
        },
        {
          "internalType": "uint256",
          "name": "id",
          "type": "uint256"
        },
        {
          "internalType": "uint256",
          "name": "value",
          "type": "uint256"
        },
        {
          "internalType": "bytes",
          "name": "data",
          "type": "bytes"
        }
      ],
      "name": "safeTransferFrom",
      "outputs": [],
      "stateMutability": "nonpayable",
      "type": "function"
    },
    {
      "inputs": [
        {
          "internalType": "address",
          "name": "operator",
          "type": "address"
        },
        {
          "internalType": "bool",
          "name": "approved",
          "type": "bool"
        }
      ],
      "name": "setApprovalForAll",
      "outputs": [],
      "stateMutability": "nonpayable",
      "type": "function"
    },
    {
      "inputs": [
        {
          "internalType": "contract IERC20",
          "name": "collateralToken",
          "type": "address"
        },
        {
          "internalType": "bytes32",
          "name": "parentCollectionId",
          "type": "bytes32"
        },
        {
          "internalType": "bytes32",
          "name": "conditionId",
          "type": "bytes32"
        },
        {
          "internalType": "uint256[]",
          "name": "partition",
          "type": "uint256[]"
        },
        {
          "internalType": "uint256",
          "name": "amount",
          "type": "uint256"
        }
      ],
      "name": "splitPosition",
      "outputs": [],
      "stateMutability": "nonpayable",
      "type": "function"
    },
    {
      "inputs": [
        {
          "internalType": "bytes4",
          "name": "interfaceId",
          "type": "bytes4"
        }
      ],
      "name": "supportsInterface",
      "outputs": [
        {
          "internalType": "bool",
          "name": "",
          "type": "bool"
        }
      ],
      "stateMutability": "view",
      "type": "function"
    },
    {
      "inputs": [
        {
          "internalType": "uint256",
          "name": "",
          "type": "uint256"
        }
      ],
      "name": "uri",
      "outputs": [
        {
          "internalType": "string",
          "name": "",
          "type": "string"
        }
      ],
      "stateMutability": "view",
      "type": "function"
    }
  ],
  "bytecode": "0x608034620000e157602081016001600160401b03811182821017620000cb5760405260008091526002546001908181811c91168015620000c0575b6020821014620000ac57601f811162000062575b8260025560405161426a9081620000e78239f35b60028352601f0160051c7f405787fa12a823e0f2b7631cc41b3ba8828b3321ca811111fa75cd3aa3bb5ace908101905b818110620000a157506200004e565b838155820162000092565b634e487b7160e01b83526022600452602483fd5b90607f16906200003a565b634e487b7160e01b600052604160045260246000fd5b600080fdfe6080604052600436101561001257600080fd5b60003560e01c8062fdd58e1461014657806301b7037c1461014157806301ffc9a71461013c5780630504c814146101375780630e89341c146101325780632eb2c2d61461012d57806339dd7530146101285780634e1273f41461012357806372ce42751461011e578063852c6ae214610119578063856296f7146101145780639e7212ad1461010f578063a22cb4651461010a578063c49298ac14610105578063d42dc0c214610100578063d96ee754146100fb578063dd34de67146100f6578063e985e9c5146100f15763f242432a146100ec57600080fd5b61142c565b6113c2565b611396565b6112a3565b611277565b6110fc565b61101a565b610e30565b610e0c565b610df3565b610b91565b610a8c565b610a14565b6108d5565b61069d565b610601565b610514565b6101e4565b610161565b6001600160a01b0381160361015c57565b600080fd5b3461015c57604036600319011261015c5760206101aa6004356101838161014b565b602435600052600083526040600020906001600160a01b0316600052602052604060002090565b54604051908152f35b9181601f8401121561015c5782359167ffffffffffffffff831161015c576020808501948460051b01011161015c57565b3461015c57608036600319011261015c576004356102018161014b565b6024359060443560643567ffffffffffffffff811161015c576102289036906004016101b3565b61023f839492946000526004602052604060002090565b549061024c82151561410a565b610260846000526003602052604060002090565b549161026d83151561224d565b60009260019161027e83831b612298565b91855b88868b8d8285106103e557918b8b8592816102db575b916102d66001600160a01b03927f2682012a4a4f1973119f1c9b90745d1bd91fa2bab387344f044cb3586864d18d9460405194859416973397856141f6565b0390a4005b91856103955760405163a9059cbb60e01b8152336004820152602481018390529160208360448160006001600160a01b0387165af1908115610390577f2682012a4a4f1973119f1c9b90745d1bd91fa2bab387344f044cb3586864d18d946103576102d6936001600160a01b0396600091610362575b50614185565b929450925050610297565b610383915060203d8111610389575b61037b81836107da565b810190612359565b8b610351565b503d610371565b611c00565b6102d66001600160a01b03927f2682012a4a4f1973119f1c9b90745d1bd91fa2bab387344f044cb3586864d18d946103e06103d08a86614010565b836103d9611c0c565b91336140a3565b610357565b6103f6856104179461041194612111565b35938491821515806104f9575b61040c906122c3565b612577565b8a614010565b90600090815b8581106104a45750506104563361043e846000526000602052604060002090565b906001600160a01b0316600052602052604060002090565b54908161046f575b50505061046a906115a9565b610281565b9061049561046a94939a61048f8861048a61049c9686611f8a565b61417b565b90611b51565b9933612465565b90388061045e565b8c89821b83166104be575b506104b9906115a9565b61041d565b819361048f6104e66104b9946104e16104f0956000526003602052604060002090565b6105e4565b90549060031b1c90565b9290508c6104af565b50898310610403565b6001600160e01b031981160361015c57565b3461015c57602036600319011261015c5760206001600160e01b031960043561053c81610502565b167fd9b67a260000000000000000000000000000000000000000000000000000000081149081156105a4575b811561057a575b506040519015158152f35b7f01ffc9a7000000000000000000000000000000000000000000000000000000009150143861056f565b7f0e89341c0000000000000000000000000000000000000000000000000000000081149150610568565b634e487b7160e01b600052603260045260246000fd5b80548210156105fc5760005260206000200190600090565b6105ce565b3461015c57604036600319011261015c5760243560043560005260036020526040600020805482101561015c5760209161063a916105e4565b90549060031b1c604051908152f35b919082519283825260005b848110610675575050826000602080949584010152601f8019910116010190565b602081830181015184830182015201610654565b90602061069a928181520190610649565b90565b3461015c5760208060031936011261015c576040519060009060025460019181831c92808316928315610799575b8285108414610785578487526020870193908115610766575060011461070c575b610708866106fc818803826107da565b60405191829182610689565b0390f35b6002600090815294509192917f405787fa12a823e0f2b7631cc41b3ba8828b3321ca811111fa75cd3aa3bb5ace5b83861061075557505050910190506106fc82610708386106ec565b80548587015294820194810161073a565b60ff1916845250505090151560051b0190506106fc82610708386106ec565b602486634e487b7160e01b81526022600452fd5b93607f16936106cb565b634e487b7160e01b600052604160045260246000fd5b6020810190811067ffffffffffffffff8211176107d557604052565b6107a3565b90601f8019910116810190811067ffffffffffffffff8211176107d557604052565b67ffffffffffffffff81116107d55760051b60200190565b81601f8201121561015c5780359161082b836107fc565b9261083960405194856107da565b808452602092838086019260051b82010192831161015c578301905b828210610863575050505090565b81358152908301908301610855565b67ffffffffffffffff81116107d557601f01601f191660200190565b81601f8201121561015c578035906108a582610872565b926108b360405194856107da565b8284526020838301011161015c57816000926020809301838601378301015290565b3461015c5760a036600319011261015c57600480356108f38161014b565b6024356108ff8161014b565b67ffffffffffffffff9060443582811161015c576109209036908601610814565b9060643583811161015c576109389036908701610814565b9260843590811161015c57610950903690870161088e565b936001600160a01b038082169033821415806109df575b6109b25783161561099a5715610983576109819550611957565b005b602486600060405191626a0d4560e21b8352820152fd5b602487600060405191632bfa23e760e11b8352820152fd5b6040805163711bec9160e11b815233818b019081526001600160a01b038616602082015290918291010390fd5b5081600052600160205260ff610a0c336040600020906001600160a01b0316600052602052604060002090565b541615610967565b3461015c57604036600319011261015c576020610a3f600435610a368161014b565b60243590614010565b604051908152f35b90815180825260208080930193019160005b828110610a67575050505090565b835185529381019392810192600101610a59565b90602061069a928181520190610a47565b3461015c57604036600319011261015c5760043567ffffffffffffffff80821161015c573660238301121561015c578160040135610ac9816107fc565b92610ad760405194856107da565b81845260209160248386019160051b8301019136831161015c57602401905b828210610b2f578560243586811161015c5761070891610b1d610b23923690600401610814565b906115d1565b60405191829182610a7b565b8380918335610b3d8161014b565b815201910190610af6565b9060a060031983011261015c57600435610b618161014b565b9160243591604435916064359067ffffffffffffffff821161015c57610b89916004016101b3565b909160843590565b3461015c57610b9f36610b48565b91610baf60018397959711612202565b610bda6001610bc8886000526003602052604060002090565b54610bd481151561224d565b1b612298565b80938688610be786611561565b93610bf187611561565b9760005b888110610d5a575081610d1657505050610cd4576040517f23b872dd000000000000000000000000000000000000000000000000000000008152336004820152306024820152604481018290529160208360648160006001600160a01b038c165af1908115610390577f2e6bb91f8cbcda0c93623c54d0403a43514fabc40084ec96b6d5379a7478629896610c99610ca8936102d696600091610cb6575b5061236e565b610ca1611c0c565b9133612448565b60405193849333978561241c565b610cce915060203d81116103895761037b81836107da565b38610c93565b610ca86102d6927f2e6bb91f8cbcda0c93623c54d0403a43514fabc40084ec96b6d5379a7478629896610d1184610d0b8c8c614010565b33612465565b610c99565b84610d0b610d54610ca8966102d699967f2e6bb91f8cbcda0c93623c54d0403a43514fabc40084ec96b6d5379a747862989d96610d11961891612577565b8c614010565b9092610d9b610dbd93610da192610d72858d8d612111565b35809281151580610dc7575b610d87906122c3565b610d94828281161461230e565b1897612577565b8b614010565b610dab82886115bd565b5284610db7828b6115bd565b526115a9565b918a918a93610bf5565b50888210610d7e565b606090600319011261015c57600435610de88161014b565b906024359060443590565b3461015c576020610a3f610e0636610dd0565b9161202e565b3461015c57606036600319011261015c576020610a3f604435602435600435612577565b3461015c57610e3e36610b48565b91610e4e60018397959711612202565b610e676001610bc8886000526003602052604060002090565b80610e7184611561565b610e7a85611561565b908860005b8b888210610faa5750505090610e9591336140e7565b81610f6c57505084610f2c5760405163a9059cbb60e01b8152336004820152602481018490529260208460448160006001600160a01b038a165af190811561039057610ca86102d6927f6f13ca62553fcc2bcd2372180a43949c1e4cebba603901ede2f4e14f36b282ca96600091610f0e575b50614058565b610f26915060203d81116103895761037b81836107da565b38610f08565b6102d67f6f13ca62553fcc2bcd2372180a43949c1e4cebba603901ede2f4e14f36b282ca93610f67610f5e8888614010565b826103d9611c0c565b610ca8565b93610f67610f5e610fa46102d6947f6f13ca62553fcc2bcd2372180a43949c1e4cebba603901ede2f4e14f36b282ca98188b8b612577565b88614010565b610d9b6110009397610fea92610fc1858d8d612111565b35809281151580611007575b610fd6906122c3565b610fe3828281161461230e565b1899612577565b610ff482856115bd565b5288610db782866115bd565b8990610e7f565b508a8210610fcd565b8015150361015c57565b3461015c57604036600319011261015c576004356110378161014b565b60243561104381611010565b6001600160a01b0382169182156110cb5761107e903360005260016020526040600020906001600160a01b0316600052602052604060002090565b60ff1981541660ff831515161790557f17307eab39ab6107e8899845ad3d59bd9653f200f220920489ca2b5937696c31604051806110c6339482919091602081019215159052565b0390a3005b60246040517fced3e10000000000000000000000000000000000000000000000000000000000815260006004820152fd5b3461015c57604036600319011261015c5760043560243567ffffffffffffffff811161015c576111309036906004016101b3565b9061113d60018311611ece565b61114882843361202e565b9061116883611161846000526003602052604060002090565b541461207b565b61118661117f836000526004602052604060002090565b54156120c6565b600090815b8481106111fa57505061119f81151561216c565b6111b3826000526004602052604060002090565b557fb44d84d3289691f71497564b85d4233648d9dbae8cbdbb4329f301c3a01858946102d66111ec836000526003602052604060002090565b6040519182913396836121b7565b8061126d61121761120f611272948987612111565b358096611b51565b9461123c6112366104e6856104e18b6000526003602052604060002090565b15612121565b611254836104e1896000526003602052604060002090565b90919082549060031b91821b91600019901b1916179055565b6115a9565b61118b565b3461015c57602036600319011261015c5760043560005260036020526020604060002054604051908152f35b3461015c576112b136610dd0565b90916101008211611352576112c860018311611ece565b7fab3760c3bd2bb38b5bcf54dc79802ed67338b4cf29f3054ded67ed24661e41776001600160a01b036112fc84868561202e565b9261131b611314856000526003602052604060002090565b5415611f3f565b61134061132786611561565b61133b866000526003602052604060002090565b611f9d565b604051948552169280602081016102d6565b606460405162461bcd60e51b815260206004820152601660248201527f746f6f206d616e79206f7574636f6d6520736c6f7473000000000000000000006044820152fd5b3461015c57602036600319011261015c5760043560005260046020526020604060002054604051908152f35b3461015c57604036600319011261015c57602060ff6114206004356113e68161014b565b6001600160a01b03602435916113fb8361014b565b16600052600184526040600020906001600160a01b0316600052602052604060002090565b54166040519015158152f35b3461015c5760a036600319011261015c576004356114498161014b565b6024356114558161014b565b60843567ffffffffffffffff811161015c5761147590369060040161088e565b906001600160a01b0380841690338214158061152c575b611505578216156114ed57156114d657610981926114ce6064356044359160405192600184526020840152604083019160018352606084015260808301604052565b929091611957565b6024604051626a0d4560e21b815260006004820152fd5b6024604051632bfa23e760e11b815260006004820152fd5b60405163711bec9160e11b81523360048201526001600160a01b0386166024820152604490fd5b5081600052600160205260ff611559336040600020906001600160a01b0316600052602052604060002090565b54161561148c565b9061156b826107fc565b61157860405191826107da565b8281528092611589601f19916107fc565b0190602036910137565b634e487b7160e01b600052601160045260246000fd5b60001981146115b85760010190565b611593565b80518210156105fc5760209160051b010190565b9190918051835180820361164b5750506115eb8151611561565b90600090815b8151811015611643578061163361163e9260051b85602080808489010151938c01015182525260408620906001600160a01b0316600052602052604060002090565b54610db782876115bd565b6115f1565b509193505050565b6040517f5b05999100000000000000000000000000000000000000000000000000000000815260048101919091526024810191909152604490fd5b90805183519081810361164b57505060005b815181101561170157806116cf9160051b8460208083870101519288010151916001600160a01b0382166116d4575b5050506115a9565b611698565b6116f79161043e6116ef926000526000602052604060002090565b918254611b51565b90553884816116c7565b508051919392916001036117a3576020818101518382015160408051928352928201526001600160a01b0386169160009133917fc3d58168c5ae7397731d063d5bbf3d657854427343f4c083240f7aacaa2d0f6291a45b6001600160a01b03841661176d575b50505050565b8051600103611794579060208061178b959301519101519133611c4f565b38808080611767565b61179e9333611e62565b61178b565b60405160006001600160a01b038616917f4a39dc06d4c0dbc64b70af90fd698a233a518aa5d07e595d983b8c0526c8f7fb3391806117e2888883611b5e565b0390a4611758565b929190805182519081810361164b57505060005b81518110156118b6578060051b602080828501015191850101516001600160a01b038716611837575b5050611832906115a9565b6117fe565b61184f8761043e846000526000602052604060002090565b5481811061187f578761043e6118329594936118779303936000526000602052604060002090565b559038611827565b6040516303dee4c560e01b81526001600160a01b038916600482015260248101919091526044810182905260648101839052608490fd5b5090600092939160018151148414611918576020908101519181015160408051938452918301526001600160a01b03929092169133917fc3d58168c5ae7397731d063d5bbf3d657854427343f4c083240f7aacaa2d0f6291819081015b0390a4565b90916001600160a01b037f4a39dc06d4c0dbc64b70af90fd698a233a518aa5d07e595d983b8c0526c8f7fb916119136040519283921695339583611b5e565b94919091815184519081810361164b57505060005b8251811015611a5c578060051b9060208083860101519287010151856001600160a01b0393848b166119d5575b6119ab9482166119b0575050506115a9565b61196c565b6119cb9161043e6116ef926000526000602052604060002090565b90553885816116c7565b91929390506119f28a61043e846000526000602052604060002090565b54838110611a2557918791846119ab96959403611a1d8d61043e856000526000602052604060002090565b559450611999565b6040516303dee4c560e01b81526001600160a01b038c16600482015260248101919091526044810184905260648101839052608490fd5b509491939290936001855114600014611b07576020858101518382015160408051928352928201526001600160a01b03838116929086169133917fc3d58168c5ae7397731d063d5bbf3d657854427343f4c083240f7aacaa2d0f6291a45b6001600160a01b038116611ad0575b5050505050565b8451600103611af657602080611aec9601519201519233611d49565b3880808080611ac9565b611b0294919233611e97565b611aec565b6040516001600160a01b0390818316918516907f4a39dc06d4c0dbc64b70af90fd698a233a518aa5d07e595d983b8c0526c8f7fb339180611b49888c83611b5e565b0390a4611aba565b919082018092116115b857565b9091611b7561069a93604084526040840190610a47565b916020818403910152610a47565b9081602091031261015c575161069a81610502565b909260a0926001600160a01b0361069a969516835260006020840152604083015260608201528160808201520190610649565b919261069a95949160a0946001600160a01b038092168552166020840152604083015260608201528160808201520190610649565b6040513d6000823e3d90fd5b60405190611c19826107b9565b60008252565b3d15611c4a573d90611c3082610872565b91611c3e60405193846107da565b82523d6000602084013e565b606090565b9293919093843b611c61575050505050565b602091611c84604051948593849363f23a6e6160e01b9889865260048601611b98565b038160006001600160a01b0388165af160009181611d19575b50611cdc5782611cab611c1f565b8051919082611cd557604051632bfa23e760e11b81526001600160a01b0383166004820152602490fd5b9050602001fd5b6001600160e01b03191603611cf657503880808080611ac9565b604051632bfa23e760e11b81526001600160a01b03919091166004820152602490fd5b611d3b91925060203d8111611d42575b611d3381836107da565b810190611b83565b9038611c9d565b503d611d29565b939290949194853b611d5e575b505050505050565b611d81602093604051958694859463f23a6e6160e01b998a875260048701611bcb565b038160006001600160a01b0388165af160009181611dc3575b50611da85782611cab611c1f565b6001600160e01b03191603611cf65750388080808080611d56565b611ddc91925060203d8111611d4257611d3381836107da565b9038611d9a565b92611e1361069a95936001600160a01b03611e21941686526000602087015260a0604087015260a0860190610a47565b908482036060860152610a47565b916080818403910152610649565b939061069a9593611e1391611e21946001600160a01b03809216885216602087015260a0604087015260a0860190610a47565b9293919093843b611e74575050505050565b602091611c84604051948593849363bc197c8160e01b9889865260048601611de3565b939290949194853b611eab57505050505050565b611d81602093604051958694859463bc197c8160e01b998a875260048701611e2f565b15611ed557565b608460405162461bcd60e51b815260206004820152602a60248201527f74686572652073686f756c64206265206d6f7265207468616e206f6e65206f7560448201527f74636f6d6520736c6f74000000000000000000000000000000000000000000006064820152fd5b15611f4657565b606460405162461bcd60e51b815260206004820152601a60248201527f636f6e646974696f6e20616c72656164792070726570617265640000000000006044820152fd5b818102929181159184041417156115b857565b81519167ffffffffffffffff83116107d5576801000000000000000083116107d5578154838355808410612005575b50611fe1602080920192600052602060002090565b9060005b848110611ff3575050505050565b83518382015592810192600101611fe5565b6000838152846020822092830192015b828110612023575050611fcc565b818155600101612015565b916040519160208301936bffffffffffffffffffffffff199060601b16845260348301526054820152605481526080810181811067ffffffffffffffff8211176107d55760405251902090565b1561208257565b606460405162461bcd60e51b815260206004820152601f60248201527f636f6e646974696f6e206e6f74207072657061726564206f7220666f756e64006044820152fd5b156120cd57565b606460405162461bcd60e51b815260206004820152601e60248201527f7061796f75742064656e6f6d696e61746f7220616c72656164792073657400006044820152fd5b91908110156105fc5760051b0190565b1561212857565b606460405162461bcd60e51b815260206004820152601c60248201527f7061796f7574206e756d657261746f7220616c726561647920736574000000006044820152fd5b1561217357565b606460405162461bcd60e51b815260206004820152601460248201527f7061796f757420697320616c6c207a65726f65730000000000000000000000006044820152fd5b906040820190825260606020926040848201528454809352019260005281600020916000905b8282106121eb575050505090565b8354855293840193600193840193909101906121dd565b1561220957565b606460405162461bcd60e51b815260206004820152602060248201527f676f7420656d707479206f722073696e676c65746f6e20706172746974696f6e6044820152fd5b1561225457565b606460405162461bcd60e51b815260206004820152601a60248201527f636f6e646974696f6e206e6f74207072657061726564207965740000000000006044820152fd5b6000198101919082116115b857565b906000805160206142158339815191529182039182116115b857565b156122ca57565b606460405162461bcd60e51b815260206004820152601560248201527f676f7420696e76616c696420696e6465782073657400000000000000000000006044820152fd5b1561231557565b606460405162461bcd60e51b815260206004820152601660248201527f706172746974696f6e206e6f74206469736a6f696e74000000000000000000006044820152fd5b9081602091031261015c575161069a81611010565b1561237557565b608460405162461bcd60e51b815260206004820152602360248201527f636f756c64206e6f74207265636569766520636f6c6c61746572616c20746f6b60448201527f656e7300000000000000000000000000000000000000000000000000000000006064820152fd5b90918281527f07ffffffffffffffffffffffffffffffffffffffffffffffffffffffffffffff831161015c5760209260051b809284830137010190565b949392916040926001600160a01b03612443931687526060602088015260608701916123df565b930152565b9291906001600160a01b038416156114ed5761246393611686565b565b906001600160a01b038216156114d657612463926124a060405192600184526020840152604083019160018352606084015260808301604052565b9160006040516124af816107b9565b526117ea565b634e487b7160e01b600052601260045260246000fd5b156124d257565b606460405162461bcd60e51b815260206004820152601c60248201527f696e76616c696420706172656e7420636f6c6c656374696f6e204944000000006044820152fd5b1561251d57565b606460405162461bcd60e51b815260206004820152600c60248201527f6563616464206661696c656400000000000000000000000000000000000000006044820152fd5b919082604091031261015c576020825192015190565b604080516020810193845280820194909452835292601f199290919061259e6060826107da565b519020918260ff1c1593841591600092836001948180965b15612602575b5050506000936125fd5760019560008051602061421583398151915296879108968796600381879a81818009900908886125f5826127d5565b9299966125b6565b6124b5565b6125fd57600080516020614215833981519152828009146126245780856125bc565b9496816127c9575b81156127af575b5061279f575b81612674575b50505060018091161461264f5790565b7f40000000000000000000000000000000000000000000000000000000000000001890565b91938160fe9492941c15907f3fffffffffffffffffffffffffffffffffffffffffffffffffffffffffffffff82159516956125fd5760019561273861275e9560009561272c8a9988976000805160206142158339815191529182600381808b80098b0908906126e2826127d5565b9281612794575b811561277b575b50612768575b8192826127049309146124cb565b6040519586936020850198899094939260609260808301968352602083015260408201520152565b039081018352826107da565b519060065afa61274f612749611c1f565b91612516565b60208082518301019101612561565b929092913861263f565b612774612704926122a7565b91506126f6565b905080612789575b386126f0565b508c80831614612783565b838f161591506126e9565b926127a9906122a7565b92612639565b9050806127bd575b38612633565b506001808516146127b7565b6001861615915061262c565b600080516020614215833981519152818009600080516020614215833981519152818009806000805160206142158339815191529109600080516020614215833981519152910990816000805160206142158339815191529109908160008051602061421583398151915291099060008051602061421583398151915282800960008051602061421583398151915281800960008051602061421583398151915290820980600080516020614215833981519152910980600080516020614215833981519152910960008051602061421583398151915291096000805160206142158339815191529109906000805160206142158339815191528280098060008051602061421583398151915291096000805160206142158339815191529109906000805160206142158339815191528280098060008051602061421583398151915291098060008051602061421583398151915291096000805160206142158339815191529083096000805160206142158339815191529109906000805160206142158339815191528280098060008051602061421583398151915291098060008051602061421583398151915291096000805160206142158339815191529083096000805160206142158339815191529109908160008051602061421583398151915291099060008051602061421583398151915282800980600080516020614215833981519152910960008051602061421583398151915291099060008051602061421583398151915282800960008051602061421583398151915281800980600080516020614215833981519152910980600080516020614215833981519152910960008051602061421583398151915291096000805160206142158339815191529109908160008051602061421583398151915291099060008051602061421583398151915282800980600080516020614215833981519152910980600080516020614215833981519152910960008051602061421583398151915291099060008051602061421583398151915282800980600080516020614215833981519152910960008051602061421583398151915290830980600080516020614215833981519152910980600080516020614215833981519152910960008051602061421583398151915290830960008051602061421583398151915291099060008051602061421583398151915282800960008051602061421583398151915281800980600080516020614215833981519152910960008051602061421583398151915290820960008051602061421583398151915290840980600080516020614215833981519152910980600080516020614215833981519152910980600080516020614215833981519152910980600080516020614215833981519152910960008051602061421583398151915291096000805160206142158339815191529109906000805160206142158339815191528280096000805160206142158339815191529083096000805160206142158339815191529109906000805160206142158339815191528280096000805160206142158339815191529083098060008051602061421583398151915291096000805160206142158339815191528180096000805160206142158339815191529082096000805160206142158339815191528180098060008051602061421583398151915291098060008051602061421583398151915291098060008051602061421583398151915291098060008051602061421583398151915291096000805160206142158339815191529109600080516020614215833981519152910960008051602061421583398151915291099081600080516020614215833981519152910990600080516020614215833981519152828009600080516020614215833981519152910990816000805160206142158339815191529109908160008051602061421583398151915291099081600080516020614215833981519152910990816000805160206142158339815191529109906000805160206142158339815191528280096000805160206142158339815191529083098060008051602061421583398151915291096000805160206142158339815191529109906000805160206142158339815191528280098060008051602061421583398151915291096000805160206142158339815191529109908160008051602061421583398151915291099060008051602061421583398151915282800960008051602061421583398151915290830960008051602061421583398151915291099081600080516020614215833981519152910990816000805160206142158339815191529109600080516020614215833981519152818309600080516020614215833981519152828409906000805160206142158339815191529109806000805160206142158339815191529109600080516020614215833981519152828409906000805160206142158339815191529109600080516020614215833981519152908209916000805160206142158339815191528380096000805160206142158339815191529084099160008051602061421583398151915291099060008051602061421583398151915291099081600080516020614215833981519152910990816000805160206142158339815191529109908160008051602061421583398151915291099081600080516020614215833981519152910990600080516020614215833981519152828009600080516020614215833981519152908309806000805160206142158339815191529109600080516020614215833981519152910990816000805160206142158339815191529109906000805160206142158339815191528280096000805160206142158339815191529083098060008051602061421583398151915291096000805160206142158339815191529109906000805160206142158339815191528280096000805160206142158339815191528180098060008051602061421583398151915291096000805160206142158339815191529082096000805160206142158339815191529084098060008051602061421583398151915291098060008051602061421583398151915291098060008051602061421583398151915291098060008051602061421583398151915291096000805160206142158339815191529109600080516020614215833981519152910990816000805160206142158339815191529109908160008051602061421583398151915291099081600080516020614215833981519152910990600080516020614215833981519152828009600080516020614215833981519152908309806000805160206142158339815191529109806000805160206142158339815191529109806000805160206142158339815191529109600080516020614215833981519152908309600080516020614215833981519152910990600080516020614215833981519152828009600080516020614215833981519152908309806000805160206142158339815191529109600080516020614215833981519152910990600080516020614215833981519152828009600080516020614215833981519152908309600080516020614215833981519152910990816000805160206142158339815191529109906000805160206142158339815191528280098060008051602061421583398151915291096000805160206142158339815191529109908160008051602061421583398151915291099060008051602061421583398151915282800960008051602061421583398151915291099081600080516020614215833981519152910990816000805160206142158339815191529109906000805160206142158339815191528280096000805160206142158339815191529083096000805160206142158339815191529109908160008051602061421583398151915291099060008051602061421583398151915282800960008051602061421583398151915290830980600080516020614215833981519152910980600080516020614215833981519152910960008051602061421583398151915291099060008051602061421583398151915282800980600080516020614215833981519152910980600080516020614215833981519152910960008051602061421583398151915290830960008051602061421583398151915291099081600080516020614215833981519152910990600080516020614215833981519152828009600080516020614215833981519152818409806000805160206142158339815191529109806000805160206142158339815191529109600080516020614215833981519152910960008051602061421583398151915291099060008051602061421583398151915282800960008051602061421583398151915291099081600080516020614215833981519152910990816000805160206142158339815191529109908160008051602061421583398151915291099081600080516020614215833981519152910990816000805160206142158339815191529109906000805160206142158339815191528280096000805160206142158339815191529083096000805160206142158339815191528184098060008051602061421583398151915291098060008051602061421583398151915291096000805160206142158339815191529109600080516020614215833981519152910990816000805160206142158339815191529109908160008051602061421583398151915291096000805160206142158339815191528183096000805160206142158339815191529082096000805160206142158339815191528284096000805160206142158339815191529083099060008051602061421583398151915291096000805160206142158339815191528284096000805160206142158339815191529083099060008051602061421583398151915291096000805160206142158339815191528284099060008051602061421583398151915291096000805160206142158339815191528284096000805160206142158339815191529083099060008051602061421583398151915291098060008051602061421583398151915291098060008051602061421583398151915291098060008051602061421583398151915291098060008051602061421583398151915291098060008051602061421583398151915291098060008051602061421583398151915291098060008051602061421583398151915291098060008051602061421583398151915291098060008051602061421583398151915291098060008051602061421583398151915291098060008051602061421583398151915291098060008051602061421583398151915291098060008051602061421583398151915291098060008051602061421583398151915291098060008051602061421583398151915291098060008051602061421583398151915291098060008051602061421583398151915291098060008051602061421583398151915291098060008051602061421583398151915291098060008051602061421583398151915291098060008051602061421583398151915291098060008051602061421583398151915291098060008051602061421583398151915291098060008051602061421583398151915291098060008051602061421583398151915291098060008051602061421583398151915291098060008051602061421583398151915291098060008051602061421583398151915291098060008051602061421583398151915291098060008051602061421583398151915291098060008051602061421583398151915291098060008051602061421583398151915291098060008051602061421583398151915291098060008051602061421583398151915291098060008051602061421583398151915291098060008051602061421583398151915291098060008051602061421583398151915291098060008051602061421583398151915291098060008051602061421583398151915291098060008051602061421583398151915291098060008051602061421583398151915291098060008051602061421583398151915291098060008051602061421583398151915291098060008051602061421583398151915291098060008051602061421583398151915291098060008051602061421583398151915291098060008051602061421583398151915291098060008051602061421583398151915291098060008051602061421583398151915291098060008051602061421583398151915291098060008051602061421583398151915291098060008051602061421583398151915291098060008051602061421583398151915291098060008051602061421583398151915291098060008051602061421583398151915291098060008051602061421583398151915291098060008051602061421583398151915291098060008051602061421583398151915291098060008051602061421583398151915291098060008051602061421583398151915291098060008051602061421583398151915291098060008051602061421583398151915291098060008051602061421583398151915291098060008051602061421583398151915291098060008051602061421583398151915291098060008051602061421583398151915291098060008051602061421583398151915291098060008051602061421583398151915291098060008051602061421583398151915291098060008051602061421583398151915291098060008051602061421583398151915291098060008051602061421583398151915291098060008051602061421583398151915291098060008051602061421583398151915291098060008051602061421583398151915291098060008051602061421583398151915291098060008051602061421583398151915291098060008051602061421583398151915291098060008051602061421583398151915291098060008051602061421583398151915291098060008051602061421583398151915291098060008051602061421583398151915291098060008051602061421583398151915291098060008051602061421583398151915291098060008051602061421583398151915291098060008051602061421583398151915291098060008051602061421583398151915291098060008051602061421583398151915291098060008051602061421583398151915291098060008051602061421583398151915291098060008051602061421583398151915291098060008051602061421583398151915291098060008051602061421583398151915291098060008051602061421583398151915291098060008051602061421583398151915291098060008051602061421583398151915291098060008051602061421583398151915291098060008051602061421583398151915291098060008051602061421583398151915291098060008051602061421583398151915291098060008051602061421583398151915291098060008051602061421583398151915291098060008051602061421583398151915291098060008051602061421583398151915291098060008051602061421583398151915291098060008051602061421583398151915291098060008051602061421583398151915291098060008051602061421583398151915291098060008051602061421583398151915291098060008051602061421583398151915291098060008051602061421583398151915291098060008051602061421583398151915291098060008051602061421583398151915291098060008051602061421583398151915291098060008051602061421583398151915291098060008051602061421583398151915291098060008051602061421583398151915291098060008051602061421583398151915291098060008051602061421583398151915291098060008051602061421583398151915291098060008051602061421583398151915291098060008051602061421583398151915291098060008051602061421583398151915291098060008051602061421583398151915291098060008051602061421583398151915291098060008051602061421583398151915291099160008051602061421583398151915282820960008051602061421583398151915290830960008051602061421583398151915283830960008051602061421583398151915290840990600080516020614215833981519152910960008051602061421583398151915283830960008051602061421583398151915290840990600080516020614215833981519152910991600080516020614215833981519152910990600080516020614215833981519152910990600080516020614215833981519152910990565b906040519060208201926bffffffffffffffffffffffff199060601b1683526034820152603481526060810181811067ffffffffffffffff8211176107d55760405251902090565b1561405f57565b606460405162461bcd60e51b815260206004820152602060248201527f636f756c64206e6f742073656e6420636f6c6c61746572616c20746f6b656e736044820152fd5b909291926001600160a01b038216156114ed57612463936140e160405192600184526020840152604083019160018352606084015260808301604052565b91611686565b91906001600160a01b038316156114d6576124639260006040516124af816107b9565b1561411157565b608460405162461bcd60e51b815260206004820152602560248201527f726573756c7420666f7220636f6e646974696f6e206e6f74207265636569766560448201527f64207965740000000000000000000000000000000000000000000000000000006064820152fd5b81156125fd570490565b1561418c57565b608460405162461bcd60e51b815260206004820152602b60248201527f636f756c64206e6f74207472616e73666572207061796f757420746f206d657360448201527f736167652073656e6465720000000000000000000000000000000000000000006064820152fd5b949392916040926124439287526060602088015260608701916123df56fe30644e72e131a029b85045b68181585d97816a916871ca8d3c208c16d87cfd47a264697066735822122030b610a1b8f7068ac506b8b5618a9c32809cd19aa2d93b0393a7b75a0ae5f3b864736f6c63430008140033",
  "linkReferences": {},
  "deployedLinkReferences": {}
}