{
  "_format": "hh-sol-artifact-1",
  "contractName": "LiquidityPool",
  "sourceName": "contracts/LiquidityPool.sol",
  "abi": [
    {
      "inputs": [
        {
          "internalType": "address",
          "name": "_initialOwner",
          "type": "address"
        },
        {
          "internalType": "address",
          "name": "_usdcAddress",
          "type": "address"
        },
        {
          "internalType": "address",
          "name": "_duelTokenAddress",
          "type": "address"
        }
      ],
      "stateMutability": "nonpayable",
      "type": "constructor"
    },
    {
      "inputs": [
        {
          "internalType": "address",
          "name": "owner",
          "type": "address"
        }
      ],
      "name": "OwnableInvalidOwner",
      "type": "error"
    },
    {
      "inputs": [
        {
          "internalType": "address",
          "name": "account",
          "type": "address"
        }
      ],
      "name": "OwnableUnauthorizedAccount",
      "type": "error"
    },
    {
      "anonymous": false,
      "inputs": [
        {
          "indexed": true,
          "internalType": "address",
          "name": "buyer",
          "type": "address"
        },
        {
          "indexed": false,
          "internalType": "uint256",
          "name": "amount",
          "type": "uint256"
        }
      ],
      "name": "DuelPurchased",
      "type": "event"
    },
    {
      "anonymous": false,
      "inputs": [
        {
          "indexed": true,
          "internalType": "address",
          "name": "market",
          "type": "address"
        },
        {
          "indexed": false,
          "internalType": "uint256",
          "name": "amount",
          "type": "uint256"
        }
      ],
      "name": "FundsReturned",
      "type": "event"
    },
    {
      "anonymous": false,
      "inputs": [
        {
          "indexed": true,
          "internalType": "address",
          "name": "market",
          "type": "address"
        },
        {
          "indexed": false,
          "internalType": "uint256",
          "name": "amount",
          "type": "uint256"
        }
      ],
      "name": "FundsWithdrawn",
      "type": "event"
    },
    {
      "anonymous": false,
      "inputs": [
        {
          "indexed": true,
          "internalType": "address",
          "name": "previousOwner",
          "type": "address"
        },
        {
          "indexed": true,
          "internalType": "address",
          "name": "newOwner",
          "type": "address"
        }
      ],
      "name": "OwnershipTransferred",
      "type": "event"
    },
    {
      "anonymous": false,
      "inputs": [
        {
          "indexed": true,
          "internalType": "address",
          "name": "staker",
          "type": "address"
        },
        {
          "indexed": false,
          "internalType": "uint256",
          "name": "amount",
          "type": "uint256"
        }
      ],
      "name": "RewardsClaimed",
      "type": "event"
    },
    {
      "anonymous": false,
      "inputs": [
        {
          "indexed": false,
          "internalType": "uint256",
          "name": "amount",
          "type": "uint256"
        }
      ],
      "name": "RewardsPoolUpdated",
      "type": "event"
    },
    {
      "inputs": [],
      "name": "accRewardPerShare",
      "outputs": [
        {
          "internalType": "uint256",
          "name": "",
          "type": "uint256"
        }
      ],
      "stateMutability": "view",
      "type": "function"
    },
    {
      "inputs": [
        {
          "internalType": "uint256",
          "name": "_usdcAmount",
          "type": "uint256"
        },
        {
          "internalType": "uint256",
          "name": "_duelAmount",
          "type": "uint256"
        }
      ],
      "name": "addInitialLiquidity",
      "outputs": [],
      "stateMutability": "nonpayable",
      "type": "function"
    },
    {
      "inputs": [
        {
          "internalType": "uint256",
          "name": "_amount",
          "type": "uint256"
        }
      ],
      "name": "addToRewardsPool",
      "outputs": [],
      "stateMutability": "nonpayable",
      "type": "function"
    },
    {
      "inputs": [
        {
          "internalType": "address",
          "name": "_market",
          "type": "address"
        }
      ],
      "name": "authorizeMarket",
      "outputs": [],
      "stateMutability": "nonpayable",
      "type": "function"
    },
    {
      "inputs": [
        {
          "internalType": "address",
          "name": "",
          "type": "address"
        }
      ],
      "name": "authorizedMarkets",
      "outputs": [
        {
          "internalType": "bool",
          "name": "",
          "type": "bool"
        }
      ],
      "stateMutability": "view",
      "type": "function"
    },
    {
      "inputs": [
        {
          "internalType": "uint256",
          "name": "_usdcAmount",
          "type": "uint256"
        }
      ],
      "name": "buyDuel",
      "outputs": [],
      "stateMutability": "nonpayable",
      "type": "function"
    },
    {
      "inputs": [],
      "name": "claimRewards",
      "outputs": [],
      "stateMutability": "nonpayable",
      "type": "function"
    },
    {
      "inputs": [],
      "name": "duelReserve",
      "outputs": [
        {
          "internalType": "uint256",
          "name": "",
          "type": "uint256"
        }
      ],
      "stateMutability": "view",
      "type": "function"
    },
    {
      "inputs": [],
      "name": "duelToken",
      "outputs": [
        {
          "internalType": "contract DuelToken",
          "name": "",
          "type": "address"
        }
      ],
      "stateMutability": "view",
      "type": "function"
    },
    {
      "inputs": [],
      "name": "getReserves",
      "outputs": [
        {
          "internalType": "uint256",
          "name": "",
          "type": "uint256"
        },
        {
          "internalType": "uint256",
          "name": "",
          "type": "uint256"
        }
      ],
      "stateMutability": "view",
      "type": "function"
    },
    {
      "inputs": [
        {
          "internalType": "uint256",
          "name": "_inputAmount",
          "type": "uint256"
        },
        {
          "internalType": "uint256",
          "name": "_inputReserve",
          "type": "uint256"
        },
        {
          "internalType": "uint256",
          "name": "_outputReserve",
          "type": "uint256"
        }
      ],
      "name": "getSwapAmount",
      "outputs": [
        {
          "internalType": "uint256",
          "name": "",
          "type": "uint256"
        }
      ],
      "stateMutability": "pure",
      "type": "function"
    },
    {
      "inputs": [],
      "name": "owner",
      "outputs": [
        {
          "internalType": "address",
          "name": "",
          "type": "address"
        }
      ],
      "stateMutability": "view",
      "type": "function"
    },
    {
      "inputs": [
        {
          "internalType": "address",
          "name": "_staker",
          "type": "address"
        }
      ],
      "name": "pendingRewards",
      "outputs": [
        {
          "internalType": "uint256",
          "name": "",
          "type": "uint256"
        }
      ],
      "stateMutability": "view",
      "type": "function"
    },
    {
      "inputs": [],
      "name": "renounceOwnership",
      "outputs": [],
      "stateMutability": "nonpayable",
      "type": "function"
    },
    {
      "inputs": [
        {
          "internalType": "uint256",
          "name": "_amount",
          "type": "uint256"
        }
      ],
      "name": "returnLiquidity",
      "outputs": [],
      "stateMutability": "nonpayable",
      "type": "function"
    },
    {
      "inputs": [
        {
          "internalType": "address",
          "name": "_market",
          "type": "address"
        }
      ],
      "name": "revokeMarket",
      "outputs": [],
      "stateMutability": "nonpayable",
      "type": "function"
    },
    {
      "inputs": [
        {
          "internalType": "address",
          "name": "",
          "type": "address"
        }
      ],
      "name": "rewardDebt",
      "outputs": [
        {
          "internalType": "uint256",
          "name": "",
          "type": "uint256"
        }
      ],
      "stateMutability": "view",
      "type": "function"
    },
    {
      "inputs": [
        {
          "internalType": "uint256",
          "name": "_amount",
          "type": "uint256"
        }
      ],
      "name": "stake",
      "outputs": [],
      "stateMutability": "nonpayable",
      "type": "function"
    },
    {
      "inputs": [
        {
          "internalType": "address",
          "name": "",
          "type": "address"
        }
      ],
      "name": "stakedBalances",
      "outputs": [
        {
          "internalType": "uint256",
          "name": "",
          "type": "uint256"
        }
      ],
      "stateMutability": "view",
      "type": "function"
    },
    {
      "inputs": [],
      "name": "totalStaked",
      "outputs": [
        {
          "internalType": "uint256",
          "name": "",
          "type": "uint256"
        }
      ],
      "stateMutability": "view",
      "type": "function"
    },
    {
      "inputs": [
        {
          "internalType": "address",
          "name": "newOwner",
          "type": "address"
        }
      ],
      "name": "transferOwnership",
      "outputs": [],
      "stateMutability": "nonpayable",
      "type": "function"
    },
    {
      "inputs": [],
      "name": "usdc",
      "outputs": [
        {
          "internalType": "contract IERC20",
          "name": "",
          "type": "address"
        }
      ],
      "stateMutability": "view",
      "type": "function"
    },
    {
      "inputs": [],
      "name": "usdcReserve",
      "outputs": [
        {
          "internalType": "uint256",
          "name": "",
          "type": "uint256"
        }
      ],
      "stateMutability": "view",
      "type": "function"
    },
    {
      "inputs": [
        {
          "internalType": "uint256",
          "name": "_amount",
          "type": "uint256"
        }
      ],
      "name": "withdrawLiquidity",
      "outputs": [],
      "stateMutability": "nonpayable",
      "type": "function"
    },
    {
      "inputs": [
        {
          "internalType": "uint256",
          "name": "_amount",
          "type": "uint256"
        }
      ],
      "name": "withdrawStake",
      "outputs": [],
      "stateMutability": "nonpayable",
      "type": "function"
    }
  ],
  "bytecode": "0x6080346200019057601f6200164738819003918201601f191683019291906001600160401b038411838510176200019557816060928492604096875283398101031262000190576200005181620001ab565b6200006c836200006460208501620001ab565b9301620001ab565b6001600160a01b03918216919082156200017857816000549460018060a01b031994808688161760005582885197167f8be0079c531659141344cd1fd0a4f28419497f9722a3daafe3b4186f6b6457e0600080a31693841562000136575016918215620000f2578160015416176001556002541617600255516114869081620001c18239f35b835162461bcd60e51b815260206004820152601960248201527f496e76616c6964204475656c546f6b656e2061646472657373000000000000006044820152606490fd5b62461bcd60e51b815260206004820152601460248201527f496e76616c6964205553444320616464726573730000000000000000000000006044820152606490fd5b8451631e4fbdf760e01b815260006004820152602490fd5b600080fd5b634e487b7160e01b600052604160045260246000fd5b51906001600160a01b0382168203620001905756fe608060408181526004908136101561001657600080fd5b600092833560e01c9081630902f1ac14610fb7575080630a861f2a14610eac5780631460fa8714610e7357806325d5971f14610d3757806329527b8214610cdc57806331d7a26214610cab578063372500ab14610c5a5780633e413bee14610c325780634299b8a214610bf45780634410462714610b1757806345cf2ef614610ae85780635873eb9b14610aaf5780636a2f398c146108325780636a5809cc14610813578063715018a6146107a9578063817b1cd21461078a5780638da5cb5b14610764578063939d623714610745578063a40f4fa1146104e3578063a694fc3a1461039f578063d720376014610377578063e57483151461025b578063ed10b7651461023d578063f2862e67146101ee5763f2fde38b1461013757600080fd5b346101ea5760203660031901126101ea578135916001600160a01b03918284168094036101e657610166610fdb565b83156101b75750506000548273ffffffffffffffffffffffffffffffffffffffff19821617600055167f8be0079c531659141344cd1fd0a4f28419497f9722a3daafe3b4186f6b6457e0600080a380f35b908460249251917f1e4fbdf7000000000000000000000000000000000000000000000000000000008352820152fd5b8480fd5b8280fd5b5090346101ea5760203660031901126101ea57356001600160a01b0381168091036101ea5761021b610fdb565b610226811515611341565b825260096020528120805460ff1916600117905580f35b5090346101ea57826003193601126101ea5760209250549051908152f35b5091903461037357602090816003193601126101ea5780359081156103315760015485516323b872dd60e01b815233928101928352306020840152604083018490529495918491869182900360600190829089906001600160a01b03165af1938415610327577f2a45a6a94711d44b65b55eb4701369c2b7a3fd80f7f9d35fb0894f3510daba90946102fa575b506102f2826112fa565b51908152a180f35b61031990843d8611610320575b6103118183611049565b8101906110b6565b50386102e8565b503d610307565b81513d87823e3d90fd5b6064908386519162461bcd60e51b8352820152600b60248201527f5a65726f20616d6f756e740000000000000000000000000000000000000000006044820152fd5b5080fd5b8382346103735781600319360112610373576020906001600160a01b03600254169051908152f35b50346101ea57602091826003193601126104df57803590811561049d57838261040b926103cb3361118d565b60025486516323b872dd60e01b8152339281019283523060208401526040830193909352919384926001600160a01b03169183918a918391606090910190565b03925af1801561049357906104409291610476575b50338552600884528285206104368282546110ce565b90556005546110ce565b6005553383526008825260076c0c9f2c9cd04674edea4000000061046a83862054600654906110f1565b04923385525282205580f35b61048c90853d8711610320576103118183611049565b5038610420565b83513d87823e3d90fd5b6064908484519162461bcd60e51b8352820152600a60248201527f5a65726f207374616b65000000000000000000000000000000000000000000006044820152fd5b8380fd5b50346101ea57806003193601126101ea5781359060243590610503610fdb565b600354158061073c575b156106fa57821515806106f1575b156106af5784906001600160a01b0380600154168251906370a0823160e01b825233888301526020918281602481855afa9081156106a55790889291879161066c575b509183916105716105a39483111561106b565b86516323b872dd60e01b815233818d01908152306020820152604081019390935293849283918a918391606090910190565b03925af1801561066257610644575b50506002541690813b156101ea5782815180936340c10f1960e01b82528183816105f68a8d30908401602090939291936001600160a01b0360408201951681520152565b03925af190811561063b5750610627575b5050610618610622926003546110ce565b60035582546110ce565b905580f35b6106309061101f565b6104df578338610607565b513d84823e3d90fd5b8161065a92903d10610320576103118183611049565b5038806105b2565b84513d87823e3d90fd5b92505094508181813d831161069e575b6106868183611049565b810103126106995751889487918361055e565b600080fd5b503d61067c565b85513d88823e3d90fd5b5162461bcd60e51b8152602081850152600c60248201527f5a65726f20616d6f756e747300000000000000000000000000000000000000006044820152606490fd5b5081151561051b565b5162461bcd60e51b8152602081850152601060248201527f416c72656164792070726f7669646564000000000000000000000000000000006044820152606490fd5b5083541561050d565b8382346103735781600319360112610373576020906006549051908152f35b8382346103735781600319360112610373576001600160a01b0360209254169051908152f35b8382346103735781600319360112610373576020906005549051908152f35b83346108105780600319360112610810576107c2610fdb565b60006001600160a01b03815473ffffffffffffffffffffffffffffffffffffffff1981168355167f8be0079c531659141344cd1fd0a4f28419497f9722a3daafe3b4186f6b6457e08280a380f35b80fd5b8382346103735781600319360112610373576020906003549051908152f35b50346101ea57602090816003193601126104df578235928315610a6e576001600160a01b0380600154169483516370a0823160e01b8152338482015285816024818a5afa8015610a64578890610a31575b610890915082111561106b565b60035480151580610a27575b156109e557906108b1889392855490836113d7565b85516323b872dd60e01b81523386820190815230602082015260408101849052919890918891839182908890829060600103925af180156109db579061090092916109be575b506003546110ce565b60035561090e8684546110ce565b83556002541691823b156103735783516340c10f1960e01b8152339181019182526020820187905292839182908490829060400103925af180156109b45761097f575b50907fca28157e0e8ca63e914385657edcaafc932f1eea05e8acfde4f2dbf1bd993c1591519283523392a280f35b936109ac7fca28157e0e8ca63e914385657edcaafc932f1eea05e8acfde4f2dbf1bd993c1593929561101f565b939091610951565b82513d87823e3d90fd5b6109d490883d8a11610320576103118183611049565b50386108f7565b86513d86823e3d90fd5b6064848787519162461bcd60e51b8352820152600f60248201527f4e6f7420696e697469616c697a656400000000000000000000000000000000006044820152fd5b508354151561089c565b508581813d8311610a5d575b610a478183611049565b81010312610a59576108909051610883565b8780fd5b503d610a3d565b85513d8a823e3d90fd5b82606492519162461bcd60e51b8352820152600960248201527f5a65726f205553444300000000000000000000000000000000000000000000006044820152fd5b5090346101ea5760203660031901126101ea57356001600160a01b0381168091036101ea57828291602094526007845220549051908152f35b5082346108105760603660031901126108105750610b106020926044359060243590356113d7565b9051908152f35b5090346101ea576020806003193601126104df57610b8a92818335809433885260098352610b4a60ff858a20541661138c565b60015484516323b872dd60e01b8152339281019283523060208401526040830193909352919687926001600160a01b03169183918a918391606090910190565b03925af1938415610327577fd7289cb4bb1d80932416fb1a5e3130055c190f63290d5762ff0389a3163b6e8a9394610bd7575b50610bca846003546110ce565b600355519283523392a280f35b610bed90833d8511610320576103118183611049565b5038610bbd565b5090346101ea5760203660031901126101ea57356001600160a01b0381168091036101ea57818360ff92602095526009855220541690519015158152f35b8382346103735781600319360112610373576020906001600160a01b03600154169051908152f35b838234610373578160031936011261037357610c753361118d565b33825260086020526c0c9f2c9cd04674edea40000000610c9b82842054600654906110f1565b0490338352600760205282205580f35b5090346101ea5760203660031901126101ea5735916001600160a01b03831683036108105750610b10602092611131565b5090346101ea5760203660031901126101ea57356001600160a01b0381168091036101ea573383526009602052610d1860ff838520541661138c565b610d23811515611341565b825260096020528120805460ff1916905580f35b50346101ea57602091826003193601126104df5780359033855260088452818386205410610e3157610dd3918491610d6e3361118d565b33875260088352848720610d83838254611124565b9055610d9182600554611124565b6005556001600160a01b03600254169087865180968195829463a9059cbb60e01b845233908401602090939291936001600160a01b0360408201951681520152565b03925af18015610e2757610e0a575b503383526008825260076c0c9f2c9cd04674edea4000000061046a83862054600654906110f1565b610e2090833d8511610320576103118183611049565b5038610de2565b82513d86823e3d90fd5b6064908484519162461bcd60e51b8352820152601260248201527f496e73756666696369656e74207374616b6500000000000000000000000000006044820152fd5b5090346101ea5760203660031901126101ea57356001600160a01b0381168091036101ea57828291602094526008845220549051908152f35b50346101ea57602090816003193601126104df5782359233855260098352610ed960ff838720541661138c565b8360035410610f7657600154825163a9059cbb60e01b81523392810192835260208301869052949392918391869182900360400190829089906001600160a01b03165af1938415610327577feaff4b37086828766ad3268786972c0cd24259d4c87a80f9d3963a3c3d999b0d9394610f59575b50610bca84600354611124565b610f6f90833d8511610320576103118183611049565b5038610f4c565b82606492519162461bcd60e51b8352820152601460248201527f496e73756666696369656e7420726573657276650000000000000000000000006044820152fd5b90508284346108105780600319360112610810575060035490549082526020820152f35b6001600160a01b03600054163303610fef57565b60246040517f118cdaa7000000000000000000000000000000000000000000000000000000008152336004820152fd5b67ffffffffffffffff811161103357604052565b634e487b7160e01b600052604160045260246000fd5b90601f8019910116810190811067ffffffffffffffff82111761103357604052565b1561107257565b606460405162461bcd60e51b815260206004820152601160248201527f496e73756666696369656e7420555344430000000000000000000000000000006044820152fd5b90816020910312610699575180151581036106995790565b919082018092116110db57565b634e487b7160e01b600052601160045260246000fd5b818102929181159184041417156110db57565b811561110e570490565b634e487b7160e01b600052601260045260246000fd5b919082039182116110db57565b6001600160a01b03168060005260086020526c0c9f2c9cd04674edea40000000611163604060002054600654906110f1565b049060005260076020526040600020548082106111865761118391611124565b90565b5050600090565b9061119782611131565b806111a157509050565b6001600160a01b03928360015416936040918251926370a0823160e01b845230600485015260209384816024818b5afa9081156112ef579086916000916112bf575b501061127c57805163a9059cbb60e01b81526001600160a01b038316600482015260248101869052968490889060449082906000905af1968715611271577ffc30cddea38e2bf4d6ea7d3f9ed3b6ad7f176419f4963bd81318067a4aee73fe959697611254575b50519485521692a2565b61126a90853d8711610320576103118183611049565b503861124a565b50513d6000823e3d90fd5b83606491519062461bcd60e51b82526004820152601960248201527f496e73756666696369656e74205553444320696e20706f6f6c000000000000006044820152fd5b91508582813d83116112e8575b6112d68183611049565b810103126108105750859051386111e3565b503d6112cc565b82513d6000823e3d90fd5b60055490811561133d576c0c9f2c9cd04674edea40000000908181029181830414901517156110db576113389161133091611104565b6006546110ce565b600655565b5050565b1561134857565b606460405162461bcd60e51b815260206004820152600e60248201527f496e76616c6964206d61726b65740000000000000000000000000000000000006044820152fd5b1561139357565b606460405162461bcd60e51b815260206004820152600e60248201527f4e6f7420617574686f72697a65640000000000000000000000000000000000006044820152fd5b9181151580611447575b1561140357826113f76113fd92611183956110f1565b926110ce565b90611104565b606460405162461bcd60e51b815260206004820152600d60248201527f5a65726f207265736572766573000000000000000000000000000000000000006044820152fd5b508015156113e156fea2646970667358221220d108afcfd6f0fdc7f87c95a42bd9b4c2173cb24d9b2171fba8e4f8dd0c6a206264736f6c63430008140033",
  "linkReferences": {},
  "deployedLinkReferences": {}
}