{
  "_format": "hh-sol-artifact-1",
  "contractName": "LMSRMarketMaker",
  "sourceName": "contracts/gnosis/LMSRMarketMaker.sol",
  "abi": [
    {
      "inputs": [
        {
          "internalType": "address",
          "name": "owner",
          "type": "address"
        }
      ],
      "name": "OwnableInvalidOwner",
      "type": "error"
    },
    {
      "inputs": [
        {
          "internalType": "address",
          "name": "account",
          "type": "address"
        }
      ],
      "name": "OwnableUnauthorizedAccount",
      "type": "error"
    },
    {
      "anonymous": false,
      "inputs": [],
      "name": "AMMClosed",
      "type": "event"
    },
    {
      "anonymous": false,
      "inputs": [
        {
          "indexed": false,
          "internalType": "uint256",
          "name": "initialFunding",
          "type": "uint256"
        }
      ],
      "name": "AMMCreated",
      "type": "event"
    },
    {
      "anonymous": false,
      "inputs": [
        {
          "indexed": false,
          "internalType": "uint64",
          "name": "newFee",
          "type": "uint64"
        }
      ],
      "name": "AMMFeeChanged",
      "type": "event"
    },
    {
      "anonymous": false,
      "inputs": [
        {
          "indexed": false,
          "internalType": "uint256",
          "name": "fees",
          "type": "uint256"
        }
      ],
      "name": "AMMFeeWithdrawal",
      "type": "event"
    },
    {
      "anonymous": false,
      "inputs": [
        {
          "indexed": false,
          "internalType": "int256",
          "name": "fundingChange",
          "type": "int256"
        }
      ],
      "name": "AMMFundingChanged",
      "type": "event"
    },
    {
      "anonymous": false,
      "inputs": [
        {
          "indexed": true,
          "internalType": "address",
          "name": "transactor",
          "type": "address"
        },
        {
          "indexed": false,
          "internalType": "int256[]",
          "name": "outcomeTokenAmounts",
          "type": "int256[]"
        },
        {
          "indexed": false,
          "internalType": "int256",
          "name": "outcomeTokenNetCost",
          "type": "int256"
        },
        {
          "indexed": false,
          "internalType": "uint256",
          "name": "marketFees",
          "type": "uint256"
        }
      ],
      "name": "AMMOutcomeTokenTrade",
      "type": "event"
    },
    {
      "anonymous": false,
      "inputs": [],
      "name": "AMMPaused",
      "type": "event"
    },
    {
      "anonymous": false,
      "inputs": [],
      "name": "AMMResumed",
      "type": "event"
    },
    {
      "anonymous": false,
      "inputs": [
        {
          "indexed": true,
          "internalType": "address",
          "name": "previousOwner",
          "type": "address"
        },
        {
          "indexed": true,
          "internalType": "address",
          "name": "newOwner",
          "type": "address"
        }
      ],
      "name": "OwnershipTransferred",
      "type": "event"
    },
    {
      "inputs": [],
      "name": "FEE_RANGE",
      "outputs": [
        {
          "internalType": "uint64",
          "name": "",
          "type": "uint64"
        }
      ],
      "stateMutability": "view",
      "type": "function"
    },
    {
      "inputs": [],
      "name": "atomicOutcomeSlotCount",
      "outputs": [
        {
          "internalType": "uint256",
          "name": "",
          "type": "uint256"
        }
      ],
      "stateMutability": "view",
      "type": "function"
    },
    {
      "inputs": [
        {
          "internalType": "uint8",
          "name": "outcomeTokenIndex",
          "type": "uint8"
        }
      ],
      "name": "calcMarginalPrice",
      "outputs": [
        {
          "internalType": "uint256",
          "name": "price",
          "type": "uint256"
        }
      ],
      "stateMutability": "view",
      "type": "function"
    },
    {
      "inputs": [
        {
          "internalType": "uint256",
          "name": "outcomeTokenCost",
          "type": "uint256"
        }
      ],
      "name": "calcMarketFee",
      "outputs": [
        {
          "internalType": "uint256",
          "name": "",
          "type": "uint256"
        }
      ],
      "stateMutability": "view",
      "type": "function"
    },
    {
      "inputs": [
        {
          "internalType": "int256[]",
          "name": "outcomeTokenAmounts",
          "type": "int256[]"
        }
      ],
      "name": "calcNetCost",
      "outputs": [
        {
          "internalType": "int256",
          "name": "netCost",
          "type": "int256"
        }
      ],
      "stateMutability": "view",
      "type": "function"
    },
    {
      "inputs": [
        {
          "internalType": "uint64",
          "name": "_fee",
          "type": "uint64"
        }
      ],
      "name": "changeFee",
      "outputs": [],
      "stateMutability": "nonpayable",
      "type": "function"
    },
    {
      "inputs": [
        {
          "internalType": "int256",
          "name": "fundingChange",
          "type": "int256"
        }
      ],
      "name": "changeFunding",
      "outputs": [],
      "stateMutability": "nonpayable",
      "type": "function"
    },
    {
      "inputs": [],
      "name": "close",
      "outputs": [],
      "stateMutability": "nonpayable",
      "type": "function"
    },
    {
      "inputs": [],
      "name": "collateralToken",
      "outputs": [
        {
          "internalType": "contract IERC20",
          "name": "",
          "type": "address"
        }
      ],
      "stateMutability": "view",
      "type": "function"
    },
    {
      "inputs": [
        {
          "internalType": "uint256",
          "name": "",
          "type": "uint256"
        }
      ],
      "name": "conditionIds",
      "outputs": [
        {
          "internalType": "bytes32",
          "name": "",
          "type": "bytes32"
        }
      ],
      "stateMutability": "view",
      "type": "function"
    },
    {
      "inputs": [],
      "name": "fee",
      "outputs": [
        {
          "internalType": "uint64",
          "name": "",
          "type": "uint64"
        }
      ],
      "stateMutability": "view",
      "type": "function"
    },
    {
      "inputs": [],
      "name": "funding",
      "outputs": [
        {
          "internalType": "uint256",
          "name": "",
          "type": "uint256"
        }
      ],
      "stateMutability": "view",
      "type": "function"
    },
    {
      "inputs": [
        {
          "internalType": "address",
          "name": "",
          "type": "address"
        },
        {
          "internalType": "address",
          "name": "",
          "type": "address"
        },
        {
          "internalType": "uint256[]",
          "name": "",
          "type": "uint256[]"
        },
        {
          "internalType": "uint256[]",
          "name": "",
          "type": "uint256[]"
        },
        {
          "internalType": "bytes",
          "name": "",
          "type": "bytes"
        }
      ],
      "name": "onERC1155BatchReceived",
      "outputs": [
        {
          "internalType": "bytes4",
          "name": "",
          "type": "bytes4"
        }
      ],
      "stateMutability": "nonpayable",
      "type": "function"
    },
    {
      "inputs": [
        {
          "internalType": "address",
          "name": "",
          "type": "address"
        },
        {
          "internalType": "address",
          "name": "",
          "type": "address"
        },
        {
          "internalType": "uint256",
          "name": "",
          "type": "uint256"
        },
        {
          "internalType": "uint256",
          "name": "",
          "type": "uint256"
        },
        {
          "internalType": "bytes",
          "name": "",
          "type": "bytes"
        }
      ],
      "name": "onERC1155Received",
      "outputs": [
        {
          "internalType": "bytes4",
          "name": "",
          "type": "bytes4"
        }
      ],
      "stateMutability": "nonpayable",
      "type": "function"
    },
    {
      "inputs": [],
      "name": "owner",
      "outputs": [
        {
          "internalType": "address",
          "name": "",
          "type": "address"
        }
      ],
      "stateMutability": "view",
      "type": "function"
    },
    {
      "inputs": [],
      "name": "pause",
      "outputs": [],
      "stateMutability": "nonpayable",
      "type": "function"
    },
    {
      "inputs": [],
      "name": "pmSystem",
      "outputs": [
        {
          "internalType": "contract ConditionalTokens",
          "name": "",
          "type": "address"
        }
      ],
      "stateMutability": "view",
      "type": "function"
    },
    {
      "inputs": [],
      "name": "renounceOwnership",
      "outputs": [],
      "stateMutability": "nonpayable",
      "type": "function"
    },
    {
      "inputs": [],
      "name": "resume",
      "outputs": [],
      "stateMutability": "nonpayable",
      "type": "function"
    },
    {
      "inputs": [],
      "name": "stage",
      "outputs": [
        {
          "internalType": "enum MarketMaker.Stage",
          "name": "",
          "type": "uint8"
        }
      ],
      "stateMutability": "view",
      "type": "function"
    },
    {
      "inputs": [
        {
          "internalType": "bytes4",
          "name": "interfaceId",
          "type": "bytes4"
        }
      ],
      "name": "supportsInterface",
      "outputs": [
        {
          "internalType": "bool",
          "name": "",
          "type": "bool"
        }
      ],
      "stateMutability": "view",
      "type": "function"
    },
    {
      "inputs": [
        {
          "internalType": "int256[]",
          "name": "outcomeTokenAmounts",
          "type": "int256[]"
        },
        {
          "internalType": "int256",
          "name": "collateralLimit",
          "type": "int256"
        }
      ],
      "name": "trade",
      "outputs": [
        {
          "internalType": "int256",
          "name": "netCost",
          "type": "int256"
        }
      ],
      "stateMutability": "nonpayable",
      "type": "function"
    },
    {
      "inputs": [
        {
          "internalType": "address",
          "name": "newOwner",
          "type": "address"
        }
      ],
      "name": "transferOwnership",
      "outputs": [],
      "stateMutability": "nonpayable",
      "type": "function"
    },
    {
      "inputs": [],
      "name": "whitelist",
      "outputs": [
        {
          "internalType": "contract Whitelist",
          "name": "",
          "type": "address"
        }
      ],
      "stateMutability": "view",
      "type": "function"
    },
    {
      "inputs": [],
      "name": "withdrawFees",
      "outputs": [
        {
          "internalType": "uint256",
          "name": "fees",
          "type": "uint256"
        }
      ],
      "stateMutability": "nonpayable",
      "type": "function"
    }
  ],
  "bytecode": "0x6080806040523461007a5733156100645760008054336001600160a01b03198216811783556040519290916001600160a01b0316907f8be0079c531659141344cd1fd0a4f28419497f9722a3daafe3b4186f6b6457e09080a36123ca90816100808239f35b631e4fbdf760e01b815260006004820152602490fd5b600080fdfe608080604052600436101561001357600080fd5b600090813560e01c90816301ffc9a7146116c857508063046f7da21461166c57806305be8b2c1461164357806315bd76111461101a57806343d726d614610e43578063476343ee14610ce1578063715018a614610c99578063782d085b14610c565780638456cb5914610bf357806387f39a5c1461093e5780638da5cb5b1461091757806393e59dc1146108ea578063b0011509146108aa578063b2016bd414610881578063b20f8e7f1461040f578063bc197c8114610382578063c040e6b814610358578063cb4c86b71461033a578063d8c55af714610300578063dd83bad2146102e2578063ddca3f43146102b9578063e7f3378914610229578063f23a6e61146101cf578063f2fde38b146101595763fbde47f61461013457600080fd5b346101565780600319360112610156576020604051670de0b6b3a76400008152f35b80fd5b5034610156576020366003190112610156576101736117de565b61017b61191a565b6001600160a01b039081169081156101b6576000548260018060a01b03198216176000551660008051602061237e833981519152600080a380f35b604051631e4fbdf760e01b815260048101849052602490fd5b50346101565760a0366003190112610156576101e96117de565b506101f26117f4565b506084356001600160401b0381116102255761021290369060040161180a565b5060405163f23a6e6160e01b8152602090f35b5080fd5b5034610156576020366003190112610156576004356001600160401b038116908190036102255760207f43acfe4f4a14c012959016586aee3b318a0a30e17bb8edae05a58d46c80b41999161027c61191a565b610296600160ff6007541661029081611860565b14611fb1565b600580546001600160401b0319811683179091556040519085169091178152a180f35b50346101565780600319360112610156576005546040516001600160401b039091168152602090f35b50346101565780600319360112610156576020600454604051908152f35b5034610156576020366003190112610156576004359060035482101561015657602061032b836118b1565b90549060031b1c604051908152f35b50346101565780600319360112610156576020600654604051908152f35b5034610156578060031936011261015657602060ff600754166040519061037e81611860565b8152f35b50346101565760a03660031901126101565761039c6117de565b506103a56117f4565b506001600160401b0360443581811161040b576103c6903690600401611780565b5060643581811161040b576103df903690600401611780565b50608435908111610225576103f890369060040161180a565b5060405163bc197c8160e01b8152602090f35b8280fd5b5034610156576020366003190112610156576004359060ff821682036101565760045461043b81611946565b6001549091906001600160a01b0316835b8281106107825750505080518060401b90808204600160401b149015171561076e576040519063026f7ef360e31b825260048201526002602482015260208160448173__$1248ebc7a726e9813c95d8f56266d8057d$__5af49283156107625792610729575b50600090600092838112158061071d575b156106dd576040516333304e0560e21b8152806024810160206004830152845180915260448201906020860190885b8181106106c4575050509080602092038173__$1248ebc7a726e9813c95d8f56266d8057d$__5af49081156106b957908291869161067e575b5061053c61054a9261054592611a30565b60065490611a53565b6119b6565b9184935b815160ff861610156106525761057d8461057861053c8661057260ff8b16886119a2565b51611a30565b6119cf565b9060405191631d58012360e01b835260048301526002602483015260208260448173__$1248ebc7a726e9813c95d8f56266d8057d$__5af491821561064657600092610612575b5060ff881660ff871614610608575b60ff916105df91611fa4565b941660ff81146105f2576001019361054e565b634e487b7160e01b600052601160045260246000fd5b90955085906105d3565b90916020823d60201161063e575b8161062d60209383611746565b8101031261015657505190386105c4565b3d9150610620565b6040513d6000823e3d90fd5b60401c8581156106685760209160405191048152f35b634e487b7160e01b600052601260045260246000fd5b9150506020813d6020116106b1575b8161069a60209383611746565b810103126106ad5751819061053c61052b565b8480fd5b3d915061068d565b6040513d87823e3d90fd5b82518452859450602093840193909201916001016104f2565b60405162461bcd60e51b8152602060048201526018602482015277496e76616c6964206c6f67324e206f722066756e64696e6760401b6044820152606490fd5b508360065412156104c3565b9091506020813d60201161075a575b8161074560209383611746565b81010312610755575190386104b2565b600080fd5b3d9150610738565b604051903d90823e3d90fd5b634e487b7160e01b83526011600452602483fd5b6107b2602061079083611880565b9054906040519384928392627eeac760e11b845260031b1c3060048401611987565b0381865afa8015610876578690610842575b6107ce9150611f93565b908582136107ef576107ea916107e482876119a2565b52611978565b61044c565b60405162461bcd60e51b815260206004820152602560248201527f4e656761746976652062616c616e6365206d757374206265206e6f6e2d706f73604482015264697469766560d81b6064820152608490fd5b506020813d60201161086e575b8161085c60209383611746565b81010312610755576107ce90516107c4565b3d915061084f565b6040513d88823e3d90fd5b50346101565780600319360112610156576002546040516001600160a01b039091168152602090f35b503461015657602036600319011261015657600554602090670de0b6b3a7640000906108e1906001600160401b03166004356119e8565b04604051908152f35b503461015657806003193601126101565760075460405160089190911c6001600160a01b03168152602090f35b5034610156578060031936011261015657546040516001600160a01b039091168152602090f35b5034610156576020806003193601126102255760043561095c61191a565b610970600160ff6007541661029081611860565b8015610bae57828113610a97575b828112610989578280f35b61099a61099582611f93565b61229e565b6109a381611f93565b6006549081039081116105f25760065560025483546109f29184916001600160a01b0390811691166109d485611f93565b918760405180968195829463a9059cbb60e01b845260048401611987565b03925af1908115610a8c578491610a5f575b5015610a28579060008051602061239e83398151915291604051908152a138808280f35b60405162461bcd60e51b815260048101839052600f60248201526e151c985b9cd9995c8819985a5b1959608a1b6044820152606490fd5b610a7f9150833d8511610a85575b610a778183611746565b810190611fed565b38610a04565b503d610a6d565b6040513d86823e3d90fd5b6002546040516323b872dd60e01b8152906001600160a01b0390849083908316818881610ac989303360048501612005565b03925af19182156106b957849184918794610b8f575b5083610b26575b505050610af290612027565b610afb81612156565b610b0781600654611fa4565b60065560008051602061239e83398151915282604051838152a161097e565b610b529350806002541690600154168760405180968195829463095ea7b360e01b845260048401611987565b03925af18015610a8c57610af2918591610b72575b509050828238610ae6565b610b899150843d8611610a8557610a778183611746565b38610b67565b610ba7919450833d8511610a8557610a778183611746565b9238610adf565b60405162461bcd60e51b815260048101839052601f60248201527f46756e64696e67206368616e6765206d757374206265206e6f6e2d7a65726f006044820152606490fd5b5034610156578060031936011261015657610c0c61191a565b6001600754610c2760ff8216610c2181611860565b15611fb1565b60ff1916176007557fbb11914e7a395f00cf0920fe85f50088bd8d7681529fb0bd3c27ccb45a8bcd8f8180a180f35b503461015657602036600319011261015657600435906001600160401b038211610156576020610c91610c8c3660048601611780565b611a6e565b604051908152f35b5034610156578060031936011261015657610cb261191a565b600080546001600160a01b0319811682556001600160a01b031660008051602061237e8339815191528280a380f35b5034610156578060031936011261015657610cfa61191a565b6002546040516370a0823160e01b815230600482015260209290916001600160a01b03908116908484602481855afa938415610e3857908592918495610e05575b50610d63929185918554168560405180968195829463a9059cbb60e01b845260048401611987565b03925af19182156107625791610de8575b5015610dab577fce1d35d26fbf6b3cc5cd924de10b5a52b08e484129ea7d93abc48d739fffe5b982604051838152a1604051908152f35b60405162461bcd60e51b8152600481018390526015602482015274119959481dda5d1a191c985dd85b0819985a5b1959605a1b6044820152606490fd5b610dff9150833d8511610a8557610a778183611746565b38610d74565b9194509181813d8111610e31575b610e1d8183611746565b810103126107555751928491610d63610d3b565b503d610e13565b6040513d85823e3d90fd5b5034610156578060031936011261015657610e5c61191a565b60ff60075416610e6b81611860565b8015908115611006575b5015610fc957805b600454811015610f945781610e9182611880565b9054600154604051627eeac760e11b81526020936001600160a01b039283169360039190911b1c9190848180610ecb863060048401611987565b0381875afa948515610876578695610f61575b505084541691803b156106ad5784928360c4926040519687958694637921219560e11b865230600487015260248601526044850152606484015260a060848401528160a48401525af18015610f5657610f42575b5050610f3d90611978565b610e7d565b610f4b9061171d565b610225578138610f32565b6040513d84823e3d90fd5b819650809295503d8311610f8d575b610f7a8183611746565b8101031261075557859351923880610ede565b503d610f70565b50600260ff1960075416176007557f6e18b1b14477b5922c6efa82206ed0e3b73c2500e8d1528c9a6e17554ea125548180a180f35b60405162461bcd60e51b815260206004820152601560248201527413585c9ad95d08185b1c9958591e4818db1bdcd959605a1b6044820152606490fd5b6001915061101381611860565b1438610e75565b5034610156576040366003190112610156576001600160401b0360043581811161040b5761104c903690600401611780565b916024908135926007549061106760ff8316610c2181611860565b6001600160a01b039160081c8216801590859082156115f1575b505015611597578551600454036115545761109b86611a6e565b95670de0b6b3a7640000848812928360001461153f576110c9906110be8a611f93565b9060055416906119e8565b04965b84881261150c576110dd88826119fb565b96801580159182611501575b5081156114f9575b50156114b9578481136113d7575b600454928561110d85611946565b94875b81811061138a575050611325575b611314575b6040516060810198606082528351809a52608082019260209a8b860190895b8d82821061130057915050847fda7ff5556ce7ecfcf06296f03426e8c02a7305b85cfd88816a32f7f4969051779594939250015260408201528033930390a283908490600454905b8183106112b857505050611256575b50848285126111ab575b604051858152f35b6111da8392600254166111bd87611f93565b60405194858094819363a9059cbb60e01b83523360048401611987565b03925af19182156107625791611239575b50156111f9578080846111a3565b82601a6064926040519262461bcd60e51b845260048401528201527910dbdb1b185d195c985b081d1c985b9cd9995c8819985a5b195960321b6044820152fd5b6112509150843d8611610a8557610a778183611746565b386111eb565b816001541690813b156112b45761128884928392604051948580948193631759616b60e11b83523330600485016120a5565b03925af18015610e38579083916112a0575b50611199565b6112a99061171d565b61022557813861129a565b8380fd5b909192866112c685846119a2565b5113156112f057506112e96001936112de81846119a2565b516107e482886119a2565b919061118a565b9280876107e46112e993886119a2565b835188529687019690920191600101611142565b61132061099582611f93565b611123565b8460015416803b1561138657866040518092631759616b60e11b82528183816113538b3033600485016120a5565b03925af1801561137b57611368575b5061111e565b6113749096919661171d565b9438611362565b6040513d89823e3d90fd5b8680fd5b8861139582886119a2565b51126113aa575b6113a590611978565b611110565b91506113a56001926113c56113bf82896119a2565b51611f93565b6113cf828a6119a2565b52905061139c565b6002546040516323b872dd60e01b8152602091829082908816818a816114028f303360048501612005565b03925af190811561137b57879161149c575b5080611433575b6114259150612027565b61142e81612156565b6110ff565b506114608183876002541688600154168a60405180968195829463095ea7b360e01b845260048401611987565b03925af191821561137b57906114259291889261147f575b505061141b565b6114959250803d10610a8557610a778183611746565b3880611478565b6114b39150823d8411610a8557610a778183611746565b38611414565b60405162461bcd60e51b8152602060048201526019818801527810dbdb1b185d195c985b081b1a5b5a5d08195e18d959591959603a1b6044820152606490fd5b9050386110f1565b8913159150386110e9565b60405162461bcd60e51b815260206004820152600c818801526b496e76616c6964206665657360a01b6044820152606490fd5b61154d9060055416896119e8565b04966110cc565b60405162461bcd60e51b815260206004820152601c818601527b092dcecc2d8d2c840deeae8c6dedaca40e8ded6cadc40d8cadccee8d60231b6044820152606490fd5b60405162461bcd60e51b815260206004820152602d818601527f4f6e6c792077686974656c6973746564207573657273206d61792063616c6c2060448201526c3a3434b990333ab731ba34b7b760991b6064820152608490fd5b604051633af32abf60e01b81523360048201529250602091839182905afa908115610a8c578491611625575b508438611081565b61163d915060203d8111610a8557610a778183611746565b3861161d565b50346101565780600319360112610156576001546040516001600160a01b039091168152602090f35b503461015657806003193601126101565761168561191a565b60075461169a600160ff831661029081611860565b60ff19166007557fb0cf596e1402e50b88a6d1097918e48922e4a2878ece11d7bb51b5d81cf6c1788180a180f35b9050346102255760203660031901126102255760043563ffffffff60e01b811680910361040b5760209250630271189760e51b811490811561170c575b5015158152f35b6301ffc9a760e01b14905038611705565b6001600160401b03811161173057604052565b634e487b7160e01b600052604160045260246000fd5b601f909101601f19168101906001600160401b0382119082101761173057604052565b6001600160401b0381116117305760051b60200190565b81601f820112156107555780359161179783611769565b926117a56040519485611746565b808452602092838086019260051b820101928311610755578301905b8282106117cf575050505090565b813581529083019083016117c1565b600435906001600160a01b038216820361075557565b602435906001600160a01b038216820361075557565b81601f82011215610755578035906001600160401b038211611730576040519261183e601f8401601f191660200185611746565b8284526020838301011161075557816000926020809301838601378301015290565b6003111561186a57565b634e487b7160e01b600052602160045260246000fd5b600a5481101561189b57600a60005260206000200190600090565b634e487b7160e01b600052603260045260246000fd5b60035481101561189b57600360005260206000200190600090565b60085481101561189b57600860005260206000200190600090565b60095481101561189b57600960005260206000200190600090565b805482101561189b5760005260206000200190600090565b6000546001600160a01b0316330361192e57565b60405163118cdaa760e01b8152336004820152602490fd5b9061195082611769565b61195d6040519182611746565b828152809261196e601f1991611769565b0190602036910137565b60001981146105f25760010190565b6001600160a01b039091168152602081019190915260400190565b805182101561189b5760209160051b010190565b600161249f60371b03198101919082136001166105f257565b818103929160001380158285131691841216176105f257565b818102929181159184041417156105f257565b919091600083820193841291129080158216911516176105f257565b908160401b91808305600160401b14901517156105f257565b818102929160008212600160ff1b8214166105f25781840514901517156105f257565b811561066857600160ff1b81146000198314166105f2570590565b8051906004908154809303611f4457611a8683611946565b600060019260018060a01b03845416915b868110611e535750505073__$1248ebc7a726e9813c95d8f56266d8057d$__604085811b92600160401b96808504881490151715611e3e5781519163026f7ef360e31b9485845287840152602494868685015260206044818682818a5af4958615611e3357600096611e04575b506000928387121580611df8575b15611dbc5784516333304e0560e21b815283818d828d83019183015289518091528d86830191848c01918a905b828210611d9e5750505050819003818c5af48015611d945788908690611d63575b8c96959492508d9391611b7291611a30565b99611b8461054560069c8d5490611a53565b9886975b611c7b575b50849596508751968794859384528301528c8c8301525af4928315611c715750600092611c3e575b505091611bd1611bcc611bd693611bde96956119fb565b611a17565b611a53565b905490611a30565b9260008413801590611c2b575b15611bf7575050500590565b919390920560008482019485129112908015821691151617611c1857505090565b601190634e487b7160e01b600052526000fd5b5083611c38868205611a17565b14611beb565b81819392933d8311611c6a575b611c558183611746565b81010312610156575051611bd1611bcc611bb5565b503d611c4b565b513d6000823e3d90fd5b9193898c8c8599949698995160ff8c1690811015611d535791611ca961057892610572611cb196958a6119a2565b905490611a53565b8951631d58012360e01b8152918201528c81018e905286818781875af4908115611d4857600091611d19575b50611ce791611fa4565b9560ff809116908114611d05578c019594938d93909290918d611b88565b8b60118f634e487b7160e01b600052526000fd5b908782813d8311611d41575b611d2f8183611746565b81010312610156575051611ce7611cdd565b503d611d25565b89513d6000823e3d90fd5b5050505093919594929095611b8d565b50508381813d8311611d8d575b611d7a8183611746565b810103126106ad5787611b729151611b60565b503d611d70565b86513d87823e3d90fd5b92959194509281908651815201940191019084928f92899593611b3f565b845162461bcd60e51b8152808c018490526018818b015277496e76616c6964206c6f67324e206f722066756e64696e6760401b81840152606490fd5b50836006541215611b12565b90958282813d8311611e2c575b611e1b8183611746565b810103126101565750519438611b04565b503d611e11565b84513d6000823e3d90fd5b601186634e487b7160e01b6000525260246000fd5b611e5c81611880565b90546040805192627eeac760e11b84528380611e84602095869460031b1c8d30908401611987565b0381895afa928315611f3957600093611f0a575b5060008312611eca57505090611ebb611ec592611eb583866119a2565b516119cf565b6107e482876119a2565b611a97565b5162461bcd60e51b815280890191909152601a60248201527942616c616e63652063616e6e6f74206265206e6567617469766560301b6044820152606490fd5b90928282813d8311611f32575b611f218183611746565b810103126101565750519138611e98565b503d611f17565b50513d6000823e3d90fd5b60405162461bcd60e51b8152602081840152602260248201527f496e76616c6964206f7574636f6d65546f6b656e416d6f756e7473206c656e676044820152610e8d60f31b6064820152608490fd5b600160ff1b81146105f25760000390565b919082018092116105f257565b15611fb857565b60405162461bcd60e51b815260206004820152600d60248201526c496e76616c696420737461676560981b6044820152606490fd5b90816020910312610755575180151581036107555790565b6001600160a01b03918216815291166020820152604081019190915260600190565b1561202e57565b60405162461bcd60e51b815260206004820152601b60248201527a151c985b9cd9995c881bdc88185c1c1c9bdd985b0819985a5b1959602a1b6044820152606490fd5b90815180825260208080930193019160005b828110612091575050505090565b835185529381019392810192600101612083565b919260a083019160018060a01b038091168452602094168484015260a06040840152600a5480925260c0830190600a600052846000209260005b8682821061210d575050506120fc92508382036060850152612071565b906080818303910152600081520190565b85548552600195860195940193016120df565b95949390926121519260809460018060a01b031688526020880152604087015260a0606087015260a0860190612071565b930152565b6003805490815b61216657505050565b9192909160001983018381116122595761218d612182826118cc565b905490841b1c61226e565b9260005b61219a836118e7565b5054811015612241576001546002546001600160a01b0391821691166121c9836121c3876118e7565b50611902565b905490871b1c906121d9866118b1565b905490881b1c833b156107555788938b93600080946122106040978851998a97889687956372ce427560e01b875260048701612120565b03925af1908115611c7157509061222d9291612232575b50611978565b612191565b61223b9061171d565b38612227565b5094939192505080156122595760001901908161215d565b60246000634e487b7160e01b81526011600452fd5b9061227882611946565b9160005b818110612287575050565b806001612299921b6107e482876119a2565b61227c565b906000905b60038054831015612377576122c56122ba846118cc565b905490831b1c61226e565b9160005b6122d2856118e7565b5054811015612363576001546002546001600160a01b0391821691166122fb836121c3896118e7565b905490861b1c9061230b886118b1565b905490871b1c833b156107555787938a93600080946123426040978851998a9788968795639e7212ad60e01b875260048701612120565b03925af1908115611c7157509061235e92916122325750611978565b6122c9565b509290506123719150611978565b906122a3565b5091505056fe8be0079c531659141344cd1fd0a4f28419497f9722a3daafe3b4186f6b6457e0c55e9a33fb8b1de5318b5c7b96a32937e54006c82000b2c468ed1fb9f73f6799a164736f6c6343000814000a",
  "linkReferences": {
    "contracts/gnosis/Fixed192x64Math.sol": {
      "Fixed192x64Math": [
        {
          "length": 20,
          "start": 1296
        },
        {
          "length": 20,
          "start": 1413
        },
        {
          "length": 20,
          "start": 1568
        },
        {
          "length": 20,
          "start": 6947
        }
      ]
    }
  },
  "deployedLinkReferences": {
    "contracts/gnosis/Fixed192x64Math.sol": {
      "Fixed192x64Math": [
        {
          "length": 20,
          "start": 1168
        },
        {
          "length": 20,
          "start": 1285
        },
        {
          "length": 20,
          "start": 1440
        },
        {
          "length": 20,
          "start": 6819
        }
      ]
    }
  }
}