{
  "_format": "hh-sol-artifact-1",
  "contractName": "MarketFactory",
  "sourceName": "contracts/MarketFactory.sol",
  "abi": [
    {
      "inputs": [
        {
          "internalType": "address",
          "name": "_liquidityPool",
          "type": "address"
        },
        {
          "internalType": "address",
          "name": "_whitelist",
          "type": "address"
        },
        {
          "internalType": "address",
          "name": "_resultsConsumer",
          "type": "address"
        },
        {
          "internalType": "address",
          "name": "_usdc",
          "type": "address"
        },
        {
          "internalType": "address",
          "name": "_conditionalTokens",
          "type": "address"
        },
        {
          "internalType": "address",
          "name": "_lmsrFactory",
          "type": "address"
        }
      ],
      "stateMutability": "nonpayable",
      "type": "constructor"
    },
    {
      "inputs": [
        {
          "internalType": "address",
          "name": "owner",
          "type": "address"
        }
      ],
      "name": "OwnableInvalidOwner",
      "type": "error"
    },
    {
      "inputs": [
        {
          "internalType": "address",
          "name": "account",
          "type": "address"
        }
      ],
      "name": "OwnableUnauthorizedAccount",
      "type": "error"
    },
    {
      "anonymous": false,
      "inputs": [
        {
          "indexed": true,
          "internalType": "address",
          "name": "previousOwner",
          "type": "address"
        },
        {
          "indexed": true,
          "internalType": "address",
          "name": "newOwner",
          "type": "address"
        }
      ],
      "name": "OwnershipTransferred",
      "type": "event"
    },
    {
      "anonymous": false,
      "inputs": [
        {
          "indexed": false,
          "internalType": "uint256",
          "name": "amount",
          "type": "uint256"
        }
      ],
      "name": "PlatformProfitAdded",
      "type": "event"
    },
    {
      "anonymous": false,
      "inputs": [
        {
          "indexed": false,
          "internalType": "uint256",
          "name": "matchId",
          "type": "uint256"
        },
        {
          "indexed": false,
          "internalType": "address",
          "name": "marketAddress",
          "type": "address"
        },
        {
          "indexed": false,
          "internalType": "uint256",
          "name": "matchTimestamp",
          "type": "uint256"
        }
      ],
      "name": "PredictionMarketDeployed",
      "type": "event"
    },
    {
      "anonymous": false,
      "inputs": [
        {
          "indexed": false,
          "internalType": "uint256",
          "name": "matchId",
          "type": "uint256"
        },
        {
          "indexed": false,
          "internalType": "uint8",
          "name": "outcome",
          "type": "uint8"
        }
      ],
      "name": "PredictionMarketResolved",
      "type": "event"
    },
    {
      "inputs": [],
      "name": "MATCH_DURATION",
      "outputs": [
        {
          "internalType": "uint256",
          "name": "",
          "type": "uint256"
        }
      ],
      "stateMutability": "view",
      "type": "function"
    },
    {
      "inputs": [],
      "name": "RESOLUTION_COOLDOWN",
      "outputs": [
        {
          "internalType": "uint256",
          "name": "",
          "type": "uint256"
        }
      ],
      "stateMutability": "view",
      "type": "function"
    },
    {
      "inputs": [
        {
          "internalType": "uint256",
          "name": "",
          "type": "uint256"
        }
      ],
      "name": "activeMatches",
      "outputs": [
        {
          "internalType": "uint256",
          "name": "",
          "type": "uint256"
        }
      ],
      "stateMutability": "view",
      "type": "function"
    },
    {
      "inputs": [
        {
          "internalType": "uint256",
          "name": "amount",
          "type": "uint256"
        }
      ],
      "name": "addToPlatformProfit",
      "outputs": [],
      "stateMutability": "nonpayable",
      "type": "function"
    },
    {
      "inputs": [
        {
          "internalType": "uint256",
          "name": "",
          "type": "uint256"
        }
      ],
      "name": "allMatchIds",
      "outputs": [
        {
          "internalType": "uint256",
          "name": "",
          "type": "uint256"
        }
      ],
      "stateMutability": "view",
      "type": "function"
    },
    {
      "inputs": [
        {
          "internalType": "bytes",
          "name": "",
          "type": "bytes"
        }
      ],
      "name": "checkUpkeep",
      "outputs": [
        {
          "internalType": "bool",
          "name": "upkeepNeeded",
          "type": "bool"
        },
        {
          "internalType": "bytes",
          "name": "performData",
          "type": "bytes"
        }
      ],
      "stateMutability": "view",
      "type": "function"
    },
    {
      "inputs": [],
      "name": "conditionalTokens",
      "outputs": [
        {
          "internalType": "contract ConditionalTokens",
          "name": "",
          "type": "address"
        }
      ],
      "stateMutability": "view",
      "type": "function"
    },
    {
      "inputs": [
        {
          "internalType": "uint256",
          "name": "matchId",
          "type": "uint256"
        },
        {
          "internalType": "uint256",
          "name": "matchTimestamp",
          "type": "uint256"
        }
      ],
      "name": "deployPredictionMarket",
      "outputs": [],
      "stateMutability": "nonpayable",
      "type": "function"
    },
    {
      "inputs": [
        {
          "internalType": "uint256",
          "name": "",
          "type": "uint256"
        }
      ],
      "name": "deploymentTimestamps",
      "outputs": [
        {
          "internalType": "uint256",
          "name": "",
          "type": "uint256"
        }
      ],
      "stateMutability": "view",
      "type": "function"
    },
    {
      "inputs": [],
      "name": "getActiveMatches",
      "outputs": [
        {
          "internalType": "uint256[]",
          "name": "",
          "type": "uint256[]"
        }
      ],
      "stateMutability": "view",
      "type": "function"
    },
    {
      "inputs": [],
      "name": "getAllActiveMatchesAndMarkets",
      "outputs": [
        {
          "internalType": "uint256[]",
          "name": "",
          "type": "uint256[]"
        },
        {
          "internalType": "address[]",
          "name": "",
          "type": "address[]"
        }
      ],
      "stateMutability": "view",
      "type": "function"
    },
    {
      "inputs": [
        {
          "internalType": "uint256",
          "name": "matchId",
          "type": "uint256"
        }
      ],
      "name": "getPredictionMarket",
      "outputs": [
        {
          "internalType": "address",
          "name": "",
          "type": "address"
        }
      ],
      "stateMutability": "view",
      "type": "function"
    },
    {
      "inputs": [],
      "name": "initialize",
      "outputs": [],
      "stateMutability": "nonpayable",
      "type": "function"
    },
    {
      "inputs": [],
      "name": "initialized",
      "outputs": [
        {
          "internalType": "bool",
          "name": "",
          "type": "bool"
        }
      ],
      "stateMutability": "view",
      "type": "function"
    },
    {
      "inputs": [
        {
          "internalType": "uint256",
          "name": "",
          "type": "uint256"
        }
      ],
      "name": "lastResolutionAttempt",
      "outputs": [
        {
          "internalType": "uint256",
          "name": "",
          "type": "uint256"
        }
      ],
      "stateMutability": "view",
      "type": "function"
    },
    {
      "inputs": [],
      "name": "liquidityPool",
      "outputs": [
        {
          "internalType": "contract ILiquidityPool",
          "name": "",
          "type": "address"
        }
      ],
      "stateMutability": "view",
      "type": "function"
    },
    {
      "inputs": [],
      "name": "lmsrFactory",
      "outputs": [
        {
          "internalType": "contract LMSRMarketMakerFactory",
          "name": "",
          "type": "address"
        }
      ],
      "stateMutability": "view",
      "type": "function"
    },
    {
      "inputs": [
        {
          "internalType": "uint256",
          "name": "",
          "type": "uint256"
        }
      ],
      "name": "lmsrMarketMakers",
      "outputs": [
        {
          "internalType": "address",
          "name": "",
          "type": "address"
        }
      ],
      "stateMutability": "view",
      "type": "function"
    },
    {
      "inputs": [
        {
          "internalType": "uint256",
          "name": "",
          "type": "uint256"
        }
      ],
      "name": "matchConditionIds",
      "outputs": [
        {
          "internalType": "bytes32",
          "name": "",
          "type": "bytes32"
        }
      ],
      "stateMutability": "view",
      "type": "function"
    },
    {
      "inputs": [
        {
          "internalType": "uint256",
          "name": "",
          "type": "uint256"
        }
      ],
      "name": "matchTimestamps",
      "outputs": [
        {
          "internalType": "uint256",
          "name": "",
          "type": "uint256"
        }
      ],
      "stateMutability": "view",
      "type": "function"
    },
    {
      "inputs": [],
      "name": "owner",
      "outputs": [
        {
          "internalType": "address",
          "name": "",
          "type": "address"
        }
      ],
      "stateMutability": "view",
      "type": "function"
    },
    {
      "inputs": [
        {
          "internalType": "bytes",
          "name": "performData",
          "type": "bytes"
        }
      ],
      "name": "performUpkeep",
      "outputs": [],
      "stateMutability": "nonpayable",
      "type": "function"
    },
    {
      "inputs": [],
      "name": "platformProfitPool",
      "outputs": [
        {
          "internalType": "uint256",
          "name": "",
          "type": "uint256"
        }
      ],
      "stateMutability": "view",
      "type": "function"
    },
    {
      "inputs": [
        {
          "internalType": "uint256",
          "name": "",
          "type": "uint256"
        }
      ],
      "name": "predictionMarkets",
      "outputs": [
        {
          "internalType": "address",
          "name": "",
          "type": "address"
        }
      ],
      "stateMutability": "view",
      "type": "function"
    },
    {
      "inputs": [],
      "name": "renounceOwnership",
      "outputs": [],
      "stateMutability": "nonpayable",
      "type": "function"
    },
    {
      "inputs": [],
      "name": "resultsConsumer",
      "outputs": [
        {
          "internalType": "contract IResultsConsumer",
          "name": "",
          "type": "address"
        }
      ],
      "stateMutability": "view",
      "type": "function"
    },
    {
      "inputs": [
        {
          "internalType": "address",
          "name": "newOwner",
          "type": "address"
        }
      ],
      "name": "transferOwnership",
      "outputs": [],
      "stateMutability": "nonpayable",
      "type": "function"
    },
    {
      "inputs": [],
      "name": "usdc",
      "outputs": [
        {
          "internalType": "contract IERC20",
          "name": "",
          "type": "address"
        }
      ],
      "stateMutability": "view",
      "type": "function"
    },
    {
      "inputs": [
        {
          "internalType": "address",
          "name": "user",
          "type": "address"
        }
      ],
      "name": "verifyUser",
      "outputs": [],
      "stateMutability": "nonpayable",
      "type": "function"
    },
    {
      "inputs": [],
      "name": "whitelist",
      "outputs": [
        {
          "internalType": "contract Whitelist",
          "name": "",
          "type": "address"
        }
      ],
      "stateMutability": "view",
      "type": "function"
    },
    {
      "inputs": [
        {
          "internalType": "uint256",
          "name": "amount",
          "type": "uint256"
        }
      ],
      "name": "withdrawPlatformProfit",
      "outputs": [],
      "stateMutability": "nonpayable",
      "type": "function"
    }
  ],
  "bytecode": "0x6080346200032457601f6200500438819003918201601f191683019291906001600160401b0384118385101762000329578160c09284926040968752833981010312620003245762000051816200033f565b90602091620000628383016200033f565b91620000708582016200033f565b6200007e606083016200033f565b906200009b60a062000093608086016200033f565b94016200033f565b9333156200030c576000549060018060a01b031996338884161760005589519260018060a01b03928391823391167f8be0079c531659141344cd1fd0a4f28419497f9722a3daafe3b4186f6b6457e0600080a316928315620002ca575081169283156200028657811693841562000242578116948515620001fe578116958615620001b057169687156200016d575085600a541617600a5584600b541617600b5583600c541617600c5582600d541617600d5581600e541617600e55600f541617600f5551614caf9081620003558239f35b60649089519062461bcd60e51b82526004820152601b60248201527f496e76616c6964204c4d5352466163746f7279206164647265737300000000006044820152fd5b895162461bcd60e51b8152600481018a9052602160248201527f496e76616c696420436f6e646974696f6e616c546f6b656e73206164647265736044820152607360f81b6064820152608490fd5b895162461bcd60e51b8152600481018a9052601460248201527f496e76616c6964205553444320616464726573730000000000000000000000006044820152606490fd5b895162461bcd60e51b8152600481018a9052601f60248201527f496e76616c696420526573756c7473436f6e73756d65722061646472657373006044820152606490fd5b895162461bcd60e51b8152600481018a9052601960248201527f496e76616c69642057686974656c6973742061646472657373000000000000006044820152606490fd5b62461bcd60e51b8152600481018a9052601d60248201527f496e76616c6964204c6971756964697479506f6f6c20616464726573730000006044820152606490fd5b8751631e4fbdf760e01b815260006004820152602490fd5b600080fd5b634e487b7160e01b600052604160045260246000fd5b51906001600160a01b0382168203620003245756fe608060405260043610156200001357600080fd5b60003560e01c8063029403db1462001d3c5780631044880f1462001c23578063158ef93e1462001bfb57806317f528df1462001bcd57806319f87d661462001b9f5780633e413bee1462001b765780634585e33b146200149f5780634d813120146200144757806354f276b914620014195780635531407b14620013815780635bd9e29914620013585780635fabcef4146200132157806364b22bac14620012f8578063665a11ca14620012cf5780636e04ff0d146200100d578063715018a61462000fa357806377988c251462000f835780638129fc1c1462000e04578063867fbf5f1462000dcd5780638d3bf1b31462000dae5780638da5cb5b1462000d8557806393e59dc11462000d5c578063af3d6ab61462000d3d578063ca78210d1462000c85578063d4e772931462000c5c578063db7dc91d1462000433578063e7813ce41462000405578063f1534fcd14620003d7578063f27f6f7a146200039b578063f2fde38b14620002e85763fe80d509146200019157600080fd5b34620002e357602080600319360112620002e357600435908115620002a0576000816001600160a01b03600d54166064604051809481937f23b872dd0000000000000000000000000000000000000000000000000000000083523360048401523060248401528860448401525af18015620002945762000260575b50600954918083018093116200024a577fec3d8e712434bc641261268bdddd841bdb3626da155721dda83c7064dab087d692600955604051908152a1005b634e487b7160e01b600052601160045260246000fd5b6200028490823d84116200028c575b6200027b818362001fcf565b81019062002066565b50386200020c565b503d6200026f565b6040513d6000823e3d90fd5b6064906040519062461bcd60e51b825280600483015260248201527f416d6f756e74206d7573742062652067726561746572207468616e207a65726f6044820152fd5b600080fd5b34620002e3576020366003190112620002e3576004356001600160a01b03808216809203620002e3576200031b62001f3b565b81156200036a576000548273ffffffffffffffffffffffffffffffffffffffff19821617600055167f8be0079c531659141344cd1fd0a4f28419497f9722a3daafe3b4186f6b6457e0600080a3005b60246040517f1e4fbdf700000000000000000000000000000000000000000000000000000000815260006004820152fd5b34620002e3576020366003190112620002e357600435600854811015620002e357620003c960209162001eb5565b90546040519160031b1c8152f35b34620002e3576020366003190112620002e35760043560005260066020526020604060002054604051908152f35b34620002e3576020366003190112620002e35760043560005260056020526020604060002054604051908152f35b34620002e3576040366003190112620002e3576004356024356200045662001f3b565b8160005260016020526001600160a01b036040600020541662000c1857611c2081018082116200024a57421162000bd4576001600160a01b03600a5416803b15620002e357600080916024604051809481937f0a861f2a0000000000000000000000000000000000000000000000000000000083526406fc23ac0060048401525af18015620002945762000bc2575b50600060206001600160a01b03600d541660446001600160a01b03600f541660405194859384927f095ea7b300000000000000000000000000000000000000000000000000000000845260048401526406fc23ac0060248401525af18015620002945762000b9e575b506001600160a01b03600a54166001600160a01b03600d5416906001600160a01b03600e541660405192612ac9918285019185831067ffffffffffffffff84111762000a46576080948694620021b186398884526020840152604083015260608201520301906000f0918215620002945760405160208101907f4d6174636820526573756c743a20000000000000000000000000000000000000825282602e820152602e8152620005ff8162001f95565b519020926001600160a01b03600e541693843b15620002e357600080956064604051809881937fd96ee754000000000000000000000000000000000000000000000000000000008352306004840152866024840152600360448401525af1948515620002945760649562000b8c575b5060206001600160a01b03600e5416604051968780927f852c6ae2000000000000000000000000000000000000000000000000000000008252306004830152856024830152600360448301525afa948515620002945760009562000b52575b50841562000b0e5782600052600360205284604060002055604051620006f38162001fb2565b60018152602081016020368237866200070c8362002043565b526001600160a01b03600f5416906001600160a01b03600e5416906001600160a01b03600d5416916001600160a01b03600b5416906040519586947f7c8b2c0700000000000000000000000000000000000000000000000000000000865260c48601926004870152602486015260c060448601525180915260e48401929060005b81811062000af45750505060008360209593819383606484015260848301526406fc23ac0060a483015203925af18015620002945760009062000aa4575b6001600160a01b03915016908360005260026020526001600160a01b0360406000209373ffffffffffffffffffffffffffffffffffffffff199484868254161790551695863b15620002e357604051917fc98c8b2b00000000000000000000000000000000000000000000000000000000835260048301526024820152816044820152600081606481838a5af18015620002945762000a92575b50604051620008748162001fb2565b6001815260203681830137856200088b8262002043565b526001600160a01b03600b5416803b15620002e357620008cf600092918392604051948580948193637f64978360e01b835260206004840152602483019062001e27565b03925af18015620002945762000a80575b50803b15620002e357600080916024604051809481937ff2fde38b0000000000000000000000000000000000000000000000000000000083528a60048401525af18015620002945762000a6e575b506001600160a01b03600a5416803b15620002e3576000809160246040518094819363f2862e6760e01b83528a60048401525af18015620002945762000a5c575b50816000526001602052836040600020918254161790556008549168010000000000000000928381101562000a4657620009cc620009b582600186940160085562001eb5565b819391549060031b91821b91600019901b19161790565b90556007549283101562000a46577f58bd247b7f302594aff9cee4341ccc0389b32ad4fcc57882996a93e5a85783d5938262000a15620009b58660016060980160075562001f03565b90558260005260046020528160406000205560056020524260406000205560405192835260208301526040820152a1005b634e487b7160e01b600052604160045260246000fd5b62000a679062001f80565b846200096f565b62000a799062001f80565b846200092e565b62000a8b9062001f80565b85620008e0565b62000a9d9062001f80565b8562000865565b506020813d60201162000aeb575b8162000ac16020938362001fcf565b81010312620002e357516001600160a01b0381168103620002e3576001600160a01b0390620007cb565b3d915062000ab2565b82518552879550602094850194909201916001016200078d565b606460405162461bcd60e51b815260206004820152601660248201527f436f6e646974696f6e204944206e6f7420666f756e64000000000000000000006044820152fd5b9094506020813d60201162000b83575b8162000b716020938362001fcf565b81010312620002e357519385620006cd565b3d915062000b62565b62000b979062001f80565b856200066e565b62000bba9060203d6020116200028c576200027b818362001fcf565b50826200054e565b62000bcd9062001f80565b82620004e5565b606460405162461bcd60e51b815260206004820152601160248201527f496e76616c69642074696d657374616d700000000000000000000000000000006044820152fd5b606460405162461bcd60e51b815260206004820152601560248201527f4d61726b657420616c72656164792065786973747300000000000000000000006044820152fd5b34620002e3576000366003190112620002e35760206001600160a01b03600f5416604051908152f35b34620002e3576020366003190112620002e3576004358060005260016020526001600160a01b0380604060002054161562000cd3576020916000526001825260406000205416604051908152f35b608460405162461bcd60e51b815260206004820152602760248201527f4d61726b657420646f6573206e6f7420657869737420666f722074686973206d60448201527f61746368204944000000000000000000000000000000000000000000000000006064820152fd5b34620002e3576000366003190112620002e357602060405161012c8152f35b34620002e3576000366003190112620002e35760206001600160a01b03600b5416604051908152f35b34620002e3576000366003190112620002e35760206001600160a01b0360005416604051908152f35b34620002e3576000366003190112620002e3576020604051611c208152f35b34620002e3576020366003190112620002e357600435600052600160205260206001600160a01b0360406000205416604051908152f35b34620002e3576000366003190112620002e35762000e2162001f3b565b600f5460ff8160a01c1662000f3f577fffffffffffffffffffffff00ffffffffffffffffffffffffffffffffffffffff74010000000000000000000000000000000000000000911617600f556001600160a01b0380600a5416803b15620002e3576000809160246040518094819363f2862e6760e01b83523060048401525af18015620002945762000f2d575b506040519062000ebe8262001fb2565b60018252602036818401373062000ed58362002043565b52600b5416803b15620002e357604051637f64978360e01b81526020600482015290600090829081838162000f0e602482018962001e27565b03925af18015620002945762000f2057005b62000f2b9062001f80565b005b62000f389062001f80565b8162000eae565b606460405162461bcd60e51b815260206004820152601360248201527f416c726561647920696e697469616c697a6564000000000000000000000000006044820152fd5b34620002e3576000366003190112620002e3576020600954604051908152f35b34620002e3576000366003190112620002e35762000fc062001f3b565b60006001600160a01b03815473ffffffffffffffffffffffffffffffffffffffff1981168355167f8be0079c531659141344cd1fd0a4f28419497f9722a3daafe3b4186f6b6457e08280a3005b34620002e3576200101e3662001e66565b50506008546200102e816200200b565b6007546200103c816200200b565b9260009160009160005b8181106200123757505060005b818110620011cf5750508115801590620011c5575b1562001197576001936200107c836200200b565b9262001088836200200b565b9460005b828110620011735750505060005b8281106200114857505050620010cb91620010ec91620010df60405194859260406020850152606084019062001df1565b601f19938484830301604085015262001df1565b0390810183528262001fcf565b60405191151582528160206040818301528251908160408401526000935b8285106200112e575050606092506000838284010152601f80199101168101030190f35b84810182015186860160600152938101938593506200110a565b80620011596200116d928462002051565b5162001166828862002051565b5262002080565b6200109a565b806200118462001191928462002051565b5162001166828962002051565b6200108c565b5050505060006040516020810181811067ffffffffffffffff82111762000a465760405260008152620010ec565b5080151562001068565b620011da8162001f03565b90549060031b1c806000526005602052604060002054624f1a0081018091116200024a57421162001218575b50620012129062002080565b62001053565b836200122f91620011666200121294968a62002051565b929062001206565b620012428162001eb5565b90549060031b1c8060005260206006815260406000205461012c81018091116200024a574210620012c2576004908260005252604060002054611c2081018091116200024a57421015620012a3575b506200129d9062002080565b62001046565b85620012ba91620011666200129d94988a62002051565b949062001291565b50506200129d9062002080565b34620002e3576000366003190112620002e35760206001600160a01b03600a5416604051908152f35b34620002e3576000366003190112620002e35760206001600160a01b03600c5416604051908152f35b34620002e3576020366003190112620002e357600435600052600260205260206001600160a01b0360406000205416604051908152f35b34620002e3576000366003190112620002e35760206001600160a01b03600e5416604051908152f35b34620002e3576000366003190112620002e3576040518060085480825282602080930160086000527ff3f7a9fe364faab93b216da50a3214154f22a0a2b415b23a84c8169e8b636ee39260005b858282106200140257505050620013e89250038362001fcf565b620013fe60405192828493845283019062001df1565b0390f35b8554845260019586019588955093019201620013ce565b34620002e3576020366003190112620002e357600435600754811015620002e357620003c960209162001f03565b34620002e3576020366003190112620002e3576004356001600160a01b03808216809203620002e3576200147a62001f3b565b60405191620014898362001fb2565b600183526020368185013762000ed58362002043565b34620002e357620014b03662001e66565b810190604081830312620002e357803567ffffffffffffffff8111620002e35782620014de91830162002090565b91602082013567ffffffffffffffff8111620002e35762001500920162002090565b9060005b8151811015620019e0576200151a818362002051565b5190816000526006602052426040600020556004602052604060002054611c2081018091116200024a5742106200199c57600c6001600160a01b038154166040517fbd1e658c000000000000000000000000000000000000000000000000000000008152846004820152602081602481855afa8015620002945760019160009162001978575b501515036200190757509160206001600160a01b036024945416604051948580927fe3b96a4c0000000000000000000000000000000000000000000000000000000082528560048301525afa60009381620018c2575b506200160f575062001609915062002080565b62001504565b6001600160a01b03600e5416816000526003602052604060002054604051907f0504c814000000000000000000000000000000000000000000000000000000008252600482015260ff85166024820152602081604481855afa90811562000294576000916200188a575b50156200178f575b508060005260016020526001600160a01b0360406000205416803b15620002e357600080916024604051809481937ff21ffa6b00000000000000000000000000000000000000000000000000000000835260ff8a1660048401525af1801562000294576200177d575b50620016f681620020f6565b15620017395760407f8e5357198b8c9c6b705306c36d9103b8b29d5ebe4efc43878f0c89b93b28b8349160ff62001609958351928352166020820152a162002080565b606460405162461bcd60e51b815260206004820152601260248201527f4d617463682052656d6f76616c204661696c00000000000000000000000000006044820152fd5b620017889062001f80565b85620016ea565b60405160208101907f4d6174636820526573756c743a200000000000000000000000000000000000008252602e84818301528152620017ce8162001f95565b51902060405180608081011067ffffffffffffffff60808301111762000a46576080810160405260038152606036602083013760016200181260ff88168362002051565b52823b15620002e3576200186792600092836040518096819582947fc49298ac000000000000000000000000000000000000000000000000000000008452600484015260406024840152604483019062001df1565b03925af180156200029457156200168157620018839062001f80565b8562001681565b90506020813d602011620018b9575b81620018a86020938362001fcf565b81010312620002e357518762001679565b3d915062001899565b9093506020813d602011620018fe575b81620018e16020938362001fcf565b81010312620002e3575160ff81168103620002e3579286620015f6565b3d9150620018d2565b8091503b15620002e357600080916024620016099560405194859384927f26b2acc300000000000000000000000000000000000000000000000000000000845260048401525af1908162001966575b5015600003620020805762002080565b620019719062001f80565b8562001956565b62001995915060203d6020116200028c576200027b818362001fcf565b88620015a0565b606460405162461bcd60e51b815260206004820152601d60248201527f4d61746368206475726174696f6e20686173206e6f74207061737365640000006044820152fd5b8260005b815181101562000f2b57620019fa818362002051565b5180600052600580602052604060002054624f1a0081018091116200024a57421162001a34575b505062001a2e9062002080565b620019e4565b816000526001908160205260406000209073ffffffffffffffffffffffffffffffffffffffff1991828154169055602052600060408120556002602052604060002090815416905560066020526000604081205560038060205260006040812055600460205260006040812055816000905b62001ab4575b505062001a21565b60078054908183101562001b6e578562001ace8462001f03565b905490861b1c1462001aef57505062001ae8839162002080565b9062001aa6565b6000199695509293508581019081116200024a57620009b562001b1662001b239262001f03565b905490861b1c9262001f03565b9055805493841562001b58578062001a2e95019262001b428462001f03565b81939154921b1b19169055559083808062001aac565b634e487b7160e01b600052603160045260246000fd5b505062001aac565b34620002e3576000366003190112620002e35760206001600160a01b03600d5416604051908152f35b34620002e3576020366003190112620002e35760043560005260046020526020604060002054604051908152f35b34620002e3576020366003190112620002e35760043560005260036020526020604060002054604051908152f35b34620002e3576000366003190112620002e357602060ff600f5460a01c166040519015158152f35b34620002e3576020366003190112620002e35760043562001c4362001f3b565b60095480821162001cd2578181039081116200024a5760009160209160095560446001600160a01b03600d54169160405194859384927fa9059cbb00000000000000000000000000000000000000000000000000000000845233600485015260248401525af18015620002945762001cb757005b62000f2b9060203d81116200028c576200027b818362001fcf565b608460405162461bcd60e51b815260206004820152602360248201527f416d6f756e74206578636565647320706c6174666f726d2070726f666974207060448201527f6f6f6c00000000000000000000000000000000000000000000000000000000006064820152fd5b34620002e3576000366003190112620002e35760085462001d5d816200200b565b9062001d69816200200b565b9060005b81811062001da35762001d9484620013fe8560405193849360408552604085019062001df1565b90838203602085015262001e27565b8062001db362001deb9262001eb5565b90549060031b1c8062001dc7838862002051565b5260005260016020526001600160a01b036040600020541662001166828662002051565b62001d6d565b90815180825260208080930193019160005b82811062001e12575050505090565b83518552938101939281019260010162001e03565b90815180825260208080930193019160005b82811062001e48575050505090565b83516001600160a01b03168552938101939281019260010162001e39565b906020600319830112620002e35760043567ffffffffffffffff92838211620002e35780602383011215620002e3578160040135938411620002e35760248483010111620002e3576024019190565b60085481101562001eed5760086000527ff3f7a9fe364faab93b216da50a3214154f22a0a2b415b23a84c8169e8b636ee30190600090565b634e487b7160e01b600052603260045260246000fd5b60075481101562001eed5760076000527fa66cc928b5edb82af9bd49922954155ab7b0942694bea4ce44661d9a8736c6880190600090565b6001600160a01b0360005416330362001f5057565b60246040517f118cdaa7000000000000000000000000000000000000000000000000000000008152336004820152fd5b67ffffffffffffffff811162000a4657604052565b6060810190811067ffffffffffffffff82111762000a4657604052565b6040810190811067ffffffffffffffff82111762000a4657604052565b90601f8019910116810190811067ffffffffffffffff82111762000a4657604052565b67ffffffffffffffff811162000a465760051b60200190565b90620020178262001ff2565b62002026604051918262001fcf565b828152809262002039601f199162001ff2565b0190602036910137565b80511562001eed5760200190565b805182101562001eed5760209160051b010190565b90816020910312620002e357518015158103620002e35790565b60001981146200024a5760010190565b81601f82011215620002e357803591620020aa8362001ff2565b92620020ba604051948562001fcf565b808452602092838086019260051b820101928311620002e3578301905b828210620020e6575050505090565b81358152908301908301620020d7565b60005b600880549081831015620021a7578391620021148462001eb5565b939054600394851b1c146200213757505050620021319062002080565b620020f9565b91935091600019918281019081116200024a578082036200217d575b50508154801562001b58578101926200216c8462001eb5565b81939154921b1b1916905555600190565b620009b5620021906200219d9262001eb5565b905490871b1c9262001eb5565b9055388062002153565b5050505060009056fe608034620001f957601f62002ac938819003918201601f191683019291906001600160401b03841183851017620001fe578160809284926040968752833981010312620001f957805190620000576020820162000214565b6200007260606200006a86850162000214565b930162000214565b903315620001e1576000549060018060a01b031993338584161760005586519260018060a01b03928391823391167f8be0079c531659141344cd1fd0a4f28419497f9722a3daafe3b4186f6b6457e0600080a3169283156200019f575081169283156200015b57169384156200010d5760015582600254161760025581600554161760055560065416176006555161289f90816200022a8239f35b855162461bcd60e51b815260206004820152602160248201527f496e76616c696420436f6e646974696f6e616c546f6b656e73206164647265736044820152607360f81b6064820152608490fd5b865162461bcd60e51b815260206004820152601a60248201527f496e76616c6964205553444320746f6b656e20616464726573730000000000006044820152606490fd5b62461bcd60e51b815260206004820152601d60248201527f496e76616c6964204c6971756964697479506f6f6c20616464726573730000006044820152606490fd5b8451631e4fbdf760e01b815260006004820152602490fd5b600080fd5b634e487b7160e01b600052604160045260246000fd5b51906001600160a01b0382168203620001f95756fe60806040908082526004908136101561001757600080fd5b600091823560e01c91826301ffc9a7146123b957508163158ef93e146123925781631c371e2b1461236d5781631f21f9af146123455781632ddc7de7146123265781632dfc8ee9146122f5578163326209b414611d995781633482b64414611d565781633e413bee14611d2e578163429c2ed714611cf25781635bd9e29914611cca578163665a11ca14611ca2578163715018a614611c3b5781638da5cb5b14611c1557816399892e4714611bf6578163aaafcf7f14611b9d578163b06a5c5214611b7e578163bc197c8114611ade578163bf333f2c14611ac1578163c98c8b2b1461196a578163dbb3f53714611943578163dd9089aa14610e4b578163e55a238214610d82578163f21ffa6b146109e9578163f23a6e611461097a578163f2ccb397146102d5578163f2fde38b14610220575063ffd4493c1461015a57600080fd5b3461021d578060031936011261021d579080519182906008549182855260208095018093600884527ff3f7a9fe364faab93b216da50a3214154f22a0a2b415b23a84c8169e8b636ee390845b81811061020057505050816101bc910382612542565b83519485948186019282875251809352850193925b8281106101e057505050500390f35b83516001600160a01b0316855286955093810193928101926001016101d1565b82546001600160a01b0316845292880192600192830192016101a6565b80fd5b839150346102d15760203660031901126102d15761023c6124b4565b90610245612622565b6001600160a01b038092169283156102a25750506000548273ffffffffffffffffffffffffffffffffffffffff19821617600055167f8be0079c531659141344cd1fd0a4f28419497f9722a3daafe3b4186f6b6457e0600080a380f35b908460249251917f1e4fbdf7000000000000000000000000000000000000000000000000000000008352820152fd5b8280fd5b839150346102d157816003193601126102d1576102f0612457565b90602490813560ff6007549461030b828760a81c1615612666565b16610318600382106126b1565b6103238215156126fc565b6001600160a01b039182600654168360055416906003549789519863856296f760e01b8a528b888b0152888a01526001851b60448a01526020988981606481865afa8015610894578a918d91610949575b508b5163039dd75360e41b81526001600160a01b039095168986019081526020810191909152849081906040015b0381855afa92831561093f578b93610910575b508951627eeac760e11b815233888201908152602081018590528a90829081906040010381865afa80156108945785918d916108df575b501061089e5760609291898961044a93828a8f808c8f926104258e61042c92519e8f61041781612526565b6003815289369101376127e4565b918d612784565b52519788958694859363782d085b60e01b855284015282018b612798565b0392165afa918215610894578c92610865575b508b82121561082457808c913b15610820578b51637921219560e11b815233818b0190815230602082015260408101959095526060850187905260a060808601819052600090860152938291859182908490829060c00103925af1928315610814578a936107f7575b50908a6104f59492898960075416938351978896879586946315bd761160e01b86528501526044840190612798565b908d83015203925af190811561070f5789916107ca575b50888761054a8660055416610520856127e4565b8c5163a9059cbb60e01b8152338b8201908152602081019290925294859384928391604090910190565b03925af19081156107c0578a91610793575b5015610752578061056f61058b926127e4565b848b52600a89526105848a8c2091825461276a565b90556127e4565b8751918252868201527f59bb1b9bbd3cec3437b204c969642374ba2f0fd9d3b7cfc39b49024d9e60d454873392a3600754169184519063b20f8e7f60e01b92838352878184015285838381885afa928315610748578893610719575b5086519184835260018284015286838281895afa94851561070f5787938a966106da575b5060029495968951958694859384528301525afa9384156106d0578694610679575b50506106737f893ac9c513b4380780f867c7b8bd044b0c9868ae211e7b5c6daaa79c936e4dbe936001549551938493846040919493926060820195825260208201520152565b0390a280f35b90809450813d83116106c9575b6106908183612542565b810103126106c4576106737f893ac9c513b4380780f867c7b8bd044b0c9868ae211e7b5c6daaa79c936e4dbe93519361062d565b600080fd5b503d610686565b85513d88823e3d90fd5b848195929697503d8311610708575b6106f38183612542565b810103126106c457600293879351959461060b565b503d6106e9565b88513d8b823e3d90fd5b9092508581813d8311610741575b6107318183612542565b810103126106c4575191886105e7565b503d610727565b87513d8a823e3d90fd5b6064856014888a8c519362461bcd60e51b85528401528201527f55534443207472616e73666572206661696c65640000000000000000000000006044820152fd5b6107b39150883d8a116107b9575b6107ab8183612542565b8101906127cc565b8a61055c565b503d6107a1565b89513d8c823e3d90fd5b90508681813d83116107f0575b6107e18183612542565b810103126106c457518961050c565b503d6107d7565b610803919293506124e0565b6108105787908a8c6104c6565b8980fd5b508a51903d90823e3d90fd5b5080fd5b60648860128b8d8f519362461bcd60e51b85528401528201527f496e76616c6964207472616465206761696e00000000000000000000000000006044820152fd5b9091508981813d831161088d575b61087d8183612542565b810103126106c45751908c61045d565b503d610873565b8b513d8e823e3d90fd5b606487601b8a8c8e519362461bcd60e51b85528401528201527f496e73756666696369656e74206f7574636f6d6520746f6b656e7300000000006044820152fd5b8092508b8092503d8311610909575b6108f88183612542565b810103126106c4578490518d6103ec565b503d6108ee565b9092508881813d8311610938575b6109288183612542565b810103126106c45751918b6103b5565b503d61091e565b8a513d8d823e3d90fd5b82819392503d8311610973575b6109608183612542565b810103126106c4575189906103a2610374565b503d610956565b83833461021d5760a036600319011261021d576109956124b4565b5061099e6124ca565b506084359067ffffffffffffffff821161021d57506020926109c2913691016125cb565b50517ff23a6e61000000000000000000000000000000000000000000000000000000008152f35b838380923461082057602092836003193601126102d157610a08612457565b93610a11612622565b60075490610a2560ff8360a81c1615612666565b60ff861695610a36600388106126b1565b60b01b750100000000000000000000000000000000000000000076ff0000000000000000000000000000000000000000000082167fffffffffffffffffff0000ffffffffffffffffffffffffffffffffffffffffff85161717600755856001600160a01b03809416911617803b15610ce857858091868651809481937f43d726d60000000000000000000000000000000000000000000000000000000083525af18015610d6057908691610d6e575b5050600160ff60075460b01c161b835190610aff8261250a565b60018252823681840137610b1282612777565b52826006541683600554169060035490803b15610d6a5788928389610b498a5197889687958694626dc0df60e21b86528501612811565b03925af18015610d6057908691610d48575b50508160055416908351916370a0823160e01b835230868401528183602481845afa928315610d0a578793610d14575b508183610bc99286600254168a8a8a519687958694859363095ea7b360e01b85528401602090939291936001600160a01b0360408201951681520152565b03925af18015610d0a57610cec575b5050816002541690813b15610ce857859160248392865194859384927f441046270000000000000000000000000000000000000000000000000000000084528a8401525af18015610cde57908591610cca575b50506002541691823b15610cc657839260248492845195869384927f29527b8200000000000000000000000000000000000000000000000000000000845230908401525af1908115610cbd5750610ca9575b50506001547f739f283563fb51ab6b89ee95d937b2e63a6cfcb83c385dbebb629f9d97bd43e68380a380f35b610cb2906124e0565b610820578183610c7d565b513d84823e3d90fd5b8380fd5b610cd3906124e0565b610cc6578387610c2b565b83513d87823e3d90fd5b8580fd5b81610d0292903d106107b9576107ab8183612542565b508780610bd8565b85513d89823e3d90fd5b965091508086813d8111610d41575b610d2d8183612542565b810103126106c45794518795909181610b8b565b503d610d23565b610d51906124e0565b610d5c578488610b5b565b8480fd5b84513d88823e3d90fd5b8880fd5b610d77906124e0565b610d5c578488610ae5565b828434610820578060031936011261082057610df9610d9f612457565b8251610daa81612526565b60038152602095869260603685850137610dca60ff602435921684612784565b52826001600160a01b03600754169186519586948593849363782d085b60e01b85528401526024830190612798565b03915afa928315610e405792610e11575b5051908152f35b9091508281813d8311610e39575b610e298183612542565b810103126106c457519083610e0a565b503d610e1f565b8251903d90823e3d90fd5b9190503461021d578260031936011261021d57610e66612457565b9060249283359460ff8094610e828260075460a81c1615612666565b16906003610e918184106126b1565b610e9c8815156126fc565b33855260209160098352868187205416156118db575b8591865b88811682811015610f0c579081878b9303610eef575b5016888114610edd57600101610eb6565b8988601189634e487b7160e01b835252fd5b94610f0591958a52600a8752848a205490612747565b9338610ecc565b5050869591948a8a9464746a5288009081018091116118c957828952600a875287892054610f399161276a565b811161186257865192610f4b84612526565b8084526060368886013781610f608486612784565b526001600160a01b0393846007541690888a51809363782d085b60e01b8252828a8301528180610f928d820187612798565b03915afa91821561093f578b92611833575b508a8213156117f2576101908083029083820414831517156117e0579061271087939204918c8c8c8c60648d85610fdb8a89612747565b9960011c9a60055416955195869485937f23b872dd0000000000000000000000000000000000000000000000000000000085523390850152309084015260449a8b8401525af19182156117d557916117b8575b50156117765790818d61107c8d8f958c8e978582600554169260075416915180968195829463095ea7b360e01b9d8e85528401602090939291936001600160a01b0360408201951681520152565b03925af191821561176b579161174e575b501561170b576110c3918c918f8f908d8f8e60075416948451988997889687956315bd761160e01b87528601528c850190612798565b9183015203925af1948d8d8715611701578b8e8e95849a6116c8575b508c60065416958d600554169554908585519463856296f760e01b865285015283015260018c1b8883015281606481885afa9384156116bc578f918495611686575b508d6111548451968793849363039dd75360e41b85528401602090939291936001600160a01b0360408201951681520152565b0381875afa92831561167b578e918d918495611645575b5051627eeac760e11b815230918101918252602082018590529190829081906040015b0381875afa90811561163857899291611607575b501061159e578d823b1561021d578d51637921219560e11b815230818d0190815233602082015260408101939093526060830189905260a060808401819052600090840152928e928291859182908490829060c00103925af1908115610e40578d928792611582575b61124594508b60055416918d8d600254169251968795869485938b85528401602090939291936001600160a01b0360408201951681520152565b03925af1908115611578578d9161155b575b501561151a578b90876002541690813b156102d1578c9083868d8d83865197889485937fe57483150000000000000000000000000000000000000000000000000000000085528401525af180156115105786948e948d926114ee575b508b60055416926112e98d83541695519788968795869485528401602090939291936001600160a01b0360408201951681520152565b03925af1908115610894578c916114d1575b501561146b575089908582541690813b156102d15782918983928d5194859384927ffe80d5090000000000000000000000000000000000000000000000000000000084528d8401525af180156114615761144d575b50839052600a8752878920611366828254612747565b90558751918252868201527f58d1b6a27802b679fdc085f457b7699ca7b334df2e9f26f1bf92773f0810a3a2873392a3600754169184519063b20f8e7f60e01b92838352878184015285838381885afa928315610748578893610719575086519184835260018284015286838281895afa94851561070f5787938a966106da575060029495968951958694859384528301525afa9384156106d05786946106795750506106737f893ac9c513b4380780f867c7b8bd044b0c9868ae211e7b5c6daaa79c936e4dbe936001549551938493846040919493926060820195825260208201520152565b611456906124e0565b610d6a57888a611350565b8a513d84823e3d90fd5b867f417070726f766520746f206f776e65722f4d61726b6574466163746f7279206660849260258b8d8f519562461bcd60e51b87528601528401528201527f61696c65640000000000000000000000000000000000000000000000000000006064820152fd5b6114e891508a3d8c116107b9576107ab8183612542565b8c6112fb565b915094506115009193508492506124e0565b610820578b8b918a8694386112b3565b82513d86823e3d90fd5b50867f417070726f766520746f204c6971756964697479506f6f6c206661696c656400606492601f8b8d8f519562461bcd60e51b8752860152840152820152fd5b61157291508b3d8d116107b9576107ab8183612542565b8d611257565b8c513d8f823e3d90fd5b509283925061159191506124e0565b61021d578a84828e61120b565b505050867f4e6f7420656e6f756768206f7574636f6d6520746f6b656e732072656365697660849260228b8d8f519562461bcd60e51b87528601528401528201527f65640000000000000000000000000000000000000000000000000000000000006064820152fd5b8092508e8092503d8311611631575b6116208183612542565b810103126106c457879051386111a2565b503d611616565b50508d51903d90823e3d90fd5b94505050905081813d8311611674575b61165f8183612542565b810103126106c457518d8c8b8f61118e61116b565b503d611655565b5051903d90823e3d90fd5b93509350905081813d83116116b5575b6116a08183612542565b810103126106c4578d8f918e90519338611121565b503d611696565b505051903d90823e3d90fd5b955093985050505081813d83116116fa575b6116e48183612542565b810103126106c457519389908d8d8b8e386110df565b503d6116da565b51903d90823e3d90fd5b505050867f617070726f766520746f206d61726b65744d616b6572206661696c6564000000606492601d8b8d8f519562461bcd60e51b8752860152840152820152fd5b61176591508d803d106107b9576107ab8183612542565b8f61108d565b8f51903d90823e3d90fd5b5050867f7472616e7366657246726f6d206661696c65640000000000000000000000000060649260138b8d8f519562461bcd60e51b8752860152840152820152fd5b6117cf91508c8d3d106107b9576107ab8183612542565b8e61102e565b8e51903d90823e3d90fd5b888c60118a634e487b7160e01b835252fd5b60648760128a8c8e519362461bcd60e51b85528401528201527f496e76616c696420747261646520636f737400000000000000000000000000006044820152fd5b9091508881813d831161185b575b61184b8183612542565b810103126106c45751908b610fa4565b503d611841565b50505091608493519262461bcd60e51b8452830152808201527f4265742065786365656473206d6178696d756d20616c6c6f7761626c6520616d60448201527f6f756e74000000000000000000000000000000000000000000000000000000006064820152fd5b8589601187634e487b7160e01b835252fd5b60085468010000000000000000811015611931578060016118ff9201600855612467565b815490841b906001600160a01b0333831b921b191617905533865260098352808620600160ff19825416179055610eb2565b8887604188634e487b7160e01b835252fd5b82843461082057816003193601126108205760209060ff60075460a81c1690519015158152f35b82843461082057606036600319011261082057604435906001600160a01b03938483168093036106c45761199c612622565b6007549460ff8660a01c16611a7e578373ffffffffffffffffffffffffffffffffffffffff1986976024356003558435855516176007556006541692833b15610d5c576044859283855196879485937fa22cb465000000000000000000000000000000000000000000000000000000008552840152600160248401525af1908115610cbd5750611a6a575b50740100000000000000000000000000000000000000007fffffffffffffffffffffff00ffffffffffffffffffffffffffffffffffffffff600754161760075580f35b611a73906124e0565b61021d578082611a27565b506020606492519162461bcd60e51b8352820152601a60248201527f4d61726b657420616c726561647920696e697469616c697a65640000000000006044820152fd5b828434610820578160031936011261082057602090516101908152f35b83833461021d5760a036600319011261021d57611af96124b4565b50611b026124ca565b5067ffffffffffffffff9060443582811161082057611b249036908601612564565b5060643582811161082057611b3c9036908601612564565b5060843591821161021d5750602092611b57913691016125cb565b50517fbc197c81000000000000000000000000000000000000000000000000000000008152f35b839150346102d157826003193601126102d15760209250549051908152f35b82843461082057602092836003193601126102d1578360ff6024611bbf612457565b6001600160a01b03600754168651958694859363b20f8e7f60e01b855216908301525afa928315610e405792610e11575051908152f35b8284346108205781600319360112610820576020906001549051908152f35b8284346108205781600319360112610820576001600160a01b0360209254169051908152f35b823461021d578060031936011261021d57611c54612622565b60006001600160a01b03815473ffffffffffffffffffffffffffffffffffffffff1981168355167f8be0079c531659141344cd1fd0a4f28419497f9722a3daafe3b4186f6b6457e08280a380f35b8284346108205781600319360112610820576020906001600160a01b03600254169051908152f35b8284346108205781600319360112610820576020906001600160a01b03600654169051908152f35b8284346108205760203660031901126108205760ff816020936001600160a01b03611d1b6124b4565b1681526009855220541690519015158152f35b8284346108205781600319360112610820576020906001600160a01b03600554169051908152f35b839150346102d15760203660031901126102d157359160085483101561021d57506001600160a01b03611d8a602093612467565b92905490519260031b1c168152f35b839150346102d157826003193601126102d15760075460ff8160a81c16156122b25760ff60019160b01c161b825191611dd18361250a565b6001835260209182368186013780611de885612777565b526001600160a01b0380600654168160055416906003549388519063856296f760e01b82528a878301526024958683015260448201528681606481855afa80156107c05787918b91612281575b50895163039dd75360e41b81526001600160a01b039094168785019081526020810191909152839081906040015b0381845afa91821561070f578992612252575b508751627eeac760e11b815233868201908152602081018490529091908790839081906040010381845afa9182156107c0578a92612223575b5081156121bc5790818a923b156102d157611f1293838b51809681958294637921219560e11b8452308d33908601929060c094926001600160a01b0380921685521660208401526040830152606082015260a06080820152600060a08201520190565b03925af18015610748576121a9575b50806005541690878751966370a0823160e01b9384895230878a015287898781845afa98891561219f57839961216c575b50836006541660035490803b15610d5c578492838a611f838f5197889687958694626dc0df60e21b86528501612811565b03925af180156121625761214a575b505060055416948651918252308483015284828481895afa801561074857889061211b575b611fc1925061276a565b9384156120b457838651809263a9059cbb60e01b8252818a81611ffd8b338b8401602090939291936001600160a01b0360408201951681520152565b03925af19081156120aa57879161208d575b501561204d5750507f810c0a3d2e7f4765a144ddb7039e632b1abd74268600d3f570c128cb7b6a09b69060ff60075460b01c1693519283523392a380f35b601c9060649386519362461bcd60e51b85528401528201527f55534443207472616e7366657220746f2075736572206661696c6564000000006044820152fd5b6120a49150843d86116107b9576107ab8183612542565b8761200f565b86513d89823e3d90fd5b5060259060849386519362461bcd60e51b85528401528201527f526564656d7074696f6e206661696c65642c206e6f207061796f75742072656360448201527f65697665640000000000000000000000000000000000000000000000000000006064820152fd5b508482813d8311612143575b6121318183612542565b810103126106c457611fc19151611fb7565b503d612127565b612153906124e0565b61215e578789611f92565b8780fd5b89513d84823e3d90fd5b8880929a508194503d8311612198575b6121868183612542565b810103126106c457899151978b611f52565b503d61217c565b8a513d85823e3d90fd5b6121b5909791976124e0565b9587611f21565b6084866023878a8d519362461bcd60e51b85528401528201527f4e6f2077696e6e696e67206f7574636f6d6520746f6b656e7320746f2072656460448201527f65656d00000000000000000000000000000000000000000000000000000000006064820152fd5b9091508681813d831161224b575b61223b8183612542565b810103126108105751908a611eaf565b503d612231565b9091508581813d831161227a575b61226a8183612542565b81010312610d6a57519089611e76565b503d612260565b82819392503d83116122ab575b6122988183612542565b8101031261081057518690611e63611e35565b503d61228e565b506020606492519162461bcd60e51b8352820152601360248201527f4d61726b6574206e6f74207265736f6c766564000000000000000000000000006044820152fd5b828434610820576020366003190112610820578060209260ff612316612457565b168152600a845220549051908152f35b8284346108205781600319360112610820576020906003549051908152f35b8284346108205781600319360112610820576020906001600160a01b03600754169051908152f35b82843461082057816003193601126108205760209060ff60075460b01c169051908152f35b82843461082057816003193601126108205760209060ff60075460a01c1690519015158152f35b9150346102d15760203660031901126102d157357fffffffff0000000000000000000000000000000000000000000000000000000081168091036102d157602092507f4e2312e000000000000000000000000000000000000000000000000000000000811490811561242d575b5015158152f35b7f01ffc9a70000000000000000000000000000000000000000000000000000000091501483612426565b6004359060ff821682036106c457565b60085481101561249e5760086000527ff3f7a9fe364faab93b216da50a3214154f22a0a2b415b23a84c8169e8b636ee30190600090565b634e487b7160e01b600052603260045260246000fd5b600435906001600160a01b03821682036106c457565b602435906001600160a01b03821682036106c457565b67ffffffffffffffff81116124f457604052565b634e487b7160e01b600052604160045260246000fd5b6040810190811067ffffffffffffffff8211176124f457604052565b6080810190811067ffffffffffffffff8211176124f457604052565b90601f8019910116810190811067ffffffffffffffff8211176124f457604052565b9080601f830112156106c45781359067ffffffffffffffff82116124f4578160051b6040519360209361259985840187612542565b855283808601928201019283116106c4578301905b8282106125bc575050505090565b813581529083019083016125ae565b81601f820112156106c45780359067ffffffffffffffff82116124f45760405192612600601f8401601f191660200185612542565b828452602083830101116106c457816000926020809301838601378301015290565b6001600160a01b0360005416330361263657565b60246040517f118cdaa7000000000000000000000000000000000000000000000000000000008152336004820152fd5b1561266d57565b606460405162461bcd60e51b815260206004820152601760248201527f4d61726b657420616c7265616479207265736f6c7665640000000000000000006044820152fd5b156126b857565b606460405162461bcd60e51b815260206004820152600f60248201527f496e76616c6964206f7574636f6d6500000000000000000000000000000000006044820152fd5b1561270357565b606460405162461bcd60e51b815260206004820152602060248201527f416d6f756e74206d7573742062652067726561746572207468616e207a65726f6044820152fd5b9190820180921161275457565b634e487b7160e01b600052601160045260246000fd5b9190820391821161275457565b80511561249e5760200190565b805182101561249e5760209160051b010190565b90815180825260208080930193019160005b8281106127b8575050505090565b8351855293810193928101926001016127aa565b908160209103126106c4575180151581036106c45790565b7f800000000000000000000000000000000000000000000000000000000000000081146127545760000390565b916001600160a01b03608084019216835260a0602093849260008483015260408201526080606082015285518094520193019160005b828110612855575050505090565b83518552938101939281019260010161284756fea2646970667358221220f532eb8c9f83cc7be3b0e657ee7b38d14798721ce9fb21f5073d01a38a7d504464736f6c63430008140033a2646970667358221220bee2ec995658f16b1013e3e5a67f44f75a011d15dfbf4ea843f37a086ecaea7264736f6c63430008140033",
  "linkReferences": {},
  "deployedLinkReferences": {}
}