{
  "_format": "hh-sol-artifact-1",
  "contractName": "MockUSDC",
  "sourceName": "contracts/MockUSDC.sol",
  "abi": [
    {
      "inputs": [],
      "stateMutability": "nonpayable",
      "type": "constructor"
    },
    {
      "inputs": [],
      "name": "ECDSAInvalidSignature",
      "type": "error"
    },
    {
      "inputs": [
        {
          "internalType": "uint256",
          "name": "length",
          "type": "uint256"
        }
      ],
      "name": "ECDSAInvalidSignatureLength",
      "type": "error"
    },
    {
      "inputs": [
        {
          "internalType": "bytes32",
          "name": "s",
          "type": "bytes32"
        }
      ],
      "name": "ECDSAInvalidSignatureS",
      "type": "error"
    },
    {
      "inputs": [
        {
          "internalType": "address",
          "name": "spender",
          "type": "address"
        },
        {
          "internalType": "uint256",
          "name": "allowance",
          "type": "uint256"
        },
        {
          "internalType": "uint256",
          "name": "needed",
          "type": "uint256"
        }
      ],
      "name": "ERC20InsufficientAllowance",
      "type": "error"
    },
    {
      "inputs": [
        {
          "internalType": "address",
          "name": "sender",
          "type": "address"
        },
        {
          "internalType": "uint256",
          "name": "balance",
          "type": "uint256"
        },
        {
          "internalType": "uint256",
          "name": "needed",
          "type": "uint256"
        }
      ],
      "name": "ERC20InsufficientBalance",
      "type": "error"
    },
    {
      "inputs": [
        {
          "internalType": "address",
          "name": "approver",
          "type": "address"
        }
      ],
      "name": "ERC20InvalidApprover",
      "type": "error"
    },
    {
      "inputs": [
        {
          "internalType": "address",
          "name": "receiver",
          "type": "address"
        }
      ],
      "name": "ERC20InvalidReceiver",
      "type": "error"
    },
    {
      "inputs": [
        {
          "internalType": "address",
          "name": "sender",
          "type": "address"
        }
      ],
      "name": "ERC20InvalidSender",
      "type": "error"
    },
    {
      "inputs": [
        {
          "internalType": "address",
          "name": "spender",
          "type": "address"
        }
      ],
      "name": "ERC20InvalidSpender",
      "type": "error"
    },
    {
      "inputs": [
        {
          "internalType": "uint256",
          "name": "deadline",
          "type": "uint256"
        }
      ],
      "name": "ERC2612ExpiredSignature",
      "type": "error"
    },
    {
      "inputs": [
        {
          "internalType": "address",
          "name": "signer",
          "type": "address"
        },
        {
          "internalType": "address",
          "name": "owner",
          "type": "address"
        }
      ],
      "name": "ERC2612InvalidSigner",
      "type": "error"
    },
    {
      "inputs": [
        {
          "internalType": "address",
          "name": "account",
          "type": "address"
        },
        {
          "internalType": "uint256",
          "name": "currentNonce",
          "type": "uint256"
        }
      ],
      "name": "InvalidAccountNonce",
      "type": "error"
    },
    {
      "inputs": [],
      "name": "InvalidShortString",
      "type": "error"
    },
    {
      "inputs": [
        {
          "internalType": "string",
          "name": "str",
          "type": "string"
        }
      ],
      "name": "StringTooLong",
      "type": "error"
    },
    {
      "anonymous": false,
      "inputs": [
        {
          "indexed": true,
          "internalType": "address",
          "name": "owner",
          "type": "address"
        },
        {
          "indexed": true,
          "internalType": "address",
          "name": "spender",
          "type": "address"
        },
        {
          "indexed": false,
          "internalType": "uint256",
          "name": "value",
          "type": "uint256"
        }
      ],
      "name": "Approval",
      "type": "event"
    },
    {
      "anonymous": false,
      "inputs": [],
      "name": "EIP712DomainChanged",
      "type": "event"
    },
    {
      "anonymous": false,
      "inputs": [
        {
          "indexed": true,
          "internalType": "address",
          "name": "from",
          "type": "address"
        },
        {
          "indexed": true,
          "internalType": "address",
          "name": "to",
          "type": "address"
        },
        {
          "indexed": false,
          "internalType": "uint256",
          "name": "value",
          "type": "uint256"
        }
      ],
      "name": "Transfer",
      "type": "event"
    },
    {
      "inputs": [],
      "name": "DOMAIN_SEPARATOR",
      "outputs": [
        {
          "internalType": "bytes32",
          "name": "",
          "type": "bytes32"
        }
      ],
      "stateMutability": "view",
      "type": "function"
    },
    {
      "inputs": [],
      "name": "MINT_AMOUNT",
      "outputs": [
        {
          "internalType": "uint256",
          "name": "",
          "type": "uint256"
        }
      ],
      "stateMutability": "view",
      "type": "function"
    },
    {
      "inputs": [
        {
          "internalType": "address",
          "name": "owner",
          "type": "address"
        },
        {
          "internalType": "address",
          "name": "spender",
          "type": "address"
        }
      ],
      "name": "allowance",
      "outputs": [
        {
          "internalType": "uint256",
          "name": "",
          "type": "uint256"
        }
      ],
      "stateMutability": "view",
      "type": "function"
    },
    {
      "inputs": [
        {
          "internalType": "address",
          "name": "spender",
          "type": "address"
        },
        {
          "internalType": "uint256",
          "name": "value",
          "type": "uint256"
        }
      ],
      "name": "approve",
      "outputs": [
        {
          "internalType": "bool",
          "name": "",
          "type": "bool"
        }
      ],
      "stateMutability": "nonpayable",
      "type": "function"
    },
    {
      "inputs": [
        {
          "internalType": "address",
          "name": "account",
          "type": "address"
        }
      ],
      "name": "balanceOf",
      "outputs": [
        {
          "internalType": "uint256",
          "name": "",
          "type": "uint256"
        }
      ],
      "stateMutability": "view",
      "type": "function"
    },
    {
      "inputs": [],
      "name": "decimals",
      "outputs": [
        {
          "internalType": "uint8",
          "name": "",
          "type": "uint8"
        }
      ],
      "stateMutability": "pure",
      "type": "function"
    },
    {
      "inputs": [],
      "name": "eip712Domain",
      "outputs": [
        {
          "internalType": "bytes1",
          "name": "fields",
          "type": "bytes1"
        },
        {
          "internalType": "string",
          "name": "name",
          "type": "string"
        },
        {
          "internalType": "string",
          "name": "version",
          "type": "string"
        },
        {
          "internalType": "uint256",
          "name": "chainId",
          "type": "uint256"
        },
        {
          "internalType": "address",
          "name": "verifyingContract",
          "type": "address"
        },
        {
          "internalType": "bytes32",
          "name": "salt",
          "type": "bytes32"
        },
        {
          "internalType": "uint256[]",
          "name": "extensions",
          "type": "uint256[]"
        }
      ],
      "stateMutability": "view",
      "type": "function"
    },
    {
      "inputs": [
        {
          "internalType": "address",
          "name": "recipient",
          "type": "address"
        }
      ],
      "name": "mint",
      "outputs": [],
      "stateMutability": "nonpayable",
      "type": "function"
    },
    {
      "inputs": [
        {
          "internalType": "uint256",
          "name": "amount",
          "type": "uint256"
        }
      ],
      "name": "mint",
      "outputs": [],
      "stateMutability": "nonpayable",
      "type": "function"
    },
    {
      "inputs": [],
      "name": "name",
      "outputs": [
        {
          "internalType": "string",
          "name": "",
          "type": "string"
        }
      ],
      "stateMutability": "view",
      "type": "function"
    },
    {
      "inputs": [
        {
          "internalType": "address",
          "name": "owner",
          "type": "address"
        }
      ],
      "name": "nonces",
      "outputs": [
        {
          "internalType": "uint256",
          "name": "",
          "type": "uint256"
        }
      ],
      "stateMutability": "view",
      "type": "function"
    },
    {
      "inputs": [
        {
          "internalType": "address",
          "name": "owner",
          "type": "address"
        },
        {
          "internalType": "address",
          "name": "spender",
          "type": "address"
        },
        {
          "internalType": "uint256",
          "name": "value",
          "type": "uint256"
        },
        {
          "internalType": "uint256",
          "name": "deadline",
          "type": "uint256"
        },
        {
          "internalType": "uint8",
          "name": "v",
          "type": "uint8"
        },
        {
          "internalType": "bytes32",
          "name": "r",
          "type": "bytes32"
        },
        {
          "internalType": "bytes32",
          "name": "s",
          "type": "bytes32"
        }
      ],
      "name": "permit",
      "outputs": [],
      "stateMutability": "nonpayable",
      "type": "function"
    },
    {
      "inputs": [],
      "name": "symbol",
      "outputs": [
        {
          "internalType": "string",
          "name": "",
          "type": "string"
        }
      ],
      "stateMutability": "view",
      "type": "function"
    },
    {
      "inputs": [],
      "name": "totalSupply",
      "outputs": [
        {
          "internalType": "uint256",
          "name": "",
          "type": "uint256"
        }
      ],
      "stateMutability": "view",
      "type": "function"
    },
    {
      "inputs": [
        {
          "internalType": "address",
          "name": "to",
          "type": "address"
        },
        {
          "internalType": "uint256",
          "name": "value",
          "type": "uint256"
        }
      ],
      "name": "transfer",
      "outputs": [
        {
          "internalType": "bool",
          "name": "",
          "type": "bool"
        }
      ],
      "stateMutability": "nonpayable",
      "type": "function"
    },
    {
      "inputs": [
        {
          "internalType": "address",
          "name": "from",
          "type": "address"
        },
        {
          "internalType": "address",
          "name": "to",
          "type": "address"
        },
        {
          "internalType": "uint256",
          "name": "value",
          "type": "uint256"
        }
      ],
      "name": "transferFrom",
      "outputs": [
        {
          "internalType": "bool",
          "name": "",
          "type": "bool"
        }
      ],
      "stateMutability": "nonpayable",
      "type": "function"
    }
  ],
  "bytecode": "0x610160604081815234620004265762000018826200042b565b60098252602091828101684d6f636b205553444360b81b9283825280519362000041856200042b565b600985528585015280519462000057866200042b565b60058652646d5553444360d81b8187015281519162000076836200042b565b6001808452603160f81b83850190815287516001600160401b03989192919089811162000326576003908154928484811c941680156200041b575b8885101462000405578190601f94858111620003af575b50889085831160011462000348576000926200033c575b505060001982841b1c191690841b1781555b8a51918a8311620003265760049b8c548581811c911680156200031b575b898210146200030657828111620002bb575b5087918411600114620002505793839491849260009562000244575b50501b92600019911b1c19161788555b620001588662000447565b946101209586526200016a856200060b565b96610140978852519020938460e05251902096610100978089524660a0528251938401947f8b73c3c69bb8fe3d512ecc4cf759cc79239f7b179b0ffacaa9a75d522b39400f86528385015260608401524660808401523060a084015260a0835260c0830196838810908811176200022f57508590525190206080523060c0526111159384620007c4853960805184610e1f015260a05184610eeb015260c05184610df0015260e05184610e6e01525183610e940152518261052a015251816105540152f35b604190634e487b7160e01b6000525260246000fd5b0151935038806200013d565b9190601f198416928d60005284896000209460005b8b89838310620002a3575050501062000288575b50505050811b0188556200014d565b01519060f884600019921b161c191690553880808062000279565b86860151895590970196948501948893500162000265565b8d600052886000208380870160051c8201928b8810620002fc575b0160051c019086905b828110620002ef57505062000121565b60008155018690620002df565b92508192620002d6565b60228e634e487b7160e01b6000525260246000fd5b90607f16906200010f565b634e487b7160e01b600052604160045260246000fd5b015190503880620000df565b90869350601f19831691856000528a6000209260005b8c8282106200039857505084116200037f575b505050811b018155620000f1565b015160001983861b60f8161c1916905538808062000371565b8385015186558a979095019493840193016200035e565b90915083600052886000208580850160051c8201928b8610620003fb575b918891869594930160051c01915b828110620003eb575050620000c8565b60008155859450889101620003db565b92508192620003cd565b634e487b7160e01b600052602260045260246000fd5b93607f1693620000b1565b600080fd5b604081019081106001600160401b038211176200032657604052565b80516020919082811015620004e6575090601f8251116200048557808251920151908083106200047657501790565b82600019910360031b1b161790565b90604051809263305a27a960e01b82528060048301528251908160248401526000935b828510620004cc575050604492506000838284010152601f80199101168101030190fd5b8481018201518686016044015293810193859350620004a8565b6001600160401b03811162000326576005928354926001938481811c9116801562000600575b838210146200040557601f8111620005c9575b5081601f84116001146200055f575092829391839260009462000553575b50501b916000199060031b1c191617905560ff90565b0151925038806200053d565b919083601f1981168760005284600020946000905b88838310620005ae575050501062000594575b505050811b01905560ff90565b015160001960f88460031b161c1916905538808062000587565b85870151885590960195948501948793509081019062000574565b8560005284601f846000209201871c820191601f8601881c015b828110620005f35750506200051f565b60008155018590620005e3565b90607f16906200050c565b805160209081811015620006995750601f8251116200063857808251920151908083106200047657501790565b90604051809263305a27a960e01b82528060048301528251908160248401526000935b8285106200067f575050604492506000838284010152601f80199101168101030190fd5b84810182015186860160440152938101938593506200065b565b906001600160401b0382116200032657600654926001938481811c91168015620007b8575b838210146200040557601f81116200077e575b5081601f841160011462000712575092829391839260009462000706575b50501b916000199060031b1c19161760065560ff90565b015192503880620006ef565b919083601f198116600660005284600020946000905b8883831062000763575050501062000749575b505050811b0160065560ff90565b015160001960f88460031b161c191690553880806200073b565b85870151885590960195948501948793509081019062000728565b600660005284601f84600020920160051c820191601f860160051c015b828110620007ab575050620006d1565b600081550185906200079b565b90607f1690620006be56fe608060408181526004918236101561001657600080fd5b600092833560e01c91826306fdde031461091957508163095ea7b3146108ef57816318160ddd146108d057816323b872dd146107c1578163313ce567146107a55781633644e515146107815781635427789c146107625781636a627842146106b957816370a08231146106835781637ecebe001461064c57816384b0196e1461051257816395d89b4114610427578163a0712d6814610306578163a9059cbb146102d5578163d505accf14610120575063dd62ed3e146100d557600080fd5b3461011c578060031936011261011c57806020926100f1610a2a565b6100f9610a45565b6001600160a01b0391821683526001865283832091168252845220549051908152f35b5080fd5b8391503461011c5760e036600319011261011c5761013c610a2a565b610144610a45565b906044359260643560843560ff811681036102d1578142116102a2576001600160a01b0390818516928389526007602052898920908154916001830190558a519060208201927f6e71edae12b1b97f4d1f60370fef10105fa2faae0126114a169c64845d6126c98452868d840152858a1660608401528a608084015260a083015260c082015260c0815260e0810181811067ffffffffffffffff82111761028f578b525190206102449161023b916101fa610de6565b908c51917f190100000000000000000000000000000000000000000000000000000000000083526002830152602282015260c43591604260a4359220610c88565b90929192610d18565b1681810361025b5786610258878787610bf7565b80f35b604493508751927f4b800e460000000000000000000000000000000000000000000000000000000084528301526024820152fd5b60248b604189634e487b7160e01b835252fd5b602483838a51917f62791302000000000000000000000000000000000000000000000000000000008352820152fd5b8680fd5b50503461011c578060031936011261011c576020906102ff6102f5610a2a565b6024359033610ae9565b5160018152f35b919050346104235760203660031901126104235781359182156103a157331561038c576002549083820180921161037957506002553383528260205280832082815401905551908152817fddf252ad1be2c89b69c2b068fc378daa952ba7f163c4a11628f55a4df523b3ef60203393a380f35b846011602492634e487b7160e01b835252fd5b83602492519163ec442f0560e01b8352820152fd5b602060849251917f08c379a0000000000000000000000000000000000000000000000000000000008352820152602560248201527f4d696e7420616d6f756e74206d7573742062652067726561746572207468616e60448201527f207a65726f0000000000000000000000000000000000000000000000000000006064820152fd5b8280fd5b919050346104235782600319360112610423578051918381549061044a82610a5b565b808652926001928084169081156104e7575060011461048b575b6104878686610475828b0383610ac7565b519182916020835260208301906109ea565b0390f35b815294507f8a35acfbc15ff81a39ae7d344fd709f28e8600b4aa8c65c6b64bfe7fe36bd19b5b8286106104cf57505050610475826020610487958201019438610464565b805460208787018101919091529095019481016104b1565b905061048797508693506020925061047594915060ff191682840152151560051b8201019438610464565b9190503461042357826003193601126104235761054e7f0000000000000000000000000000000000000000000000000000000000000000610f11565b926105787f0000000000000000000000000000000000000000000000000000000000000000611025565b908251926020928385019585871067ffffffffffffffff881117610639575092806105ef8388966105e2998b9996528686528151998a997f0f000000000000000000000000000000000000000000000000000000000000008b5260e0868c015260e08b01906109ea565b91898303908a01526109ea565b924660608801523060808801528460a088015286840360c088015251928381520193925b82811061062257505050500390f35b835185528695509381019392810192600101610613565b836041602492634e487b7160e01b835252fd5b50503461011c57602036600319011261011c57806020926001600160a01b03610673610a2a565b1681526007845220549051908152f35b50503461011c57602036600319011261011c57806020926001600160a01b036106aa610a2a565b16815280845220549051908152f35b905034610423576020366003190112610423576001600160a01b036106dc610a2a565b1691821561074c57600254637735940092838201809211610739575084927fddf252ad1be2c89b69c2b068fc378daa952ba7f163c4a11628f55a4df523b3ef9260209260025585855284835280852082815401905551908152a380f35b856011602492634e487b7160e01b835252fd5b9083602492519163ec442f0560e01b8352820152fd5b50503461011c578160031936011261011c576020905163773594008152f35b50503461011c578160031936011261011c5760209061079e610de6565b9051908152f35b50503461011c578160031936011261011c576020905160068152f35b905082346108cd5760603660031901126108cd576107dd610a2a565b6107e5610a45565b91604435936001600160a01b038316808352600160205286832033845260205286832054916000198303610822575b6020886102ff898989610ae9565b86831061088857811561087257331561085c575082526001602090815286832033845281529186902090859003905582906102ff87610814565b60249084895191634a1406b160e11b8352820152fd5b6024908489519163e602df0560e01b8352820152fd5b87517ffb8f41b2000000000000000000000000000000000000000000000000000000008152339181019182526020820193909352604081018790528291506060010390fd5b80fd5b50503461011c578160031936011261011c576020906002549051908152f35b50503461011c578060031936011261011c576020906102ff61090f610a2a565b6024359033610bf7565b849084346104235782600319360112610423578260035461093981610a5b565b808552916001918083169081156109c25750600114610965575b50505061047582610487940383610ac7565b9450600385527fc2575a0e9e593c00f959f8c92f12db2869c3395a3b0502d05e2516446f71f85b5b8286106109aa575050506104758260206104879582010194610953565b8054602087870181019190915290950194810161098d565b61048797508693506020925061047594915060ff191682840152151560051b82010194610953565b919082519283825260005b848110610a16575050826000602080949584010152601f8019910116010190565b6020818301810151848301820152016109f5565b600435906001600160a01b0382168203610a4057565b600080fd5b602435906001600160a01b0382168203610a4057565b90600182811c92168015610a8b575b6020831014610a7557565b634e487b7160e01b600052602260045260246000fd5b91607f1691610a6a565b6040810190811067ffffffffffffffff821117610ab157604052565b634e487b7160e01b600052604160045260246000fd5b90601f8019910116810190811067ffffffffffffffff821117610ab157604052565b916001600160a01b03808416928315610bc65716928315610bae5760009083825281602052604082205490838210610b63575091604082827fddf252ad1be2c89b69c2b068fc378daa952ba7f163c4a11628f55a4df523b3ef958760209652828652038282205586815220818154019055604051908152a3565b6040517fe450d38c0000000000000000000000000000000000000000000000000000000081526001600160a01b03919091166004820152602481019190915260448101839052606490fd5b602460405163ec442f0560e01b815260006004820152fd5b60246040517f96c6fd1e00000000000000000000000000000000000000000000000000000000815260006004820152fd5b6001600160a01b03809116918215610c705716918215610c585760207f8c5be1e5ebec7d5bd14f71427d1e84f3dd0314c0f7b2291e5b200ac8c7c3b925918360005260018252604060002085600052825280604060002055604051908152a3565b6024604051634a1406b160e11b815260006004820152fd5b602460405163e602df0560e01b815260006004820152fd5b91907f7fffffffffffffffffffffffffffffff5d576e7357a4501ddfe92f46681b20a08411610d0c57926020929160ff608095604051948552168484015260408301526060820152600092839182805260015afa15610d005780516001600160a01b03811615610cf757918190565b50809160019190565b604051903d90823e3d90fd5b50505060009160039190565b6004811015610dd05780610d2a575050565b60018103610d5c5760046040517ff645eedf000000000000000000000000000000000000000000000000000000008152fd5b60028103610d9557602482604051907ffce698f70000000000000000000000000000000000000000000000000000000082526004820152fd5b600314610d9f5750565b602490604051907fd78bce0c0000000000000000000000000000000000000000000000000000000082526004820152fd5b634e487b7160e01b600052602160045260246000fd5b6001600160a01b037f000000000000000000000000000000000000000000000000000000000000000016301480610ee8575b15610e41577f000000000000000000000000000000000000000000000000000000000000000090565b60405160208101907f8b73c3c69bb8fe3d512ecc4cf759cc79239f7b179b0ffacaa9a75d522b39400f82527f000000000000000000000000000000000000000000000000000000000000000060408201527f000000000000000000000000000000000000000000000000000000000000000060608201524660808201523060a082015260a0815260c0810181811067ffffffffffffffff821117610ab15760405251902090565b507f00000000000000000000000000000000000000000000000000000000000000004614610e18565b60ff8114610f675760ff811690601f8211610f3d5760405191610f3383610a95565b8252602082015290565b60046040517fb3512b0c000000000000000000000000000000000000000000000000000000008152fd5b50604051600554816000610f7a83610a5b565b808352926001908181169081156110035750600114610fa4575b50610fa192500382610ac7565b90565b6005600090815291507f036b6384b5eca791c62761152d0c79bb0604c104a5fb6f4eb0703f3154bb3db05b848310610fe85750610fa1935050810160200138610f94565b81935090816020925483858901015201910190918492610fcf565b905060209250610fa194915060ff191682840152151560051b82010138610f94565b60ff81146110475760ff811690601f8211610f3d5760405191610f3383610a95565b5060405160065481600061105a83610a5b565b8083529260019081811690811561100357506001146110805750610fa192500382610ac7565b6006600090815291507ff652222313e28459528d920b65115c16c04f3efc82aaedc97be59f3f377c0d3f5b8483106110c45750610fa1935050810160200138610f94565b819350908160209254838589010152019101909184926110ab56fea2646970667358221220f0f82daa45cd4e87ff42ed058e1e193ae30e558f0632351a38bed3d050452b9464736f6c63430008140033",
  "linkReferences": {},
  "deployedLinkReferences": {}
}