{
  "_format": "hh-sol-artifact-1",
  "contractName": "PredictionMarket",
  "sourceName": "contracts/PredictionMarket.sol",
  "abi": [
    {
      "inputs": [
        {
          "internalType": "uint256",
          "name": "_matchId",
          "type": "uint256"
        },
        {
          "internalType": "address",
          "name": "_liquidityPool",
          "type": "address"
        },
        {
          "internalType": "address",
          "name": "_usdc",
          "type": "address"
        },
        {
          "internalType": "address",
          "name": "_conditionalTokens",
          "type": "address"
        }
      ],
      "stateMutability": "nonpayable",
      "type": "constructor"
    },
    {
      "inputs": [
        {
          "internalType": "address",
          "name": "owner",
          "type": "address"
        }
      ],
      "name": "OwnableInvalidOwner",
      "type": "error"
    },
    {
      "inputs": [
        {
          "internalType": "address",
          "name": "account",
          "type": "address"
        }
      ],
      "name": "OwnableUnauthorizedAccount",
      "type": "error"
    },
    {
      "anonymous": false,
      "inputs": [
        {
          "indexed": true,
          "internalType": "uint256",
          "name": "matchId",
          "type": "uint256"
        },
        {
          "indexed": true,
          "internalType": "uint8",
          "name": "outcome",
          "type": "uint8"
        }
      ],
      "name": "MarketResolved",
      "type": "event"
    },
    {
      "anonymous": false,
      "inputs": [
        {
          "indexed": true,
          "internalType": "uint256",
          "name": "matchId",
          "type": "uint256"
        },
        {
          "indexed": false,
          "internalType": "uint256",
          "name": "home",
          "type": "uint256"
        },
        {
          "indexed": false,
          "internalType": "uint256",
          "name": "draw",
          "type": "uint256"
        },
        {
          "indexed": false,
          "internalType": "uint256",
          "name": "away",
          "type": "uint256"
        }
      ],
      "name": "OddsUpdated",
      "type": "event"
    },
    {
      "anonymous": false,
      "inputs": [
        {
          "indexed": true,
          "internalType": "address",
          "name": "previousOwner",
          "type": "address"
        },
        {
          "indexed": true,
          "internalType": "address",
          "name": "newOwner",
          "type": "address"
        }
      ],
      "name": "OwnershipTransferred",
      "type": "event"
    },
    {
      "anonymous": false,
      "inputs": [
        {
          "indexed": true,
          "internalType": "address",
          "name": "redeemer",
          "type": "address"
        },
        {
          "indexed": true,
          "internalType": "uint8",
          "name": "outcome",
          "type": "uint8"
        },
        {
          "indexed": false,
          "internalType": "uint256",
          "name": "amount",
          "type": "uint256"
        }
      ],
      "name": "PayoutRedeemed",
      "type": "event"
    },
    {
      "anonymous": false,
      "inputs": [
        {
          "indexed": true,
          "internalType": "address",
          "name": "buyer",
          "type": "address"
        },
        {
          "indexed": true,
          "internalType": "uint8",
          "name": "outcome",
          "type": "uint8"
        },
        {
          "indexed": false,
          "internalType": "uint256",
          "name": "shares",
          "type": "uint256"
        },
        {
          "indexed": false,
          "internalType": "int256",
          "name": "actualCost",
          "type": "int256"
        }
      ],
      "name": "SharesPurchased",
      "type": "event"
    },
    {
      "anonymous": false,
      "inputs": [
        {
          "indexed": true,
          "internalType": "address",
          "name": "seller",
          "type": "address"
        },
        {
          "indexed": true,
          "internalType": "uint8",
          "name": "outcome",
          "type": "uint8"
        },
        {
          "indexed": false,
          "internalType": "uint256",
          "name": "shares",
          "type": "uint256"
        },
        {
          "indexed": false,
          "internalType": "int256",
          "name": "actualGain",
          "type": "int256"
        }
      ],
      "name": "SharesSold",
      "type": "event"
    },
    {
      "inputs": [],
      "name": "FEE_BPS",
      "outputs": [
        {
          "internalType": "uint256",
          "name": "",
          "type": "uint256"
        }
      ],
      "stateMutability": "view",
      "type": "function"
    },
    {
      "inputs": [
        {
          "internalType": "uint256",
          "name": "",
          "type": "uint256"
        }
      ],
      "name": "bettors",
      "outputs": [
        {
          "internalType": "address",
          "name": "",
          "type": "address"
        }
      ],
      "stateMutability": "view",
      "type": "function"
    },
    {
      "inputs": [
        {
          "internalType": "uint8",
          "name": "outcome",
          "type": "uint8"
        },
        {
          "internalType": "uint256",
          "name": "amount",
          "type": "uint256"
        }
      ],
      "name": "buyShares",
      "outputs": [],
      "stateMutability": "nonpayable",
      "type": "function"
    },
    {
      "inputs": [],
      "name": "conditionId",
      "outputs": [
        {
          "internalType": "bytes32",
          "name": "",
          "type": "bytes32"
        }
      ],
      "stateMutability": "view",
      "type": "function"
    },
    {
      "inputs": [],
      "name": "conditionalTokens",
      "outputs": [
        {
          "internalType": "contract ConditionalTokens",
          "name": "",
          "type": "address"
        }
      ],
      "stateMutability": "view",
      "type": "function"
    },
    {
      "inputs": [],
      "name": "getBettors",
      "outputs": [
        {
          "internalType": "address[]",
          "name": "",
          "type": "address[]"
        }
      ],
      "stateMutability": "view",
      "type": "function"
    },
    {
      "inputs": [
        {
          "internalType": "uint8",
          "name": "outcome",
          "type": "uint8"
        }
      ],
      "name": "getMarginalPrice",
      "outputs": [
        {
          "internalType": "uint256",
          "name": "",
          "type": "uint256"
        }
      ],
      "stateMutability": "view",
      "type": "function"
    },
    {
      "inputs": [
        {
          "internalType": "uint8",
          "name": "outcome",
          "type": "uint8"
        },
        {
          "internalType": "int256",
          "name": "amount",
          "type": "int256"
        }
      ],
      "name": "getNetCost",
      "outputs": [
        {
          "internalType": "int256",
          "name": "",
          "type": "int256"
        }
      ],
      "stateMutability": "view",
      "type": "function"
    },
    {
      "inputs": [
        {
          "internalType": "bytes32",
          "name": "_questionId",
          "type": "bytes32"
        },
        {
          "internalType": "bytes32",
          "name": "_conditionId",
          "type": "bytes32"
        },
        {
          "internalType": "address",
          "name": "_marketMaker",
          "type": "address"
        }
      ],
      "name": "initializeMarket",
      "outputs": [],
      "stateMutability": "nonpayable",
      "type": "function"
    },
    {
      "inputs": [],
      "name": "initialized",
      "outputs": [
        {
          "internalType": "bool",
          "name": "",
          "type": "bool"
        }
      ],
      "stateMutability": "view",
      "type": "function"
    },
    {
      "inputs": [
        {
          "internalType": "address",
          "name": "",
          "type": "address"
        }
      ],
      "name": "isBettor",
      "outputs": [
        {
          "internalType": "bool",
          "name": "",
          "type": "bool"
        }
      ],
      "stateMutability": "view",
      "type": "function"
    },
    {
      "inputs": [],
      "name": "isResolved",
      "outputs": [
        {
          "internalType": "bool",
          "name": "",
          "type": "bool"
        }
      ],
      "stateMutability": "view",
      "type": "function"
    },
    {
      "inputs": [],
      "name": "liquidityPool",
      "outputs": [
        {
          "internalType": "contract ILiquidityPool",
          "name": "",
          "type": "address"
        }
      ],
      "stateMutability": "view",
      "type": "function"
    },
    {
      "inputs": [],
      "name": "marketMaker",
      "outputs": [
        {
          "internalType": "contract LMSRMarketMaker",
          "name": "",
          "type": "address"
        }
      ],
      "stateMutability": "view",
      "type": "function"
    },
    {
      "inputs": [],
      "name": "matchId",
      "outputs": [
        {
          "internalType": "uint256",
          "name": "",
          "type": "uint256"
        }
      ],
      "stateMutability": "view",
      "type": "function"
    },
    {
      "inputs": [
        {
          "internalType": "address",
          "name": "",
          "type": "address"
        },
        {
          "internalType": "address",
          "name": "",
          "type": "address"
        },
        {
          "internalType": "uint256[]",
          "name": "",
          "type": "uint256[]"
        },
        {
          "internalType": "uint256[]",
          "name": "",
          "type": "uint256[]"
        },
        {
          "internalType": "bytes",
          "name": "",
          "type": "bytes"
        }
      ],
      "name": "onERC1155BatchReceived",
      "outputs": [
        {
          "internalType": "bytes4",
          "name": "",
          "type": "bytes4"
        }
      ],
      "stateMutability": "nonpayable",
      "type": "function"
    },
    {
      "inputs": [
        {
          "internalType": "address",
          "name": "",
          "type": "address"
        },
        {
          "internalType": "address",
          "name": "",
          "type": "address"
        },
        {
          "internalType": "uint256",
          "name": "",
          "type": "uint256"
        },
        {
          "internalType": "uint256",
          "name": "",
          "type": "uint256"
        },
        {
          "internalType": "bytes",
          "name": "",
          "type": "bytes"
        }
      ],
      "name": "onERC1155Received",
      "outputs": [
        {
          "internalType": "bytes4",
          "name": "",
          "type": "bytes4"
        }
      ],
      "stateMutability": "nonpayable",
      "type": "function"
    },
    {
      "inputs": [],
      "name": "owner",
      "outputs": [
        {
          "internalType": "address",
          "name": "",
          "type": "address"
        }
      ],
      "stateMutability": "view",
      "type": "function"
    },
    {
      "inputs": [],
      "name": "questionId",
      "outputs": [
        {
          "internalType": "bytes32",
          "name": "",
          "type": "bytes32"
        }
      ],
      "stateMutability": "view",
      "type": "function"
    },
    {
      "inputs": [],
      "name": "redeemPayouts",
      "outputs": [],
      "stateMutability": "nonpayable",
      "type": "function"
    },
    {
      "inputs": [],
      "name": "renounceOwnership",
      "outputs": [],
      "stateMutability": "nonpayable",
      "type": "function"
    },
    {
      "inputs": [
        {
          "internalType": "uint8",
          "name": "result",
          "type": "uint8"
        }
      ],
      "name": "resolveMarket",
      "outputs": [],
      "stateMutability": "nonpayable",
      "type": "function"
    },
    {
      "inputs": [],
      "name": "resolvedOutcome",
      "outputs": [
        {
          "internalType": "uint8",
          "name": "",
          "type": "uint8"
        }
      ],
      "stateMutability": "view",
      "type": "function"
    },
    {
      "inputs": [
        {
          "internalType": "uint8",
          "name": "outcome",
          "type": "uint8"
        },
        {
          "internalType": "uint256",
          "name": "amount",
          "type": "uint256"
        }
      ],
      "name": "sellShares",
      "outputs": [],
      "stateMutability": "nonpayable",
      "type": "function"
    },
    {
      "inputs": [
        {
          "internalType": "bytes4",
          "name": "interfaceId",
          "type": "bytes4"
        }
      ],
      "name": "supportsInterface",
      "outputs": [
        {
          "internalType": "bool",
          "name": "",
          "type": "bool"
        }
      ],
      "stateMutability": "view",
      "type": "function"
    },
    {
      "inputs": [
        {
          "internalType": "uint8",
          "name": "",
          "type": "uint8"
        }
      ],
      "name": "totalWageredPerOutcome",
      "outputs": [
        {
          "internalType": "uint256",
          "name": "",
          "type": "uint256"
        }
      ],
      "stateMutability": "view",
      "type": "function"
    },
    {
      "inputs": [
        {
          "internalType": "address",
          "name": "newOwner",
          "type": "address"
        }
      ],
      "name": "transferOwnership",
      "outputs": [],
      "stateMutability": "nonpayable",
      "type": "function"
    },
    {
      "inputs": [],
      "name": "usdc",
      "outputs": [
        {
          "internalType": "contract IERC20",
          "name": "",
          "type": "address"
        }
      ],
      "stateMutability": "view",
      "type": "function"
    }
  ],
  "bytecode": "0x608034620001f957601f62002ac938819003918201601f191683019291906001600160401b03841183851017620001fe578160809284926040968752833981010312620001f957805190620000576020820162000214565b6200007260606200006a86850162000214565b930162000214565b903315620001e1576000549060018060a01b031993338584161760005586519260018060a01b03928391823391167f8be0079c531659141344cd1fd0a4f28419497f9722a3daafe3b4186f6b6457e0600080a3169283156200019f575081169283156200015b57169384156200010d5760015582600254161760025581600554161760055560065416176006555161289f90816200022a8239f35b855162461bcd60e51b815260206004820152602160248201527f496e76616c696420436f6e646974696f6e616c546f6b656e73206164647265736044820152607360f81b6064820152608490fd5b865162461bcd60e51b815260206004820152601a60248201527f496e76616c6964205553444320746f6b656e20616464726573730000000000006044820152606490fd5b62461bcd60e51b815260206004820152601d60248201527f496e76616c6964204c6971756964697479506f6f6c20616464726573730000006044820152606490fd5b8451631e4fbdf760e01b815260006004820152602490fd5b600080fd5b634e487b7160e01b600052604160045260246000fd5b51906001600160a01b0382168203620001f95756fe60806040908082526004908136101561001757600080fd5b600091823560e01c91826301ffc9a7146123b957508163158ef93e146123925781631c371e2b1461236d5781631f21f9af146123455781632ddc7de7146123265781632dfc8ee9146122f5578163326209b414611d995781633482b64414611d565781633e413bee14611d2e578163429c2ed714611cf2578163591e791c14611c645781635bd9e29914611c3c578163665a11ca14611c14578163715018a614611bad5781638da5cb5b14611b8757816399892e4714611b68578163aaafcf7f14611adf578163b06a5c5214611ac0578163bc197c8114611a20578163bf333f2c14611a03578163c98c8b2b146118ac578163dbb3f53714611885578163dd9089aa14610d82578163f21ffa6b146109e9578163f23a6e611461097a578163f2ccb397146102d5578163f2fde38b14610220575063ffd4493c1461015a57600080fd5b3461021d578060031936011261021d579080519182906008549182855260208095018093600884527ff3f7a9fe364faab93b216da50a3214154f22a0a2b415b23a84c8169e8b636ee390845b81811061020057505050816101bc910382612542565b83519485948186019282875251809352850193925b8281106101e057505050500390f35b83516001600160a01b0316855286955093810193928101926001016101d1565b82546001600160a01b0316845292880192600192830192016101a6565b80fd5b839150346102d15760203660031901126102d15761023c6124b4565b90610245612622565b6001600160a01b038092169283156102a25750506000548273ffffffffffffffffffffffffffffffffffffffff19821617600055167f8be0079c531659141344cd1fd0a4f28419497f9722a3daafe3b4186f6b6457e0600080a380f35b908460249251917f1e4fbdf7000000000000000000000000000000000000000000000000000000008352820152fd5b8280fd5b839150346102d157816003193601126102d1576102f0612457565b90602490813560ff6007549461030b828760a81c1615612666565b16610318600382106126b1565b6103238215156126fc565b6001600160a01b039182600654168360055416906003549789519863856296f760e01b8a528b888b0152888a01526001851b60448a01526020988981606481865afa8015610894578a918d91610949575b508b5163039dd75360e41b81526001600160a01b039095168986019081526020810191909152849081906040015b0381855afa92831561093f578b93610910575b508951627eeac760e11b815233888201908152602081018590528a90829081906040010381865afa80156108945785918d916108df575b501061089e5760609291898961044a93828a8f808c8f926104258e61042c92519e8f61041781612526565b6003815289369101376127e4565b918d612784565b52519788958694859363782d085b60e01b855284015282018b612798565b0392165afa918215610894578c92610865575b508b82121561082457808c913b15610820578b51637921219560e11b815233818b0190815230602082015260408101959095526060850187905260a060808601819052600090860152938291859182908490829060c00103925af1928315610814578a936107f7575b50908a6104f59492898960075416938351978896879586946315bd761160e01b86528501526044840190612798565b908d83015203925af190811561070f5789916107ca575b50888761054a8660055416610520856127e4565b8c5163a9059cbb60e01b8152338b8201908152602081019290925294859384928391604090910190565b03925af19081156107c0578a91610793575b5015610752578061056f61058b926127e4565b848b52600a89526105848a8c2091825461276a565b90556127e4565b8751918252868201527f59bb1b9bbd3cec3437b204c969642374ba2f0fd9d3b7cfc39b49024d9e60d454873392a3600754169184519063b20f8e7f60e01b92838352878184015285838381885afa928315610748578893610719575b5086519184835260018284015286838281895afa94851561070f5787938a966106da575b5060029495968951958694859384528301525afa9384156106d0578694610679575b50506106737f893ac9c513b4380780f867c7b8bd044b0c9868ae211e7b5c6daaa79c936e4dbe936001549551938493846040919493926060820195825260208201520152565b0390a280f35b90809450813d83116106c9575b6106908183612542565b810103126106c4576106737f893ac9c513b4380780f867c7b8bd044b0c9868ae211e7b5c6daaa79c936e4dbe93519361062d565b600080fd5b503d610686565b85513d88823e3d90fd5b848195929697503d8311610708575b6106f38183612542565b810103126106c457600293879351959461060b565b503d6106e9565b88513d8b823e3d90fd5b9092508581813d8311610741575b6107318183612542565b810103126106c4575191886105e7565b503d610727565b87513d8a823e3d90fd5b6064856014888a8c519362461bcd60e51b85528401528201527f55534443207472616e73666572206661696c65640000000000000000000000006044820152fd5b6107b39150883d8a116107b9575b6107ab8183612542565b8101906127cc565b8a61055c565b503d6107a1565b89513d8c823e3d90fd5b90508681813d83116107f0575b6107e18183612542565b810103126106c457518961050c565b503d6107d7565b610803919293506124e0565b6108105787908a8c6104c6565b8980fd5b508a51903d90823e3d90fd5b5080fd5b60648860128b8d8f519362461bcd60e51b85528401528201527f496e76616c6964207472616465206761696e00000000000000000000000000006044820152fd5b9091508981813d831161088d575b61087d8183612542565b810103126106c45751908c61045d565b503d610873565b8b513d8e823e3d90fd5b606487601b8a8c8e519362461bcd60e51b85528401528201527f496e73756666696369656e74206f7574636f6d6520746f6b656e7300000000006044820152fd5b8092508b8092503d8311610909575b6108f88183612542565b810103126106c4578490518d6103ec565b503d6108ee565b9092508881813d8311610938575b6109288183612542565b810103126106c45751918b6103b5565b503d61091e565b8a513d8d823e3d90fd5b82819392503d8311610973575b6109608183612542565b810103126106c4575189906103a2610374565b503d610956565b83833461021d5760a036600319011261021d576109956124b4565b5061099e6124ca565b506084359067ffffffffffffffff821161021d57506020926109c2913691016125cb565b50517ff23a6e61000000000000000000000000000000000000000000000000000000008152f35b838380923461082057602092836003193601126102d157610a08612457565b93610a11612622565b60075490610a2560ff8360a81c1615612666565b60ff861695610a36600388106126b1565b60b01b750100000000000000000000000000000000000000000076ff0000000000000000000000000000000000000000000082167fffffffffffffffffff0000ffffffffffffffffffffffffffffffffffffffffff85161717600755856001600160a01b03809416911617803b15610ce857858091868651809481937f43d726d60000000000000000000000000000000000000000000000000000000083525af18015610d6057908691610d6e575b5050600160ff60075460b01c161b835190610aff8261250a565b60018252823681840137610b1282612777565b52826006541683600554169060035490803b15610d6a5788928389610b498a5197889687958694626dc0df60e21b86528501612811565b03925af18015610d6057908691610d48575b50508160055416908351916370a0823160e01b835230868401528183602481845afa928315610d0a578793610d14575b508183610bc99286600254168a8a8a519687958694859363095ea7b360e01b85528401602090939291936001600160a01b0360408201951681520152565b03925af18015610d0a57610cec575b5050816002541690813b15610ce857859160248392865194859384927f441046270000000000000000000000000000000000000000000000000000000084528a8401525af18015610cde57908591610cca575b50506002541691823b15610cc657839260248492845195869384927f29527b8200000000000000000000000000000000000000000000000000000000845230908401525af1908115610cbd5750610ca9575b50506001547f739f283563fb51ab6b89ee95d937b2e63a6cfcb83c385dbebb629f9d97bd43e68380a380f35b610cb2906124e0565b610820578183610c7d565b513d84823e3d90fd5b8380fd5b610cd3906124e0565b610cc6578387610c2b565b83513d87823e3d90fd5b8580fd5b81610d0292903d106107b9576107ab8183612542565b508780610bd8565b85513d89823e3d90fd5b965091508086813d8111610d41575b610d2d8183612542565b810103126106c45794518795909181610b8b565b503d610d23565b610d51906124e0565b610d5c578488610b5b565b8480fd5b84513d88823e3d90fd5b8880fd5b610d77906124e0565b610d5c578488610ae5565b9190503461021d578260031936011261021d57610d9d612457565b9060249283359460ff8094610db98260075460a81c1615612666565b16906003610dc88184106126b1565b610dd38815156126fc565b338552602091600983528681872054161561181d575b8591865b88811682811015610e43579081878b9303610e26575b5016888114610e1457600101610ded565b8988601189634e487b7160e01b835252fd5b94610e3c91958a52600a8752848a205490612747565b9338610e03565b5050869591948a8a9464746a52880090810180911161180b57828952600a875287892054610e709161276a565b81116117a457865192610e8284612526565b8084526060368886013781610e978486612784565b526001600160a01b0393846007541690888a51809363782d085b60e01b8252828a8301528180610ec98d820187612798565b03915afa91821561093f578b92611775575b508a82131561173457610190808302908382041483151715611722579061271087939204918c8c8c8c60648d85610f128a89612747565b9960011c9a60055416955195869485937f23b872dd0000000000000000000000000000000000000000000000000000000085523390850152309084015260449a8b8401525af191821561171757916116fa575b50156116b85790818d610fb38d8f958c8e978582600554169260075416915180968195829463095ea7b360e01b9d8e85528401602090939291936001600160a01b0360408201951681520152565b03925af19182156116ad5791611690575b501561164d57610ffa918c918f8f908d8f8e60075416948451988997889687956315bd761160e01b87528601528c850190612798565b9183015203925af1948d8d8715611643578b8e8e95849a61160a575b508c60065416958d600554169554908585519463856296f760e01b865285015283015260018c1b8883015281606481885afa9384156115fe578f9184956115c8575b508d61108b8451968793849363039dd75360e41b85528401602090939291936001600160a01b0360408201951681520152565b0381875afa9283156115bd578e918d918495611587575b5051627eeac760e11b815230918101918252602082018590529190829081906040015b0381875afa90811561157a57899291611549575b50106114e0578d823b1561021d578d51637921219560e11b815230818d0190815233602082015260408101939093526060830189905260a060808401819052600090840152928e928291859182908490829060c00103925af19081156114d5578d9287926114b9575b61117c94508b60055416918d8d600254169251968795869485938b85528401602090939291936001600160a01b0360408201951681520152565b03925af19081156114af578d91611492575b5015611451578b90876002541690813b156102d1578c9083868d8d83865197889485937fe57483150000000000000000000000000000000000000000000000000000000085528401525af180156114475786948e948d92611425575b508b60055416926112208d83541695519788968795869485528401602090939291936001600160a01b0360408201951681520152565b03925af1908115610894578c91611408575b50156113a2575089908582541690813b156102d15782918983928d5194859384927ffe80d5090000000000000000000000000000000000000000000000000000000084528d8401525af1801561139857611384575b50839052600a875287892061129d828254612747565b90558751918252868201527f58d1b6a27802b679fdc085f457b7699ca7b334df2e9f26f1bf92773f0810a3a2873392a3600754169184519063b20f8e7f60e01b92838352878184015285838381885afa928315610748578893610719575086519184835260018284015286838281895afa94851561070f5787938a966106da575060029495968951958694859384528301525afa9384156106d05786946106795750506106737f893ac9c513b4380780f867c7b8bd044b0c9868ae211e7b5c6daaa79c936e4dbe936001549551938493846040919493926060820195825260208201520152565b61138d906124e0565b610d6a57888a611287565b8a513d84823e3d90fd5b867f417070726f766520746f206f776e65722f4d61726b6574466163746f7279206660849260258b8d8f519562461bcd60e51b87528601528401528201527f61696c65640000000000000000000000000000000000000000000000000000006064820152fd5b61141f91508a3d8c116107b9576107ab8183612542565b8c611232565b915094506114379193508492506124e0565b610820578b8b918a8694386111ea565b82513d86823e3d90fd5b50867f417070726f766520746f204c6971756964697479506f6f6c206661696c656400606492601f8b8d8f519562461bcd60e51b8752860152840152820152fd5b6114a991508b3d8d116107b9576107ab8183612542565b8d61118e565b8c513d8f823e3d90fd5b50928392506114c891506124e0565b61021d578a84828e611142565b8251903d90823e3d90fd5b505050867f4e6f7420656e6f756768206f7574636f6d6520746f6b656e732072656365697660849260228b8d8f519562461bcd60e51b87528601528401528201527f65640000000000000000000000000000000000000000000000000000000000006064820152fd5b8092508e8092503d8311611573575b6115628183612542565b810103126106c457879051386110d9565b503d611558565b50508d51903d90823e3d90fd5b94505050905081813d83116115b6575b6115a18183612542565b810103126106c457518d8c8b8f6110c56110a2565b503d611597565b5051903d90823e3d90fd5b93509350905081813d83116115f7575b6115e28183612542565b810103126106c4578d8f918e90519338611058565b503d6115d8565b505051903d90823e3d90fd5b955093985050505081813d831161163c575b6116268183612542565b810103126106c457519389908d8d8b8e38611016565b503d61161c565b51903d90823e3d90fd5b505050867f617070726f766520746f206d61726b65744d616b6572206661696c6564000000606492601d8b8d8f519562461bcd60e51b8752860152840152820152fd5b6116a791508d803d106107b9576107ab8183612542565b8f610fc4565b8f51903d90823e3d90fd5b5050867f7472616e7366657246726f6d206661696c65640000000000000000000000000060649260138b8d8f519562461bcd60e51b8752860152840152820152fd5b61171191508c8d3d106107b9576107ab8183612542565b8e610f65565b8e51903d90823e3d90fd5b888c60118a634e487b7160e01b835252fd5b60648760128a8c8e519362461bcd60e51b85528401528201527f496e76616c696420747261646520636f737400000000000000000000000000006044820152fd5b9091508881813d831161179d575b61178d8183612542565b810103126106c45751908b610edb565b503d611783565b50505091608493519262461bcd60e51b8452830152808201527f4265742065786365656473206d6178696d756d20616c6c6f7761626c6520616d60448201527f6f756e74000000000000000000000000000000000000000000000000000000006064820152fd5b8589601187634e487b7160e01b835252fd5b60085468010000000000000000811015611873578060016118419201600855612467565b815490841b906001600160a01b0333831b921b191617905533865260098352808620600160ff19825416179055610de9565b8887604188634e487b7160e01b835252fd5b82843461082057816003193601126108205760209060ff60075460a81c1690519015158152f35b82843461082057606036600319011261082057604435906001600160a01b03938483168093036106c4576118de612622565b6007549460ff8660a01c166119c0578373ffffffffffffffffffffffffffffffffffffffff1986976024356003558435855516176007556006541692833b15610d5c576044859283855196879485937fa22cb465000000000000000000000000000000000000000000000000000000008552840152600160248401525af1908115610cbd57506119ac575b50740100000000000000000000000000000000000000007fffffffffffffffffffffff00ffffffffffffffffffffffffffffffffffffffff600754161760075580f35b6119b5906124e0565b61021d578082611969565b506020606492519162461bcd60e51b8352820152601a60248201527f4d61726b657420616c726561647920696e697469616c697a65640000000000006044820152fd5b828434610820578160031936011261082057602090516101908152f35b83833461021d5760a036600319011261021d57611a3b6124b4565b50611a446124ca565b5067ffffffffffffffff9060443582811161082057611a669036908601612564565b5060643582811161082057611a7e9036908601612564565b5060843591821161021d5750602092611a99913691016125cb565b50517fbc197c81000000000000000000000000000000000000000000000000000000008152f35b839150346102d157826003193601126102d15760209250549051908152f35b82843461082057602092836003193601126102d1578360ff6024611b01612457565b6001600160a01b03600754168651958694859363b20f8e7f60e01b855216908301525afa9283156114d55792611b39575b5051908152f35b9091508281813d8311611b61575b611b518183612542565b810103126106c457519083611b32565b503d611b47565b8284346108205781600319360112610820576020906001549051908152f35b8284346108205781600319360112610820576001600160a01b0360209254169051908152f35b823461021d578060031936011261021d57611bc6612622565b60006001600160a01b03815473ffffffffffffffffffffffffffffffffffffffff1981168355167f8be0079c531659141344cd1fd0a4f28419497f9722a3daafe3b4186f6b6457e08280a380f35b8284346108205781600319360112610820576020906001600160a01b03600254169051908152f35b8284346108205781600319360112610820576020906001600160a01b03600654169051908152f35b828434610820578060031936011261082057611cdb611c81612457565b8251611c8c81612526565b60038152602095869260603685850137611cac60ff602435921684612784565b52826001600160a01b03600754169186519586948593849363782d085b60e01b85528401526024830190612798565b03915afa9283156114d55792611b39575051908152f35b8284346108205760203660031901126108205760ff816020936001600160a01b03611d1b6124b4565b1681526009855220541690519015158152f35b8284346108205781600319360112610820576020906001600160a01b03600554169051908152f35b839150346102d15760203660031901126102d157359160085483101561021d57506001600160a01b03611d8a602093612467565b92905490519260031b1c168152f35b839150346102d157826003193601126102d15760075460ff8160a81c16156122b25760ff60019160b01c161b825191611dd18361250a565b6001835260209182368186013780611de885612777565b526001600160a01b0380600654168160055416906003549388519063856296f760e01b82528a878301526024958683015260448201528681606481855afa80156107c05787918b91612281575b50895163039dd75360e41b81526001600160a01b039094168785019081526020810191909152839081906040015b0381845afa91821561070f578992612252575b508751627eeac760e11b815233868201908152602081018490529091908790839081906040010381845afa9182156107c0578a92612223575b5081156121bc5790818a923b156102d157611f1293838b51809681958294637921219560e11b8452308d33908601929060c094926001600160a01b0380921685521660208401526040830152606082015260a06080820152600060a08201520190565b03925af18015610748576121a9575b50806005541690878751966370a0823160e01b9384895230878a015287898781845afa98891561219f57839961216c575b50836006541660035490803b15610d5c578492838a611f838f5197889687958694626dc0df60e21b86528501612811565b03925af180156121625761214a575b505060055416948651918252308483015284828481895afa801561074857889061211b575b611fc1925061276a565b9384156120b457838651809263a9059cbb60e01b8252818a81611ffd8b338b8401602090939291936001600160a01b0360408201951681520152565b03925af19081156120aa57879161208d575b501561204d5750507f810c0a3d2e7f4765a144ddb7039e632b1abd74268600d3f570c128cb7b6a09b69060ff60075460b01c1693519283523392a380f35b601c9060649386519362461bcd60e51b85528401528201527f55534443207472616e7366657220746f2075736572206661696c6564000000006044820152fd5b6120a49150843d86116107b9576107ab8183612542565b8761200f565b86513d89823e3d90fd5b5060259060849386519362461bcd60e51b85528401528201527f526564656d7074696f6e206661696c65642c206e6f207061796f75742072656360448201527f65697665640000000000000000000000000000000000000000000000000000006064820152fd5b508482813d8311612143575b6121318183612542565b810103126106c457611fc19151611fb7565b503d612127565b612153906124e0565b61215e578789611f92565b8780fd5b89513d84823e3d90fd5b8880929a508194503d8311612198575b6121868183612542565b810103126106c457899151978b611f52565b503d61217c565b8a513d85823e3d90fd5b6121b5909791976124e0565b9587611f21565b6084866023878a8d519362461bcd60e51b85528401528201527f4e6f2077696e6e696e67206f7574636f6d6520746f6b656e7320746f2072656460448201527f65656d00000000000000000000000000000000000000000000000000000000006064820152fd5b9091508681813d831161224b575b61223b8183612542565b810103126108105751908a611eaf565b503d612231565b9091508581813d831161227a575b61226a8183612542565b81010312610d6a57519089611e76565b503d612260565b82819392503d83116122ab575b6122988183612542565b8101031261081057518690611e63611e35565b503d61228e565b506020606492519162461bcd60e51b8352820152601360248201527f4d61726b6574206e6f74207265736f6c766564000000000000000000000000006044820152fd5b828434610820576020366003190112610820578060209260ff612316612457565b168152600a845220549051908152f35b8284346108205781600319360112610820576020906003549051908152f35b8284346108205781600319360112610820576020906001600160a01b03600754169051908152f35b82843461082057816003193601126108205760209060ff60075460b01c169051908152f35b82843461082057816003193601126108205760209060ff60075460a01c1690519015158152f35b9150346102d15760203660031901126102d157357fffffffff0000000000000000000000000000000000000000000000000000000081168091036102d157602092507f4e2312e000000000000000000000000000000000000000000000000000000000811490811561242d575b5015158152f35b7f01ffc9a70000000000000000000000000000000000000000000000000000000091501483612426565b6004359060ff821682036106c457565b60085481101561249e5760086000527ff3f7a9fe364faab93b216da50a3214154f22a0a2b415b23a84c8169e8b636ee30190600090565b634e487b7160e01b600052603260045260246000fd5b600435906001600160a01b03821682036106c457565b602435906001600160a01b03821682036106c457565b67ffffffffffffffff81116124f457604052565b634e487b7160e01b600052604160045260246000fd5b6040810190811067ffffffffffffffff8211176124f457604052565b6080810190811067ffffffffffffffff8211176124f457604052565b90601f8019910116810190811067ffffffffffffffff8211176124f457604052565b9080601f830112156106c45781359067ffffffffffffffff82116124f4578160051b6040519360209361259985840187612542565b855283808601928201019283116106c4578301905b8282106125bc575050505090565b813581529083019083016125ae565b81601f820112156106c45780359067ffffffffffffffff82116124f45760405192612600601f8401601f191660200185612542565b828452602083830101116106c457816000926020809301838601378301015290565b6001600160a01b0360005416330361263657565b60246040517f118cdaa7000000000000000000000000000000000000000000000000000000008152336004820152fd5b1561266d57565b606460405162461bcd60e51b815260206004820152601760248201527f4d61726b657420616c7265616479207265736f6c7665640000000000000000006044820152fd5b156126b857565b606460405162461bcd60e51b815260206004820152600f60248201527f496e76616c6964206f7574636f6d6500000000000000000000000000000000006044820152fd5b1561270357565b606460405162461bcd60e51b815260206004820152602060248201527f416d6f756e74206d7573742062652067726561746572207468616e207a65726f6044820152fd5b9190820180921161275457565b634e487b7160e01b600052601160045260246000fd5b9190820391821161275457565b80511561249e5760200190565b805182101561249e5760209160051b010190565b90815180825260208080930193019160005b8281106127b8575050505090565b8351855293810193928101926001016127aa565b908160209103126106c4575180151581036106c45790565b7f800000000000000000000000000000000000000000000000000000000000000081146127545760000390565b916001600160a01b03608084019216835260a0602093849260008483015260408201526080606082015285518094520193019160005b828110612855575050505090565b83518552938101939281019260010161284756fea2646970667358221220b4f5d3b1df15cf290c212ecde31b105d83b3d9f94f2b5c9d8eb47ff5ee20ebdf64736f6c63430008140033",
  "linkReferences": {},
  "deployedLinkReferences": {}
}