{
  "_format": "hh-sol-artifact-1",
  "contractName": "PredictionMarket",
  "sourceName": "contracts/PredictionMarket.sol",
  "abi": [
    {
      "inputs": [
        {
          "internalType": "uint256",
          "name": "_matchId",
          "type": "uint256"
        },
        {
          "internalType": "address",
          "name": "_liquidityPool",
          "type": "address"
        },
        {
          "internalType": "address",
          "name": "_usdc",
          "type": "address"
        },
        {
          "internalType": "address",
          "name": "_conditionalTokens",
          "type": "address"
        }
      ],
      "stateMutability": "nonpayable",
      "type": "constructor"
    },
    {
      "inputs": [
        {
          "internalType": "address",
          "name": "owner",
          "type": "address"
        }
      ],
      "name": "OwnableInvalidOwner",
      "type": "error"
    },
    {
      "inputs": [
        {
          "internalType": "address",
          "name": "account",
          "type": "address"
        }
      ],
      "name": "OwnableUnauthorizedAccount",
      "type": "error"
    },
    {
      "anonymous": false,
      "inputs": [
        {
          "indexed": true,
          "internalType": "uint256",
          "name": "matchId",
          "type": "uint256"
        },
        {
          "indexed": true,
          "internalType": "uint8",
          "name": "outcome",
          "type": "uint8"
        }
      ],
      "name": "MarketResolved",
      "type": "event"
    },
    {
      "anonymous": false,
      "inputs": [
        {
          "indexed": true,
          "internalType": "uint256",
          "name": "matchId",
          "type": "uint256"
        },
        {
          "indexed": false,
          "internalType": "uint256",
          "name": "home",
          "type": "uint256"
        },
        {
          "indexed": false,
          "internalType": "uint256",
          "name": "draw",
          "type": "uint256"
        },
        {
          "indexed": false,
          "internalType": "uint256",
          "name": "away",
          "type": "uint256"
        }
      ],
      "name": "OddsUpdated",
      "type": "event"
    },
    {
      "anonymous": false,
      "inputs": [
        {
          "indexed": true,
          "internalType": "address",
          "name": "previousOwner",
          "type": "address"
        },
        {
          "indexed": true,
          "internalType": "address",
          "name": "newOwner",
          "type": "address"
        }
      ],
      "name": "OwnershipTransferred",
      "type": "event"
    },
    {
      "anonymous": false,
      "inputs": [
        {
          "indexed": true,
          "internalType": "address",
          "name": "redeemer",
          "type": "address"
        },
        {
          "indexed": true,
          "internalType": "uint8",
          "name": "outcome",
          "type": "uint8"
        },
        {
          "indexed": false,
          "internalType": "uint256",
          "name": "amount",
          "type": "uint256"
        }
      ],
      "name": "PayoutRedeemed",
      "type": "event"
    },
    {
      "anonymous": false,
      "inputs": [
        {
          "indexed": true,
          "internalType": "address",
          "name": "buyer",
          "type": "address"
        },
        {
          "indexed": true,
          "internalType": "uint8",
          "name": "outcome",
          "type": "uint8"
        },
        {
          "indexed": false,
          "internalType": "uint256",
          "name": "shares",
          "type": "uint256"
        },
        {
          "indexed": false,
          "internalType": "int256",
          "name": "actualCost",
          "type": "int256"
        }
      ],
      "name": "SharesPurchased",
      "type": "event"
    },
    {
      "anonymous": false,
      "inputs": [
        {
          "indexed": true,
          "internalType": "address",
          "name": "seller",
          "type": "address"
        },
        {
          "indexed": true,
          "internalType": "uint8",
          "name": "outcome",
          "type": "uint8"
        },
        {
          "indexed": false,
          "internalType": "uint256",
          "name": "shares",
          "type": "uint256"
        },
        {
          "indexed": false,
          "internalType": "int256",
          "name": "actualGain",
          "type": "int256"
        }
      ],
      "name": "SharesSold",
      "type": "event"
    },
    {
      "inputs": [],
      "name": "FEE_BPS",
      "outputs": [
        {
          "internalType": "uint256",
          "name": "",
          "type": "uint256"
        }
      ],
      "stateMutability": "view",
      "type": "function"
    },
    {
      "inputs": [
        {
          "internalType": "uint256",
          "name": "",
          "type": "uint256"
        }
      ],
      "name": "bettors",
      "outputs": [
        {
          "internalType": "address",
          "name": "",
          "type": "address"
        }
      ],
      "stateMutability": "view",
      "type": "function"
    },
    {
      "inputs": [
        {
          "internalType": "uint8",
          "name": "outcome",
          "type": "uint8"
        },
        {
          "internalType": "uint256",
          "name": "amount",
          "type": "uint256"
        }
      ],
      "name": "buyShares",
      "outputs": [],
      "stateMutability": "nonpayable",
      "type": "function"
    },
    {
      "inputs": [
        {
          "internalType": "uint8",
          "name": "outcome",
          "type": "uint8"
        },
        {
          "internalType": "uint256",
          "name": "amount",
          "type": "uint256"
        },
        {
          "internalType": "uint256",
          "name": "value",
          "type": "uint256"
        },
        {
          "internalType": "uint256",
          "name": "deadline",
          "type": "uint256"
        },
        {
          "internalType": "uint8",
          "name": "v",
          "type": "uint8"
        },
        {
          "internalType": "bytes32",
          "name": "r",
          "type": "bytes32"
        },
        {
          "internalType": "bytes32",
          "name": "s",
          "type": "bytes32"
        }
      ],
      "name": "buySharesWithPermit",
      "outputs": [],
      "stateMutability": "nonpayable",
      "type": "function"
    },
    {
      "inputs": [],
      "name": "conditionId",
      "outputs": [
        {
          "internalType": "bytes32",
          "name": "",
          "type": "bytes32"
        }
      ],
      "stateMutability": "view",
      "type": "function"
    },
    {
      "inputs": [],
      "name": "conditionalTokens",
      "outputs": [
        {
          "internalType": "contract ConditionalTokens",
          "name": "",
          "type": "address"
        }
      ],
      "stateMutability": "view",
      "type": "function"
    },
    {
      "inputs": [],
      "name": "getBettors",
      "outputs": [
        {
          "internalType": "address[]",
          "name": "",
          "type": "address[]"
        }
      ],
      "stateMutability": "view",
      "type": "function"
    },
    {
      "inputs": [
        {
          "internalType": "uint8",
          "name": "outcome",
          "type": "uint8"
        }
      ],
      "name": "getMarginalPrice",
      "outputs": [
        {
          "internalType": "uint256",
          "name": "",
          "type": "uint256"
        }
      ],
      "stateMutability": "view",
      "type": "function"
    },
    {
      "inputs": [
        {
          "internalType": "uint8",
          "name": "outcome",
          "type": "uint8"
        },
        {
          "internalType": "int256",
          "name": "amount",
          "type": "int256"
        }
      ],
      "name": "getNetCost",
      "outputs": [
        {
          "internalType": "int256",
          "name": "",
          "type": "int256"
        }
      ],
      "stateMutability": "view",
      "type": "function"
    },
    {
      "inputs": [
        {
          "internalType": "bytes32",
          "name": "_questionId",
          "type": "bytes32"
        },
        {
          "internalType": "bytes32",
          "name": "_conditionId",
          "type": "bytes32"
        },
        {
          "internalType": "address",
          "name": "_marketMaker",
          "type": "address"
        }
      ],
      "name": "initializeMarket",
      "outputs": [],
      "stateMutability": "nonpayable",
      "type": "function"
    },
    {
      "inputs": [],
      "name": "initialized",
      "outputs": [
        {
          "internalType": "bool",
          "name": "",
          "type": "bool"
        }
      ],
      "stateMutability": "view",
      "type": "function"
    },
    {
      "inputs": [
        {
          "internalType": "address",
          "name": "",
          "type": "address"
        }
      ],
      "name": "isBettor",
      "outputs": [
        {
          "internalType": "bool",
          "name": "",
          "type": "bool"
        }
      ],
      "stateMutability": "view",
      "type": "function"
    },
    {
      "inputs": [],
      "name": "isResolved",
      "outputs": [
        {
          "internalType": "bool",
          "name": "",
          "type": "bool"
        }
      ],
      "stateMutability": "view",
      "type": "function"
    },
    {
      "inputs": [],
      "name": "liquidityPool",
      "outputs": [
        {
          "internalType": "contract ILiquidityPool",
          "name": "",
          "type": "address"
        }
      ],
      "stateMutability": "view",
      "type": "function"
    },
    {
      "inputs": [],
      "name": "marketMaker",
      "outputs": [
        {
          "internalType": "contract LMSRMarketMaker",
          "name": "",
          "type": "address"
        }
      ],
      "stateMutability": "view",
      "type": "function"
    },
    {
      "inputs": [],
      "name": "matchId",
      "outputs": [
        {
          "internalType": "uint256",
          "name": "",
          "type": "uint256"
        }
      ],
      "stateMutability": "view",
      "type": "function"
    },
    {
      "inputs": [
        {
          "internalType": "address",
          "name": "",
          "type": "address"
        },
        {
          "internalType": "address",
          "name": "",
          "type": "address"
        },
        {
          "internalType": "uint256[]",
          "name": "",
          "type": "uint256[]"
        },
        {
          "internalType": "uint256[]",
          "name": "",
          "type": "uint256[]"
        },
        {
          "internalType": "bytes",
          "name": "",
          "type": "bytes"
        }
      ],
      "name": "onERC1155BatchReceived",
      "outputs": [
        {
          "internalType": "bytes4",
          "name": "",
          "type": "bytes4"
        }
      ],
      "stateMutability": "nonpayable",
      "type": "function"
    },
    {
      "inputs": [
        {
          "internalType": "address",
          "name": "",
          "type": "address"
        },
        {
          "internalType": "address",
          "name": "",
          "type": "address"
        },
        {
          "internalType": "uint256",
          "name": "",
          "type": "uint256"
        },
        {
          "internalType": "uint256",
          "name": "",
          "type": "uint256"
        },
        {
          "internalType": "bytes",
          "name": "",
          "type": "bytes"
        }
      ],
      "name": "onERC1155Received",
      "outputs": [
        {
          "internalType": "bytes4",
          "name": "",
          "type": "bytes4"
        }
      ],
      "stateMutability": "nonpayable",
      "type": "function"
    },
    {
      "inputs": [],
      "name": "owner",
      "outputs": [
        {
          "internalType": "address",
          "name": "",
          "type": "address"
        }
      ],
      "stateMutability": "view",
      "type": "function"
    },
    {
      "inputs": [],
      "name": "questionId",
      "outputs": [
        {
          "internalType": "bytes32",
          "name": "",
          "type": "bytes32"
        }
      ],
      "stateMutability": "view",
      "type": "function"
    },
    {
      "inputs": [],
      "name": "redeemPayouts",
      "outputs": [],
      "stateMutability": "nonpayable",
      "type": "function"
    },
    {
      "inputs": [],
      "name": "renounceOwnership",
      "outputs": [],
      "stateMutability": "nonpayable",
      "type": "function"
    },
    {
      "inputs": [
        {
          "internalType": "uint8",
          "name": "result",
          "type": "uint8"
        }
      ],
      "name": "resolveMarket",
      "outputs": [],
      "stateMutability": "nonpayable",
      "type": "function"
    },
    {
      "inputs": [],
      "name": "resolvedOutcome",
      "outputs": [
        {
          "internalType": "uint8",
          "name": "",
          "type": "uint8"
        }
      ],
      "stateMutability": "view",
      "type": "function"
    },
    {
      "inputs": [
        {
          "internalType": "uint8",
          "name": "outcome",
          "type": "uint8"
        },
        {
          "internalType": "uint256",
          "name": "amount",
          "type": "uint256"
        }
      ],
      "name": "sellShares",
      "outputs": [],
      "stateMutability": "nonpayable",
      "type": "function"
    },
    {
      "inputs": [
        {
          "internalType": "bytes4",
          "name": "interfaceId",
          "type": "bytes4"
        }
      ],
      "name": "supportsInterface",
      "outputs": [
        {
          "internalType": "bool",
          "name": "",
          "type": "bool"
        }
      ],
      "stateMutability": "view",
      "type": "function"
    },
    {
      "inputs": [
        {
          "internalType": "uint8",
          "name": "",
          "type": "uint8"
        }
      ],
      "name": "totalWageredPerOutcome",
      "outputs": [
        {
          "internalType": "uint256",
          "name": "",
          "type": "uint256"
        }
      ],
      "stateMutability": "view",
      "type": "function"
    },
    {
      "inputs": [
        {
          "internalType": "address",
          "name": "newOwner",
          "type": "address"
        }
      ],
      "name": "transferOwnership",
      "outputs": [],
      "stateMutability": "nonpayable",
      "type": "function"
    },
    {
      "inputs": [],
      "name": "usdc",
      "outputs": [
        {
          "internalType": "contract IERC20",
          "name": "",
          "type": "address"
        }
      ],
      "stateMutability": "view",
      "type": "function"
    }
  ],
  "bytecode": "0x608034620001f957601f6200340338819003918201601f191683019291906001600160401b03841183851017620001fe578160809284926040968752833981010312620001f957805190620000576020820162000214565b6200007260606200006a86850162000214565b930162000214565b903315620001e1576000549060018060a01b031993338584161760005586519260018060a01b03928391823391167f8be0079c531659141344cd1fd0a4f28419497f9722a3daafe3b4186f6b6457e0600080a3169283156200019f575081169283156200015b57169384156200010d576001558260025416176002558160055416176005556006541617600655516131d990816200022a8239f35b855162461bcd60e51b815260206004820152602160248201527f496e76616c696420436f6e646974696f6e616c546f6b656e73206164647265736044820152607360f81b6064820152608490fd5b865162461bcd60e51b815260206004820152601a60248201527f496e76616c6964205553444320746f6b656e20616464726573730000000000006044820152606490fd5b62461bcd60e51b815260206004820152601d60248201527f496e76616c6964204c6971756964697479506f6f6c20616464726573730000006044820152606490fd5b8451631e4fbdf760e01b815260006004820152602490fd5b600080fd5b634e487b7160e01b600052604160045260246000fd5b51906001600160a01b0382168203620001f95756fe60806040908082526004908136101561001757600080fd5b600091823560e01c91826301ffc9a714612a2857508163158ef93e14612a015781631c371e2b146129dc5781631f21f9af146129b45781632ddc7de7146129955781632dfc8ee914612964578163326209b41461240c5781633482b644146123b05781633e413bee14612388578163429c2ed71461234c578163591e791c146122be5781635bd9e29914612296578163665a11ca1461226e578163715018a6146122075781638da5cb5b146121e157816399892e47146121c2578163a2e3215c146118ab578163aaafcf7f14611817578163b06a5c52146117f8578163bc197c8114611758578163bf333f2c1461173b578163c98c8b2b146115e4578163dbb3f537146115bd578163dd9089aa14610d8d578163f21ffa6b146109f4578163f23a6e6114610985578163f2ccb397146102e0578163f2fde38b1461022b575063ffd4493c1461016557600080fd5b346102285780600319360112610228579080519182906008549182855260208095018093600884527ff3f7a9fe364faab93b216da50a3214154f22a0a2b415b23a84c8169e8b636ee390845b81811061020b57505050816101c7910382612b64565b83519485948186019282875251809352850193925b8281106101eb57505050500390f35b83516001600160a01b0316855286955093810193928101926001016101dc565b82546001600160a01b0316845292880192600192830192016101b1565b80fd5b839150346102dc5760203660031901126102dc57610247612ad6565b90610250612c44565b6001600160a01b038092169283156102ad5750506000548273ffffffffffffffffffffffffffffffffffffffff19821617600055167f8be0079c531659141344cd1fd0a4f28419497f9722a3daafe3b4186f6b6457e0600080a380f35b908460249251917f1e4fbdf7000000000000000000000000000000000000000000000000000000008352820152fd5b8280fd5b839150346102dc57816003193601126102dc576102fb612ac6565b90602490813560ff60075494610316828760a81c1615612c88565b1661032360038210612cd3565b61032e821515612d1e565b6001600160a01b039182600654168360055416906003549789519863856296f760e01b8a528b888b0152888a01526001851b60448a01526020988981606481865afa801561089f578a918d91610954575b508b5163039dd75360e41b81526001600160a01b039095168986019081526020810191909152849081906040015b0381855afa92831561094a578b9361091b575b508951627eeac760e11b815233888201908152602081018590528a90829081906040010381865afa801561089f5785918d916108ea575b50106108a95760609291898961045593828a8f808c8f926104308e61043792519e8f61042281612b48565b60038152893691013761311e565b918d612eb0565b52519788958694859363782d085b60e01b855284015282018b612ec4565b0392165afa91821561089f578c92610870575b508b82121561082f57808c913b1561082b578b51637921219560e11b815233818b0190815230602082015260408101959095526060850187905260a060808601819052600090860152938291859182908490829060c00103925af192831561081f578a93610802575b50908a6105009492898960075416938351978896879586946315bd761160e01b86528501526044840190612ec4565b908d83015203925af190811561071a5789916107d5575b508887610555866005541661052b8561311e565b8c5163a9059cbb60e01b8152338b8201908152602081019290925294859384928391604090910190565b03925af19081156107cb578a9161079e575b501561075d578061057a6105969261311e565b848b52600a895261058f8a8c20918254612e26565b905561311e565b8751918252868201527f59bb1b9bbd3cec3437b204c969642374ba2f0fd9d3b7cfc39b49024d9e60d454873392a3600754169184519063b20f8e7f60e01b92838352878184015285838381885afa928315610753578893610724575b5086519184835260018284015286838281895afa94851561071a5787938a966106e5575b5060029495968951958694859384528301525afa9384156106db578694610684575b505061067e7f893ac9c513b4380780f867c7b8bd044b0c9868ae211e7b5c6daaa79c936e4dbe936001549551938493846040919493926060820195825260208201520152565b0390a280f35b90809450813d83116106d4575b61069b8183612b64565b810103126106cf5761067e7f893ac9c513b4380780f867c7b8bd044b0c9868ae211e7b5c6daaa79c936e4dbe935193610638565b600080fd5b503d610691565b85513d88823e3d90fd5b848195929697503d8311610713575b6106fe8183612b64565b810103126106cf576002938793519594610616565b503d6106f4565b88513d8b823e3d90fd5b9092508581813d831161074c575b61073c8183612b64565b810103126106cf575191886105f2565b503d610732565b87513d8a823e3d90fd5b6064856014888a8c519362461bcd60e51b85528401528201527f55534443207472616e73666572206661696c65640000000000000000000000006044820152fd5b6107be9150883d8a116107c4575b6107b68183612b64565b810190612f43565b8a610567565b503d6107ac565b89513d8c823e3d90fd5b90508681813d83116107fb575b6107ec8183612b64565b810103126106cf575189610517565b503d6107e2565b61080e91929350612b02565b61081b5787908a8c6104d1565b8980fd5b508a51903d90823e3d90fd5b5080fd5b60648860128b8d8f519362461bcd60e51b85528401528201527f496e76616c6964207472616465206761696e00000000000000000000000000006044820152fd5b9091508981813d8311610898575b6108888183612b64565b810103126106cf5751908c610468565b503d61087e565b8b513d8e823e3d90fd5b606487601b8a8c8e519362461bcd60e51b85528401528201527f496e73756666696369656e74206f7574636f6d6520746f6b656e7300000000006044820152fd5b8092508b8092503d8311610914575b6109038183612b64565b810103126106cf578490518d6103f7565b503d6108f9565b9092508881813d8311610943575b6109338183612b64565b810103126106cf5751918b6103c0565b503d610929565b8a513d8d823e3d90fd5b82819392503d831161097e575b61096b8183612b64565b810103126106cf575189906103ad61037f565b503d610961565b8383346102285760a0366003190112610228576109a0612ad6565b506109a9612aec565b506084359067ffffffffffffffff821161022857506020926109cd91369101612bed565b50517ff23a6e61000000000000000000000000000000000000000000000000000000008152f35b838380923461082b57602092836003193601126102dc57610a13612ac6565b93610a1c612c44565b60075490610a3060ff8360a81c1615612c88565b60ff861695610a4160038810612cd3565b60b01b750100000000000000000000000000000000000000000076ff0000000000000000000000000000000000000000000082167fffffffffffffffffff0000ffffffffffffffffffffffffffffffffffffffffff85161717600755856001600160a01b03809416911617803b15610cf357858091868651809481937f43d726d60000000000000000000000000000000000000000000000000000000083525af18015610d6b57908691610d79575b5050600160ff60075460b01c161b835190610b0a82612b2c565b60018252823681840137610b1d82612ea3565b52826006541683600554169060035490803b15610d755788928389610b548a5197889687958694626dc0df60e21b8652850161314b565b03925af18015610d6b57908691610d53575b50508160055416908351916370a0823160e01b835230868401528183602481845afa928315610d15578793610d1f575b508183610bd49286600254168a8a8a519687958694859363095ea7b360e01b85528401602090939291936001600160a01b0360408201951681520152565b03925af18015610d1557610cf7575b5050816002541690813b15610cf357859160248392865194859384927f441046270000000000000000000000000000000000000000000000000000000084528a8401525af18015610ce957908591610cd5575b50506002541691823b15610cd157839260248492845195869384927f29527b8200000000000000000000000000000000000000000000000000000000845230908401525af1908115610cc85750610cb4575b50506001547f739f283563fb51ab6b89ee95d937b2e63a6cfcb83c385dbebb629f9d97bd43e68380a380f35b610cbd90612b02565b61082b578183610c88565b513d84823e3d90fd5b8380fd5b610cde90612b02565b610cd1578387610c36565b83513d87823e3d90fd5b8580fd5b81610d0d92903d106107c4576107b68183612b64565b508780610be3565b85513d89823e3d90fd5b965091508086813d8111610d4c575b610d388183612b64565b810103126106cf5794518795909181610b96565b503d610d2e565b610d5c90612b02565b610d67578488610b66565b8480fd5b84513d88823e3d90fd5b8880fd5b610d8290612b02565b610d67578488610af0565b82843461082b578060031936011261082b57610da7612ac6565b9160249182359160ff8095610dc38260075460a81c1615612c88565b1692600393610dd3858210612cd3565b610dde821515612d1e565b338352602095600987528785852054161561159a575b8395845b89811682811015610e3a57848103610e1a575b50610e1590612df2565b610df8565b610e159198610e33918852600a8b528888205490612e19565b9790610e0b565b50508990889387958964746a52880090810180911161158857610e6b610e7391848b52600a8952898b205490612e26565b821115612e33565b8651610e7e81612b48565b8381526060368883013781610e938483612eb0565b526001600160a01b03938460075416888a51809263782d085b60e01b8252828a8301528180610ec48d820189612ec4565b03915afa90811561094a578b9161155b575b50610ee28b8213612ef8565b610190808202908282041482151715611549578b928b9492612710610f559304938c610f0e8684612e19565b9560011c958b600554168d898b518099819582946323b872dd60e01b84523090339085016040919493929460608201956001600160a01b0380921683521660208201520152565b03925af191821561153f57610f79610fb7938f968e978a92611522575b5050612f5b565b8d818c600554168d600754168a8c5180988195829463095ea7b360e01b9d8e85528401602090939291936001600160a01b0360408201951681520152565b03925af197881561151957878f948f8f918f906110049d610fdf9186916114fc575b50612fa6565b600754169484519c8d97889687956315bd761160e01b87528601526044850190612ec4565b9183015203925af19485156113ea5784956114c9575b5087600654168c8960055416925481519063856296f760e01b8252878d8301528d82015260018a1b60448201528d81606481865afa9384156114bf578e91889561148a575b508c6110928451968793849363039dd75360e41b85528401602090939291936001600160a01b0360408201951681520152565b0381855afa928315611480578d918c918895611448575b5051627eeac760e11b815230918101918252602082018590529190829081906040015b0381855afa801561143e5788918791611408575b50906110ed911015612ff1565b803b15610d67578c51637921219560e11b815230818c0190815233602082015260408101939093526060830188905260a060808401819052600090840152918591839182908490829060c00103925af19081156113ea5784916113f4575b50506111898a838d8a6005541690878d8d600254169251968795869485938b85528401602090939291936001600160a01b0360408201951681520152565b03925af180156113ea576111a49185916113cd575b50613062565b8660025416803b15610cd1578b84848c8c838551968794859363e574831560e01b85528401525af19283156113c357858d9386956113a5575b508b908b60055416926112158d83541695519788968795869485528401602090939291936001600160a01b0360408201951681520152565b03925af1801561139b5761123091849161137e575b506130ad565b8582541690813b156102dc5782918983928d51948593849263fe80d50960e01b84528d8401525af1801561137457611360575b50839052600a8752878920611279828254612e19565b90558751918252868201527f58d1b6a27802b679fdc085f457b7699ca7b334df2e9f26f1bf92773f0810a3a2873392a3600754169184519063b20f8e7f60e01b92838352878184015285838381885afa928315610753578893610724575086519184835260018284015286838281895afa94851561071a5787938a966106e5575060029495968951958694859384528301525afa9384156106db57869461068457505061067e7f893ac9c513b4380780f867c7b8bd044b0c9868ae211e7b5c6daaa79c936e4dbe936001549551938493846040919493926060820195825260208201520152565b61136990612b02565b610d7557888a611263565b8a513d84823e3d90fd5b61139591508b3d8d116107c4576107b68183612b64565b8d61122a565b8b513d85823e3d90fd5b91945092506113b49150612b02565b6102dc57898b839285386111dd565b81513d87823e3d90fd5b6113e491508c8d3d106107c4576107b68183612b64565b8e61119e565b8c513d86823e3d90fd5b6113fd90612b02565b6102dc57828d61114b565b965050508b85813d8311611437575b6114218183612b64565b810103126106cf576110ed878f965190916110e0565b503d611417565b8e513d88823e3d90fd5b9450505090945081813d8311611479575b6114638183612b64565b810103126106cf57518c938b8a8e6110cc6110a9565b503d611459565b81513d88823e3d90fd5b97509350905085813d83116114b8575b6114a48183612b64565b810103126106cf578c8c8f9651933861105f565b503d61149a565b82513d89823e3d90fd5b8b809296508195503d83116114f5575b6114e38183612b64565b810103126106cf578b9251938d61101a565b503d6114d9565b61151391508a3d8c116107c4576107b68183612b64565b38610fd9565b513d88823e3d90fd5b6115389250803d106107c4576107b68183612b64565b8f80610f72565b87513d88823e3d90fd5b888c60118a634e487b7160e01b835252fd5b90508881813d8311611581575b6115728183612b64565b810103126106cf57518b610ed6565b503d611568565b8589601187634e487b7160e01b835252fd5b6115a333612d69565b33845260098752848420805460ff19166001179055610df4565b82843461082b578160031936011261082b5760209060ff60075460a81c1690519015158152f35b82843461082b57606036600319011261082b57604435906001600160a01b03938483168093036106cf57611616612c44565b6007549460ff8660a01c166116f8578373ffffffffffffffffffffffffffffffffffffffff1986976024356003558435855516176007556006541692833b15610d67576044859283855196879485937fa22cb465000000000000000000000000000000000000000000000000000000008552840152600160248401525af1908115610cc857506116e4575b50740100000000000000000000000000000000000000007fffffffffffffffffffffff00ffffffffffffffffffffffffffffffffffffffff600754161760075580f35b6116ed90612b02565b6102285780826116a1565b506020606492519162461bcd60e51b8352820152601a60248201527f4d61726b657420616c726561647920696e697469616c697a65640000000000006044820152fd5b82843461082b578160031936011261082b57602090516101908152f35b8383346102285760a036600319011261022857611773612ad6565b5061177c612aec565b5067ffffffffffffffff9060443582811161082b5761179e9036908601612b86565b5060643582811161082b576117b69036908601612b86565b5060843591821161022857506020926117d191369101612bed565b50517fbc197c81000000000000000000000000000000000000000000000000000000008152f35b839150346102dc57826003193601126102dc5760209250549051908152f35b82843461082b57602092836003193601126102dc578360ff6024611839612ac6565b6001600160a01b03600754168651958694859363b20f8e7f60e01b855216908301525afa9283156118a05792611871575b5051908152f35b9091508281813d8311611899575b6118898183612b64565b810103126106cf5751908361186a565b503d61187f565b8251903d90823e3d90fd5b90503461082b5760e036600319011261082b576118c6612ac6565b916024938435916084359360ff958686168096036106cf5786906118f18260075460a81c1615612c88565b16600391611900838310612cd3565b61190b861515612d1e565b338452602096600988528886862054161561219f575b8496855b8a81168681101561196757858103611947575b5061194290612df2565b611925565b6119429199611960918952600a8c528989205490612e19565b9890611938565b505092939195985093989564746a52880090810180911161218d5761199a6119a291858c52600a8a528a8c205490612e26565b831115612e33565b8751936119ae85612b48565b81855260603689870137826119c38587612eb0565b526119f86001600160a01b039589898c828b8b6007541692519687948593849363782d085b60e01b8552840152820187612ec4565b03915afa91821561089f578c9261215e575b50611a168c8313612ef8565b61019080830290838204148315171561214c57906127108d94939204611a3c8184612e19565b9060011c936005928a84541691823b15612148578f928e60e48f8b8094885196879586947fd505accf0000000000000000000000000000000000000000000000000000000086523390860152309085015260443560448501526064356064850152608484015260a43560a484015260c43560c48401525af1801561213e578f918991612120575b5050611b0c92938d8d875416908a87518097819582946323b872dd60e01b84523090339085016040919493929460608201956001600160a01b0380921683521660208201520152565b03925af1948515612116578e611b2e8e97611b6b958b916120f9575b50612f5b565b818d8088541690600754168b885180988195829463095ea7b360e01b9e8f85528401602090939291936001600160a01b0360408201951681520152565b03925af19384156120f0578f938f8f908f611b91611bb6998e9586916114fc5750612fa6565b60075416948451988997889687956315bd761160e01b87528601526044850190612ec4565b9183015203925af1958d87156120e7578b8e8e94899a6120ad575b508c60065416948d8754169454908a85519463856296f760e01b865285015283015260018c1b604483015281606481875afa9283156120a3578f91899461206d575b508d611c468451958693849363039dd75360e41b85528401602090939291936001600160a01b0360408201951681520152565b0381865afa918215612063578e918d91899461202a575b5051627eeac760e11b815230918101918252602082018490529190829081906040015b0381865afa801561201f5789918891611fe8575b5090611ca1911015612ff1565b813b15610cf3578d51637921219560e11b815230818d0190815233602082015260408101929092526060820189905260a060808301819052600090830152918e918791849182908490829060c00103925af18015611480578a8e928d89958994611fc9575b5094611d3e958388541693600254169251968795869485938c85528401602090939291936001600160a01b0360408201951681520152565b03925af18015611fbf57611d58918691611fa25750613062565b876002541691823b15610d67578c9085858d8d838651988994859363e574831560e01b85528401525af1928315611f9857868b8f959288978f94611f74575b50541692611dca8d83541695519788968795869485528401602090939291936001600160a01b0360408201951681520152565b03925af1801561139b57611de4918491611f5757506130ad565b8582541690813b156102dc5782918983928d51948593849263fe80d50960e01b84528d8401525af1801561137457611f43575b50839052600a8752878920611e2d828254612e19565b90558751918252868201527f58d1b6a27802b679fdc085f457b7699ca7b334df2e9f26f1bf92773f0810a3a2873392a3600754169184519063b20f8e7f60e01b92838352878184015285838381885afa928315610753578893611f14575086519184835260018284015286838281895afa94851561071a5787938a966106e5575060029495968951958694859384528301525afa9384156106db57869461068457505061067e7f893ac9c513b4380780f867c7b8bd044b0c9868ae211e7b5c6daaa79c936e4dbe936001549551938493846040919493926060820195825260208201520152565b9092508581813d8311611f3c575b611f2c8183612b64565b810103126106cf575191386105f2565b503d611f22565b611f4c90612b02565b610d75578838611e17565b611f6e91508b3d8d116107c4576107b68183612b64565b3861122a565b93509650509250611f86919350612b02565b610cd1578b8b918a868b879638611d97565b82513d88823e3d90fd5b611fb991508d803d106107c4576107b68183612b64565b3861119e565b8d513d87823e3d90fd5b9350505050611fd89150612b02565b610cd157838b848a8f8d38611d06565b975050508c86813d8311612018575b6120018183612b64565b810103126106cf57611ca18f968990519091611c94565b503d611ff7565b508e513d88823e3d90fd5b98505050905085813d831161205c575b6120448183612b64565b810103126106cf5793518d94908c8b8f611c80611c5d565b503d61203a565b81513d89823e3d90fd5b98509250905086813d831161209c575b6120878183612b64565b810103126106cf578d8f968e90519238611c13565b503d61207d565b82513d8a823e3d90fd5b995093505050945085813d83116120e0575b6120c98183612b64565b810103126106cf57898d948d8b8e98519838611bd1565b503d6120bf565b513d87823e3d90fd5b513d89823e3d90fd5b6121109150833d85116107c4576107b68183612b64565b38611b28565b83513d89823e3d90fd5b909294935061212f9150612b02565b610cf357908d908d8738611ac3565b83513d8a823e3d90fd5b8780fd5b898d60118b634e487b7160e01b835252fd5b9091508981813d8311612186575b6121768183612b64565b810103126106cf57519038611a0a565b503d61216c565b868a601188634e487b7160e01b835252fd5b6121a833612d69565b33855260098852858520805460ff19166001179055611921565b82843461082b578160031936011261082b576020906001549051908152f35b82843461082b578160031936011261082b576001600160a01b0360209254169051908152f35b8234610228578060031936011261022857612220612c44565b60006001600160a01b03815473ffffffffffffffffffffffffffffffffffffffff1981168355167f8be0079c531659141344cd1fd0a4f28419497f9722a3daafe3b4186f6b6457e08280a380f35b82843461082b578160031936011261082b576020906001600160a01b03600254169051908152f35b82843461082b578160031936011261082b576020906001600160a01b03600654169051908152f35b82843461082b578060031936011261082b576123356122db612ac6565b82516122e681612b48565b6003815260209586926060368585013761230660ff602435921684612eb0565b52826001600160a01b03600754169186519586948593849363782d085b60e01b85528401526024830190612ec4565b03915afa9283156118a05792611871575051908152f35b82843461082b57602036600319011261082b5760ff816020936001600160a01b03612375612ad6565b1681526009855220541690519015158152f35b82843461082b578160031936011261082b576020906001600160a01b03600554169051908152f35b839150346102dc5760203660031901126102dc57359160085483101561022857506001600160a01b0360209260086000527ff3f7a9fe364faab93b216da50a3214154f22a0a2b415b23a84c8169e8b636ee30154169051908152f35b839150346102dc57826003193601126102dc5760075460ff8160a81c16156129215760ff60019160b01c161b82519161244483612b2c565b600183526020918236818601378061245b85612ea3565b526001600160a01b0380600654168160055416906003549388519063856296f760e01b82528a878301526024958683015260448201528681606481855afa80156107cb5787918b916128f0575b50895163039dd75360e41b81526001600160a01b039094168785019081526020810191909152839081906040015b0381845afa91821561071a5789926128c1575b508751627eeac760e11b815233868201908152602081018490529091908790839081906040010381845afa9182156107cb578a92612892575b50811561282b5790818a923b156102dc5761258593838b51809681958294637921219560e11b8452308d33908601929060c094926001600160a01b0380921685521660208401526040830152606082015260a06080820152600060a08201520190565b03925af1801561075357612818575b50806005541690878751966370a0823160e01b9384895230878a015287898781845afa98891561280e5783996127db575b50836006541660035490803b15610d67578492838a6125f68f5197889687958694626dc0df60e21b8652850161314b565b03925af180156127d1576127bd575b505060055416948651918252308483015284828481895afa801561075357889061278e575b6126349250612e26565b93841561272757838651809263a9059cbb60e01b8252818a816126708b338b8401602090939291936001600160a01b0360408201951681520152565b03925af190811561271d578791612700575b50156126c05750507f810c0a3d2e7f4765a144ddb7039e632b1abd74268600d3f570c128cb7b6a09b69060ff60075460b01c1693519283523392a380f35b601c9060649386519362461bcd60e51b85528401528201527f55534443207472616e7366657220746f2075736572206661696c6564000000006044820152fd5b6127179150843d86116107c4576107b68183612b64565b87612682565b86513d89823e3d90fd5b5060259060849386519362461bcd60e51b85528401528201527f526564656d7074696f6e206661696c65642c206e6f207061796f75742072656360448201527f65697665640000000000000000000000000000000000000000000000000000006064820152fd5b508482813d83116127b6575b6127a48183612b64565b810103126106cf57612634915161262a565b503d61279a565b6127c690612b02565b612148578789612605565b89513d84823e3d90fd5b8880929a508194503d8311612807575b6127f58183612b64565b810103126106cf57899151978b6125c5565b503d6127eb565b8a513d85823e3d90fd5b61282490979197612b02565b9587612594565b6084866023878a8d519362461bcd60e51b85528401528201527f4e6f2077696e6e696e67206f7574636f6d6520746f6b656e7320746f2072656460448201527f65656d00000000000000000000000000000000000000000000000000000000006064820152fd5b9091508681813d83116128ba575b6128aa8183612b64565b8101031261081b5751908a612522565b503d6128a0565b9091508581813d83116128e9575b6128d98183612b64565b81010312610d75575190896124e9565b503d6128cf565b82819392503d831161291a575b6129078183612b64565b8101031261081b575186906124d66124a8565b503d6128fd565b506020606492519162461bcd60e51b8352820152601360248201527f4d61726b6574206e6f74207265736f6c766564000000000000000000000000006044820152fd5b82843461082b57602036600319011261082b578060209260ff612985612ac6565b168152600a845220549051908152f35b82843461082b578160031936011261082b576020906003549051908152f35b82843461082b578160031936011261082b576020906001600160a01b03600754169051908152f35b82843461082b578160031936011261082b5760209060ff60075460b01c169051908152f35b82843461082b578160031936011261082b5760209060ff60075460a01c1690519015158152f35b9150346102dc5760203660031901126102dc57357fffffffff0000000000000000000000000000000000000000000000000000000081168091036102dc57602092507f4e2312e0000000000000000000000000000000000000000000000000000000008114908115612a9c575b5015158152f35b7f01ffc9a70000000000000000000000000000000000000000000000000000000091501483612a95565b6004359060ff821682036106cf57565b600435906001600160a01b03821682036106cf57565b602435906001600160a01b03821682036106cf57565b67ffffffffffffffff8111612b1657604052565b634e487b7160e01b600052604160045260246000fd5b6040810190811067ffffffffffffffff821117612b1657604052565b6080810190811067ffffffffffffffff821117612b1657604052565b90601f8019910116810190811067ffffffffffffffff821117612b1657604052565b9080601f830112156106cf5781359067ffffffffffffffff8211612b16578160051b60405193602093612bbb85840187612b64565b855283808601928201019283116106cf578301905b828210612bde575050505090565b81358152908301908301612bd0565b81601f820112156106cf5780359067ffffffffffffffff8211612b165760405192612c22601f8401601f191660200185612b64565b828452602083830101116106cf57816000926020809301838601378301015290565b6001600160a01b03600054163303612c5857565b60246040517f118cdaa7000000000000000000000000000000000000000000000000000000008152336004820152fd5b15612c8f57565b606460405162461bcd60e51b815260206004820152601760248201527f4d61726b657420616c7265616479207265736f6c7665640000000000000000006044820152fd5b15612cda57565b606460405162461bcd60e51b815260206004820152600f60248201527f496e76616c6964206f7574636f6d6500000000000000000000000000000000006044820152fd5b15612d2557565b606460405162461bcd60e51b815260206004820152602060248201527f416d6f756e74206d7573742062652067726561746572207468616e207a65726f6044820152fd5b60085468010000000000000000811015612b16576001810180600855811015612ddc576001600160a01b039060086000527ff3f7a9fe364faab93b216da50a3214154f22a0a2b415b23a84c8169e8b636ee301911673ffffffffffffffffffffffffffffffffffffffff19825416179055565b634e487b7160e01b600052603260045260246000fd5b60ff1660ff8114612e035760010190565b634e487b7160e01b600052601160045260246000fd5b91908201809211612e0357565b91908203918211612e0357565b15612e3a57565b608460405162461bcd60e51b8152602060048201526024808201527f4265742065786365656473206d6178696d756d20616c6c6f7761626c6520616d60448201527f6f756e74000000000000000000000000000000000000000000000000000000006064820152fd5b805115612ddc5760200190565b8051821015612ddc5760209160051b010190565b90815180825260208080930193019160005b828110612ee4575050505090565b835185529381019392810192600101612ed6565b15612eff57565b606460405162461bcd60e51b815260206004820152601260248201527f496e76616c696420747261646520636f737400000000000000000000000000006044820152fd5b908160209103126106cf575180151581036106cf5790565b15612f6257565b606460405162461bcd60e51b815260206004820152601360248201527f7472616e7366657246726f6d206661696c6564000000000000000000000000006044820152fd5b15612fad57565b606460405162461bcd60e51b815260206004820152601d60248201527f617070726f766520746f206d61726b65744d616b6572206661696c65640000006044820152fd5b15612ff857565b608460405162461bcd60e51b815260206004820152602260248201527f4e6f7420656e6f756768206f7574636f6d6520746f6b656e732072656365697660448201527f65640000000000000000000000000000000000000000000000000000000000006064820152fd5b1561306957565b606460405162461bcd60e51b815260206004820152601f60248201527f417070726f766520746f204c6971756964697479506f6f6c206661696c6564006044820152fd5b156130b457565b608460405162461bcd60e51b815260206004820152602560248201527f417070726f766520746f206f776e65722f4d61726b6574466163746f7279206660448201527f61696c65640000000000000000000000000000000000000000000000000000006064820152fd5b7f80000000000000000000000000000000000000000000000000000000000000008114612e035760000390565b916001600160a01b03608084019216835260a0602093849260008483015260408201526080606082015285518094520193019160005b82811061318f575050505090565b83518552938101939281019260010161318156fea26469706673582212204352b32a50db0b2f7210e81e12441b62d4c28fc9ec6107ccfdc2de04ff7d26c864736f6c63430008140033",
  "linkReferences": {},
  "deployedLinkReferences": {}
}