{
  "_format": "hh-sol-artifact-1",
  "contractName": "TournamentMarket",
  "sourceName": "contracts/TournamentMarket.sol",
  "abi": [
    {
      "inputs": [],
      "name": "InvalidInitialization",
      "type": "error"
    },
    {
      "inputs": [],
      "name": "NotInitializing",
      "type": "error"
    },
    {
      "inputs": [
        {
          "internalType": "address",
          "name": "owner",
          "type": "address"
        }
      ],
      "name": "OwnableInvalidOwner",
      "type": "error"
    },
    {
      "inputs": [
        {
          "internalType": "address",
          "name": "account",
          "type": "address"
        }
      ],
      "name": "OwnableUnauthorizedAccount",
      "type": "error"
    },
    {
      "anonymous": false,
      "inputs": [
        {
          "indexed": true,
          "internalType": "uint256",
          "name": "tournamentId",
          "type": "uint256"
        },
        {
          "indexed": true,
          "internalType": "uint256",
          "name": "matchId",
          "type": "uint256"
        },
        {
          "indexed": false,
          "internalType": "bool",
          "name": "isRoundFinal",
          "type": "bool"
        },
        {
          "indexed": false,
          "internalType": "bool",
          "name": "isTournamentFinal",
          "type": "bool"
        }
      ],
      "name": "FixtureAdded",
      "type": "event"
    },
    {
      "anonymous": false,
      "inputs": [
        {
          "indexed": false,
          "internalType": "uint64",
          "name": "version",
          "type": "uint64"
        }
      ],
      "name": "Initialized",
      "type": "event"
    },
    {
      "anonymous": false,
      "inputs": [
        {
          "indexed": true,
          "internalType": "uint256",
          "name": "tournamentId",
          "type": "uint256"
        },
        {
          "indexed": true,
          "internalType": "uint8",
          "name": "outcome",
          "type": "uint8"
        }
      ],
      "name": "MarketResolved",
      "type": "event"
    },
    {
      "anonymous": false,
      "inputs": [
        {
          "indexed": true,
          "internalType": "uint256",
          "name": "tournamentId",
          "type": "uint256"
        },
        {
          "indexed": true,
          "internalType": "uint256",
          "name": "matchId",
          "type": "uint256"
        },
        {
          "indexed": false,
          "internalType": "uint8",
          "name": "apiOutcome",
          "type": "uint8"
        },
        {
          "indexed": false,
          "internalType": "uint8",
          "name": "winnerIndex",
          "type": "uint8"
        }
      ],
      "name": "MatchResultRecorded",
      "type": "event"
    },
    {
      "anonymous": false,
      "inputs": [
        {
          "indexed": true,
          "internalType": "uint256",
          "name": "tournamentId",
          "type": "uint256"
        },
        {
          "indexed": false,
          "internalType": "uint256[]",
          "name": "marginalPrices",
          "type": "uint256[]"
        }
      ],
      "name": "OddsUpdated",
      "type": "event"
    },
    {
      "anonymous": false,
      "inputs": [
        {
          "indexed": true,
          "internalType": "address",
          "name": "previousOwner",
          "type": "address"
        },
        {
          "indexed": true,
          "internalType": "address",
          "name": "newOwner",
          "type": "address"
        }
      ],
      "name": "OwnershipTransferred",
      "type": "event"
    },
    {
      "anonymous": false,
      "inputs": [
        {
          "indexed": true,
          "internalType": "uint256",
          "name": "tournamentId",
          "type": "uint256"
        },
        {
          "indexed": true,
          "internalType": "address",
          "name": "redeemer",
          "type": "address"
        },
        {
          "indexed": true,
          "internalType": "uint8",
          "name": "outcome",
          "type": "uint8"
        },
        {
          "indexed": false,
          "internalType": "uint256",
          "name": "amount",
          "type": "uint256"
        }
      ],
      "name": "PayoutRedeemed",
      "type": "event"
    },
    {
      "anonymous": false,
      "inputs": [
        {
          "indexed": true,
          "internalType": "uint256",
          "name": "tournamentId",
          "type": "uint256"
        },
        {
          "indexed": true,
          "internalType": "address",
          "name": "buyer",
          "type": "address"
        },
        {
          "indexed": true,
          "internalType": "uint8",
          "name": "outcome",
          "type": "uint8"
        },
        {
          "indexed": false,
          "internalType": "uint256",
          "name": "shares",
          "type": "uint256"
        },
        {
          "indexed": false,
          "internalType": "int256",
          "name": "cost",
          "type": "int256"
        }
      ],
      "name": "SharesPurchased",
      "type": "event"
    },
    {
      "anonymous": false,
      "inputs": [
        {
          "indexed": true,
          "internalType": "uint256",
          "name": "tournamentId",
          "type": "uint256"
        },
        {
          "indexed": true,
          "internalType": "address",
          "name": "seller",
          "type": "address"
        },
        {
          "indexed": true,
          "internalType": "uint8",
          "name": "outcome",
          "type": "uint8"
        },
        {
          "indexed": false,
          "internalType": "uint256",
          "name": "shares",
          "type": "uint256"
        },
        {
          "indexed": false,
          "internalType": "int256",
          "name": "actualGain",
          "type": "int256"
        }
      ],
      "name": "SharesSold",
      "type": "event"
    },
    {
      "inputs": [],
      "name": "FEE_BPS",
      "outputs": [
        {
          "internalType": "uint256",
          "name": "",
          "type": "uint256"
        }
      ],
      "stateMutability": "view",
      "type": "function"
    },
    {
      "inputs": [],
      "name": "MAX_NET_BET",
      "outputs": [
        {
          "internalType": "uint256",
          "name": "",
          "type": "uint256"
        }
      ],
      "stateMutability": "view",
      "type": "function"
    },
    {
      "inputs": [
        {
          "internalType": "uint256",
          "name": "_matchId",
          "type": "uint256"
        },
        {
          "internalType": "bool",
          "name": "_isRoundFinal",
          "type": "bool"
        },
        {
          "internalType": "bool",
          "name": "_isTournamentFinal",
          "type": "bool"
        }
      ],
      "name": "addFixture",
      "outputs": [],
      "stateMutability": "nonpayable",
      "type": "function"
    },
    {
      "inputs": [
        {
          "internalType": "uint256",
          "name": "",
          "type": "uint256"
        }
      ],
      "name": "bettors",
      "outputs": [
        {
          "internalType": "address",
          "name": "",
          "type": "address"
        }
      ],
      "stateMutability": "view",
      "type": "function"
    },
    {
      "inputs": [
        {
          "internalType": "uint8",
          "name": "outcome",
          "type": "uint8"
        },
        {
          "internalType": "uint256",
          "name": "amount",
          "type": "uint256"
        }
      ],
      "name": "buyShares",
      "outputs": [],
      "stateMutability": "nonpayable",
      "type": "function"
    },
    {
      "inputs": [
        {
          "internalType": "uint8",
          "name": "outcome",
          "type": "uint8"
        },
        {
          "internalType": "uint256",
          "name": "amount",
          "type": "uint256"
        },
        {
          "internalType": "uint256",
          "name": "permitValue",
          "type": "uint256"
        },
        {
          "internalType": "uint256",
          "name": "permitDeadline",
          "type": "uint256"
        },
        {
          "internalType": "uint8",
          "name": "v",
          "type": "uint8"
        },
        {
          "internalType": "bytes32",
          "name": "r",
          "type": "bytes32"
        },
        {
          "internalType": "bytes32",
          "name": "s",
          "type": "bytes32"
        }
      ],
      "name": "buySharesWithPermit",
      "outputs": [],
      "stateMutability": "nonpayable",
      "type": "function"
    },
    {
      "inputs": [],
      "name": "conditionId",
      "outputs": [
        {
          "internalType": "bytes32",
          "name": "",
          "type": "bytes32"
        }
      ],
      "stateMutability": "view",
      "type": "function"
    },
    {
      "inputs": [],
      "name": "conditionalTokens",
      "outputs": [
        {
          "internalType": "contract ConditionalTokens",
          "name": "",
          "type": "address"
        }
      ],
      "stateMutability": "view",
      "type": "function"
    },
    {
      "inputs": [],
      "name": "finalMatchId",
      "outputs": [
        {
          "internalType": "uint256",
          "name": "",
          "type": "uint256"
        }
      ],
      "stateMutability": "view",
      "type": "function"
    },
    {
      "inputs": [
        {
          "internalType": "uint256",
          "name": "",
          "type": "uint256"
        }
      ],
      "name": "fixtureExists",
      "outputs": [
        {
          "internalType": "bool",
          "name": "",
          "type": "bool"
        }
      ],
      "stateMutability": "view",
      "type": "function"
    },
    {
      "inputs": [
        {
          "internalType": "uint256",
          "name": "",
          "type": "uint256"
        }
      ],
      "name": "fixtures",
      "outputs": [
        {
          "internalType": "uint256",
          "name": "matchId",
          "type": "uint256"
        },
        {
          "internalType": "bool",
          "name": "fixtureResolved",
          "type": "bool"
        },
        {
          "internalType": "uint8",
          "name": "winnerIndex",
          "type": "uint8"
        },
        {
          "internalType": "bool",
          "name": "isRoundFinal",
          "type": "bool"
        },
        {
          "internalType": "bool",
          "name": "isTournamentFinal",
          "type": "bool"
        }
      ],
      "stateMutability": "view",
      "type": "function"
    },
    {
      "inputs": [],
      "name": "getBettors",
      "outputs": [
        {
          "internalType": "address[]",
          "name": "",
          "type": "address[]"
        }
      ],
      "stateMutability": "view",
      "type": "function"
    },
    {
      "inputs": [],
      "name": "getConditionId",
      "outputs": [
        {
          "internalType": "bytes32",
          "name": "",
          "type": "bytes32"
        }
      ],
      "stateMutability": "view",
      "type": "function"
    },
    {
      "inputs": [
        {
          "internalType": "uint256",
          "name": "arrayIndex",
          "type": "uint256"
        }
      ],
      "name": "getFixture",
      "outputs": [
        {
          "internalType": "uint256",
          "name": "matchId",
          "type": "uint256"
        },
        {
          "internalType": "bool",
          "name": "fixtureResolved",
          "type": "bool"
        },
        {
          "internalType": "uint8",
          "name": "winnerIndex",
          "type": "uint8"
        },
        {
          "internalType": "bool",
          "name": "isRoundFinal",
          "type": "bool"
        },
        {
          "internalType": "bool",
          "name": "isTournamentFinal",
          "type": "bool"
        }
      ],
      "stateMutability": "view",
      "type": "function"
    },
    {
      "inputs": [],
      "name": "getFixtureCount",
      "outputs": [
        {
          "internalType": "uint256",
          "name": "",
          "type": "uint256"
        }
      ],
      "stateMutability": "view",
      "type": "function"
    },
    {
      "inputs": [
        {
          "internalType": "uint8",
          "name": "outcome",
          "type": "uint8"
        }
      ],
      "name": "getMarginalPrice",
      "outputs": [
        {
          "internalType": "uint256",
          "name": "",
          "type": "uint256"
        }
      ],
      "stateMutability": "view",
      "type": "function"
    },
    {
      "inputs": [
        {
          "internalType": "uint8",
          "name": "outcome",
          "type": "uint8"
        },
        {
          "internalType": "int256",
          "name": "amount",
          "type": "int256"
        }
      ],
      "name": "getNetCost",
      "outputs": [
        {
          "internalType": "int256",
          "name": "",
          "type": "int256"
        }
      ],
      "stateMutability": "view",
      "type": "function"
    },
    {
      "inputs": [],
      "name": "getQuestionId",
      "outputs": [
        {
          "internalType": "bytes32",
          "name": "",
          "type": "bytes32"
        }
      ],
      "stateMutability": "view",
      "type": "function"
    },
    {
      "inputs": [],
      "name": "getTotalTeams",
      "outputs": [
        {
          "internalType": "uint256",
          "name": "",
          "type": "uint256"
        }
      ],
      "stateMutability": "view",
      "type": "function"
    },
    {
      "inputs": [
        {
          "internalType": "uint256",
          "name": "teamId",
          "type": "uint256"
        }
      ],
      "name": "getWinnerIndex",
      "outputs": [
        {
          "internalType": "uint8",
          "name": "",
          "type": "uint8"
        }
      ],
      "stateMutability": "view",
      "type": "function"
    },
    {
      "inputs": [
        {
          "internalType": "uint256",
          "name": "_tournamentId",
          "type": "uint256"
        },
        {
          "internalType": "uint256[]",
          "name": "_teamIds",
          "type": "uint256[]"
        },
        {
          "internalType": "bytes32",
          "name": "_questionId",
          "type": "bytes32"
        },
        {
          "internalType": "bytes32",
          "name": "_conditionId",
          "type": "bytes32"
        },
        {
          "internalType": "address",
          "name": "_marketMaker",
          "type": "address"
        },
        {
          "internalType": "address",
          "name": "_liquidityPool",
          "type": "address"
        },
        {
          "internalType": "address",
          "name": "_usdc",
          "type": "address"
        },
        {
          "internalType": "address",
          "name": "_conditionalTokens",
          "type": "address"
        }
      ],
      "name": "initializeMarket",
      "outputs": [],
      "stateMutability": "nonpayable",
      "type": "function"
    },
    {
      "inputs": [
        {
          "internalType": "address",
          "name": "",
          "type": "address"
        }
      ],
      "name": "isBettor",
      "outputs": [
        {
          "internalType": "bool",
          "name": "",
          "type": "bool"
        }
      ],
      "stateMutability": "view",
      "type": "function"
    },
    {
      "inputs": [],
      "name": "isInitialized",
      "outputs": [
        {
          "internalType": "bool",
          "name": "",
          "type": "bool"
        }
      ],
      "stateMutability": "view",
      "type": "function"
    },
    {
      "inputs": [],
      "name": "isResolved",
      "outputs": [
        {
          "internalType": "bool",
          "name": "",
          "type": "bool"
        }
      ],
      "stateMutability": "view",
      "type": "function"
    },
    {
      "inputs": [
        {
          "internalType": "uint256",
          "name": "_matchId",
          "type": "uint256"
        }
      ],
      "name": "isRoundFinalMatch",
      "outputs": [
        {
          "internalType": "bool",
          "name": "",
          "type": "bool"
        }
      ],
      "stateMutability": "view",
      "type": "function"
    },
    {
      "inputs": [
        {
          "internalType": "uint256",
          "name": "_matchId",
          "type": "uint256"
        }
      ],
      "name": "isTournamentFinalMatch",
      "outputs": [
        {
          "internalType": "bool",
          "name": "",
          "type": "bool"
        }
      ],
      "stateMutability": "view",
      "type": "function"
    },
    {
      "inputs": [],
      "name": "liquidityPool",
      "outputs": [
        {
          "internalType": "contract ILiquidityPool",
          "name": "",
          "type": "address"
        }
      ],
      "stateMutability": "view",
      "type": "function"
    },
    {
      "inputs": [],
      "name": "marketMaker",
      "outputs": [
        {
          "internalType": "contract LMSRMarketMaker",
          "name": "",
          "type": "address"
        }
      ],
      "stateMutability": "view",
      "type": "function"
    },
    {
      "inputs": [
        {
          "internalType": "uint256",
          "name": "",
          "type": "uint256"
        }
      ],
      "name": "matchIdToIndex",
      "outputs": [
        {
          "internalType": "uint256",
          "name": "",
          "type": "uint256"
        }
      ],
      "stateMutability": "view",
      "type": "function"
    },
    {
      "inputs": [
        {
          "internalType": "address",
          "name": "",
          "type": "address"
        },
        {
          "internalType": "address",
          "name": "",
          "type": "address"
        },
        {
          "internalType": "uint256[]",
          "name": "",
          "type": "uint256[]"
        },
        {
          "internalType": "uint256[]",
          "name": "",
          "type": "uint256[]"
        },
        {
          "internalType": "bytes",
          "name": "",
          "type": "bytes"
        }
      ],
      "name": "onERC1155BatchReceived",
      "outputs": [
        {
          "internalType": "bytes4",
          "name": "",
          "type": "bytes4"
        }
      ],
      "stateMutability": "nonpayable",
      "type": "function"
    },
    {
      "inputs": [
        {
          "internalType": "address",
          "name": "",
          "type": "address"
        },
        {
          "internalType": "address",
          "name": "",
          "type": "address"
        },
        {
          "internalType": "uint256",
          "name": "",
          "type": "uint256"
        },
        {
          "internalType": "uint256",
          "name": "",
          "type": "uint256"
        },
        {
          "internalType": "bytes",
          "name": "",
          "type": "bytes"
        }
      ],
      "name": "onERC1155Received",
      "outputs": [
        {
          "internalType": "bytes4",
          "name": "",
          "type": "bytes4"
        }
      ],
      "stateMutability": "nonpayable",
      "type": "function"
    },
    {
      "inputs": [],
      "name": "owner",
      "outputs": [
        {
          "internalType": "address",
          "name": "",
          "type": "address"
        }
      ],
      "stateMutability": "view",
      "type": "function"
    },
    {
      "inputs": [],
      "name": "questionId",
      "outputs": [
        {
          "internalType": "bytes32",
          "name": "",
          "type": "bytes32"
        }
      ],
      "stateMutability": "view",
      "type": "function"
    },
    {
      "inputs": [
        {
          "internalType": "uint256",
          "name": "_matchId",
          "type": "uint256"
        },
        {
          "internalType": "uint8",
          "name": "apiOutcome",
          "type": "uint8"
        },
        {
          "internalType": "uint256",
          "name": "homeId",
          "type": "uint256"
        },
        {
          "internalType": "uint256",
          "name": "awayId",
          "type": "uint256"
        }
      ],
      "name": "recordMatchResult",
      "outputs": [],
      "stateMutability": "nonpayable",
      "type": "function"
    },
    {
      "inputs": [],
      "name": "redeemPayouts",
      "outputs": [],
      "stateMutability": "nonpayable",
      "type": "function"
    },
    {
      "inputs": [],
      "name": "renounceOwnership",
      "outputs": [],
      "stateMutability": "nonpayable",
      "type": "function"
    },
    {
      "inputs": [
        {
          "internalType": "uint8",
          "name": "outcomeIndex",
          "type": "uint8"
        }
      ],
      "name": "resolveMarket",
      "outputs": [],
      "stateMutability": "nonpayable",
      "type": "function"
    },
    {
      "inputs": [],
      "name": "resolvedFixturesCount",
      "outputs": [
        {
          "internalType": "uint256",
          "name": "",
          "type": "uint256"
        }
      ],
      "stateMutability": "view",
      "type": "function"
    },
    {
      "inputs": [
        {
          "internalType": "uint8",
          "name": "outcome",
          "type": "uint8"
        },
        {
          "internalType": "uint256",
          "name": "amount",
          "type": "uint256"
        }
      ],
      "name": "sellShares",
      "outputs": [],
      "stateMutability": "nonpayable",
      "type": "function"
    },
    {
      "inputs": [
        {
          "internalType": "bytes4",
          "name": "interfaceId",
          "type": "bytes4"
        }
      ],
      "name": "supportsInterface",
      "outputs": [
        {
          "internalType": "bool",
          "name": "",
          "type": "bool"
        }
      ],
      "stateMutability": "view",
      "type": "function"
    },
    {
      "inputs": [
        {
          "internalType": "uint256",
          "name": "",
          "type": "uint256"
        }
      ],
      "name": "teamIdToPosition",
      "outputs": [
        {
          "internalType": "uint8",
          "name": "",
          "type": "uint8"
        }
      ],
      "stateMutability": "view",
      "type": "function"
    },
    {
      "inputs": [
        {
          "internalType": "uint256",
          "name": "",
          "type": "uint256"
        }
      ],
      "name": "teamIds",
      "outputs": [
        {
          "internalType": "uint256",
          "name": "",
          "type": "uint256"
        }
      ],
      "stateMutability": "view",
      "type": "function"
    },
    {
      "inputs": [],
      "name": "totalTeams",
      "outputs": [
        {
          "internalType": "uint8",
          "name": "",
          "type": "uint8"
        }
      ],
      "stateMutability": "view",
      "type": "function"
    },
    {
      "inputs": [
        {
          "internalType": "uint8",
          "name": "",
          "type": "uint8"
        }
      ],
      "name": "totalWageredPerOutcome",
      "outputs": [
        {
          "internalType": "uint256",
          "name": "",
          "type": "uint256"
        }
      ],
      "stateMutability": "view",
      "type": "function"
    },
    {
      "inputs": [],
      "name": "tournamentId",
      "outputs": [
        {
          "internalType": "uint256",
          "name": "",
          "type": "uint256"
        }
      ],
      "stateMutability": "view",
      "type": "function"
    },
    {
      "inputs": [
        {
          "internalType": "address",
          "name": "newOwner",
          "type": "address"
        }
      ],
      "name": "transferOwnership",
      "outputs": [],
      "stateMutability": "nonpayable",
      "type": "function"
    },
    {
      "inputs": [],
      "name": "usdc",
      "outputs": [
        {
          "internalType": "contract IERC20",
          "name": "",
          "type": "address"
        }
      ],
      "stateMutability": "view",
      "type": "function"
    },
    {
      "inputs": [],
      "name": "winningOutcome",
      "outputs": [
        {
          "internalType": "uint8",
          "name": "",
          "type": "uint8"
        }
      ],
      "stateMutability": "view",
      "type": "function"
    }
  ],
  "bytecode": "0x6080806040523461001657613b1d908161001c8239f35b600080fdfe608080604052600436101561001357600080fd5b600090813560e01c90816301ffc9a71461324b575080631c3421041461322d5780631f21f9af14613204578063253619c61461318f57806326dcfd37146131da5780632b6a9200146131ad5780632ddc7de71461318f5780632dfc8ee91461315d578063326209b414612cdb5780633482b64414612c91578063392e53cd14612c6b5780633e413bee14612c425780633f1cfdc614612c24578063429c2ed714612be557806354d0940d14612bc8578063591e791c14612b3f5780635bd9e29914612b165780635dae8c8d1461158257806363f8abcc14612ae7578063654c6daf14612188578063665a11ca14612abe5780636697262c1461273557806367bfef67146126c25780636bc01b361461267b578063715018a6146126225780637af37c05146121e257806388cbd000146121a95780638c20cad0146121885780638da5cb5b146121525780639a9f784614611f475780639b34ae0314611f23578063a2e3215c146116bc578063a5b679c21461163a578063aaafcf7f146115a0578063b06a5c5214611582578063bc197c81146114f9578063bf333f2c146114dc578063c6cd35de14611488578063cd5c843314611468578063d341295d1461144a578063dbb3f53714611424578063dd9089aa14610c79578063f21ffa6b14610924578063f23a6e61146108ca578063f2ccb39714610325578063f2fde38b146102f8578063f809ab43146102db5763ffd4493c1461023157600080fd5b346102d857806003193601126102d8576040518091600a549081835260208093018092600a835284832090835b8181106102bb5750505084610274910385613370565b60405193838594850191818652518092526040850193925b82811061029b57505050500390f35b83516001600160a01b03168552869550938101939281019260010161028c565b82546001600160a01b03168452928601926001928301920161025e565b80fd5b50346102d857806003193601126102d85760209054604051908152f35b50346102d85760203660031901126102d8576103226103156132e1565b61031d61345e565b613497565b80f35b50346102d85760403660031901126102d85761033f6132a0565b906024918235906009549061036960ff8361035f82809660a01c1661355f565b60a81c161561359d565b600194828087541692169061037f8383106135db565b61038a851515613615565b60018060a01b0391826007541695836006541696600554956040519663856296f760e01b88528a6004890152858801528a841b60448801526020968781606481865afa9081156106b1578b9161089b575b5060405163039dd75360e41b81529988918b9182916103fd916004840161384e565b0381855afa98891561078c578a9961086c575b50604051627eeac760e11b815287818061042e8d336004840161384e565b0381865afa9081156106b1579084918c9161083b575b50106108015761045390613710565b9061045d8361395e565b610467858461374f565b5285600854169887604051809b63782d085b60e01b825282600483015281806104928b820189613763565b03915afa998a156106b1578b9a6107d2575b508a8a121561079b57813b1561079757836104da928c9283604051809681958294637921219560e11b84523033600486016138a6565b03925af1801561078c578792918b9161076f575b505061051f908660085416908b604051809c819582946315bd761160e01b8452604060048501526044840190613763565b908a83015203925af1968715610764578897610735575b508785610567866006541661054a8b61395e565b60405194858094819363a9059cbb60e01b8352336004840161384e565b03925af190811561072a5789916106fd575b50156106c25761058c879994969961395e565b828952600c86526105a260408a209182546136ab565b90556105af88549761395e565b60405191825285820152867f0f13b83d52a44f453a59830044e922b8d4010375e70fb179f650ab6ce5d95f1060403393a48187815416976105ef89613710565b95889060085416925b61062a575b8888600080516020613ab18339815191528989610624604051928284938452830190613763565b0390a280f35b818116908a8210156106bc5760405163b20f8e7f60e01b8152600481018390529187838781885afa9283156106b1578b9361067b575b509161066f610675938a61374f565b526134f9565b846105f8565b92508783813d83116106aa575b6106928183613370565b810103126106a55791519161066f610660565b600080fd5b503d610688565b6040513d8d823e3d90fd5b506105fd565b60405162461bcd60e51b815260048101869052601481850152731554d110c81d1c985b9cd9995c8819985a5b195960621b6044820152606490fd5b61071d9150863d8811610723575b6107158183613370565b8101906137d2565b38610579565b503d61070b565b6040513d8b823e3d90fd5b9096508481813d831161075d575b61074d8183613370565b810103126106a557519538610536565b503d610743565b6040513d8a823e3d90fd5b61077b9192935061332c565b61078857859089386104ee565b8880fd5b6040513d8c823e3d90fd5b8a80fd5b60405162461bcd60e51b8152600481018990526010818801526f4e6f206761696e20706f737369626c6560801b6044820152606490fd5b9099508781813d83116107fa575b6107ea8183613370565b810103126106a5575198386104a4565b503d6107e0565b60405162461bcd60e51b81526004810188905260138187015272496e73756666696369656e7420746f6b656e7360681b6044820152606490fd5b809250898092503d8311610865575b6108548183613370565b810103126106a55783905138610444565b503d61084a565b9098508681813d8311610894575b6108848183613370565b810103126106a557519738610410565b503d61087a565b90508781813d83116108c3575b6108b28183613370565b810103126106a557516103fd6103db565b503d6108a8565b50346102d85760a03660031901126102d8576108e46132e1565b506108ed6132f7565b506084356001600160401b0381116109205761090d903690600401613408565b5060405163f23a6e6160e01b8152602090f35b5080fd5b50346102d85760208060031936011261092057816109406132a0565b9161094961345e565b6009549261095c60ff8560a01c1661355f565b61096c60ff8560a81c1615613985565b60ff600154169361098260ff83169586106135db565b61ffff60a81b191660b09190911b60ff60b01b1617600160a81b176009556008546001600160a01b0391908216803b15610be1578380916004604051809481936321eb936b60e11b83525af1908115610c56578491610c65575b50506040516109ea81613355565b600181528136818301376001851b610a0182613742565b5282600754169083600654169060055492803b15610c6157610a3c9387809460405196879586948593626dc0df60e21b855260048501613a02565b03925af1908115610c56578491610c42575b50506006546040516370a0823160e01b8152306004820152919083168183602481845afa928315610c03578593610c0e575b508183610aa99286600954168860405180968195829463095ea7b360e01b84526004840161384e565b03925af18015610c0357610be5575b5050816009541690813b15610be1578391602483926040519485938492634410462760e01b845260048401525af1908115610bc2578391610bcd575b50508060095416803b15610baa578280916024604051809481936314a93dc160e11b83523060048401525af1908115610bc2578391610bae575b5050600080516020613a7183398151915254168154813b15610baa578291602483926040519485938492630355a55360e31b845260048401525af18015610b9f57610b8b575b5054600080516020613a318339815191528380a380f35b610b949061332c565b610920578138610b74565b6040513d84823e3d90fd5b8280fd5b610bb79061332c565b610920578138610b2e565b6040513d85823e3d90fd5b610bd69061332c565b610920578138610af4565b8380fd5b81610bfb92903d10610723576107158183613370565b503880610ab8565b6040513d87823e3d90fd5b945091508084813d8111610c3b575b610c278183613370565b810103126106a55792518593909181610a80565b503d610c1d565b610c4b9061332c565b610baa578238610a4e565b6040513d86823e3d90fd5b8680fd5b610c6e9061332c565b610baa5782386109dc565b50346102d85760403660031901126102d857610c936132a0565b60095491610cac60ff8461035f82809760a01c1661355f565b610cbd8360015416848416106135db565b610cca6024351515613615565b338152600b60205282604082205416156113ff575b80818460015416905b85811682811015610d2e578686168103610d0c575b50610d07906134f9565b610ce8565b610d079193610d27918652600c60205260408620549061369e565b9290610cfd565b50509064746a5288009081018091116113eb5790610d6b610d61610d70938787168652600c6020526040862054906136ab565b60243511156136b8565b613710565b602435610d7f8585168361374f565b5260085460405163782d085b60e01b815260206004820181905290929183906001600160a01b03168180610db66024820187613763565b03915afa918215610bc25783926113b7575b50610dd4838313613797565b610190908183029183830414831517156113a357836020610e2a610dfc61271086048761369e565b6006546040516323b872dd60e01b81529485936001600160a01b0390921692849283913033600485016137ea565b03925af1908115610c035790610e47918691611384575b5061380c565b60065460085460405163095ea7b360e01b81529160209183916001600160a01b039081169183918a918391610e82918c91166004840161384e565b03925af1908115610c035791610ea5610ed6926020948891611367575b50613869565b60018060a01b036008541690866040518097819582946315bd761160e01b8452604060048501526044840190613763565b90602483015203925af1918215610bc2578392611333575b5060075460065460055460405163856296f760e01b815260048101879052602481019190915260018888161b60448201526001600160a01b039283169290911690602081606481865afa9081156112775786916112ff575b5060405163039dd75360e41b81529160209183918291610f69916004840161384e565b0381855afa908115610c035785916112cd575b50813b1561129657610fad85928392604051948580948193637921219560e11b8352602435903330600486016138a6565b03925af18015610c56579084916112b9575b505060065460095460405163095ea7b360e01b8152612710840460011c92909160209183916001600160a01b039182169183918a918391611006918a91166004840161384e565b03925af1908115610c03579061102391869161129a575b506138da565b6009546001600160a01b0316803b156112965784809160246040518094819363e574831560e01b83528760048401525af18015610c0357908591611282575b5050600654600080516020613a71833981519152805490916110ba916020916001600160a01b03918216911661109c8661271089046136ab565b918960405180968195829463095ea7b360e01b84526004840161384e565b03925af190811561127757916110df612710926110f095948991611258575b5061391a565b546001600160a01b031693046136ab565b813b15610be157839160248392604051948593849263fe80d50960e01b845260048401525af18015610bc257908391611244575b505083839493168252600c6020526040822061114182825461369e565b9055828254946040519260243584526020840152169084600080516020613af183398151915260403393a481600154169261117b84613710565b60085490916001600160a01b0390911690835b858116908782101561121b5760405163b20f8e7f60e01b81526004810183905291602083602481885afa9283156112105787936111da575b509161066f6111d5938761374f565b61118e565b92506020833d602011611208575b816111f560209383613370565b810103126106a55791519161066f6111c6565b3d91506111e8565b6040513d89823e3d90fd5b8583600080516020613ab183398151915261062488604051918291602083526020830190613763565b61124d9061332c565b610920578138611124565b611271915060203d602011610723576107158183613370565b386110d9565b6040513d88823e3d90fd5b61128b9061332c565b610be1578338611062565b8480fd5b6112b3915060203d602011610723576107158183613370565b3861101d565b6112c29061332c565b610baa578238610fbf565b90506020813d6020116112f7575b816112e860209383613370565b810103126106a5575138610f7c565b3d91506112db565b90506020813d60201161132b575b8161131a60209383613370565b810103126106a55751610f69610f46565b3d915061130d565b9091506020813d60201161135f575b8161134f60209383613370565b810103126106a557519038610eee565b3d9150611342565b61137e9150853d8711610723576107158183613370565b38610e9f565b61139d915060203d602011610723576107158183613370565b38610e41565b634e487b7160e01b84526011600452602484fd5b9091506020813d6020116113e3575b816113d360209383613370565b810103126106a557519038610dc8565b3d91506113c6565b634e487b7160e01b83526011600452602483fd5b6114083361364c565b338152600b60205260408120805460ff19166001179055610cdf565b50346102d857806003193601126102d857602060ff60095460a81c166040519015158152f35b50346102d857806003193601126102d8576020600f54604051908152f35b50346102d857806003193601126102d857602060405164746a5288008152f35b50346102d85760203660031901126102d85760ff60016114cb6040602094600435808252600d87526114be8684842054166139c4565b815260118652205461330d565b50015460101c166040519015158152f35b50346102d857806003193601126102d85760206040516101908152f35b50346102d85760a03660031901126102d8576115136132e1565b5061151c6132f7565b506001600160401b03604435818111610baa5761153d9036906004016133aa565b50606435818111610baa576115569036906004016133aa565b506084359081116109205761156f903690600401613408565b5060405163bc197c8160e01b8152602090f35b50346102d857806003193601126102d8576020600454604051908152f35b50346102d857602090816003193601126102d8576115bc6132a0565b60085460405163b20f8e7f60e01b815260ff9290921660048301528390829060249082906001600160a01b03165afa91821561162e5791611601575b50604051908152f35b90508181813d8311611627575b6116188183613370565b810103126106a55751386115f8565b503d61160e565b604051903d90823e3d90fd5b50346102d85760203660031901126102d85760043590818152600360205260ff60408220541660ff6001541611156116855760408160209360ff935260038452205416604051908152f35b60405162461bcd60e51b815260206004820152600f60248201526e125b9d985b1a59081d19585b481251608a1b6044820152606490fd5b50346102d85760e03660031901126102d8576116d66132a0565b906084359060ff821682036106a5576116fb60ff60095461035f828260a01c1661355f565b61170e60ff6001541660ff8516106135db565b61171b6024351515613615565b338152600b60205260ff60408220541615611efe575b808160ff60015416905b60ff8116828110156117835760ff87168103611761575b5061175c906134f9565b61173b565b61175c919361177c918652600c60205260408620549061369e565b9290611752565b848787858764746a528800908101809111611eea5790610d6b610d616117b99360ff87168852600c6020526040882054906136ab565b6024356117c960ff85168361374f565b5260085460405163782d085b60e01b815260206004820181905290939184906001600160a01b031681806118006024820188613763565b03915afa928315610c03578593611eb6575b5061181e858413613797565b61019090818402918483041484151715611ea2578561184161271084048661369e565b6006549092906001600160a01b0316803b15610baa5782809160e46040518096819363d505accf60e01b835233600484015230602484015260ff60443598896044860152606435606486015216608484015260a43560a484015260c43560c48401525af1928315611e95578493611e7c575b505010611e3d57859260206118ed859360018060a01b0360065416906040519586809481936323b872dd60e01b83523033600485016137ea565b03925af1918215610c56576119449261190c918691611e1e575061380c565b60065460085460405163095ea7b360e01b81529360209285926001600160a01b039182169284928a928492918d91166004840161384e565b03925af1908115610c5657611965611996926020948791611e015750613869565b60018060a01b036008541690856040518098819582946315bd761160e01b8452604060048501526044840190613763565b90602483015203925af1928315610b9f578293611dca575b5060075460065460055460405163856296f760e01b8152600481018690526024810191909152600160ff88161b60448201526001600160a01b0392831692909116602082606481865afa918215610c03578592611d90575b5060405163039dd75360e41b8152929160209184918291611a2b91906004840161384e565b0381845afa918215610c56578492611d59575b50803b15610be157604051637921219560e11b81529184918391829084908290611a7190602435903330600486016138a6565b03925af1908115610bc2578391611d45575b505060065460095460405163095ea7b360e01b8152612710840460011c92909160209183916001600160a01b0391821691839189918391611aca918a91166004840161384e565b03925af18015610c5657611ae4918591611d2657506138da565b6009546001600160a01b0316803b15610be15783809160246040518094819363e574831560e01b83528760048401525af1908115610c56578491611d12575b5050600654600080516020613a718339815191528054611b7a93926020916001600160a01b039081169116611b5c8561271089046136ab565b918860405180988195829463095ea7b360e01b84526004840161384e565b03925af1908115610c03576110df61271092611b9c958891611cf3575061391a565b813b15610baa57829160248392604051948593849263fe80d50960e01b845260048401525af18015610b9f57611cdf575b505060ff82168352600c60205260408320611be982825461369e565b905560ff8354926040519260243584526020840152169082600080516020613af183398151915260403393a460ff6001541691611c2583613710565b6008546001600160a01b0316825b60ff81169086821015611cb65760405163b20f8e7f60e01b81526004810183905291602083602481875afa928315611277578693611c80575b509161066f611c7b938661374f565b611c33565b92506020833d602011611cae575b81611c9b60209383613370565b810103126106a55791519161066f611c6c565b3d9150611c8e565b8486600080516020613ab183398151915261062487604051918291602083526020830190613763565b611ce89061332c565b610baa578284611bcd565b611d0c915060203d602011610723576107158183613370565b8b6110d9565b611d1b9061332c565b610baa578287611b23565b611d3f915060203d602011610723576107158183613370565b8861101d565b611d4e9061332c565b610920578186611a83565b935090506020833d602011611d88575b81611d7660209383613370565b810103126106a5578592519087611a3e565b3d9150611d69565b94509190506020843d602011611dc2575b81611dae60209383613370565b810103126106a55792518693916020611a06565b3d9150611da1565b915091506020813d602011611df9575b81611de760209383613370565b810103126106a55783905191856119ae565b3d9150611dda565b611e189150853d8711610723576107158183613370565b8a610e9f565b611e37915060203d602011610723576107158183613370565b89610e41565b60405162461bcd60e51b815260206004820152601760248201527614195c9b5a5d08185b5bdd5b9d081d1bdbc81cdb585b1b604a1b6044820152606490fd5b611e889192935061332c565b610c6157819087896118b3565b50604051903d90823e3d90fd5b634e487b7160e01b86526011600452602486fd5b9092506020813d602011611ee2575b81611ed260209383613370565b810103126106a557519185611812565b3d9150611ec5565b634e487b7160e01b85526011600452602485fd5b611f073361364c565b338152600b60205260408120805460ff19166001179055611731565b50346102d857806003193601126102d857602060ff60095460b01c16604051908152f35b50346102d85760603660031901126102d857600435602480358015158091036106a55760443591821515908184036106a557611f8161345e565b611f9260ff60095460a01c1661355f565b848652602093600d855260ff60408820541661211e57858752600d8552604087209060ff1991600183825416179055612115575b60405160a081016001600160401b0381118282101761210057604052868152858101918883526040820160ff815260608301918783526080840193878552601054600160401b8110156120ed57806001612023920160105561330d565b9190916120da579160ff600161204f95938295518155019751151591885416911617865551168461396f565b5115159062ff000063ff00000084549251151560181b169260101b169063ffff00001916171790556010549060001982019182116120c85750916040917f8689dff692a3bab12386007d12fd6229558fbb17748c43e0924d6a8f8c53dad79386885260118652838820558654948351928352820152a380f35b634e487b7160e01b8752601160045286fd5b634e487b7160e01b8d5260048d9052878dfd5b634e487b7160e01b8d526041600452878dfd5b83634e487b7160e01b60005260416004526000fd5b85600f55611fc6565b60405162461bcd60e51b815260048101869052600d818401526c105b1c9958591e481859191959609a1b6044820152606490fd5b50346102d857806003193601126102d857600080516020613a71833981519152546040516001600160a01b039091168152602090f35b50346102d857806003193601126102d857602060ff60015416604051908152f35b50346102d85760203660031901126102d857600435906002548210156102d85760206121d4836132b0565b90546040519160031b1c8152f35b50346102d85760803660031901126102d85760043590602480359060ff8083168093036106a55761221161345e565b60099061222381835460a01c1661355f565b85855260209060118252600161223c604088205461330d565b50019081549761224e828a1615613985565b8615808015612618575b156125e9576001899a60ff9a999a19161784556000146125d15760443587526003845261228c826040892054165b8461396f565b86549254927fc966558e8a6b004dfbb4ba4f8f2af2738a1b4295768775147f698f67eebf9c986040848660081c169a81519081528b88820152a3808260181c166122d4578580f35b6122dc61345e565b61230a8454916122f0818460a01c1661355f565b6122ff818460a81c1615613985565b6001541688106135db565b61ffff60a81b191660a89190911b60ff60b01b1617600160a81b1782556008546001600160a01b0392908316803b15612553578580916004604051809481936321eb936b60e11b83525af19081156112775786916125bd575b505060405161237181613355565b600181528236818301376001871b61238882613742565b5283600754169084600654169060055492803b15610788576123c39389809460405196879586948593626dc0df60e21b855260048501613a02565b03925af19081156112775786916125a9575b50506006546040516370a0823160e01b81523060048201529290841681848781845afa938415611210578794612575575b50818461242e92878654168a60405180968195829463095ea7b360e01b84526004840161384e565b03925af1801561121057612557575b50508281541691823b156125535785928584926040519586938492634410462760e01b845260048401525af18015610c03578392869161253a575b50505416803b15610be15783809184604051809481936314a93dc160e11b83523060048401525af1908115610c56578491612526575b5050600080516020613a718339815191525416825490803b15610be157839283926040519485938492630355a55360e31b845260048401525af18015610b9f57612512575b5054600080516020613a318339815191528380a3388181808080808580f35b61251b9061332c565b6109205781386124f3565b61252f9061332c565b610baa5782386124ae565b6125469192935061332c565b610be15781908438612478565b8580fd5b8161256d92903d10610723576107158183613370565b50388061243d565b965092508086813d81116125a2575b61258e8183613370565b810103126106a55794518795909281612406565b503d612584565b6125b29061332c565b6112965784386123d5565b6125c69061332c565b611296578438612363565b60643587526003845261228c82604089205416612286565b60405162461bcd60e51b815260048101869052600881890152674e6f20647261777360c01b6044820152606490fd5b5060028814612258565b50346102d857806003193601126102d85761263b61345e565b600080516020613a7183398151915280546001600160a01b031981169091556000906001600160a01b0316600080516020613a918339815191528280a380f35b50346102d85760203660031901126102d85760ff60016126b16040602094600435808252600d87526114be8684842054166139c4565b50015460181c166040519015158152f35b50346102d85760203660031901126102d857600435601054811015610920576126ea9061330d565b5080546001909101546040805192835260ff80831615156020850152600883901c811691840191909152601082901c81161515606084015260189190911c161515608082015260a090f35b50346102d8576101003660031901126102d8576001600160401b03602435818111610baa5736602382011215610baa5781816004013511610baa57366024826004013560051b83010111610baa57608435916001600160a01b0380841684036106a55760a4359080821682036106a55760c4359481861686036106a55760e4359282841684036106a557600080516020613ad18339815191525494851680159081612aae575b6001149081612aa4575b159081612a9b575b50612a89576001600160401b03198516600117600080516020613ad183398151915255604085901c60ff1615612a60575b612826613530565b61282e613530565b61283733613497565b6002866004013510612a3057909192600435885560ff86600401351660ff196001541617600155875b8860ff6001541660ff83161015612917575061288760ff8216886004013560248a01613520565b35600254600160401b81101561290357916128f8916128b18460018e9a99989796016002556132b0565b918154600393841b91821b91600019901b19161790556128dc60ff83168b6004013560248d01613520565b35885260205260408720805460ff191660ff83161790556134f9565b909192939450612860565b634e487b7160e01b8b52604160045260248bfd5b604435600455606435600555600880546001600160a01b0319908116878916179091556009805482168689161790556006805482168b89161790556007805491821685891690811790915588918391908216178789823b15610be1576044849283604051958694859363a22cb46560e01b8552166004840152600160248401525af18015610b9f57612a1c575b50506009805460ff60a01b1916600160a01b17905560401c60ff16156129c75780f35b60ff60401b19600080516020613ad18339815191525416600080516020613ad1833981519152557fc7f505b2f371ae2175ee4913f4499e1f2633a7b5936321eed1cdaeb6115181d2602060405160018152a180f35b612a259061332c565b6109205781836129a4565b60405162461bcd60e51b81526020600482015260086024820152674e6f207465616d7360c01b6044820152606490fd5b6001600160481b031985166001600160401b0117600080516020613ad18339815191525561281e565b60405163f92ee8a960e01b8152600490fd5b905015386127ed565b303b1591506127e5565b604087901c60ff161591506127db565b50346102d857806003193601126102d8576009546040516001600160a01b039091168152602090f35b50346102d85760203660031901126102d85760ff60406020926004358152600d84522054166040519015158152f35b50346102d857806003193601126102d8576007546040516001600160a01b039091168152602090f35b50346102d85760403660031901126102d857612baf90612b5d6132a0565b612b6b60ff60015416613710565b90612b7c60ff60243592168361374f565b5260018060a01b036008541690604051809263782d085b60e01b8252818060209788958660048401526024830190613763565b03915afa91821561162e57916116015750604051908152f35b50346102d85760203660031901126102d8576126ea60043561330d565b50346102d85760203660031901126102d85760209060ff906040906001600160a01b03612c106132e1565b168152600b84522054166040519015158152f35b50346102d857806003193601126102d8576020601054604051908152f35b50346102d857806003193601126102d8576006546040516001600160a01b039091168152602090f35b50346102d857806003193601126102d857602060ff60095460a01c166040519015158152f35b50346102d85760203660031901126102d857600435600a5481101561092057600a600052600080516020613a5183398151915201546040516001600160a01b039091168152602090f35b50346102d857806003193601126102d857600954612cfe60ff8260a01c1661355f565b60ff8160a81c16156131295760ff60019160b01c161b60018060a01b0390816007541691806006541690600554916040519463856296f760e01b8652866004870152602493848701528460448701526020958681606481855afa801561076457879189916130f8575b5060405163039dd75360e41b81529384918291612d8891906004840161384e565b0381845afa9182156112105787926130c9575b50604051627eeac760e11b815290868280612dba86336004840161384e565b0381845afa918215610764578892613096575b50811561305e57908188923b15610baa57612e019383604051809681958294637921219560e11b84523033600486016138a6565b03925af180156112775761304b575b5080600654169085604051946370a0823160e01b9384875230600488015287878781845afa968715610bc2578397613018575b5060405191612e5183613355565b60018352883681850137612e6483613742565b5283600754169160055492803b1561129657612e999385809460405196879586948593626dc0df60e21b855260048501613a02565b03925af18015610b9f57613004575b5050600654169260405191825230600483015284828481875afa8015611277578690612fd5575b612ed992506136ab565b918215612fa55783604051809263a9059cbb60e01b8252818881612f0189336004840161384e565b03925af1908115610c03578591612f88575b5015612f53575082547f8d66ebf0a44775d884fae55faa46cc18fd3ac1d68a32c95588f2c6e4bd588f8160ff60095460b01c16936040519384523393a480f35b82600f6064926040519262461bcd60e51b845260048401528201526e151c985b9cd9995c8819985a5b1959608a1b6044820152fd5b612f9f9150843d8611610723576107158183613370565b38612f13565b60405162461bcd60e51b81526004810185905260098184015268139bc81c185e5bdd5d60ba1b6044820152606490fd5b508482813d8311612ffd575b612feb8183613370565b810103126106a557612ed99151612ecf565b503d612fe1565b61300d9061332c565b612553578538612ea8565b88809298508194503d8311613044575b6130328183613370565b810103126106a5578791519538612e43565b503d613028565b6130579095919561332c565b9338612e10565b60405162461bcd60e51b815260048101889052601181870152704e6f2077696e6e696e6720746f6b656e7360781b6044820152606490fd5b9091508681813d83116130c2575b6130ae8183613370565b810103126130be57519038612dcd565b8780fd5b503d6130a4565b9091508581813d83116130f1575b6130e18183613370565b81010312610c6157519038612d9b565b503d6130d7565b82819392503d8311613122575b61310f8183613370565b810103126130be57518690612d88612d67565b503d613105565b60405162461bcd60e51b815260206004820152600c60248201526b139bdd081c995cdbdb1d995960a21b6044820152606490fd5b50346102d85760203660031901126102d857604060209160ff61317e6132a0565b168152600c83522054604051908152f35b50346102d857806003193601126102d8576020600554604051908152f35b50346102d85760203660031901126102d85760ff6040602092600435815260038452205416604051908152f35b50346102d85760203660031901126102d85760406020916004358152601183522054604051908152f35b50346102d857806003193601126102d8576008546040516001600160a01b039091168152602090f35b50346102d857806003193601126102d8576020600e54604051908152f35b9050346109205760203660031901126109205760043563ffffffff60e01b8116809103610baa5760209250630271189760e51b811490811561328f575b5015158152f35b6301ffc9a760e01b14905038613288565b6004359060ff821682036106a557565b6002548110156132cb57600260005260206000200190600090565b634e487b7160e01b600052603260045260246000fd5b600435906001600160a01b03821682036106a557565b602435906001600160a01b03821682036106a557565b6010548110156132cb57601060005260206000209060011b0190600090565b6001600160401b03811161333f57604052565b634e487b7160e01b600052604160045260246000fd5b604081019081106001600160401b0382111761333f57604052565b601f909101601f19168101906001600160401b0382119082101761333f57604052565b6001600160401b03811161333f5760051b60200190565b81601f820112156106a5578035916133c183613393565b926133cf6040519485613370565b808452602092838086019260051b8201019283116106a5578301905b8282106133f9575050505090565b813581529083019083016133eb565b81601f820112156106a5578035906001600160401b03821161333f576040519261343c601f8401601f191660200185613370565b828452602083830101116106a557816000926020809301838601378301015290565b600080516020613a71833981519152546001600160a01b0316330361347f57565b60405163118cdaa760e01b8152336004820152602490fd5b6001600160a01b039081169081156134e057600080516020613a7183398151915280546001600160a01b03198116841790915516600080516020613a91833981519152600080a3565b604051631e4fbdf760e01b815260006004820152602490fd5b60ff1660ff811461350a5760010190565b634e487b7160e01b600052601160045260246000fd5b91908110156132cb5760051b0190565b60ff600080516020613ad18339815191525460401c161561354d57565b604051631afcd79f60e31b8152600490fd5b1561356657565b60405162461bcd60e51b815260206004820152600f60248201526e139bdd081a5b9a5d1a585b1a5e9959608a1b6044820152606490fd5b156135a457565b60405162461bcd60e51b815260206004820152600f60248201526e13585c9ad95d081c995cdbdb1d9959608a1b6044820152606490fd5b156135e257565b60405162461bcd60e51b815260206004820152600b60248201526a426164206f7574636f6d6560a81b6044820152606490fd5b1561361c57565b60405162461bcd60e51b81526020600482015260086024820152670416d6f756e743d360c41b6044820152606490fd5b600a54600160401b81101561333f576001810180600a558110156132cb57600a600052600080516020613a518339815191520180546001600160a01b0319166001600160a01b03909216919091179055565b9190820180921161350a57565b9190820391821161350a57565b156136bf57565b60405162461bcd60e51b8152602060048201526024808201527f4265742065786365656473206d6178696d756d20616c6c6f7761626c6520616d6044820152631bdd5b9d60e21b6064820152608490fd5b9061371a82613393565b6137276040519182613370565b8281528092613738601f1991613393565b0190602036910137565b8051156132cb5760200190565b80518210156132cb5760209160051b010190565b90815180825260208080930193019160005b828110613783575050505090565b835185529381019392810192600101613775565b1561379e57565b60405162461bcd60e51b815260206004820152600c60248201526b125b9d985b1a590818dbdcdd60a21b6044820152606490fd5b908160209103126106a5575180151581036106a55790565b6001600160a01b03918216815291166020820152604081019190915260600190565b1561381357565b60405162461bcd60e51b81526020600482015260136024820152721d1c985b9cd9995c919c9bdb4819985a5b1959606a1b6044820152606490fd5b6001600160a01b039091168152602081019190915260400190565b1561387057565b60405162461bcd60e51b815260206004820152600e60248201526d185c1c1c9bdd994819985a5b195960921b6044820152606490fd5b929060c0949260018060a01b0380921685521660208401526040830152606082015260a06080820152600060a08201520190565b156138e157565b60405162461bcd60e51b8152602060048201526011602482015270185c1c1c9bdd994813140819985a5b1959607a1b6044820152606490fd5b1561392157565b60405162461bcd60e51b8152602060048201526015602482015274185c1c1c9bdd99481c1c9bd99a5d0819985a5b1959605a1b6044820152606490fd5b600160ff1b811461350a5760000390565b9061ff0082549160081b169061ff001916179055565b1561398c57565b60405162461bcd60e51b815260206004820152601060248201526f105b1c9958591e481c995cdbdb1d995960821b6044820152606490fd5b156139cb57565b60405162461bcd60e51b815260206004820152600f60248201526e556e6b6e6f776e206669787475726560881b6044820152606490fd5b613a2d939260809260018060a01b031682526000602083015260408201528160608201520190613763565b9056fe739f283563fb51ab6b89ee95d937b2e63a6cfcb83c385dbebb629f9d97bd43e6c65a7bb8d6351c1cf70c95a316cc6a92839c986682d98bc35f958f4883f9d2a89016d09d72d40fdae2fd8ceac6b6234c7706214fd39c1cd1e609a0528c1993008be0079c531659141344cd1fd0a4f28419497f9722a3daafe3b4186f6b6457e04c3ca26b0b8e1f9d699e3c1f4dbea6cbd5cfcec128538e6031fd392d27071407f0c57e16840df040f15088dc2f81fe391c3923bec73e23a9662efc9c229c6a00076c6e8ed1b80418739ec27cda2052c8c564c879512820aecbe5bbf76fcfb09fa164736f6c6343000814000a",
  "linkReferences": {},
  "deployedLinkReferences": {}
}