{
  "_format": "hh-sol-artifact-1",
  "contractName": "MarketFactory",
  "sourceName": "contracts/MarketFactory.sol",
  "abi": [
    {
      "inputs": [
        {
          "internalType": "address",
          "name": "_liquidityPool",
          "type": "address"
        },
        {
          "internalType": "address",
          "name": "_whitelist",
          "type": "address"
        },
        {
          "internalType": "address",
          "name": "_resultsConsumer",
          "type": "address"
        },
        {
          "internalType": "address",
          "name": "_usdc",
          "type": "address"
        },
        {
          "internalType": "address",
          "name": "_conditionalTokens",
          "type": "address"
        },
        {
          "internalType": "address",
          "name": "_lmsrFactory",
          "type": "address"
        },
        {
          "internalType": "address",
          "name": "_roundConsumer",
          "type": "address"
        }
      ],
      "stateMutability": "nonpayable",
      "type": "constructor"
    },
    {
      "inputs": [],
      "name": "FailedDeployment",
      "type": "error"
    },
    {
      "inputs": [
        {
          "internalType": "uint256",
          "name": "balance",
          "type": "uint256"
        },
        {
          "internalType": "uint256",
          "name": "needed",
          "type": "uint256"
        }
      ],
      "name": "InsufficientBalance",
      "type": "error"
    },
    {
      "inputs": [
        {
          "internalType": "address",
          "name": "owner",
          "type": "address"
        }
      ],
      "name": "OwnableInvalidOwner",
      "type": "error"
    },
    {
      "inputs": [
        {
          "internalType": "address",
          "name": "account",
          "type": "address"
        }
      ],
      "name": "OwnableUnauthorizedAccount",
      "type": "error"
    },
    {
      "anonymous": false,
      "inputs": [
        {
          "indexed": true,
          "internalType": "address",
          "name": "previousOwner",
          "type": "address"
        },
        {
          "indexed": true,
          "internalType": "address",
          "name": "newOwner",
          "type": "address"
        }
      ],
      "name": "OwnershipTransferred",
      "type": "event"
    },
    {
      "anonymous": false,
      "inputs": [
        {
          "indexed": false,
          "internalType": "uint256",
          "name": "amount",
          "type": "uint256"
        }
      ],
      "name": "PlatformProfitAdded",
      "type": "event"
    },
    {
      "anonymous": false,
      "inputs": [
        {
          "indexed": false,
          "internalType": "uint256",
          "name": "matchId",
          "type": "uint256"
        },
        {
          "indexed": false,
          "internalType": "address",
          "name": "marketAddress",
          "type": "address"
        },
        {
          "indexed": false,
          "internalType": "uint256",
          "name": "matchTimestamp",
          "type": "uint256"
        }
      ],
      "name": "PredictionMarketDeployed",
      "type": "event"
    },
    {
      "anonymous": false,
      "inputs": [
        {
          "indexed": false,
          "internalType": "uint256",
          "name": "matchId",
          "type": "uint256"
        },
        {
          "indexed": false,
          "internalType": "uint8",
          "name": "outcome",
          "type": "uint8"
        }
      ],
      "name": "PredictionMarketResolved",
      "type": "event"
    },
    {
      "anonymous": false,
      "inputs": [
        {
          "indexed": true,
          "internalType": "uint256",
          "name": "tournamentId",
          "type": "uint256"
        }
      ],
      "name": "RoundQueued",
      "type": "event"
    },
    {
      "anonymous": false,
      "inputs": [
        {
          "indexed": true,
          "internalType": "uint256",
          "name": "tournamentId",
          "type": "uint256"
        },
        {
          "indexed": true,
          "internalType": "address",
          "name": "marketAddress",
          "type": "address"
        }
      ],
      "name": "TournamentDeployed",
      "type": "event"
    },
    {
      "inputs": [],
      "name": "MATCH_DURATION",
      "outputs": [
        {
          "internalType": "uint256",
          "name": "",
          "type": "uint256"
        }
      ],
      "stateMutability": "view",
      "type": "function"
    },
    {
      "inputs": [],
      "name": "RESOLUTION_COOLDOWN",
      "outputs": [
        {
          "internalType": "uint256",
          "name": "",
          "type": "uint256"
        }
      ],
      "stateMutability": "view",
      "type": "function"
    },
    {
      "inputs": [],
      "name": "ROUND_COOLDOWN",
      "outputs": [
        {
          "internalType": "uint256",
          "name": "",
          "type": "uint256"
        }
      ],
      "stateMutability": "view",
      "type": "function"
    },
    {
      "inputs": [],
      "name": "acceptRoundConsumerOwnership",
      "outputs": [],
      "stateMutability": "nonpayable",
      "type": "function"
    },
    {
      "inputs": [
        {
          "internalType": "uint256",
          "name": "",
          "type": "uint256"
        }
      ],
      "name": "activeMatches",
      "outputs": [
        {
          "internalType": "uint256",
          "name": "",
          "type": "uint256"
        }
      ],
      "stateMutability": "view",
      "type": "function"
    },
    {
      "inputs": [
        {
          "internalType": "uint256",
          "name": "",
          "type": "uint256"
        }
      ],
      "name": "activeTournaments",
      "outputs": [
        {
          "internalType": "uint256",
          "name": "",
          "type": "uint256"
        }
      ],
      "stateMutability": "view",
      "type": "function"
    },
    {
      "inputs": [
        {
          "internalType": "uint256",
          "name": "amount",
          "type": "uint256"
        }
      ],
      "name": "addToPlatformProfit",
      "outputs": [],
      "stateMutability": "nonpayable",
      "type": "function"
    },
    {
      "inputs": [
        {
          "internalType": "uint256",
          "name": "",
          "type": "uint256"
        }
      ],
      "name": "allMatchIds",
      "outputs": [
        {
          "internalType": "uint256",
          "name": "",
          "type": "uint256"
        }
      ],
      "stateMutability": "view",
      "type": "function"
    },
    {
      "inputs": [
        {
          "internalType": "bytes",
          "name": "",
          "type": "bytes"
        }
      ],
      "name": "checkUpkeep",
      "outputs": [
        {
          "internalType": "bool",
          "name": "upkeepNeeded",
          "type": "bool"
        },
        {
          "internalType": "bytes",
          "name": "performData",
          "type": "bytes"
        }
      ],
      "stateMutability": "view",
      "type": "function"
    },
    {
      "inputs": [],
      "name": "conditionalTokens",
      "outputs": [
        {
          "internalType": "contract ConditionalTokens",
          "name": "",
          "type": "address"
        }
      ],
      "stateMutability": "view",
      "type": "function"
    },
    {
      "inputs": [
        {
          "internalType": "uint256",
          "name": "matchId",
          "type": "uint256"
        },
        {
          "internalType": "uint256",
          "name": "matchTimestamp",
          "type": "uint256"
        }
      ],
      "name": "deployPredictionMarket",
      "outputs": [],
      "stateMutability": "nonpayable",
      "type": "function"
    },
    {
      "inputs": [
        {
          "internalType": "uint256",
          "name": "tournamentId",
          "type": "uint256"
        },
        {
          "internalType": "uint256[]",
          "name": "teamIds",
          "type": "uint256[]"
        },
        {
          "internalType": "uint256",
          "name": "season",
          "type": "uint256"
        }
      ],
      "name": "deployTournament",
      "outputs": [],
      "stateMutability": "nonpayable",
      "type": "function"
    },
    {
      "inputs": [
        {
          "internalType": "uint256",
          "name": "",
          "type": "uint256"
        }
      ],
      "name": "deploymentTimestamps",
      "outputs": [
        {
          "internalType": "uint256",
          "name": "",
          "type": "uint256"
        }
      ],
      "stateMutability": "view",
      "type": "function"
    },
    {
      "inputs": [
        {
          "internalType": "uint256",
          "name": "",
          "type": "uint256"
        }
      ],
      "name": "fixtureTs",
      "outputs": [
        {
          "internalType": "uint256",
          "name": "",
          "type": "uint256"
        }
      ],
      "stateMutability": "view",
      "type": "function"
    },
    {
      "inputs": [],
      "name": "getActiveMatches",
      "outputs": [
        {
          "internalType": "uint256[]",
          "name": "",
          "type": "uint256[]"
        }
      ],
      "stateMutability": "view",
      "type": "function"
    },
    {
      "inputs": [],
      "name": "getActiveTournaments",
      "outputs": [
        {
          "internalType": "uint256[]",
          "name": "",
          "type": "uint256[]"
        }
      ],
      "stateMutability": "view",
      "type": "function"
    },
    {
      "inputs": [
        {
          "internalType": "uint256",
          "name": "matchId",
          "type": "uint256"
        }
      ],
      "name": "getPredictionMarket",
      "outputs": [
        {
          "internalType": "address",
          "name": "",
          "type": "address"
        }
      ],
      "stateMutability": "view",
      "type": "function"
    },
    {
      "inputs": [
        {
          "internalType": "uint256",
          "name": "tournamentId",
          "type": "uint256"
        }
      ],
      "name": "getTournamentMarket",
      "outputs": [
        {
          "internalType": "address",
          "name": "",
          "type": "address"
        }
      ],
      "stateMutability": "view",
      "type": "function"
    },
    {
      "inputs": [],
      "name": "initialize",
      "outputs": [],
      "stateMutability": "nonpayable",
      "type": "function"
    },
    {
      "inputs": [],
      "name": "initialized",
      "outputs": [
        {
          "internalType": "bool",
          "name": "",
          "type": "bool"
        }
      ],
      "stateMutability": "view",
      "type": "function"
    },
    {
      "inputs": [
        {
          "internalType": "uint256",
          "name": "",
          "type": "uint256"
        }
      ],
      "name": "lastResolutionAttempt",
      "outputs": [
        {
          "internalType": "uint256",
          "name": "",
          "type": "uint256"
        }
      ],
      "stateMutability": "view",
      "type": "function"
    },
    {
      "inputs": [
        {
          "internalType": "uint256",
          "name": "",
          "type": "uint256"
        }
      ],
      "name": "lastRoundFetch",
      "outputs": [
        {
          "internalType": "uint256",
          "name": "",
          "type": "uint256"
        }
      ],
      "stateMutability": "view",
      "type": "function"
    },
    {
      "inputs": [],
      "name": "liquidityPool",
      "outputs": [
        {
          "internalType": "contract ILiquidityPool",
          "name": "",
          "type": "address"
        }
      ],
      "stateMutability": "view",
      "type": "function"
    },
    {
      "inputs": [],
      "name": "lmsrFactory",
      "outputs": [
        {
          "internalType": "contract LMSRMarketMakerFactory",
          "name": "",
          "type": "address"
        }
      ],
      "stateMutability": "view",
      "type": "function"
    },
    {
      "inputs": [
        {
          "internalType": "uint256",
          "name": "",
          "type": "uint256"
        }
      ],
      "name": "lmsrMarketMakers",
      "outputs": [
        {
          "internalType": "address",
          "name": "",
          "type": "address"
        }
      ],
      "stateMutability": "view",
      "type": "function"
    },
    {
      "inputs": [
        {
          "internalType": "uint256",
          "name": "",
          "type": "uint256"
        }
      ],
      "name": "matchConditionIds",
      "outputs": [
        {
          "internalType": "bytes32",
          "name": "",
          "type": "bytes32"
        }
      ],
      "stateMutability": "view",
      "type": "function"
    },
    {
      "inputs": [
        {
          "internalType": "uint256",
          "name": "",
          "type": "uint256"
        }
      ],
      "name": "matchTimestamps",
      "outputs": [
        {
          "internalType": "uint256",
          "name": "",
          "type": "uint256"
        }
      ],
      "stateMutability": "view",
      "type": "function"
    },
    {
      "inputs": [
        {
          "internalType": "uint256",
          "name": "tournamentId",
          "type": "uint256"
        }
      ],
      "name": "onRawDataReady",
      "outputs": [],
      "stateMutability": "nonpayable",
      "type": "function"
    },
    {
      "inputs": [],
      "name": "owner",
      "outputs": [
        {
          "internalType": "address",
          "name": "",
          "type": "address"
        }
      ],
      "stateMutability": "view",
      "type": "function"
    },
    {
      "inputs": [
        {
          "internalType": "uint256",
          "name": "",
          "type": "uint256"
        }
      ],
      "name": "pendingRounds",
      "outputs": [
        {
          "internalType": "uint256",
          "name": "",
          "type": "uint256"
        }
      ],
      "stateMutability": "view",
      "type": "function"
    },
    {
      "inputs": [
        {
          "internalType": "bytes",
          "name": "performData",
          "type": "bytes"
        }
      ],
      "name": "performUpkeep",
      "outputs": [],
      "stateMutability": "nonpayable",
      "type": "function"
    },
    {
      "inputs": [],
      "name": "platformProfitPool",
      "outputs": [
        {
          "internalType": "uint256",
          "name": "",
          "type": "uint256"
        }
      ],
      "stateMutability": "view",
      "type": "function"
    },
    {
      "inputs": [],
      "name": "predictionMarketTemplate",
      "outputs": [
        {
          "internalType": "address",
          "name": "",
          "type": "address"
        }
      ],
      "stateMutability": "view",
      "type": "function"
    },
    {
      "inputs": [
        {
          "internalType": "uint256",
          "name": "",
          "type": "uint256"
        }
      ],
      "name": "predictionMarkets",
      "outputs": [
        {
          "internalType": "address",
          "name": "",
          "type": "address"
        }
      ],
      "stateMutability": "view",
      "type": "function"
    },
    {
      "inputs": [
        {
          "internalType": "uint256",
          "name": "tournamentId",
          "type": "uint256"
        }
      ],
      "name": "removeActiveTournament",
      "outputs": [],
      "stateMutability": "nonpayable",
      "type": "function"
    },
    {
      "inputs": [],
      "name": "renounceOwnership",
      "outputs": [],
      "stateMutability": "nonpayable",
      "type": "function"
    },
    {
      "inputs": [],
      "name": "resultsConsumer",
      "outputs": [
        {
          "internalType": "contract IResultsConsumer",
          "name": "",
          "type": "address"
        }
      ],
      "stateMutability": "view",
      "type": "function"
    },
    {
      "inputs": [],
      "name": "roundConsumer",
      "outputs": [
        {
          "internalType": "contract RoundConsumer",
          "name": "",
          "type": "address"
        }
      ],
      "stateMutability": "view",
      "type": "function"
    },
    {
      "inputs": [
        {
          "internalType": "uint256",
          "name": "",
          "type": "uint256"
        }
      ],
      "name": "roundReady",
      "outputs": [
        {
          "internalType": "bool",
          "name": "",
          "type": "bool"
        }
      ],
      "stateMutability": "view",
      "type": "function"
    },
    {
      "inputs": [
        {
          "internalType": "address",
          "name": "_roundConsumer",
          "type": "address"
        }
      ],
      "name": "setRoundConsumer",
      "outputs": [],
      "stateMutability": "nonpayable",
      "type": "function"
    },
    {
      "inputs": [
        {
          "internalType": "uint256",
          "name": "",
          "type": "uint256"
        }
      ],
      "name": "tournamentFixturesToResolve",
      "outputs": [
        {
          "internalType": "uint256",
          "name": "",
          "type": "uint256"
        }
      ],
      "stateMutability": "view",
      "type": "function"
    },
    {
      "inputs": [],
      "name": "tournamentMarketTemplate",
      "outputs": [
        {
          "internalType": "address",
          "name": "",
          "type": "address"
        }
      ],
      "stateMutability": "view",
      "type": "function"
    },
    {
      "inputs": [
        {
          "internalType": "uint256",
          "name": "",
          "type": "uint256"
        }
      ],
      "name": "tournamentMarkets",
      "outputs": [
        {
          "internalType": "address",
          "name": "",
          "type": "address"
        }
      ],
      "stateMutability": "view",
      "type": "function"
    },
    {
      "inputs": [
        {
          "internalType": "uint256",
          "name": "",
          "type": "uint256"
        }
      ],
      "name": "tournamentSeason",
      "outputs": [
        {
          "internalType": "uint256",
          "name": "",
          "type": "uint256"
        }
      ],
      "stateMutability": "view",
      "type": "function"
    },
    {
      "inputs": [
        {
          "internalType": "address",
          "name": "newOwner",
          "type": "address"
        }
      ],
      "name": "transferOwnership",
      "outputs": [],
      "stateMutability": "nonpayable",
      "type": "function"
    },
    {
      "inputs": [],
      "name": "usdc",
      "outputs": [
        {
          "internalType": "contract IERC20",
          "name": "",
          "type": "address"
        }
      ],
      "stateMutability": "view",
      "type": "function"
    },
    {
      "inputs": [
        {
          "internalType": "address",
          "name": "user",
          "type": "address"
        }
      ],
      "name": "verifyUser",
      "outputs": [],
      "stateMutability": "nonpayable",
      "type": "function"
    },
    {
      "inputs": [],
      "name": "whitelist",
      "outputs": [
        {
          "internalType": "contract Whitelist",
          "name": "",
          "type": "address"
        }
      ],
      "stateMutability": "view",
      "type": "function"
    },
    {
      "inputs": [
        {
          "internalType": "uint256",
          "name": "amount",
          "type": "uint256"
        }
      ],
      "name": "withdrawPlatformProfit",
      "outputs": [],
      "stateMutability": "nonpayable",
      "type": "function"
    }
  ],
  "bytecode": "0x6080346200040557601f6200a87238819003918201601f1916830192916001600160401b0391828511848610176200040a578160e092859260409788528339810103126200040557620000528262000420565b906020906200006382850162000420565b936200007186820162000420565b92620000806060830162000420565b916200008f6080820162000420565b620000ab60c0620000a360a0850162000420565b930162000420565b933315620003ed5760008054336001600160a01b0319808316821784558d51909c6001600160a01b039c949b94919390928d929183167f8be0079c531659141344cd1fd0a4f28419497f9722a3daafe3b4186f6b6457e08e80a316918215620003ab57508a1691821562000367578a1692831562000323578a16938415620002df578a1694851562000291578a169586156200024e575090899695949392918b60105416176010558a601154161760115589601254161760125588601454161760145587601554161760155586601654161760165516806200023e575b508451612ed480820190828210848311176200022a5790829162003e6f8339039083f0801562000220578316846017541617601755845190613b2f80830191838310908311176200020c5790829162006d438339039082f09081156200020157501690601854161760185551613a399081620004368239f35b8451903d90823e3d90fd5b634e487b7160e01b84526041600452602484fd5b85513d84823e3d90fd5b634e487b7160e01b85526041600452602485fd5b8460135416176013553862000188565b6064908d519062461bcd60e51b82526004820152601b60248201527f496e76616c6964204c4d5352466163746f7279206164647265737300000000006044820152fd5b8c5162461bcd60e51b815260048101889052602160248201527f496e76616c696420436f6e646974696f6e616c546f6b656e73206164647265736044820152607360f81b6064820152608490fd5b8c5162461bcd60e51b815260048101889052601460248201527f496e76616c6964205553444320616464726573730000000000000000000000006044820152606490fd5b8c5162461bcd60e51b815260048101889052601f60248201527f496e76616c696420526573756c7473436f6e73756d65722061646472657373006044820152606490fd5b8c5162461bcd60e51b815260048101889052601960248201527f496e76616c69642057686974656c6973742061646472657373000000000000006044820152606490fd5b62461bcd60e51b815260048101889052601d60248201527f496e76616c6964204c6971756964697479506f6f6c20616464726573730000006044820152606490fd5b8951631e4fbdf760e01b815260006004820152602490fd5b600080fd5b634e487b7160e01b600052604160045260246000fd5b51906001600160a01b0382168203620004055756fe60e080604052600436101561001357600080fd5b600060c05260003560e01c908163043a8682146133fe575080630442a057146133d0578063051d6e301461333d57806309870f89146132d75780631044880f146131ee578063158ef93e146131c957806317f528df1461319b57806319f87d661461316d5780631aad2a981461305f578063285d033e146130205780633e413bee14612ff55780634585e33b14611f035780634d81312014611eb35780634f90ff9c14611e9357806354f276b914611e6a5780635531407b14611e0d578063565cb8fa14611de257806357a2149e14611daf5780635bd9e29914611d845780635fabcef414611d4e57806360d23e8d1461165157806364b22bac146116265780636581d4a7146115fb578063665a11ca146115d0578063692734fe1461155b5780636e04ff0d1461108b578063715018a61461103e57806377988c251461101e5780637b26558214610f765780638129fc1c14610e39578063867fbf5f14610e03578063889fbfaa14610dcd5780638d3bf1b314610dae5780638da5cb5b14610d8557806393e59dc114610d5a57806395baa02814610d31578063af3d6ab614610d12578063bcda266714610ce4578063c441544614610cbb578063ca78210d14610c18578063ce1e6fcb14610bed578063d4e7729314610bc2578063db7dc91d146104ac578063e7813ce41461047e578063f1534fcd14610450578063f27f6f7a14610419578063f2fde38b1461039e578063fb3776891461037c5763fe80d5091461023f57600080fd5b346103765760208060031936011261037657600435908115610333576014546040516323b872dd60e01b81523360048201523060248201526044810184905260c05190918391839160649183916001600160a01b03165af18015610326576102f9575b50600f54918083018093116102e3577fec3d8e712434bc641261268bdddd841bdb3626da155721dda83c7064dab087d692600f55604051908152a160c05180f35b634e487b7160e01b600052601160045260246000fd5b61031890823d841161031f575b61031081836135be565b81019061365d565b50386102a2565b503d610306565b6040513d60c051823e3d90fd5b6064906040519062461bcd60e51b825280600483015260248201527f416d6f756e74206d7573742062652067726561746572207468616e207a65726f6044820152fd5b60c05180fd5b34610376576020366003190112610376576103986004356136b2565b60c05180f35b34610376576020366003190112610376576004356001600160a01b0381811691829003610376576103cd613549565b81156103ff576000548260018060a01b031982161760005516600080516020613a0d833981519152600080a360c05180f35b604051631e4fbdf760e01b815260c0516004820152602490fd5b3461037657602036600319011261037657600435600c5481101561037657610442602091613472565b90546040519160031b1c8152f35b346103765760203660031901126103765760043560c0515260066020526020604060c0512054604051908152f35b346103765760203660031901126103765760043560c0515260056020526020604060c0512054604051908152f35b34610376576040366003190112610376576104c5613549565b60c08051600435905260016020525160409020546001600160a01b0316610b85576010546001600160a01b0316803b1561037657604051906305430f9560e11b825264037e11d60060048301528160248160c05180945af1801561032657610b70575b5060145460165460405163095ea7b360e01b81526001600160a01b03918216600482015264037e11d600602482015260c051909260209284926044928492165af1801561032657610b51575b5060175460c08051608883901c62ffffff16763d602d80600a3d3981f3363d3d373d3d3d363d7300000017905260789190911b6001600160781b0319166e5af43d82803e903d91602b57fd5bf317602052516001600160a01b0390603790600990f0168015610b3f5760405160208101906d026b0ba31b4102932b9bab63a1d160951b8252600435602e820152602e815261060e81613588565b5190206015546001600160a01b0316803b15610376576040519063365bb9d560e21b8252306004830152826024830152600360448301528160648160c05180945af1801561032657610b2a575b50601554604051634296357160e11b815230600482015260248101839052600360448201529190602090839060649082906001600160a01b03165afa9182156103265760c05192610af1575b508115610ab35760043560c05152600360205281604060c0512055604051916106cf836135a3565b6001835260203681850137806106e4846135f8565b52601654601554601454601154604051637c8b2c0760e01b81526001600160a01b039384166004820152918316602483015260c06044830152865160c48301819052919693831693879360e485019392169160209091019060005b818110610a9a575050508260209492819260006064840152608483015264037e11d60060a4830152039160c051905af19283156103265760c05193610a69575b5060c0805160043590526002602052516040812080546001600160a01b0319166001600160a01b038681169190911790915560105460145460155483169490831693919092169190873b15610a27575060405163380e90bd60e01b81526004803590820152602481019590955260448501526001600160a01b0385166064850152608484015260a483015260c482015260c0518160e48183875af1801561032657610a54575b50604051610832816135a3565b600181526020368183013782610847826135f8565b526011546001600160a01b031690813b15610376576040518092637f64978360e01b8252818061087d60c0519560048301613619565b039160c051905af1801561032657610a3f575b506001600160a01b0381163b156103765760405163f2fde38b60e01b81526004810183905260c05190918290602490829084906001600160a01b03165af1801561032657610a2a575b506010546001600160a01b0316803b15610376576040519063f2862e6760e01b82528260048301528160248160c05180945af1801561032657610a14575b5060c0805160043590526001602052516040902080546001600160a01b03191682179055600c54600160401b90818110156109fe5761095f81600161097b9301600c55613472565b6004929192359083549060031b91821b91600019901b19161790565b9055600b54908110156109fe577f58bd247b7f302594aff9cee4341ccc0389b32ad4fcc57882996a93e5a85783d5916109bf61095f83600160609501600b55613457565b905560043560c05152600460205260243560c051816040822055600560205260404291205560405191600435835260208301526040820152a160c05180f35b634e487b7160e01b600052604160045260246000fd5b610a1d90613575565b60c0518015610917575b80fd5b610a3390613575565b60c05180156108d95780fd5b610a4890613575565b60c05180156108905780fd5b610a5d90613575565b60c05180156108255780fd5b610a8c91935060203d602011610a93575b610a8481836135be565b810190613675565b918461077f565b503d610a7a565b825185528995506020948501949092019160010161073f565b60405162461bcd60e51b815260206004820152601660248201527510dbdb991a5d1a5bdb881251081b9bdd08199bdd5b9960521b6044820152606490fd5b9091506020813d602011610b22575b81610b0d602093836135be565b81010312610b1d575190836106a7565b600080fd5b3d9150610b00565b610b3390613575565b60c051801561065b5780fd5b60405163b06ebf3d60e01b8152600490fd5b610b699060203d60201161031f5761031081836135be565b5080610574565b610b7990613575565b60c05180156105285780fd5b60405162461bcd60e51b81526020600482015260156024820152744d61726b657420616c72656164792065786973747360581b6044820152606490fd5b346103765760c05180600319360112610a27576016546040516001600160a01b039091168152602090f35b346103765760c05180600319360112610a27576018546040516001600160a01b039091168152602090f35b34610376576020366003190112610376576004358060c05152600160205260018060a01b0380604060c05120541615610c665760209160c0515260018252604060c051205416604051908152f35b60405162461bcd60e51b815260206004820152602760248201527f4d61726b657420646f6573206e6f7420657869737420666f722074686973206d604482015266185d18da08125160ca1b6064820152608490fd5b3461037657602036600319011261037657600435600e5481101561037657610442602091613426565b346103765760203660031901126103765760043560c0515260196020526020604060c0512054604051908152f35b346103765760c05180600319360112610a2757602060405161012c8152f35b3461037657602036600319011261037657600435601a548110156103765761044260209161348d565b346103765760c05180600319360112610a27576011546040516001600160a01b039091168152602090f35b346103765760c05180600319360112610a2757546040516001600160a01b039091168152602090f35b346103765760c05180600319360112610a27576020604051611c208152f35b346103765760203660031901126103765760043560c05152600d602052602060018060a01b03604060c051205416604051908152f35b346103765760203660031901126103765760043560c051526001602052602060018060a01b03604060c051205416604051908152f35b346103765760c05180600319360112610a2757610e54613549565b601b5460ff8116610f3b5760ff1916600117601b556010546001600160a01b03908116803b15610376576040519063f2862e6760e01b82523060048301528160248160c05180945af1801561032657610f26575b5060405190610eb6826135a3565b600182526020368184013730610ecb836135f8565b526011541690813b15610376576040518092637f64978360e01b82528180610ef960c0519560048301613619565b039160c051905af1801561032657610f115760c05180f35b610f1a90613575565b60c05180156103985780fd5b610f2f90613575565b60c0518015610ea85780fd5b60405162461bcd60e51b8152602060048201526013602482015272105b1c9958591e481a5b9a5d1a585b1a5e9959606a1b6044820152606490fd5b34610376576020366003190112610376576004358060c05152600d60205260018060a01b0380604060c05120541615610fc45760209160c05152600d8252604060c051205416604051908152f35b60405162461bcd60e51b815260206004820152602c60248201527f4d61726b657420646f6573206e6f7420657869737420666f722074686973207460448201526b1bdd5c9b985b595b9d08125160a21b6064820152608490fd5b346103765760c05180600319360112610a27576020600f54604051908152f35b346103765760c05180600319360112610a2757611059613549565b600080546001600160a01b0319811682556001600160a01b0316600080516020613a0d8339815191528280a360c05180f35b3461037657611099366134a8565b5050600c546110a7816137c8565b906110b3601a546137c8565b600b54916110c0836137c8565b600e546110cc816137c8565b9260c05190819782938392845b8181106114d157505060c0515b8851811015611191576110f9818a613605565b518060c05152600660205260c05160408120549061012c8201821161117a575061012c01421061114b578060c05152601960205260c051604081205490611c20820180921161117a575042101561115a575b50611155906137fa565b6110e6565b8b6111739161116d611155949e8d613605565b526137fa565b9a9061114b565b634e487b7160e01b9052601160045260c051602490fd5b50908992918960c0515b81811061147057505060c0515b81811061140e575050604051958692600a54808952846020809a01600a6000528a6000209260005b8c8282106113f8575050506111e7925003856135be565b85158015906113ef575b80156113e6575b80156113dc575b80156113d3575b156113a057600196611217876137c8565b92611221826137c8565b9761122b846137c8565b95611235896137c8565b9860c0515b81811061137c57505060c0515b82811061135e5750505060c0515b8281106113405750505060c0515b8181106113225750508697506112ec936112d060a096946112c060609a956112b161129e6112e0976040519c8d9a8b015260c08a01906134f2565b601f19998a8a83030160408b01526134f2565b9088888303018d8901526134f2565b90868683030160808701526134f2565b90848483030160a08501526134f2565b039081018352826135be565b6113146040519485931515845260408185015282519283918260408701528686019101613526565b601f01601f19168101030190f35b8061133061133b928c613605565b5161116d8287613605565b611263565b8061134e6113599284613605565b5161116d828c613605565b611255565b8061136c6113779284613605565b5161116d828a613605565b611247565b808b61116d8261138e61139b9561348d565b90549060031b1c92613605565b61123a565b50505050505050905060c051604051908282019180831060018060401b038411176109fe576060926040528181526112ec565b50841515611206565b50835115156111ff565b508015156111f8565b508615156111f1565b855484526001958601958a9550930192016111d0565b61141781613426565b90549060031b1c8060c05152600760205260c05160408120549062015180820180921161117a5750421015611456575b50611451906137fa565b6111a8565b846114699161116d61145194978d613605565b9390611447565b61147981613457565b90549060031b1c8060c05152600560205260c051604081205490624f1a00820180921161117a575042116114b7575b506114b2906137fa565b61119b565b886114ca9161116d6114b2949b8d613605565b97906114a8565b6114da81613472565b90549060031b1c8060c05152600660205260c05160408120549061012c8201821161117a575061012c014210611532578060c05152600460205260c051604081205490611c20820180921161117a5750421015611541575b5061153c906137fa565b6110d9565b866115549161116d61153c949988613605565b9590611532565b346103765760c05180600319360112610a275760405180600e54808252826020809301600e600052836000209260005b858282106115ba575050506115a2925003836135be565b6115b66040519282849384528301906134f2565b0390f35b855484526001958601958895509301920161158b565b346103765760c05180600319360112610a27576010546040516001600160a01b039091168152602090f35b346103765760c05180600319360112610a27576017546040516001600160a01b039091168152602090f35b346103765760c05180600319360112610a27576012546040516001600160a01b039091168152602090f35b34610376576060366003190112610376576001600160401b036024358110610376573660236024350112156103765760243560040135116103765736602480356004013560051b8135010111610376576116a9613549565b60c080516004359052600d6020525160409020546001600160a01b0316611d15576010546001600160a01b0316803b1561037657604051906305430f9560e11b82526404a817c80060048301528160248160c05180945af1801561032657611d00575b5060145460165460405163095ea7b360e01b81526001600160a01b0391821660048201526404a817c800602482015260c051909260209284926044928492165af1801561032657611ce1575b506e5af43d82803e903d91602b57fd5bf3601854763d602d80600a3d3981f3363d3d373d3d3d363d7300000062ffffff8260881c161760c0515260018060781b03199060781b16176020526037600960c051f06001600160a01b03811615610b3f576040516020810190712a37bab93730b6b2b73a102bb4b73732b91d60711b82526004356032820152603281526117ef81613588565b5190206015546001600160a01b0316803b15610376576040519063365bb9d560e21b82528160c05191818061182f60243560040135888a60048501613694565b039160c051905af1801561032657611ccc575b50601554604051634296357160e11b815291906001600160a01b03166020838061187960046024358101359087908a908501613694565b0381845afa9283156103265760c05193611c98575b506040519061189c826135a3565b6001825260208201906020368337846118b4846135f8565b52601654601454601154604051637c8b2c0760e01b815260048101949094526001600160a01b03918216602485015260c06044850152945160c48401819052929491811693859360e48501939092169160005b818110611c7f57505050826020949281926000606484015260848301526404a817c80060a4830152039160c051905af19081156103265760c05191611c60575b506001600160a01b0381163b156103765760405163f2fde38b60e01b81526001600160a01b03858116600483015260c0519082906024908290849087165af1801561032657611c4b575b5060405161199e816135a3565b60018152602036818301376001600160a01b0385166119bc826135f8565b526011546001600160a01b031690813b15610376576040518092637f64978360e01b825281806119f260c0519560048301613619565b039160c051905af1801561032657611c36575b506010546014546015546001600160a01b0390811693918116928116919087163b15610376576040516319a5c98b60e21b8152600480358183015261010060248084019190915235013561010482018190529096906001600160fb1b031061037657610124956024356004013560051b6024803501888a01376044880152606487015260018060a01b0316608486015260a485015260c484015260e48301528160c05191816024356004013560051b81010301818360018060a01b0387165af1801561032657611c21575b506010546001600160a01b0316803b156103765760405163f2862e6760e01b81526001600160a01b038316600482015260c05190918290602490829084905af1801561032657611c0c575b5060c080516004359052600d602052516040902080546001600160a01b0319166001600160a01b038316179055600e54600160401b8110156109fe5761095f816001611b6a9301600e55613426565b905560405160c05190916001600160a01b03166004357f4f7f86237091744a7118b348fc137f2cd3b743f5a3a7b256913399a750e42b388380a36004359052600860205260443560c05190806040832055600760205242604083205560018060a01b036013541691823b15610a2757506320b2154f60e01b8352600435600484015260248301528160448160c05180945af1801561032657610f115760c05180f35b611c1590613575565b60c0518015611b1b5780fd5b611c2a90613575565b60c0518015611ad05780fd5b611c3f90613575565b60c0518015611a055780fd5b611c5490613575565b60c05180156119915780fd5b611c79915060203d602011610a9357610a8481836135be565b84611947565b8251855287955060209485019490920191600101611907565b9092506020813d602011611cc4575b81611cb4602093836135be565b81010312610b1d5751918461188e565b3d9150611ca7565b611cd590613575565b60c05180156118425780fd5b611cf99060203d60201161031f5761031081836135be565b5080611758565b611d0990613575565b60c051801561170c5780fd5b60405162461bcd60e51b8152602060048201526011602482015270546f75726e616d656e742065786973747360781b6044820152606490fd5b346103765760203660031901126103765760043560c051526002602052602060018060a01b03604060c051205416604051908152f35b346103765760c05180600319360112610a27576015546040516001600160a01b039091168152602090f35b346103765760203660031901126103765760043560c051526009602052602060ff604060c0512054166040519015158152f35b346103765760c05180600319360112610a27576013546040516001600160a01b039091168152602090f35b346103765760c05180600319360112610a275760405180600c54808252826020809301600c600052836000209260005b85828210611e54575050506115a2925003836135be565b8554845260019586019588955093019201611e3d565b3461037657602036600319011261037657600435600b5481101561037657610442602091613457565b346103765760c05180600319360112610a27576020604051620151808152f35b34610376576020366003190112610376576004356001600160a01b038181169182900361037657611ee2613549565b60405191611eef836135a3565b6001835260203681850137610ecb836135f8565b3461037657611f11366134a8565b810160a0828203126103765781356001600160401b0381116103765781611f39918401613809565b9060208301356001600160401b0381116103765781611f59918501613809565b9260408101356001600160401b0381116103765782611f79918301613809565b9060608101356001600160401b0381116103765783611f99918301613809565b9260808201356001600160401b03811161037657611fb79201613809565b9060c0515b84518110156123d257611fcf8186613605565b518060c05152600660205260c0514260408220556004602052604081205490611c20820180921161117a5750421061238d57601254604051632f47996360e21b8152600481018390526001600160a01b0390911690602081602481855afa80156103265760019160c0519161236e575b5015150361231a57506012546040516338ee5a9360e21b815260048101839052929190606090849060249082906001600160a01b03165afa60c05193816122e7575b50612096575061209191506137fa565b611fbc565b60018060a01b03601554168160c0515260036020526120e1602085604060c05120546040519384928392630141320560e21b84526004840190815260ff909116602082015260400190565b0381855afa9081156103265760c051916122b5575b50156121e8575b5060c0805182905260016020525160408120546001600160a01b031690813b15610a2757506040519063f21ffa6b60e01b825260ff851660048301528160248160c05180945af18015610326576121d3575b5061215981613897565b156121995760407f8e5357198b8c9c6b705306c36d9103b8b29d5ebe4efc43878f0c89b93b28b8349160ff612091958351928352166020820152a16137fa565b60405162461bcd60e51b815260206004820152601260248201527113585d18da0814995b5bdd985b0811985a5b60721b6044820152606490fd5b6121dc90613575565b60c051801561214f5780fd5b60405160208101906d026b0ba31b4102932b9bab63a1d160951b8252602e8481830152815261221681613588565b519020604051906001600160401b0360808301908111908311176109fe5760808201604052600382526060366020840137600161225660ff881684613605565b52823b1561037657604051928391633124a62b60e21b8352600483015260406024830152818061228d60c0519560448301906134f2565b039160c051905af1801561032657156120fd576122a990613575565b60c05180156120fd5780fd5b90506020813d6020116122df575b816122d0602093836135be565b81010312610b1d57518a6120f6565b3d91506122c3565b61230a91945060603d606011612313575b61230281836135be565b810190613875565b50509289612081565b503d6122f8565b803b1561037657604051916326b2acc360e01b835260048301528160248160c05180945af19081612359575b509061209191156000036137fa576137fa565b61236290613575565b60c05180156123465780fd5b612387915060203d60201161031f5761031081836135be565b8a61203f565b60405162461bcd60e51b815260206004820152601d60248201527f4d61746368206475726174696f6e20686173206e6f74207061737365640000006044820152606490fd5b508460c0515b8351811015612a95576123eb8185613605565b518060c05152600660205242604060c051205560018060a01b0360125416604051632f47996360e21b8152826004820152602081602481855afa9081156103265760c05191612a76575b5015612a2d57506012546040516338ee5a9360e21b8152600481018390529190606090839060249082906001600160a01b03165afa60c0519283608052818460a052612a04575b5061249157505061248c906137fa565b6123d8565b9395909460c09392935196875b600e548110156129dd576124b181613426565b90549060031b1c8060c05152600d60205260018060a01b03604060c051205416906040516318fe2af360e21b8152896004820152602081602481865afa9081156103265760c051916129be575b50612514575b505061250f906137fa565b61249e565b6040516363669aef60e11b8152600481018a9052602081602481865afa9081156103265760c0519161299f575b506040516335e00d9b60e11b8152600481018b905292602084602481845afa9384156103265760c0519461297e575b508361267d575b803b156103765760405190637af37c0560e01b82528b600483015260ff6080511660248301528c604483015260a05160648301528160848160c05180945af19081612668575b506125ce5750505061250f906137fa565b60019b5090918161265f575b506125ea575b5061250f8a612504565b8060c05152600760205260c05142604082205560018060a01b0360135416906008602052604081205490823b15610a275750604051926320b2154f60e01b8452600484015260248301528160448160c05180945af1801561032657156125e05761265390613575565b60c05180156125e05780fd5b9050158b6125da565b61267190613575565b60c05180156125bd5780fd5b60405163129b0ce360e11b8152602081600481855afa9081156103265760c0519161294c575b50604051635dae8c8d60e01b8152602081600481865afa9081156103265760c0519161291a575b5060805160ff166128ab576040516352db3ce160e11b8152600481018f9052602081602481875afa9081156103265760c05191612871575b50905b6040516308c20cad60e41b8152602081600481885afa9081156103265760c0519161283e575b50602061273a612783926137c8565b93600161274a60ff831687613605565b52601554604051630141320560e21b8152600481019790975260ff90911660248701526001600160a01b03169491829081906044820190565b0381875afa9081156103265760c0519161280c575b50156127a7575b505050612577565b823b1561037657604051928391633124a62b60e21b835260048301526040602483015281806127dd60c0519560448301906134f2565b039160c051905af18015610326576127f7575b808061279f565b61280090613575565b60c05180156127f05780fd5b90506020813d602011612836575b81612827602093836135be565b81010312610b1d575138612798565b3d915061281a565b90506020813d602011612869575b81612859602093836135be565b81010312610b1d5751602061272b565b3d915061284c565b90506020813d6020116128a3575b8161288c602093836135be565b810103126103765761289d90613867565b38612702565b3d915061287f565b6040516352db3ce160e11b815260a0516004820152602081602481875afa9081156103265760c051916128e0575b5090612705565b90506020813d602011612912575b816128fb602093836135be565b810103126103765761290c90613867565b386128d9565b3d91506128ee565b90506020813d602011612944575b81612935602093836135be565b81010312610b1d57518f6126ca565b3d9150612928565b90506020813d602011612976575b81612967602093836135be565b81010312610b1d57518e6126a3565b3d915061295a565b61299891945060203d60201161031f5761031081836135be565b928d612570565b6129b8915060203d60201161031f5761031081836135be565b8c612541565b6129d7915060203d60201161031f5761031081836135be565b8c6124fe565b509490955061248c929391966129f4575b506137fa565b6129fd9061393f565b50866129ee565b612a1e91935060603d6060116123135761230281836135be565b93916080529260a0528861247c565b803b1561037657604051916326b2acc360e01b835260048301528160248160c05180945af1612a61575b5061248c906137fa565b612a6a90613575565b60c0518015612a575780fd5b612a8f915060203d60201161031f5761031081836135be565b88612435565b508360c0515b8251811015612c3857612aae8184613605565b518060c0515260058060205260c051604081205490624f1a00820180921161117a57504211612ae8575b5050612ae3906137fa565b612a9b565b8160c051526001908160205260c05190604082209060018060a01b03199182815416905560205260006040832055600260205260408220908154169055600660205260006040822055816003918260205260006040822055600460205260006040822055905b612b5a575b5050612ad8565b600b80549081831015612c315785612b7184613457565b905490861b1c14612b8e575050612b8883916137fa565b90612b4e565b600019969550929350858101908111612c1957612bbc612bb0612bd392613457565b905490861b1c92613457565b819391549060031b91821b91600019901b19161790565b90558054938415612c035780612ae3950192612bee84613457565b81939154921b1b191690555590858080612b53565b634e487b7160e01b600052603160045260246000fd5b634e487b7160e01b60c051526011600452602460c051fd5b5050612b53565b508260c0515b8151811015612cd657612c518183613605565b518060c05152600760205260c05142604082205560018060a01b0360135416906008602052604081205490823b15610a275750604051926320b2154f60e01b8452600484015260248301528160448160c05180945af1801561032657612cc1575b50612cbc906137fa565b612c3e565b612cca90613575565b60c0518015612cb25780fd5b8260c0515b8151811015612fbd57612cee8183613605565b518060c05152600d60205260018060a01b03604060c05120541660018060a01b0360135416604051906380158e9d60e01b82528360048301528160248160c051935afa9081156103265760c05191612f35575b5080519160038360021c93161580612f2a575b15612ef4576001198301928311612c1957602082015160e01c90602483015160e01c9060c0515b8560011c8110612e0757505060c0805186905260096020525160408120805460ff191690556013546001600160a01b0316945092505050813b15610a27575060405191632779a42960e21b835260048301528160248160c05180945af1801561032657612df2575b50612ded906137fa565b612cdb565b612dfb90613575565b60c0518015612de35780fd5b60208160020160021b8601015160e01c9060206002828960011c010160021b8701015160e01c6001861460018714612eeb575b843b1561037657604051634d4fbc2360e11b8152600481018590528387146024820152901515604482015260c0518160648183895af1801561032657612ed6575b508260c051526019602052604060c05120805415612ea5575b5050612ea091506137fa565b612d7b565b55601a918254600160401b8110156109fe57612bbc81612ea0956001612ecd9401905561348d565b90558a80612e94565b612edf90613575565b60c0518015612e7b5780fd5b50848214612e3a565b60405162461bcd60e51b815260206004820152600e60248201526d42616420726f756e64206461746160901b6044820152606490fd5b506002831015612d54565b903d8091833e612f4581836135be565b810190602081830312610376578051906001600160401b0382116103765701601f91808383011215610376578151906001600160401b0382116109fe5760405193612f99908301601f1916602001856135be565b8184526020828401011161037657612fb79160208085019101613526565b85612d41565b600a5460c05180600a5581612fd25760c05180f35b600a9052602060c05120908101905b818110156103985760008155600101612fe1565b346103765760c05180600319360112610a27576014546040516001600160a01b039091168152602090f35b3461037657602036600319011261037657600435600a5481101561037657600a6000526000805160206139ed8339815191520154604051908152602090f35b34610376576020366003190112610376576004358060c05152600d60205260018060a01b03604060c051205416330361312b5760c0515b600e805490818310156131225783916130ae84613426565b939054600394851b1c146130cd575050506130c8906137fa565b613096565b9193509160001991828101908111612c1957612bbc6130ee6130fa92613426565b905490871b1c92613426565b905581548015612c035781019261311084613426565b81939154921b1b191690555560c05180f35b50505050610398565b60405162461bcd60e51b815260206004820152601a60248201527927b7363c903a3432903a37bab93730b6b2b73a1034ba39b2b63360311b6044820152606490fd5b346103765760203660031901126103765760043560c0515260046020526020604060c0512054604051908152f35b346103765760203660031901126103765760043560c0515260036020526020604060c0512054604051908152f35b346103765760c05180600319360112610a2757602060ff601b54166040519015158152f35b346103765760203660031901126103765760043561320a613549565b600f54808211613286578181039081116102e357600f5560145460405163a9059cbb60e01b8152336004820152602481019290925260c05160209183916044918391906001600160a01b03165af18015610326576132685760c05180f35b61327f9060203d811161031f5761031081836135be565b5080610398565b60405162461bcd60e51b815260206004820152602360248201527f416d6f756e74206578636565647320706c6174666f726d2070726f66697420706044820152621bdbdb60ea1b6064820152608490fd5b346103765760c05180600319360112610a27576132f2613549565b6013546001600160a01b0316803b1561037657604051906379ba509760e01b82528160048160c05180945af180156103265761332e5760c05180f35b61333790613575565b80610398565b34610376576020366003190112610376576004356001600160a01b038116908190036103765761336b613549565b801561338b57601380546001600160a01b03191691909117905560c05180f35b60405162461bcd60e51b815260206004820152601d60248201527f496e76616c696420526f756e64436f6e73756d657220616464726573730000006044820152606490fd5b346103765760203660031901126103765760043560c0515260076020526020604060c0512054604051908152f35b34610b1d576020366003190112610b1d57602090600435600052600882526040600020548152f35b600e5481101561344157600e60005260206000200190600090565b634e487b7160e01b600052603260045260246000fd5b600b5481101561344157600b60005260206000200190600090565b600c5481101561344157600c60005260206000200190600090565b601a5481101561344157601a60005260206000200190600090565b906020600319830112610b1d576001600160401b039160043590838211610b1d5780602383011215610b1d578160040135938411610b1d5760248483010111610b1d576024019190565b90815180825260208080930193019160005b828110613512575050505090565b835185529381019392810192600101613504565b60005b8381106135395750506000910152565b8181015183820152602001613529565b6000546001600160a01b0316330361355d57565b60405163118cdaa760e01b8152336004820152602490fd5b6001600160401b0381116109fe57604052565b606081019081106001600160401b038211176109fe57604052565b604081019081106001600160401b038211176109fe57604052565b601f909101601f19168101906001600160401b038211908210176109fe57604052565b6001600160401b0381116109fe5760051b60200190565b8051156134415760200190565b80518210156134415760209160051b010190565b6020908160408183019282815285518094520193019160005b828110613640575050505090565b83516001600160a01b031685529381019392810192600101613632565b90816020910312610b1d57518015158103610b1d5790565b90816020910312610b1d57516001600160a01b0381168103610b1d5790565b604091949392606082019560018060a01b0316825260208201520152565b6013546001600160a01b03908116330361378e57600090828252600d6020526040822054161561378a57600960205260408120805460ff8116156136f7575b50505050565b60ff19166001179055600a54600160401b811015613776576001810180600a5581101561376257600a82526000805160206139ed833981519152018290557f7d0aa81802409b7192071df4a878a097b916284c6d918e806260e002d963a40e9080a2388080806136f1565b634e487b7160e01b82526032600452602482fd5b634e487b7160e01b82526041600452602482fd5b5050565b60405162461bcd60e51b815260206004820152601260248201527127b7363c902937bab73221b7b739bab6b2b960711b6044820152606490fd5b906137d2826135e1565b6137df60405191826135be565b82815280926137f0601f19916135e1565b0190602036910137565b60001981146102e35760010190565b81601f82011215610b1d57803591613820836135e1565b9261382e60405194856135be565b808452602092838086019260051b820101928311610b1d578301905b828210613858575050505090565b8135815290830190830161384a565b519060ff82168203610b1d57565b90816060910312610b1d5761388981613867565b916040602083015192015190565b60005b600c805490818310156139365783916138b284613472565b939054600394851b1c146138d1575050506138cc906137fa565b61389a565b91935091600019918281019081116102e357808203613912575b505081548015612c035781019261390184613472565b81939154921b1b1916905555600190565b612bbc61392161392d92613472565b905490871b1c92613472565b905538806138eb565b50505050600090565b60005b601a908154918282101561393657839261395b8361348d565b949054600395861b1c1461397a57505061397591506137fa565b613942565b9091600019918281019081116102e3578082036139c8575b505081548015612c03578101926139a88461348d565b81939154921b1b1916905555600052601960205260006040812055600190565b612bbc6139d76139e39261348d565b905490871b1c9261348d565b9055388061399256fec65a7bb8d6351c1cf70c95a316cc6a92839c986682d98bc35f958f4883f9d2a88be0079c531659141344cd1fd0a4f28419497f9722a3daafe3b4186f6b6457e0a164736f6c6343000814000a6080806040523461001657612eb8908161001c8239f35b600080fdfe60806040908082526004908136101561001757600080fd5b600091823560e01c91826301ffc9a71461261e575081631c371e2b146125f95781631f21f9af146125d05781632ddc7de7146125b15781632dfc8ee914612580578163326209b4146120b35781633482b64414612069578163380e90bd14611e66578163392e53cd14611e3f5781633e413bee14611e16578163429c2ed714611dd8578163591e791c14611d4b5781635bd9e29914611d22578163665a11ca14611cf9578163715018a614611ca05781638da5cb5b14611c6a57816399892e4714611c4d578163a2e3215c146114e1578163aaafcf7f14611448578163b06a5c5214611429578163bc197c81146113a3578163bf333f2c14611386578163dbb3f5371461135f578163dd9089aa14610bd4578163f21ffa6b146108cc578163f23a6e6114610877578163f2ccb3971461024657508063f2fde38b146102195763ffd4493c1461016557600080fd5b34610216578060031936011261021657815160078054808352908352602093928483019290918390600080516020612e0c83398151915290845b8181106101f957505050816101b591038261270c565b83519485948186019282875251809352850193925b8281106101d957505050500390f35b83516001600160a01b0316855286955093810193928101926001016101ca565b82546001600160a01b03168452928801926001928301920161019f565b80fd5b503461021657602036600319011261021657610243610236612681565b61023e6127eb565b612824565b80f35b83915034610873578160031936011261087357610261612671565b90602490813560ff6006549461027b828760a01c166128b5565b61028a828760a81c16156128f3565b1661029760038210612939565b6102a2821515612977565b6005548354600254885163856296f760e01b81528087018b9052878101919091526001841b60448201526020976001600160a01b039593928616928616918981606481865afa801561078e578a918d91610842575b508b5163039dd75360e41b8152948591829161031691908c8401612bd5565b0381855afa928315610838578b93610809575b508951627eeac760e11b815289818061034587338d8401612bd5565b0381865afa801561078e5785918d916107d8575b5010610798576060929189896103b793828a8f808c8f926103928e61039992519e8f610384816126f1565b600381528936910137612d83565b918d612ad0565b52519788958694859363782d085b60e01b855284015282018b612ae4565b0392165afa91821561078e578c9261075f575b508b82121561072857808c913b156107245785829161040495838f8d905198899586948593637921219560e11b8552309033908601612c93565b03925af1928315610718578a936106fb575b50908a6104459492898960065416938351978896879586946315bd761160e01b86528501526044840190612ae4565b908d83015203925af190811561061b5789916106ce575b50888761048c8688541661046f85612d83565b8c5163a9059cbb60e01b81529485938492839190338e8401612bd5565b03925af19081156106c4578a91610697575b501561065e57806104b16104cd92612d83565b848b52600989526104c68a8c20918254612a5e565b9055612d83565b8751918252868201527f59bb1b9bbd3cec3437b204c969642374ba2f0fd9d3b7cfc39b49024d9e60d454873392a3600654169184519063b20f8e7f60e01b92838352878184015285838381885afa928315610654578893610625575b5086519184835260018284015286838281895afa94851561061b5787938a966105e6575b5060029495968951958694859384528301525afa9384156105dc578694610597575b5050610591600080516020612e2c833981519152938654955193849384612d6d565b0390a280f35b90809450813d83116105d5575b6105ae818361270c565b810103126105d057610591600080516020612e2c83398151915293519361056f565b600080fd5b503d6105a4565b85513d88823e3d90fd5b848195929697503d8311610614575b6105ff818361270c565b810103126105d057600293879351959461054d565b503d6105f5565b88513d8b823e3d90fd5b9092508581813d831161064d575b61063d818361270c565b810103126105d057519188610529565b503d610633565b87513d8a823e3d90fd5b875162461bcd60e51b8152808601889052601481880152731554d110c81d1c985b9cd9995c8819985a5b195960621b6044820152606490fd5b6106b79150883d8a116106bd575b6106af818361270c565b810190612b59565b8a61049e565b503d6106a5565b89513d8c823e3d90fd5b90508681813d83116106f4575b6106e5818361270c565b810103126105d057518961045c565b503d6106db565b610707919293506126ad565b6107145787908a8c610416565b8980fd5b508a51903d90823e3d90fd5b5080fd5b8a5162461bcd60e51b81528089018b90526012818b01527124b73b30b634b2103a3930b2329033b0b4b760711b6044820152606490fd5b9091508981813d8311610787575b610777818361270c565b810103126105d05751908c6103ca565b503d61076d565b8b513d8e823e3d90fd5b895162461bcd60e51b81528088018a9052601b818a01527a496e73756666696369656e74206f7574636f6d6520746f6b656e7360281b6044820152606490fd5b8092508b8092503d8311610802575b6107f1818361270c565b810103126105d0578490518d610359565b503d6107e7565b9092508881813d8311610831575b610821818361270c565b810103126105d05751918b610329565b503d610817565b8a513d8d823e3d90fd5b82819392503d831161086c575b610859818361270c565b810103126105d0575189906103166102f7565b503d61084f565b8280fd5b8383346102165760a036600319011261021657610892612681565b5061089b612697565b50608435906001600160401b03821161021657506020926108be91369101612795565b505163f23a6e6160e01b8152f35b83838092346107245760209283600319360112610873576108eb612671565b936108f46127eb565b6006549061090760ff8360a01c166128b5565b61091760ff8360a81c16156128f3565b60ff86169561092860038810612939565b61ffff60a81b19831660ff60b01b60b09290921b91821617600160a81b176006556001600160a01b039290861690831617803b15610b3a57858091868651809481936321eb936b60e11b83525af18015610bb257908691610bc0575b5050600160ff60065460b01c161b83519061099e826126d6565b600182528236818401376109b182612ac3565b528260055416838654169060025490803b15610bbc57889283896109e78a5197889687958694626dc0df60e21b86528501612d94565b03925af18015610bb257908691610b9a575b5050835483516370a0823160e01b81523081870152919083168183602481845afa928315610b5c578793610b66575b508183610a509286600154168a8a8a519687958694859363095ea7b360e01b85528401612bd5565b03925af18015610b5c57610b3e575b5050816001541690813b15610b3a5785916024839286519485938492634410462760e01b84528a8401525af18015610b3057908591610b1c575b50506001541691823b15610b1857839260248492845195869384926314a93dc160e11b845230908401525af1908115610b0f5750610afb575b50547f739f283563fb51ab6b89ee95d937b2e63a6cfcb83c385dbebb629f9d97bd43e68380a380f35b610b04906126ad565b610724578183610ad2565b513d84823e3d90fd5b8380fd5b610b25906126ad565b610b18578387610a99565b83513d87823e3d90fd5b8580fd5b81610b5492903d106106bd576106af818361270c565b508780610a5f565b85513d89823e3d90fd5b965091508086813d8111610b93575b610b7f818361270c565b810103126105d05794518795909181610a28565b503d610b75565b610ba3906126ad565b610bae5784886109f9565b8480fd5b84513d88823e3d90fd5b8880fd5b610bc9906126ad565b610bae578488610984565b82843461072457806003193601126107245790610c1c91610bf3612671565b906024928335926006549060ff968783610c1282809660a01c166128b5565b60a81c16156128f3565b1692600393610c2c858210612939565b610c37821515612977565b338352602095600887528785852054161561133c575b8395845b89811682811015610c9357848103610c73575b50610c6e90612a2a565b610c51565b610c6e9198610c8c91885260098b528888205490612a51565b9790610c64565b50508990889387958964746a52880090810180911161132a57610cc4610ccc91848b5260098952898b205490612a5e565b821115612a6b565b865192610cd8846126f1565b83526060368785013780610cec8385612ad0565b52600654875163782d085b60e01b81528581018890526001600160a01b039490918890839087168180610d218c820187612ae4565b03915afa9182156106c4578a926112fb575b50610d3f8a8313612b18565b6101908083029083820414831517156112e95790610d918a6127108d9404928b610d698588612a51565b9460011c948a8c54168c8886518098819582946323b872dd60e01b8452309033908501612b71565b03925af19283156112df5786610ddc93610db68f93968e978a916112c2575b50612b93565b8b86541690888d60065416915180978195829463095ea7b360e01b9b8c85528401612bd5565b03925af1958d87156112b957868c8f958f90610e299b610e0391859161129c575b50612bf0565b8d600654169484519b8c97889687956315bd761160e01b87528601526044850190612ae4565b9183015203925af193841561129257839461125f575b50866005541687895416908c60025481519063856296f760e01b8252878d8301528d82015260018a1b60448201528d81606481865afa938415611255578e918895611220575b508c610ea28451968793849363039dd75360e41b85528401612bd5565b0381855afa928315611216578d918c9188956111de575b5051627eeac760e11b8152919082908190610ed990879030908401612bd5565b0381855afa80156111d4578891879161119e575b5090610efa911015612c3c565b803b15610bae57868591610f29938f8d85915196879586948593637921219560e11b8552339030908601612c93565b03925af190811561113a57849161118a575b5050610f628a838d8a8c541690878d8d600154169251968795869485938b85528401612bd5565b03925af1801561113a57610f7d91859161116d575b50612cc7565b8660015416803b15610b185783838b8b8f849051958694859363e574831560e01b85528401525af1908c8215611164578493868e938c95611144575b508c908582541692610fe9600080516020612dec8339815191529788541695519889968795869485528401612bd5565b03925af191821561113a57889261100791869161111d575b50612d13565b541690813b156108735782918983928d51948593849263fe80d50960e01b84528d8401525af18015611113576110ff575b508390526009875287892061104e828254612a51565b9055875191825286820152600080516020612e6c833981519152873392a3600654169184519063b20f8e7f60e01b92838352878184015285838381885afa928315610654578893610625575086519184835260018284015286838281895afa94851561061b5787938a966105e6575060029495968951958694859384528301525afa9384156105dc578694610597575050610591600080516020612e2c833981519152938654955193849384612d6d565b611108906126ad565b610bbc57888a611038565b8a513d84823e3d90fd5b61113491508d803d106106bd576106af818361270c565b8f611001565b8c513d86823e3d90fd5b92509350935061115491506126ad565b61087357868a8c84938638610fb9565b513d86823e3d90fd5b61118491508c8d3d106106bd576106af818361270c565b8e610f77565b611193906126ad565b61087357828d610f3b565b965050508b85813d83116111cd575b6111b7818361270c565b810103126105d057610efa878f96519091610eed565b503d6111ad565b8e513d88823e3d90fd5b9450505090945081813d831161120f575b6111f9818361270c565b810103126105d057518c938b8a8e610ed9610eb9565b503d6111ef565b81513d88823e3d90fd5b97509350905085813d831161124e575b61123a818361270c565b810103126105d0578c8c8f96519338610e85565b503d611230565b82513d89823e3d90fd5b8a809295508194503d831161128b575b611279818361270c565b810103126105d0578a9151928c610e3f565b503d61126f565b8b513d85823e3d90fd5b6112b39150893d8b116106bd576106af818361270c565b38610dfd565b513d87823e3d90fd5b6112d99150853d87116106bd576106af818361270c565b38610db0565b82513d87823e3d90fd5b634e487b7160e01b8b5260118752878bfd5b9091508781813d8311611323575b611313818361270c565b810103126105d05751908a610d33565b503d611309565b634e487b7160e01b8952601185528589fd5b611345336129c2565b33845260088752848420805460ff19166001179055610c4d565b82843461072457816003193601126107245760209060ff60065460a81c1690519015158152f35b828434610724578160031936011261072457602090516101908152f35b8383346102165760a0366003190112610216576113be612681565b506113c7612697565b506001600160401b0390604435828111610724576113e8903690860161272f565b5060643582811161072457611400903690860161272f565b50608435918211610216575060209261141b91369101612795565b505163bc197c8160e01b8152f35b8284346107245781600319360112610724576020906003549051908152f35b8284346107245760209283600319360112610873578360ff602461146a612671565b600654865163b20f8e7f60e01b81529190931694810194909452839182906001600160a01b03165afa9283156114d657926114a7575b5051908152f35b9091508281813d83116114cf575b6114bf818361270c565b810103126105d0575190836114a0565b503d6114b5565b8251903d90823e3d90fd5b9050346107245760e0366003190112610724576114fc612671565b9160249384359160843560ff958682168092036105d057869061152a82600654610c12828260a01c166128b5565b16600395611539878310612939565b611544861515612977565b3384526020966008885288868620541615611c2a575b8496855b8a8116838110156115a057858103611580575b5061157b90612a2a565b61155e565b61157b919961159991895260098c528989205490612a51565b9890611571565b505092939195985093989564746a528800908101809111611c18576115d36115db91858c5260098a528a8c205490612a5e565b831115612a6b565b8751936115e7856126f1565b845260603688860137816115fb8486612ad0565b52600654885163782d085b60e01b81528681018990526001600160a01b03959092909189908490881681806116328d820188612ae4565b03915afa928315610838578b93611be9575b506116508b8413612b18565b610190808402908482041484151715611bd757906127108c939204906116768286612a51565b9160011c92888a541691823b15610b3a57858c8f948d8360e4928851968795869463d505accf60e01b86523390860152309085015260443560448501526064356064850152608484015260a43560a484015260c43560c48401525af18015611bcd578d918791611baf575b505061170a938a8c54168c8886518098819582946323b872dd60e01b8452309033908501612b71565b03925af19283156112df578661172e93610db68f93968e978a916112c25750612b93565b03925af1958d87156112b957868c8f958f906117549b610e0391859161129c5750612bf0565b9183015203925af1938415611292578394611b7c575b50866005541687895416908c60025481519063856296f760e01b8252878d8301528d82015260018a1b60448201528d81606481865afa938415611255578e918895611b47575b508c6117cd8451968793849363039dd75360e41b85528401612bd5565b0381855afa928315611216578d918c918895611b0f575b5051627eeac760e11b815291908290819061180490879030908401612bd5565b0381855afa80156111d45788918791611ad9575b5090611825911015612c3c565b803b15610bae57868591611854938f8d85915196879586948593637921219560e11b8552339030908601612c93565b03925af190811561113a578491611ac5575b505061188d8a838d8a8c541690878d8d600154169251968795869485938b85528401612bd5565b03925af1801561113a576118a7918591611aa85750612cc7565b8660015416803b15610b185783838b8b8f849051958694859363e574831560e01b85528401525af1908c8215611164578493868e938c95611a88575b508c908582541692611913600080516020612dec8339815191529788541695519889968795869485528401612bd5565b03925af191821561113a578892611930918691611a6b5750612d13565b541690813b156108735782918983928d51948593849263fe80d50960e01b84528d8401525af1801561111357611a57575b5083905260098752878920611977828254612a51565b9055875191825286820152600080516020612e6c833981519152873392a3600654169184519063b20f8e7f60e01b92838352878184015285838381885afa928315610654578893611a28575086519184835260018284015286838281895afa94851561061b5787938a966105e6575060029495968951958694859384528301525afa9384156105dc578694610597575050610591600080516020612e2c833981519152938654955193849384612d6d565b9092508581813d8311611a50575b611a40818361270c565b810103126105d057519138610529565b503d611a36565b611a60906126ad565b610bbc578838611961565b611a8291508d803d106106bd576106af818361270c565b38611001565b925093509350611a9891506126ad565b61087357868a8c849386386118e3565b611abf91508c8d3d106106bd576106af818361270c565b38610f77565b611ace906126ad565b610873578238611866565b965050508b85813d8311611b08575b611af2818361270c565b810103126105d057611825878f96519091611818565b503d611ae8565b9450505090945081813d8311611b40575b611b2a818361270c565b810103126105d057518c938b8a8e6118046117e4565b503d611b20565b97509350905085813d8311611b75575b611b61818361270c565b810103126105d0578c8c8f965193386117b0565b503d611b57565b8a809295508194503d8311611ba8575b611b96818361270c565b810103126105d0578a9151923861176a565b503d611b8c565b9092949350611bbe91506126ad565b610b1857908b908b85386116e1565b83513d88823e3d90fd5b634e487b7160e01b8c5260118852888cfd5b9092508881813d8311611c11575b611c01818361270c565b810103126105d057519138611644565b503d611bf7565b634e487b7160e01b8a5260118652868afd5b611c33336129c2565b33855260088852858520805460ff1916600117905561155a565b828434610724578160031936011261072457602091549051908152f35b828434610724578160031936011261072457600080516020612dec8339815191525490516001600160a01b039091168152602090f35b8234610216578060031936011261021657611cb96127eb565b600080516020612dec83398151915280546001600160a01b031981169091556000906001600160a01b0316600080516020612e4c8339815191528280a380f35b82843461072457816003193601126107245760015490516001600160a01b039091168152602090f35b82843461072457816003193601126107245760055490516001600160a01b039091168152602090f35b828434610724578060031936011261072457611dc1611d68612671565b8251611d73816126f1565b60038152602095869260603685850137611d9360ff602435921684612ad0565b528260018060a01b03600654169186519586948593849363782d085b60e01b85528401526024830190612ae4565b03915afa9283156114d657926114a7575051908152f35b8284346107245760203660031901126107245760209160ff9082906001600160a01b03611e03612681565b1681526008855220541690519015158152f35b839150346108735782600319360112610873575490516001600160a01b03909116815260209150f35b82843461072457816003193601126107245760209060ff60065460a01c1690519015158152f35b839150346108735760e0366003190112610873576001600160a01b039060643582811691908290036105d057608435918383168093036105d05760a435918483168093036105d05760c4359485168095036105d057600080516020612e8c8339815191529485549460ff86891c16159460018060401b03871696871580612062575b60018099149081612058575b15908161204f575b5061203f576001600160401b03198116881789558a959493928692909188612024575b50611f28612886565b611f30612886565b611f3933612824565b8435835560443560025560243560035560018060a01b03199186836006541617600655828a5416178955818554161784558260055491821617600555161791823b15610b185760448492838a51958694859363a22cb46560e01b85528401528960248401525af1801561201a57612006575b50506006805460ff60a01b1916600160a01b179055611fc8578380f35b815460ff60401b191690915590519081527fc7f505b2f371ae2175ee4913f4499e1f2633a7b5936321eed1cdaeb6115181d290602090a18180808380f35b61200f906126ad565b610bae578486611fab565b86513d84823e3d90fd5b6001600160481b0319166001600160401b01178a558c611f1f565b895163f92ee8a960e01b81528590fd5b9050158c611efc565b303b159150611ef4565b5086611ee8565b839150346108735760203660031901126108735735600754811015610873576007600052600080516020612e0c833981519152015490516001600160a01b03909116815260209150f35b839150346108735782600319360112610873576006546120d860ff8260a01c166128b5565b60ff8160a81c16156125475760ff60019160b01c161b8251916120fa836126d6565b600183526020918236818601378061211185612ac3565b5260018060a01b03806005541681845416906002549388519063856296f760e01b82528a878301526024958683015260448201528681606481855afa80156106c45787918b91612516575b50895163039dd75360e41b8152938491829161217b91908a8401612bd5565b0381845afa91821561061b5789926124e7575b508751627eeac760e11b8152908682806121ab86338b8401612bd5565b0381845afa9182156106c4578a926124b8575b50811561246a5790818a923b15610873576121f193838b51809681958294637921219560e11b8452308d33908601612c93565b03925af1801561065457612457575b508083541690878751966370a0823160e01b9384895230878a015287898781845afa98891561244d57839961241a575b50836005541660025490803b15610bae578492838a6122618f5197889687958694626dc0df60e21b86528501612d94565b03925af18015612410576123f8575b5050835416948651918252308483015284828481895afa80156106545788906123c9575b61229e9250612a5e565b93841561237a57838651809263a9059cbb60e01b8252818a816122c48b338b8401612bd5565b03925af1908115612370578791612353575b50156123145750507f810c0a3d2e7f4765a144ddb7039e632b1abd74268600d3f570c128cb7b6a09b69060ff60065460b01c1693519283523392a380f35b601c9060649386519362461bcd60e51b85528401528201527b1554d110c81d1c985b9cd9995c881d1bc81d5cd95c8819985a5b195960221b6044820152fd5b61236a9150843d86116106bd576106af818361270c565b876122d6565b86513d89823e3d90fd5b5060259060849386519362461bcd60e51b85528401528201527f526564656d7074696f6e206661696c65642c206e6f207061796f757420726563604482015264195a5d995960da1b6064820152fd5b508482813d83116123f1575b6123df818361270c565b810103126105d05761229e9151612294565b503d6123d5565b612401906126ad565b61240c578789612270565b8780fd5b89513d84823e3d90fd5b8880929a508194503d8311612446575b612434818361270c565b810103126105d057899151978b612230565b503d61242a565b8a513d85823e3d90fd5b612463909791976126ad565b9587612200565b885162461bcd60e51b81528087018890526023818701527f4e6f2077696e6e696e67206f7574636f6d6520746f6b656e7320746f2072656460448201526265656d60e81b6064820152608490fd5b9091508681813d83116124e0575b6124d0818361270c565b810103126107145751908a6121be565b503d6124c6565b9091508581813d831161250f575b6124ff818361270c565b81010312610bbc5751908961218e565b503d6124f5565b82819392503d8311612540575b61252d818361270c565b810103126107145751869061217b61215c565b503d612523565b506020606492519162461bcd60e51b8352820152601360248201527213585c9ad95d081b9bdd081c995cdbdb1d9959606a1b6044820152fd5b828434610724576020366003190112610724578060209260ff6125a1612671565b1681526009845220549051908152f35b8284346107245781600319360112610724576020906002549051908152f35b82843461072457816003193601126107245760065490516001600160a01b039091168152602090f35b82843461072457816003193601126107245760209060ff60065460b01c169051908152f35b915034610873576020366003190112610873573563ffffffff60e01b81168091036108735760209250630271189760e51b8114908115612660575b5015158152f35b6301ffc9a760e01b14905083612659565b6004359060ff821682036105d057565b600435906001600160a01b03821682036105d057565b602435906001600160a01b03821682036105d057565b6001600160401b0381116126c057604052565b634e487b7160e01b600052604160045260246000fd5b604081019081106001600160401b038211176126c057604052565b608081019081106001600160401b038211176126c057604052565b601f909101601f19168101906001600160401b038211908210176126c057604052565b9080601f830112156105d0578135906001600160401b0382116126c0578160051b604051936020936127638584018761270c565b855283808601928201019283116105d0578301905b828210612786575050505090565b81358152908301908301612778565b81601f820112156105d0578035906001600160401b0382116126c057604051926127c9601f8401601f19166020018561270c565b828452602083830101116105d057816000926020809301838601378301015290565b600080516020612dec833981519152546001600160a01b0316330361280c57565b60405163118cdaa760e01b8152336004820152602490fd5b6001600160a01b0390811690811561286d57600080516020612dec83398151915280546001600160a01b03198116841790915516600080516020612e4c833981519152600080a3565b604051631e4fbdf760e01b815260006004820152602490fd5b60ff600080516020612e8c8339815191525460401c16156128a357565b604051631afcd79f60e31b8152600490fd5b156128bc57565b60405162461bcd60e51b815260206004820152600f60248201526e139bdd081a5b9a5d1a585b1a5e9959608a1b6044820152606490fd5b156128fa57565b60405162461bcd60e51b815260206004820152601760248201527613585c9ad95d08185b1c9958591e481c995cdbdb1d9959604a1b6044820152606490fd5b1561294057565b60405162461bcd60e51b815260206004820152600f60248201526e496e76616c6964206f7574636f6d6560881b6044820152606490fd5b1561297e57565b606460405162461bcd60e51b815260206004820152602060248201527f416d6f756e74206d7573742062652067726561746572207468616e207a65726f6044820152fd5b600754600160401b8110156126c0576001810180600755811015612a14576007600052600080516020612e0c8339815191520180546001600160a01b0319166001600160a01b03909216919091179055565b634e487b7160e01b600052603260045260246000fd5b60ff1660ff8114612a3b5760010190565b634e487b7160e01b600052601160045260246000fd5b91908201809211612a3b57565b91908203918211612a3b57565b15612a7257565b60405162461bcd60e51b8152602060048201526024808201527f4265742065786365656473206d6178696d756d20616c6c6f7761626c6520616d6044820152631bdd5b9d60e21b6064820152608490fd5b805115612a145760200190565b8051821015612a145760209160051b010190565b90815180825260208080930193019160005b828110612b04575050505090565b835185529381019392810192600101612af6565b15612b1f57565b60405162461bcd60e51b8152602060048201526012602482015271125b9d985b1a59081d1c9859194818dbdcdd60721b6044820152606490fd5b908160209103126105d0575180151581036105d05790565b6001600160a01b03918216815291166020820152604081019190915260600190565b15612b9a57565b60405162461bcd60e51b81526020600482015260136024820152721d1c985b9cd9995c919c9bdb4819985a5b1959606a1b6044820152606490fd5b6001600160a01b039091168152602081019190915260400190565b15612bf757565b60405162461bcd60e51b815260206004820152601d60248201527f617070726f766520746f206d61726b65744d616b6572206661696c65640000006044820152606490fd5b15612c4357565b60405162461bcd60e51b815260206004820152602260248201527f4e6f7420656e6f756768206f7574636f6d6520746f6b656e7320726563656976604482015261195960f21b6064820152608490fd5b929060c0949260018060a01b0380921685521660208401526040830152606082015260a06080820152600060a08201520190565b15612cce57565b60405162461bcd60e51b815260206004820152601f60248201527f417070726f766520746f204c6971756964697479506f6f6c206661696c6564006044820152606490fd5b15612d1a57565b60405162461bcd60e51b815260206004820152602560248201527f417070726f766520746f206f776e65722f4d61726b6574466163746f72792066604482015264185a5b195960da1b6064820152608490fd5b6040919493926060820195825260208201520152565b600160ff1b8114612a3b5760000390565b91608083019160018060a01b0316835260a0602093849260008483015260408201526080606082015285518094520193019160005b828110612dd7575050505090565b835185529381019392810192600101612dc956fe9016d09d72d40fdae2fd8ceac6b6234c7706214fd39c1cd1e609a0528c199300a66cc928b5edb82af9bd49922954155ab7b0942694bea4ce44661d9a8736c688893ac9c513b4380780f867c7b8bd044b0c9868ae211e7b5c6daaa79c936e4dbe8be0079c531659141344cd1fd0a4f28419497f9722a3daafe3b4186f6b6457e058d1b6a27802b679fdc085f457b7699ca7b334df2e9f26f1bf92773f0810a3a2f0c57e16840df040f15088dc2f81fe391c3923bec73e23a9662efc9c229c6a00a164736f6c6343000814000a6080806040523461001657613b13908161001c8239f35b600080fdfe608080604052600436101561001357600080fd5b600090813560e01c90816301ffc9a714613241575080631c342104146132235780631f21f9af146131fa578063253619c61461318557806326dcfd37146131d05780632b6a9200146131a35780632ddc7de7146131855780632dfc8ee914613153578063326209b414612cdb5780633482b64414612c91578063392e53cd14612c6b5780633e413bee14612c425780633f1cfdc614612c24578063429c2ed714612be557806354d0940d14612bc8578063591e791c14612b3f5780635bd9e29914612b165780635dae8c8d1461158257806363f8abcc14612ae7578063654c6daf14612188578063665a11ca14612abe5780636697262c1461273557806367bfef67146126c25780636bc01b361461267b578063715018a6146126225780637af37c05146121e257806388cbd000146121a95780638c20cad0146121885780638da5cb5b146121525780639a9f784614611f475780639b34ae0314611f23578063a2e3215c146116bc578063a5b679c21461163a578063aaafcf7f146115a0578063b06a5c5214611582578063bc197c81146114f9578063bf333f2c146114dc578063c6cd35de14611488578063cd5c843314611468578063d341295d1461144a578063dbb3f53714611424578063dd9089aa14610c79578063f21ffa6b14610924578063f23a6e61146108ca578063f2ccb39714610325578063f2fde38b146102f8578063f809ab43146102db5763ffd4493c1461023157600080fd5b346102d857806003193601126102d8576040518091600a549081835260208093018092600a835284832090835b8181106102bb5750505084610274910385613366565b60405193838594850191818652518092526040850193925b82811061029b57505050500390f35b83516001600160a01b03168552869550938101939281019260010161028c565b82546001600160a01b03168452928601926001928301920161025e565b80fd5b50346102d857806003193601126102d85760209054604051908152f35b50346102d85760203660031901126102d8576103226103156132d7565b61031d613454565b61348d565b80f35b50346102d85760403660031901126102d85761033f613296565b906024918235906009549061036960ff8361035f82809660a01c16613555565b60a81c1615613593565b600194828087541692169061037f8383106135d1565b61038a85151561360b565b60018060a01b0391826007541695836006541696600554956040519663856296f760e01b88528a6004890152858801528a841b60448801526020968781606481865afa9081156106b1578b9161089b575b5060405163039dd75360e41b81529988918b9182916103fd9160048401613844565b0381855afa98891561078c578a9961086c575b50604051627eeac760e11b815287818061042e8d3360048401613844565b0381865afa9081156106b1579084918c9161083b575b50106108015761045390613706565b9061045d83613954565b6104678584613745565b5285600854169887604051809b63782d085b60e01b825282600483015281806104928b820189613759565b03915afa998a156106b1578b9a6107d2575b508a8a121561079b57813b1561079757836104da928c9283604051809681958294637921219560e11b845230336004860161389c565b03925af1801561078c578792918b9161076f575b505061051f908660085416908b604051809c819582946315bd761160e01b8452604060048501526044840190613759565b908a83015203925af1968715610764578897610735575b508785610567866006541661054a8b613954565b60405194858094819363a9059cbb60e01b83523360048401613844565b03925af190811561072a5789916106fd575b50156106c25761058c8799949699613954565b828952600c86526105a260408a209182546136a1565b90556105af885497613954565b60405191825285820152867f0f13b83d52a44f453a59830044e922b8d4010375e70fb179f650ab6ce5d95f1060403393a48187815416976105ef89613706565b95889060085416925b61062a575b8888600080516020613aa78339815191528989610624604051928284938452830190613759565b0390a280f35b818116908a8210156106bc5760405163b20f8e7f60e01b8152600481018390529187838781885afa9283156106b1578b9361067b575b509161066f610675938a613745565b526134ef565b846105f8565b92508783813d83116106aa575b6106928183613366565b810103126106a55791519161066f610660565b600080fd5b503d610688565b6040513d8d823e3d90fd5b506105fd565b60405162461bcd60e51b815260048101869052601481850152731554d110c81d1c985b9cd9995c8819985a5b195960621b6044820152606490fd5b61071d9150863d8811610723575b6107158183613366565b8101906137c8565b38610579565b503d61070b565b6040513d8b823e3d90fd5b9096508481813d831161075d575b61074d8183613366565b810103126106a557519538610536565b503d610743565b6040513d8a823e3d90fd5b61077b91929350613322565b61078857859089386104ee565b8880fd5b6040513d8c823e3d90fd5b8a80fd5b60405162461bcd60e51b8152600481018990526010818801526f4e6f206761696e20706f737369626c6560801b6044820152606490fd5b9099508781813d83116107fa575b6107ea8183613366565b810103126106a5575198386104a4565b503d6107e0565b60405162461bcd60e51b81526004810188905260138187015272496e73756666696369656e7420746f6b656e7360681b6044820152606490fd5b809250898092503d8311610865575b6108548183613366565b810103126106a55783905138610444565b503d61084a565b9098508681813d8311610894575b6108848183613366565b810103126106a557519738610410565b503d61087a565b90508781813d83116108c3575b6108b28183613366565b810103126106a557516103fd6103db565b503d6108a8565b50346102d85760a03660031901126102d8576108e46132d7565b506108ed6132ed565b506084356001600160401b0381116109205761090d9036906004016133fe565b5060405163f23a6e6160e01b8152602090f35b5080fd5b50346102d8576020806003193601126109205781610940613296565b91610949613454565b6009549261095c60ff8560a01c16613555565b61096c60ff8560a81c161561397b565b60ff600154169361098260ff83169586106135d1565b61ffff60a81b191660b09190911b60ff60b01b1617600160a81b176009556008546001600160a01b0391908216803b15610be1578380916004604051809481936321eb936b60e11b83525af1908115610c56578491610c65575b50506040516109ea8161334b565b600181528136818301376001851b610a0182613738565b5282600754169083600654169060055492803b15610c6157610a3c9387809460405196879586948593626dc0df60e21b8552600485016139f8565b03925af1908115610c56578491610c42575b50506006546040516370a0823160e01b8152306004820152919083168183602481845afa928315610c03578593610c0e575b508183610aa99286600954168860405180968195829463095ea7b360e01b845260048401613844565b03925af18015610c0357610be5575b5050816009541690813b15610be1578391602483926040519485938492634410462760e01b845260048401525af1908115610bc2578391610bcd575b50508060095416803b15610baa578280916024604051809481936314a93dc160e11b83523060048401525af1908115610bc2578391610bae575b5050600080516020613a6783398151915254168154813b15610baa578291602483926040519485938492630355a55360e31b845260048401525af18015610b9f57610b8b575b5054600080516020613a278339815191528380a380f35b610b9490613322565b610920578138610b74565b6040513d84823e3d90fd5b8280fd5b610bb790613322565b610920578138610b2e565b6040513d85823e3d90fd5b610bd690613322565b610920578138610af4565b8380fd5b81610bfb92903d10610723576107158183613366565b503880610ab8565b6040513d87823e3d90fd5b945091508084813d8111610c3b575b610c278183613366565b810103126106a55792518593909181610a80565b503d610c1d565b610c4b90613322565b610baa578238610a4e565b6040513d86823e3d90fd5b8680fd5b610c6e90613322565b610baa5782386109dc565b50346102d85760403660031901126102d857610c93613296565b60095491610cac60ff8461035f82809760a01c16613555565b610cbd8360015416848416106135d1565b610cca602435151561360b565b338152600b60205282604082205416156113ff575b80818460015416905b85811682811015610d2e578686168103610d0c575b50610d07906134ef565b610ce8565b610d079193610d27918652600c602052604086205490613694565b9290610cfd565b50509064746a5288009081018091116113eb5790610d6b610d61610d70938787168652600c6020526040862054906136a1565b60243511156136ae565b613706565b602435610d7f85851683613745565b5260085460405163782d085b60e01b815260206004820181905290929183906001600160a01b03168180610db66024820187613759565b03915afa918215610bc25783926113b7575b50610dd483831361378d565b610190908183029183830414831517156113a357836020610e2a610dfc612710860487613694565b6006546040516323b872dd60e01b81529485936001600160a01b0390921692849283913033600485016137e0565b03925af1908115610c035790610e47918691611384575b50613802565b60065460085460405163095ea7b360e01b81529160209183916001600160a01b039081169183918a918391610e82918c911660048401613844565b03925af1908115610c035791610ea5610ed6926020948891611367575b5061385f565b60018060a01b036008541690866040518097819582946315bd761160e01b8452604060048501526044840190613759565b90602483015203925af1918215610bc2578392611333575b5060075460065460055460405163856296f760e01b815260048101879052602481019190915260018888161b60448201526001600160a01b039283169290911690602081606481865afa9081156112775786916112ff575b5060405163039dd75360e41b81529160209183918291610f699160048401613844565b0381855afa908115610c035785916112cd575b50813b1561129657610fad85928392604051948580948193637921219560e11b83526024359033306004860161389c565b03925af18015610c56579084916112b9575b505060065460095460405163095ea7b360e01b8152612710840460011c92909160209183916001600160a01b039182169183918a918391611006918a911660048401613844565b03925af1908115610c03579061102391869161129a575b506138d0565b6009546001600160a01b0316803b156112965784809160246040518094819363e574831560e01b83528760048401525af18015610c0357908591611282575b5050600654600080516020613a67833981519152805490916110ba916020916001600160a01b03918216911661109c8661271089046136a1565b918960405180968195829463095ea7b360e01b845260048401613844565b03925af190811561127757916110df612710926110f095948991611258575b50613910565b546001600160a01b031693046136a1565b813b15610be157839160248392604051948593849263fe80d50960e01b845260048401525af18015610bc257908391611244575b505083839493168252600c60205260408220611141828254613694565b9055828254946040519260243584526020840152169084600080516020613ae783398151915260403393a481600154169261117b84613706565b60085490916001600160a01b0390911690835b858116908782101561121b5760405163b20f8e7f60e01b81526004810183905291602083602481885afa9283156112105787936111da575b509161066f6111d59387613745565b61118e565b92506020833d602011611208575b816111f560209383613366565b810103126106a55791519161066f6111c6565b3d91506111e8565b6040513d89823e3d90fd5b8583600080516020613aa783398151915261062488604051918291602083526020830190613759565b61124d90613322565b610920578138611124565b611271915060203d602011610723576107158183613366565b386110d9565b6040513d88823e3d90fd5b61128b90613322565b610be1578338611062565b8480fd5b6112b3915060203d602011610723576107158183613366565b3861101d565b6112c290613322565b610baa578238610fbf565b90506020813d6020116112f7575b816112e860209383613366565b810103126106a5575138610f7c565b3d91506112db565b90506020813d60201161132b575b8161131a60209383613366565b810103126106a55751610f69610f46565b3d915061130d565b9091506020813d60201161135f575b8161134f60209383613366565b810103126106a557519038610eee565b3d9150611342565b61137e9150853d8711610723576107158183613366565b38610e9f565b61139d915060203d602011610723576107158183613366565b38610e41565b634e487b7160e01b84526011600452602484fd5b9091506020813d6020116113e3575b816113d360209383613366565b810103126106a557519038610dc8565b3d91506113c6565b634e487b7160e01b83526011600452602483fd5b61140833613642565b338152600b60205260408120805460ff19166001179055610cdf565b50346102d857806003193601126102d857602060ff60095460a81c166040519015158152f35b50346102d857806003193601126102d8576020600f54604051908152f35b50346102d857806003193601126102d857602060405164746a5288008152f35b50346102d85760203660031901126102d85760ff60016114cb6040602094600435808252600d87526114be8684842054166139ba565b8152601186522054613303565b50015460101c166040519015158152f35b50346102d857806003193601126102d85760206040516101908152f35b50346102d85760a03660031901126102d8576115136132d7565b5061151c6132ed565b506001600160401b03604435818111610baa5761153d9036906004016133a0565b50606435818111610baa576115569036906004016133a0565b506084359081116109205761156f9036906004016133fe565b5060405163bc197c8160e01b8152602090f35b50346102d857806003193601126102d8576020600454604051908152f35b50346102d857602090816003193601126102d8576115bc613296565b60085460405163b20f8e7f60e01b815260ff9290921660048301528390829060249082906001600160a01b03165afa91821561162e5791611601575b50604051908152f35b90508181813d8311611627575b6116188183613366565b810103126106a55751386115f8565b503d61160e565b604051903d90823e3d90fd5b50346102d85760203660031901126102d85760043590818152600360205260ff60408220541660ff6001541611156116855760408160209360ff935260038452205416604051908152f35b60405162461bcd60e51b815260206004820152600f60248201526e125b9d985b1a59081d19585b481251608a1b6044820152606490fd5b50346102d85760e03660031901126102d8576116d6613296565b906084359060ff821682036106a5576116fb60ff60095461035f828260a01c16613555565b61170e60ff6001541660ff8516106135d1565b61171b602435151561360b565b338152600b60205260ff60408220541615611efe575b808160ff60015416905b60ff8116828110156117835760ff87168103611761575b5061175c906134ef565b61173b565b61175c919361177c918652600c602052604086205490613694565b9290611752565b848787858764746a528800908101809111611eea5790610d6b610d616117b99360ff87168852600c6020526040882054906136a1565b6024356117c960ff851683613745565b5260085460405163782d085b60e01b815260206004820181905290939184906001600160a01b031681806118006024820188613759565b03915afa928315610c03578593611eb6575b5061181e85841361378d565b61019090818402918483041484151715611ea25785611841612710840486613694565b6006549092906001600160a01b0316803b15610baa5782809160e46040518096819363d505accf60e01b835233600484015230602484015260ff60443598896044860152606435606486015216608484015260a43560a484015260c43560c48401525af1928315611e95578493611e7c575b505010611e3d57859260206118ed859360018060a01b0360065416906040519586809481936323b872dd60e01b83523033600485016137e0565b03925af1918215610c56576119449261190c918691611e1e5750613802565b60065460085460405163095ea7b360e01b81529360209285926001600160a01b039182169284928a928492918d911660048401613844565b03925af1908115610c5657611965611996926020948791611e01575061385f565b60018060a01b036008541690856040518098819582946315bd761160e01b8452604060048501526044840190613759565b90602483015203925af1928315610b9f578293611dca575b5060075460065460055460405163856296f760e01b8152600481018690526024810191909152600160ff88161b60448201526001600160a01b0392831692909116602082606481865afa918215610c03578592611d90575b5060405163039dd75360e41b8152929160209184918291611a2b919060048401613844565b0381845afa918215610c56578492611d59575b50803b15610be157604051637921219560e11b81529184918391829084908290611a71906024359033306004860161389c565b03925af1908115610bc2578391611d45575b505060065460095460405163095ea7b360e01b8152612710840460011c92909160209183916001600160a01b0391821691839189918391611aca918a911660048401613844565b03925af18015610c5657611ae4918591611d2657506138d0565b6009546001600160a01b0316803b15610be15783809160246040518094819363e574831560e01b83528760048401525af1908115610c56578491611d12575b5050600654600080516020613a678339815191528054611b7a93926020916001600160a01b039081169116611b5c8561271089046136a1565b918860405180988195829463095ea7b360e01b845260048401613844565b03925af1908115610c03576110df61271092611b9c958891611cf35750613910565b813b15610baa57829160248392604051948593849263fe80d50960e01b845260048401525af18015610b9f57611cdf575b505060ff82168352600c60205260408320611be9828254613694565b905560ff8354926040519260243584526020840152169082600080516020613ae783398151915260403393a460ff6001541691611c2583613706565b6008546001600160a01b0316825b60ff81169086821015611cb65760405163b20f8e7f60e01b81526004810183905291602083602481875afa928315611277578693611c80575b509161066f611c7b9386613745565b611c33565b92506020833d602011611cae575b81611c9b60209383613366565b810103126106a55791519161066f611c6c565b3d9150611c8e565b8486600080516020613aa783398151915261062487604051918291602083526020830190613759565b611ce890613322565b610baa578284611bcd565b611d0c915060203d602011610723576107158183613366565b8b6110d9565b611d1b90613322565b610baa578287611b23565b611d3f915060203d602011610723576107158183613366565b8861101d565b611d4e90613322565b610920578186611a83565b935090506020833d602011611d88575b81611d7660209383613366565b810103126106a5578592519087611a3e565b3d9150611d69565b94509190506020843d602011611dc2575b81611dae60209383613366565b810103126106a55792518693916020611a06565b3d9150611da1565b915091506020813d602011611df9575b81611de760209383613366565b810103126106a55783905191856119ae565b3d9150611dda565b611e189150853d8711610723576107158183613366565b8a610e9f565b611e37915060203d602011610723576107158183613366565b89610e41565b60405162461bcd60e51b815260206004820152601760248201527614195c9b5a5d08185b5bdd5b9d081d1bdbc81cdb585b1b604a1b6044820152606490fd5b611e8891929350613322565b610c6157819087896118b3565b50604051903d90823e3d90fd5b634e487b7160e01b86526011600452602486fd5b9092506020813d602011611ee2575b81611ed260209383613366565b810103126106a557519185611812565b3d9150611ec5565b634e487b7160e01b85526011600452602485fd5b611f0733613642565b338152600b60205260408120805460ff19166001179055611731565b50346102d857806003193601126102d857602060ff60095460b01c16604051908152f35b50346102d85760603660031901126102d857600435602480358015158091036106a55760443591821515908184036106a557611f81613454565b611f9260ff60095460a01c16613555565b848652602093600d855260ff60408820541661211e57858752600d8552604087209060ff1991600183825416179055612115575b60405160a081016001600160401b0381118282101761210057604052868152858101918883526040820160ff815260608301918783526080840193878552601054600160401b8110156120ed578060016120239201601055613303565b9190916120da579160ff600161204f959382955181550197511515918854169116178655511684613965565b5115159062ff000063ff00000084549251151560181b169260101b169063ffff00001916171790556010549060001982019182116120c85750916040917f8689dff692a3bab12386007d12fd6229558fbb17748c43e0924d6a8f8c53dad79386885260118652838820558654948351928352820152a380f35b634e487b7160e01b8752601160045286fd5b634e487b7160e01b8d5260048d9052878dfd5b634e487b7160e01b8d526041600452878dfd5b83634e487b7160e01b60005260416004526000fd5b85600f55611fc6565b60405162461bcd60e51b815260048101869052600d818401526c105b1c9958591e481859191959609a1b6044820152606490fd5b50346102d857806003193601126102d857600080516020613a67833981519152546040516001600160a01b039091168152602090f35b50346102d857806003193601126102d857602060ff60015416604051908152f35b50346102d85760203660031901126102d857600435906002548210156102d85760206121d4836132a6565b90546040519160031b1c8152f35b50346102d85760803660031901126102d85760043590602480359060ff8083168093036106a557612211613454565b60099061222381835460a01c16613555565b85855260209060118252600161223c6040882054613303565b50019081549761224e828a161561397b565b8615808015612618575b156125e9576001899a60ff9a999a19161784556000146125d15760443587526003845261228c826040892054165b84613965565b86549254927fc966558e8a6b004dfbb4ba4f8f2af2738a1b4295768775147f698f67eebf9c986040848660081c169a81519081528b88820152a3808260181c166122d4578580f35b6122dc613454565b61230a8454916122f0818460a01c16613555565b6122ff818460a81c161561397b565b6001541688106135d1565b61ffff60a81b191660a89190911b60ff60b01b1617600160a81b1782556008546001600160a01b0392908316803b15612553578580916004604051809481936321eb936b60e11b83525af19081156112775786916125bd575b50506040516123718161334b565b600181528236818301376001871b61238882613738565b5283600754169084600654169060055492803b15610788576123c39389809460405196879586948593626dc0df60e21b8552600485016139f8565b03925af19081156112775786916125a9575b50506006546040516370a0823160e01b81523060048201529290841681848781845afa938415611210578794612575575b50818461242e92878654168a60405180968195829463095ea7b360e01b845260048401613844565b03925af1801561121057612557575b50508281541691823b156125535785928584926040519586938492634410462760e01b845260048401525af18015610c03578392869161253a575b50505416803b15610be15783809184604051809481936314a93dc160e11b83523060048401525af1908115610c56578491612526575b5050600080516020613a678339815191525416825490803b15610be157839283926040519485938492630355a55360e31b845260048401525af18015610b9f57612512575b5054600080516020613a278339815191528380a3388181808080808580f35b61251b90613322565b6109205781386124f3565b61252f90613322565b610baa5782386124ae565b61254691929350613322565b610be15781908438612478565b8580fd5b8161256d92903d10610723576107158183613366565b50388061243d565b965092508086813d81116125a2575b61258e8183613366565b810103126106a55794518795909281612406565b503d612584565b6125b290613322565b6112965784386123d5565b6125c690613322565b611296578438612363565b60643587526003845261228c82604089205416612286565b60405162461bcd60e51b815260048101869052600881890152674e6f20647261777360c01b6044820152606490fd5b5060028814612258565b50346102d857806003193601126102d85761263b613454565b600080516020613a6783398151915280546001600160a01b031981169091556000906001600160a01b0316600080516020613a878339815191528280a380f35b50346102d85760203660031901126102d85760ff60016126b16040602094600435808252600d87526114be8684842054166139ba565b50015460181c166040519015158152f35b50346102d85760203660031901126102d857600435601054811015610920576126ea90613303565b5080546001909101546040805192835260ff80831615156020850152600883901c811691840191909152601082901c81161515606084015260189190911c161515608082015260a090f35b50346102d8576101003660031901126102d8576001600160401b03602435818111610baa5736602382011215610baa5781816004013511610baa57366024826004013560051b83010111610baa57608435916001600160a01b0380841684036106a55760a4359080821682036106a55760c4359481861686036106a55760e4359282841684036106a557600080516020613ac78339815191525494851680159081612aae575b6001149081612aa4575b159081612a9b575b50612a89576001600160401b03198516600117600080516020613ac783398151915255604085901c60ff1615612a60575b612826613526565b61282e613526565b6128373361348d565b6002866004013510612a3057909192600435885560ff86600401351660ff196001541617600155875b8860ff6001541660ff83161015612917575061288760ff8216886004013560248a01613516565b35600254600160401b81101561290357916128f8916128b18460018e9a99989796016002556132a6565b918154600393841b91821b91600019901b19161790556128dc60ff83168b6004013560248d01613516565b35885260205260408720805460ff191660ff83161790556134ef565b909192939450612860565b634e487b7160e01b8b52604160045260248bfd5b604435600455606435600555600880546001600160a01b0319908116878916179091556009805482168689161790556006805482168b89161790556007805491821685891690811790915588918391908216178789823b15610be1576044849283604051958694859363a22cb46560e01b8552166004840152600160248401525af18015610b9f57612a1c575b50506009805460ff60a01b1916600160a01b17905560401c60ff16156129c75780f35b60ff60401b19600080516020613ac78339815191525416600080516020613ac7833981519152557fc7f505b2f371ae2175ee4913f4499e1f2633a7b5936321eed1cdaeb6115181d2602060405160018152a180f35b612a2590613322565b6109205781836129a4565b60405162461bcd60e51b81526020600482015260086024820152674e6f207465616d7360c01b6044820152606490fd5b6001600160481b031985166001600160401b0117600080516020613ac78339815191525561281e565b60405163f92ee8a960e01b8152600490fd5b905015386127ed565b303b1591506127e5565b604087901c60ff161591506127db565b50346102d857806003193601126102d8576009546040516001600160a01b039091168152602090f35b50346102d85760203660031901126102d85760ff60406020926004358152600d84522054166040519015158152f35b50346102d857806003193601126102d8576007546040516001600160a01b039091168152602090f35b50346102d85760403660031901126102d857612baf90612b5d613296565b612b6b60ff60015416613706565b90612b7c60ff602435921683613745565b5260018060a01b036008541690604051809263782d085b60e01b8252818060209788958660048401526024830190613759565b03915afa91821561162e57916116015750604051908152f35b50346102d85760203660031901126102d8576126ea600435613303565b50346102d85760203660031901126102d85760209060ff906040906001600160a01b03612c106132d7565b168152600b84522054166040519015158152f35b50346102d857806003193601126102d8576020601054604051908152f35b50346102d857806003193601126102d8576006546040516001600160a01b039091168152602090f35b50346102d857806003193601126102d857602060ff60095460a01c166040519015158152f35b50346102d85760203660031901126102d857600435600a5481101561092057600a600052600080516020613a4783398151915201546040516001600160a01b039091168152602090f35b50346102d857806003193601126102d857600954612cfe60ff8260a01c16613555565b60ff8160a81c161561311f5760ff60019160b01c161b60018060a01b03806007541690806006541690600554916040519363856296f760e01b8552866004860152602493848601528560448601526020948581606481855afa801561076457869189916130ee575b5060405163039dd75360e41b81529384918291612d87919060048401613844565b0381845afa9182156112105787926130bf575b50604051627eeac760e11b815290858280612db9863360048401613844565b0381845afa91821561076457889261308c575b50811561305457908188923b15610baa57612e009383604051809681958294637921219560e11b845230336004860161389c565b03925af1801561127757613041575b5080600654169085604051956370a0823160e01b9384885230600489015286888781845afa978815610bc257839861300e575b5060405191612e508361334b565b60018352873681850137612e6383613738565b5283600754169160055492803b1561129657612e989385809460405196879586948593626dc0df60e21b8552600485016139f8565b03925af18015610b9f57612ffa575b5050600654169360405191825230600483015283828481885afa8015611277578690612fcb575b612ed892506136a1565b928315612f9b5782604051809263a9059cbb60e01b8252818881612f008a3360048401613844565b03925af1908115610c03578591612f7e575b5015612f4957507f7b1c867f82ac9f38d6ecadfe981a21d21c2621b049a76d08d83780cb789f35008354916040519384523393a380f35b90600f6064926040519262461bcd60e51b845260048401528201526e151c985b9cd9995c8819985a5b1959608a1b6044820152fd5b612f959150833d8511610723576107158183613366565b38612f12565b60405162461bcd60e51b81526004810184905260098184015268139bc81c185e5bdd5d60ba1b6044820152606490fd5b508382813d8311612ff3575b612fe18183613366565b810103126106a557612ed89151612ece565b503d612fd7565b61300390613322565b612553578538612ea7565b87809299508194503d831161303a575b6130288183613366565b810103126106a5578791519638612e42565b503d61301e565b61304d90959195613322565b9338612e0f565b60405162461bcd60e51b815260048101879052601181870152704e6f2077696e6e696e6720746f6b656e7360781b6044820152606490fd5b9091508581813d83116130b8575b6130a48183613366565b810103126130b457519038612dcc565b8780fd5b503d61309a565b9091508481813d83116130e7575b6130d78183613366565b81010312610c6157519038612d9a565b503d6130cd565b82819392503d8311613118575b6131058183613366565b810103126130b457518590612d87612d66565b503d6130fb565b60405162461bcd60e51b815260206004820152600c60248201526b139bdd081c995cdbdb1d995960a21b6044820152606490fd5b50346102d85760203660031901126102d857604060209160ff613174613296565b168152600c83522054604051908152f35b50346102d857806003193601126102d8576020600554604051908152f35b50346102d85760203660031901126102d85760ff6040602092600435815260038452205416604051908152f35b50346102d85760203660031901126102d85760406020916004358152601183522054604051908152f35b50346102d857806003193601126102d8576008546040516001600160a01b039091168152602090f35b50346102d857806003193601126102d8576020600e54604051908152f35b9050346109205760203660031901126109205760043563ffffffff60e01b8116809103610baa5760209250630271189760e51b8114908115613285575b5015158152f35b6301ffc9a760e01b1490503861327e565b6004359060ff821682036106a557565b6002548110156132c157600260005260206000200190600090565b634e487b7160e01b600052603260045260246000fd5b600435906001600160a01b03821682036106a557565b602435906001600160a01b03821682036106a557565b6010548110156132c157601060005260206000209060011b0190600090565b6001600160401b03811161333557604052565b634e487b7160e01b600052604160045260246000fd5b604081019081106001600160401b0382111761333557604052565b601f909101601f19168101906001600160401b0382119082101761333557604052565b6001600160401b0381116133355760051b60200190565b81601f820112156106a5578035916133b783613389565b926133c56040519485613366565b808452602092838086019260051b8201019283116106a5578301905b8282106133ef575050505090565b813581529083019083016133e1565b81601f820112156106a5578035906001600160401b0382116133355760405192613432601f8401601f191660200185613366565b828452602083830101116106a557816000926020809301838601378301015290565b600080516020613a67833981519152546001600160a01b0316330361347557565b60405163118cdaa760e01b8152336004820152602490fd5b6001600160a01b039081169081156134d657600080516020613a6783398151915280546001600160a01b03198116841790915516600080516020613a87833981519152600080a3565b604051631e4fbdf760e01b815260006004820152602490fd5b60ff1660ff81146135005760010190565b634e487b7160e01b600052601160045260246000fd5b91908110156132c15760051b0190565b60ff600080516020613ac78339815191525460401c161561354357565b604051631afcd79f60e31b8152600490fd5b1561355c57565b60405162461bcd60e51b815260206004820152600f60248201526e139bdd081a5b9a5d1a585b1a5e9959608a1b6044820152606490fd5b1561359a57565b60405162461bcd60e51b815260206004820152600f60248201526e13585c9ad95d081c995cdbdb1d9959608a1b6044820152606490fd5b156135d857565b60405162461bcd60e51b815260206004820152600b60248201526a426164206f7574636f6d6560a81b6044820152606490fd5b1561361257565b60405162461bcd60e51b81526020600482015260086024820152670416d6f756e743d360c41b6044820152606490fd5b600a54600160401b811015613335576001810180600a558110156132c157600a600052600080516020613a478339815191520180546001600160a01b0319166001600160a01b03909216919091179055565b9190820180921161350057565b9190820391821161350057565b156136b557565b60405162461bcd60e51b8152602060048201526024808201527f4265742065786365656473206d6178696d756d20616c6c6f7761626c6520616d6044820152631bdd5b9d60e21b6064820152608490fd5b9061371082613389565b61371d6040519182613366565b828152809261372e601f1991613389565b0190602036910137565b8051156132c15760200190565b80518210156132c15760209160051b010190565b90815180825260208080930193019160005b828110613779575050505090565b83518552938101939281019260010161376b565b1561379457565b60405162461bcd60e51b815260206004820152600c60248201526b125b9d985b1a590818dbdcdd60a21b6044820152606490fd5b908160209103126106a5575180151581036106a55790565b6001600160a01b03918216815291166020820152604081019190915260600190565b1561380957565b60405162461bcd60e51b81526020600482015260136024820152721d1c985b9cd9995c919c9bdb4819985a5b1959606a1b6044820152606490fd5b6001600160a01b039091168152602081019190915260400190565b1561386657565b60405162461bcd60e51b815260206004820152600e60248201526d185c1c1c9bdd994819985a5b195960921b6044820152606490fd5b929060c0949260018060a01b0380921685521660208401526040830152606082015260a06080820152600060a08201520190565b156138d757565b60405162461bcd60e51b8152602060048201526011602482015270185c1c1c9bdd994813140819985a5b1959607a1b6044820152606490fd5b1561391757565b60405162461bcd60e51b8152602060048201526015602482015274185c1c1c9bdd99481c1c9bd99a5d0819985a5b1959605a1b6044820152606490fd5b600160ff1b81146135005760000390565b9061ff0082549160081b169061ff001916179055565b1561398257565b60405162461bcd60e51b815260206004820152601060248201526f105b1c9958591e481c995cdbdb1d995960821b6044820152606490fd5b156139c157565b60405162461bcd60e51b815260206004820152600f60248201526e556e6b6e6f776e206669787475726560881b6044820152606490fd5b613a23939260809260018060a01b031682526000602083015260408201528160608201520190613759565b9056fe739f283563fb51ab6b89ee95d937b2e63a6cfcb83c385dbebb629f9d97bd43e6c65a7bb8d6351c1cf70c95a316cc6a92839c986682d98bc35f958f4883f9d2a89016d09d72d40fdae2fd8ceac6b6234c7706214fd39c1cd1e609a0528c1993008be0079c531659141344cd1fd0a4f28419497f9722a3daafe3b4186f6b6457e04c3ca26b0b8e1f9d699e3c1f4dbea6cbd5cfcec128538e6031fd392d27071407f0c57e16840df040f15088dc2f81fe391c3923bec73e23a9662efc9c229c6a00076c6e8ed1b80418739ec27cda2052c8c564c879512820aecbe5bbf76fcfb09fa164736f6c6343000814000a",
  "linkReferences": {},
  "deployedLinkReferences": {}
}