{
  "_format": "hh-sol-artifact-1",
  "contractName": "PredictionMarket",
  "sourceName": "contracts/PredictionMarket.sol",
  "abi": [
    {
      "inputs": [],
      "name": "InvalidInitialization",
      "type": "error"
    },
    {
      "inputs": [],
      "name": "NotInitializing",
      "type": "error"
    },
    {
      "inputs": [
        {
          "internalType": "address",
          "name": "owner",
          "type": "address"
        }
      ],
      "name": "OwnableInvalidOwner",
      "type": "error"
    },
    {
      "inputs": [
        {
          "internalType": "address",
          "name": "account",
          "type": "address"
        }
      ],
      "name": "OwnableUnauthorizedAccount",
      "type": "error"
    },
    {
      "anonymous": false,
      "inputs": [
        {
          "indexed": false,
          "internalType": "uint64",
          "name": "version",
          "type": "uint64"
        }
      ],
      "name": "Initialized",
      "type": "event"
    },
    {
      "anonymous": false,
      "inputs": [
        {
          "indexed": true,
          "internalType": "uint256",
          "name": "matchId",
          "type": "uint256"
        },
        {
          "indexed": true,
          "internalType": "uint8",
          "name": "outcome",
          "type": "uint8"
        }
      ],
      "name": "MarketResolved",
      "type": "event"
    },
    {
      "anonymous": false,
      "inputs": [
        {
          "indexed": true,
          "internalType": "uint256",
          "name": "matchId",
          "type": "uint256"
        },
        {
          "indexed": false,
          "internalType": "uint256",
          "name": "home",
          "type": "uint256"
        },
        {
          "indexed": false,
          "internalType": "uint256",
          "name": "draw",
          "type": "uint256"
        },
        {
          "indexed": false,
          "internalType": "uint256",
          "name": "away",
          "type": "uint256"
        }
      ],
      "name": "OddsUpdated",
      "type": "event"
    },
    {
      "anonymous": false,
      "inputs": [
        {
          "indexed": true,
          "internalType": "address",
          "name": "previousOwner",
          "type": "address"
        },
        {
          "indexed": true,
          "internalType": "address",
          "name": "newOwner",
          "type": "address"
        }
      ],
      "name": "OwnershipTransferred",
      "type": "event"
    },
    {
      "anonymous": false,
      "inputs": [
        {
          "indexed": true,
          "internalType": "address",
          "name": "redeemer",
          "type": "address"
        },
        {
          "indexed": true,
          "internalType": "uint8",
          "name": "outcome",
          "type": "uint8"
        },
        {
          "indexed": false,
          "internalType": "uint256",
          "name": "amount",
          "type": "uint256"
        }
      ],
      "name": "PayoutRedeemed",
      "type": "event"
    },
    {
      "anonymous": false,
      "inputs": [
        {
          "indexed": true,
          "internalType": "address",
          "name": "buyer",
          "type": "address"
        },
        {
          "indexed": true,
          "internalType": "uint8",
          "name": "outcome",
          "type": "uint8"
        },
        {
          "indexed": false,
          "internalType": "uint256",
          "name": "shares",
          "type": "uint256"
        },
        {
          "indexed": false,
          "internalType": "int256",
          "name": "actualCost",
          "type": "int256"
        }
      ],
      "name": "SharesPurchased",
      "type": "event"
    },
    {
      "anonymous": false,
      "inputs": [
        {
          "indexed": true,
          "internalType": "address",
          "name": "seller",
          "type": "address"
        },
        {
          "indexed": true,
          "internalType": "uint8",
          "name": "outcome",
          "type": "uint8"
        },
        {
          "indexed": false,
          "internalType": "uint256",
          "name": "shares",
          "type": "uint256"
        },
        {
          "indexed": false,
          "internalType": "int256",
          "name": "actualGain",
          "type": "int256"
        }
      ],
      "name": "SharesSold",
      "type": "event"
    },
    {
      "inputs": [],
      "name": "FEE_BPS",
      "outputs": [
        {
          "internalType": "uint256",
          "name": "",
          "type": "uint256"
        }
      ],
      "stateMutability": "view",
      "type": "function"
    },
    {
      "inputs": [
        {
          "internalType": "uint256",
          "name": "",
          "type": "uint256"
        }
      ],
      "name": "bettors",
      "outputs": [
        {
          "internalType": "address",
          "name": "",
          "type": "address"
        }
      ],
      "stateMutability": "view",
      "type": "function"
    },
    {
      "inputs": [
        {
          "internalType": "uint8",
          "name": "outcome",
          "type": "uint8"
        },
        {
          "internalType": "uint256",
          "name": "amount",
          "type": "uint256"
        }
      ],
      "name": "buyShares",
      "outputs": [],
      "stateMutability": "nonpayable",
      "type": "function"
    },
    {
      "inputs": [
        {
          "internalType": "uint8",
          "name": "outcome",
          "type": "uint8"
        },
        {
          "internalType": "uint256",
          "name": "amount",
          "type": "uint256"
        },
        {
          "internalType": "uint256",
          "name": "value",
          "type": "uint256"
        },
        {
          "internalType": "uint256",
          "name": "deadline",
          "type": "uint256"
        },
        {
          "internalType": "uint8",
          "name": "v",
          "type": "uint8"
        },
        {
          "internalType": "bytes32",
          "name": "r",
          "type": "bytes32"
        },
        {
          "internalType": "bytes32",
          "name": "s",
          "type": "bytes32"
        }
      ],
      "name": "buySharesWithPermit",
      "outputs": [],
      "stateMutability": "nonpayable",
      "type": "function"
    },
    {
      "inputs": [],
      "name": "conditionId",
      "outputs": [
        {
          "internalType": "bytes32",
          "name": "",
          "type": "bytes32"
        }
      ],
      "stateMutability": "view",
      "type": "function"
    },
    {
      "inputs": [],
      "name": "conditionalTokens",
      "outputs": [
        {
          "internalType": "contract ConditionalTokens",
          "name": "",
          "type": "address"
        }
      ],
      "stateMutability": "view",
      "type": "function"
    },
    {
      "inputs": [],
      "name": "getBettors",
      "outputs": [
        {
          "internalType": "address[]",
          "name": "",
          "type": "address[]"
        }
      ],
      "stateMutability": "view",
      "type": "function"
    },
    {
      "inputs": [
        {
          "internalType": "uint8",
          "name": "outcome",
          "type": "uint8"
        }
      ],
      "name": "getMarginalPrice",
      "outputs": [
        {
          "internalType": "uint256",
          "name": "",
          "type": "uint256"
        }
      ],
      "stateMutability": "view",
      "type": "function"
    },
    {
      "inputs": [
        {
          "internalType": "uint8",
          "name": "outcome",
          "type": "uint8"
        },
        {
          "internalType": "int256",
          "name": "amount",
          "type": "int256"
        }
      ],
      "name": "getNetCost",
      "outputs": [
        {
          "internalType": "int256",
          "name": "",
          "type": "int256"
        }
      ],
      "stateMutability": "view",
      "type": "function"
    },
    {
      "inputs": [
        {
          "internalType": "uint256",
          "name": "_matchId",
          "type": "uint256"
        },
        {
          "internalType": "bytes32",
          "name": "_questionId",
          "type": "bytes32"
        },
        {
          "internalType": "bytes32",
          "name": "_conditionId",
          "type": "bytes32"
        },
        {
          "internalType": "address",
          "name": "_marketMaker",
          "type": "address"
        },
        {
          "internalType": "address",
          "name": "_liquidityPool",
          "type": "address"
        },
        {
          "internalType": "address",
          "name": "_usdc",
          "type": "address"
        },
        {
          "internalType": "address",
          "name": "_conditionalTokens",
          "type": "address"
        }
      ],
      "name": "initializeMarket",
      "outputs": [],
      "stateMutability": "nonpayable",
      "type": "function"
    },
    {
      "inputs": [
        {
          "internalType": "address",
          "name": "",
          "type": "address"
        }
      ],
      "name": "isBettor",
      "outputs": [
        {
          "internalType": "bool",
          "name": "",
          "type": "bool"
        }
      ],
      "stateMutability": "view",
      "type": "function"
    },
    {
      "inputs": [],
      "name": "isInitialized",
      "outputs": [
        {
          "internalType": "bool",
          "name": "",
          "type": "bool"
        }
      ],
      "stateMutability": "view",
      "type": "function"
    },
    {
      "inputs": [],
      "name": "isResolved",
      "outputs": [
        {
          "internalType": "bool",
          "name": "",
          "type": "bool"
        }
      ],
      "stateMutability": "view",
      "type": "function"
    },
    {
      "inputs": [],
      "name": "liquidityPool",
      "outputs": [
        {
          "internalType": "contract ILiquidityPool",
          "name": "",
          "type": "address"
        }
      ],
      "stateMutability": "view",
      "type": "function"
    },
    {
      "inputs": [],
      "name": "marketMaker",
      "outputs": [
        {
          "internalType": "contract LMSRMarketMaker",
          "name": "",
          "type": "address"
        }
      ],
      "stateMutability": "view",
      "type": "function"
    },
    {
      "inputs": [],
      "name": "matchId",
      "outputs": [
        {
          "internalType": "uint256",
          "name": "",
          "type": "uint256"
        }
      ],
      "stateMutability": "view",
      "type": "function"
    },
    {
      "inputs": [
        {
          "internalType": "address",
          "name": "",
          "type": "address"
        },
        {
          "internalType": "address",
          "name": "",
          "type": "address"
        },
        {
          "internalType": "uint256[]",
          "name": "",
          "type": "uint256[]"
        },
        {
          "internalType": "uint256[]",
          "name": "",
          "type": "uint256[]"
        },
        {
          "internalType": "bytes",
          "name": "",
          "type": "bytes"
        }
      ],
      "name": "onERC1155BatchReceived",
      "outputs": [
        {
          "internalType": "bytes4",
          "name": "",
          "type": "bytes4"
        }
      ],
      "stateMutability": "nonpayable",
      "type": "function"
    },
    {
      "inputs": [
        {
          "internalType": "address",
          "name": "",
          "type": "address"
        },
        {
          "internalType": "address",
          "name": "",
          "type": "address"
        },
        {
          "internalType": "uint256",
          "name": "",
          "type": "uint256"
        },
        {
          "internalType": "uint256",
          "name": "",
          "type": "uint256"
        },
        {
          "internalType": "bytes",
          "name": "",
          "type": "bytes"
        }
      ],
      "name": "onERC1155Received",
      "outputs": [
        {
          "internalType": "bytes4",
          "name": "",
          "type": "bytes4"
        }
      ],
      "stateMutability": "nonpayable",
      "type": "function"
    },
    {
      "inputs": [],
      "name": "owner",
      "outputs": [
        {
          "internalType": "address",
          "name": "",
          "type": "address"
        }
      ],
      "stateMutability": "view",
      "type": "function"
    },
    {
      "inputs": [],
      "name": "questionId",
      "outputs": [
        {
          "internalType": "bytes32",
          "name": "",
          "type": "bytes32"
        }
      ],
      "stateMutability": "view",
      "type": "function"
    },
    {
      "inputs": [],
      "name": "redeemPayouts",
      "outputs": [],
      "stateMutability": "nonpayable",
      "type": "function"
    },
    {
      "inputs": [],
      "name": "renounceOwnership",
      "outputs": [],
      "stateMutability": "nonpayable",
      "type": "function"
    },
    {
      "inputs": [
        {
          "internalType": "uint8",
          "name": "result",
          "type": "uint8"
        }
      ],
      "name": "resolveMarket",
      "outputs": [],
      "stateMutability": "nonpayable",
      "type": "function"
    },
    {
      "inputs": [],
      "name": "resolvedOutcome",
      "outputs": [
        {
          "internalType": "uint8",
          "name": "",
          "type": "uint8"
        }
      ],
      "stateMutability": "view",
      "type": "function"
    },
    {
      "inputs": [
        {
          "internalType": "uint8",
          "name": "outcome",
          "type": "uint8"
        },
        {
          "internalType": "uint256",
          "name": "amount",
          "type": "uint256"
        }
      ],
      "name": "sellShares",
      "outputs": [],
      "stateMutability": "nonpayable",
      "type": "function"
    },
    {
      "inputs": [
        {
          "internalType": "bytes4",
          "name": "interfaceId",
          "type": "bytes4"
        }
      ],
      "name": "supportsInterface",
      "outputs": [
        {
          "internalType": "bool",
          "name": "",
          "type": "bool"
        }
      ],
      "stateMutability": "view",
      "type": "function"
    },
    {
      "inputs": [
        {
          "internalType": "uint8",
          "name": "",
          "type": "uint8"
        }
      ],
      "name": "totalWageredPerOutcome",
      "outputs": [
        {
          "internalType": "uint256",
          "name": "",
          "type": "uint256"
        }
      ],
      "stateMutability": "view",
      "type": "function"
    },
    {
      "inputs": [
        {
          "internalType": "address",
          "name": "newOwner",
          "type": "address"
        }
      ],
      "name": "transferOwnership",
      "outputs": [],
      "stateMutability": "nonpayable",
      "type": "function"
    },
    {
      "inputs": [],
      "name": "usdc",
      "outputs": [
        {
          "internalType": "contract IERC20",
          "name": "",
          "type": "address"
        }
      ],
      "stateMutability": "view",
      "type": "function"
    }
  ],
  "bytecode": "0x6080806040523461001657612eb8908161001c8239f35b600080fdfe60806040908082526004908136101561001757600080fd5b600091823560e01c91826301ffc9a71461261e575081631c371e2b146125f95781631f21f9af146125d05781632ddc7de7146125b15781632dfc8ee914612580578163326209b4146120b35781633482b64414612069578163380e90bd14611e66578163392e53cd14611e3f5781633e413bee14611e16578163429c2ed714611dd8578163591e791c14611d4b5781635bd9e29914611d22578163665a11ca14611cf9578163715018a614611ca05781638da5cb5b14611c6a57816399892e4714611c4d578163a2e3215c146114e1578163aaafcf7f14611448578163b06a5c5214611429578163bc197c81146113a3578163bf333f2c14611386578163dbb3f5371461135f578163dd9089aa14610bd4578163f21ffa6b146108cc578163f23a6e6114610877578163f2ccb3971461024657508063f2fde38b146102195763ffd4493c1461016557600080fd5b34610216578060031936011261021657815160078054808352908352602093928483019290918390600080516020612e0c83398151915290845b8181106101f957505050816101b591038261270c565b83519485948186019282875251809352850193925b8281106101d957505050500390f35b83516001600160a01b0316855286955093810193928101926001016101ca565b82546001600160a01b03168452928801926001928301920161019f565b80fd5b503461021657602036600319011261021657610243610236612681565b61023e6127eb565b612824565b80f35b83915034610873578160031936011261087357610261612671565b90602490813560ff6006549461027b828760a01c166128b5565b61028a828760a81c16156128f3565b1661029760038210612939565b6102a2821515612977565b6005548354600254885163856296f760e01b81528087018b9052878101919091526001841b60448201526020976001600160a01b039593928616928616918981606481865afa801561078e578a918d91610842575b508b5163039dd75360e41b8152948591829161031691908c8401612bd5565b0381855afa928315610838578b93610809575b508951627eeac760e11b815289818061034587338d8401612bd5565b0381865afa801561078e5785918d916107d8575b5010610798576060929189896103b793828a8f808c8f926103928e61039992519e8f610384816126f1565b600381528936910137612d83565b918d612ad0565b52519788958694859363782d085b60e01b855284015282018b612ae4565b0392165afa91821561078e578c9261075f575b508b82121561072857808c913b156107245785829161040495838f8d905198899586948593637921219560e11b8552309033908601612c93565b03925af1928315610718578a936106fb575b50908a6104459492898960065416938351978896879586946315bd761160e01b86528501526044840190612ae4565b908d83015203925af190811561061b5789916106ce575b50888761048c8688541661046f85612d83565b8c5163a9059cbb60e01b81529485938492839190338e8401612bd5565b03925af19081156106c4578a91610697575b501561065e57806104b16104cd92612d83565b848b52600989526104c68a8c20918254612a5e565b9055612d83565b8751918252868201527f59bb1b9bbd3cec3437b204c969642374ba2f0fd9d3b7cfc39b49024d9e60d454873392a3600654169184519063b20f8e7f60e01b92838352878184015285838381885afa928315610654578893610625575b5086519184835260018284015286838281895afa94851561061b5787938a966105e6575b5060029495968951958694859384528301525afa9384156105dc578694610597575b5050610591600080516020612e2c833981519152938654955193849384612d6d565b0390a280f35b90809450813d83116105d5575b6105ae818361270c565b810103126105d057610591600080516020612e2c83398151915293519361056f565b600080fd5b503d6105a4565b85513d88823e3d90fd5b848195929697503d8311610614575b6105ff818361270c565b810103126105d057600293879351959461054d565b503d6105f5565b88513d8b823e3d90fd5b9092508581813d831161064d575b61063d818361270c565b810103126105d057519188610529565b503d610633565b87513d8a823e3d90fd5b875162461bcd60e51b8152808601889052601481880152731554d110c81d1c985b9cd9995c8819985a5b195960621b6044820152606490fd5b6106b79150883d8a116106bd575b6106af818361270c565b810190612b59565b8a61049e565b503d6106a5565b89513d8c823e3d90fd5b90508681813d83116106f4575b6106e5818361270c565b810103126105d057518961045c565b503d6106db565b610707919293506126ad565b6107145787908a8c610416565b8980fd5b508a51903d90823e3d90fd5b5080fd5b8a5162461bcd60e51b81528089018b90526012818b01527124b73b30b634b2103a3930b2329033b0b4b760711b6044820152606490fd5b9091508981813d8311610787575b610777818361270c565b810103126105d05751908c6103ca565b503d61076d565b8b513d8e823e3d90fd5b895162461bcd60e51b81528088018a9052601b818a01527a496e73756666696369656e74206f7574636f6d6520746f6b656e7360281b6044820152606490fd5b8092508b8092503d8311610802575b6107f1818361270c565b810103126105d0578490518d610359565b503d6107e7565b9092508881813d8311610831575b610821818361270c565b810103126105d05751918b610329565b503d610817565b8a513d8d823e3d90fd5b82819392503d831161086c575b610859818361270c565b810103126105d0575189906103166102f7565b503d61084f565b8280fd5b8383346102165760a036600319011261021657610892612681565b5061089b612697565b50608435906001600160401b03821161021657506020926108be91369101612795565b505163f23a6e6160e01b8152f35b83838092346107245760209283600319360112610873576108eb612671565b936108f46127eb565b6006549061090760ff8360a01c166128b5565b61091760ff8360a81c16156128f3565b60ff86169561092860038810612939565b61ffff60a81b19831660ff60b01b60b09290921b91821617600160a81b176006556001600160a01b039290861690831617803b15610b3a57858091868651809481936321eb936b60e11b83525af18015610bb257908691610bc0575b5050600160ff60065460b01c161b83519061099e826126d6565b600182528236818401376109b182612ac3565b528260055416838654169060025490803b15610bbc57889283896109e78a5197889687958694626dc0df60e21b86528501612d94565b03925af18015610bb257908691610b9a575b5050835483516370a0823160e01b81523081870152919083168183602481845afa928315610b5c578793610b66575b508183610a509286600154168a8a8a519687958694859363095ea7b360e01b85528401612bd5565b03925af18015610b5c57610b3e575b5050816001541690813b15610b3a5785916024839286519485938492634410462760e01b84528a8401525af18015610b3057908591610b1c575b50506001541691823b15610b1857839260248492845195869384926314a93dc160e11b845230908401525af1908115610b0f5750610afb575b50547f739f283563fb51ab6b89ee95d937b2e63a6cfcb83c385dbebb629f9d97bd43e68380a380f35b610b04906126ad565b610724578183610ad2565b513d84823e3d90fd5b8380fd5b610b25906126ad565b610b18578387610a99565b83513d87823e3d90fd5b8580fd5b81610b5492903d106106bd576106af818361270c565b508780610a5f565b85513d89823e3d90fd5b965091508086813d8111610b93575b610b7f818361270c565b810103126105d05794518795909181610a28565b503d610b75565b610ba3906126ad565b610bae5784886109f9565b8480fd5b84513d88823e3d90fd5b8880fd5b610bc9906126ad565b610bae578488610984565b82843461072457806003193601126107245790610c1c91610bf3612671565b906024928335926006549060ff968783610c1282809660a01c166128b5565b60a81c16156128f3565b1692600393610c2c858210612939565b610c37821515612977565b338352602095600887528785852054161561133c575b8395845b89811682811015610c9357848103610c73575b50610c6e90612a2a565b610c51565b610c6e9198610c8c91885260098b528888205490612a51565b9790610c64565b50508990889387958964746a52880090810180911161132a57610cc4610ccc91848b5260098952898b205490612a5e565b821115612a6b565b865192610cd8846126f1565b83526060368785013780610cec8385612ad0565b52600654875163782d085b60e01b81528581018890526001600160a01b039490918890839087168180610d218c820187612ae4565b03915afa9182156106c4578a926112fb575b50610d3f8a8313612b18565b6101908083029083820414831517156112e95790610d918a6127108d9404928b610d698588612a51565b9460011c948a8c54168c8886518098819582946323b872dd60e01b8452309033908501612b71565b03925af19283156112df5786610ddc93610db68f93968e978a916112c2575b50612b93565b8b86541690888d60065416915180978195829463095ea7b360e01b9b8c85528401612bd5565b03925af1958d87156112b957868c8f958f90610e299b610e0391859161129c575b50612bf0565b8d600654169484519b8c97889687956315bd761160e01b87528601526044850190612ae4565b9183015203925af193841561129257839461125f575b50866005541687895416908c60025481519063856296f760e01b8252878d8301528d82015260018a1b60448201528d81606481865afa938415611255578e918895611220575b508c610ea28451968793849363039dd75360e41b85528401612bd5565b0381855afa928315611216578d918c9188956111de575b5051627eeac760e11b8152919082908190610ed990879030908401612bd5565b0381855afa80156111d4578891879161119e575b5090610efa911015612c3c565b803b15610bae57868591610f29938f8d85915196879586948593637921219560e11b8552339030908601612c93565b03925af190811561113a57849161118a575b5050610f628a838d8a8c541690878d8d600154169251968795869485938b85528401612bd5565b03925af1801561113a57610f7d91859161116d575b50612cc7565b8660015416803b15610b185783838b8b8f849051958694859363e574831560e01b85528401525af1908c8215611164578493868e938c95611144575b508c908582541692610fe9600080516020612dec8339815191529788541695519889968795869485528401612bd5565b03925af191821561113a57889261100791869161111d575b50612d13565b541690813b156108735782918983928d51948593849263fe80d50960e01b84528d8401525af18015611113576110ff575b508390526009875287892061104e828254612a51565b9055875191825286820152600080516020612e6c833981519152873392a3600654169184519063b20f8e7f60e01b92838352878184015285838381885afa928315610654578893610625575086519184835260018284015286838281895afa94851561061b5787938a966105e6575060029495968951958694859384528301525afa9384156105dc578694610597575050610591600080516020612e2c833981519152938654955193849384612d6d565b611108906126ad565b610bbc57888a611038565b8a513d84823e3d90fd5b61113491508d803d106106bd576106af818361270c565b8f611001565b8c513d86823e3d90fd5b92509350935061115491506126ad565b61087357868a8c84938638610fb9565b513d86823e3d90fd5b61118491508c8d3d106106bd576106af818361270c565b8e610f77565b611193906126ad565b61087357828d610f3b565b965050508b85813d83116111cd575b6111b7818361270c565b810103126105d057610efa878f96519091610eed565b503d6111ad565b8e513d88823e3d90fd5b9450505090945081813d831161120f575b6111f9818361270c565b810103126105d057518c938b8a8e610ed9610eb9565b503d6111ef565b81513d88823e3d90fd5b97509350905085813d831161124e575b61123a818361270c565b810103126105d0578c8c8f96519338610e85565b503d611230565b82513d89823e3d90fd5b8a809295508194503d831161128b575b611279818361270c565b810103126105d0578a9151928c610e3f565b503d61126f565b8b513d85823e3d90fd5b6112b39150893d8b116106bd576106af818361270c565b38610dfd565b513d87823e3d90fd5b6112d99150853d87116106bd576106af818361270c565b38610db0565b82513d87823e3d90fd5b634e487b7160e01b8b5260118752878bfd5b9091508781813d8311611323575b611313818361270c565b810103126105d05751908a610d33565b503d611309565b634e487b7160e01b8952601185528589fd5b611345336129c2565b33845260088752848420805460ff19166001179055610c4d565b82843461072457816003193601126107245760209060ff60065460a81c1690519015158152f35b828434610724578160031936011261072457602090516101908152f35b8383346102165760a0366003190112610216576113be612681565b506113c7612697565b506001600160401b0390604435828111610724576113e8903690860161272f565b5060643582811161072457611400903690860161272f565b50608435918211610216575060209261141b91369101612795565b505163bc197c8160e01b8152f35b8284346107245781600319360112610724576020906003549051908152f35b8284346107245760209283600319360112610873578360ff602461146a612671565b600654865163b20f8e7f60e01b81529190931694810194909452839182906001600160a01b03165afa9283156114d657926114a7575b5051908152f35b9091508281813d83116114cf575b6114bf818361270c565b810103126105d0575190836114a0565b503d6114b5565b8251903d90823e3d90fd5b9050346107245760e0366003190112610724576114fc612671565b9160249384359160843560ff958682168092036105d057869061152a82600654610c12828260a01c166128b5565b16600395611539878310612939565b611544861515612977565b3384526020966008885288868620541615611c2a575b8496855b8a8116838110156115a057858103611580575b5061157b90612a2a565b61155e565b61157b919961159991895260098c528989205490612a51565b9890611571565b505092939195985093989564746a528800908101809111611c18576115d36115db91858c5260098a528a8c205490612a5e565b831115612a6b565b8751936115e7856126f1565b845260603688860137816115fb8486612ad0565b52600654885163782d085b60e01b81528681018990526001600160a01b03959092909189908490881681806116328d820188612ae4565b03915afa928315610838578b93611be9575b506116508b8413612b18565b610190808402908482041484151715611bd757906127108c939204906116768286612a51565b9160011c92888a541691823b15610b3a57858c8f948d8360e4928851968795869463d505accf60e01b86523390860152309085015260443560448501526064356064850152608484015260a43560a484015260c43560c48401525af18015611bcd578d918791611baf575b505061170a938a8c54168c8886518098819582946323b872dd60e01b8452309033908501612b71565b03925af19283156112df578661172e93610db68f93968e978a916112c25750612b93565b03925af1958d87156112b957868c8f958f906117549b610e0391859161129c5750612bf0565b9183015203925af1938415611292578394611b7c575b50866005541687895416908c60025481519063856296f760e01b8252878d8301528d82015260018a1b60448201528d81606481865afa938415611255578e918895611b47575b508c6117cd8451968793849363039dd75360e41b85528401612bd5565b0381855afa928315611216578d918c918895611b0f575b5051627eeac760e11b815291908290819061180490879030908401612bd5565b0381855afa80156111d45788918791611ad9575b5090611825911015612c3c565b803b15610bae57868591611854938f8d85915196879586948593637921219560e11b8552339030908601612c93565b03925af190811561113a578491611ac5575b505061188d8a838d8a8c541690878d8d600154169251968795869485938b85528401612bd5565b03925af1801561113a576118a7918591611aa85750612cc7565b8660015416803b15610b185783838b8b8f849051958694859363e574831560e01b85528401525af1908c8215611164578493868e938c95611a88575b508c908582541692611913600080516020612dec8339815191529788541695519889968795869485528401612bd5565b03925af191821561113a578892611930918691611a6b5750612d13565b541690813b156108735782918983928d51948593849263fe80d50960e01b84528d8401525af1801561111357611a57575b5083905260098752878920611977828254612a51565b9055875191825286820152600080516020612e6c833981519152873392a3600654169184519063b20f8e7f60e01b92838352878184015285838381885afa928315610654578893611a28575086519184835260018284015286838281895afa94851561061b5787938a966105e6575060029495968951958694859384528301525afa9384156105dc578694610597575050610591600080516020612e2c833981519152938654955193849384612d6d565b9092508581813d8311611a50575b611a40818361270c565b810103126105d057519138610529565b503d611a36565b611a60906126ad565b610bbc578838611961565b611a8291508d803d106106bd576106af818361270c565b38611001565b925093509350611a9891506126ad565b61087357868a8c849386386118e3565b611abf91508c8d3d106106bd576106af818361270c565b38610f77565b611ace906126ad565b610873578238611866565b965050508b85813d8311611b08575b611af2818361270c565b810103126105d057611825878f96519091611818565b503d611ae8565b9450505090945081813d8311611b40575b611b2a818361270c565b810103126105d057518c938b8a8e6118046117e4565b503d611b20565b97509350905085813d8311611b75575b611b61818361270c565b810103126105d0578c8c8f965193386117b0565b503d611b57565b8a809295508194503d8311611ba8575b611b96818361270c565b810103126105d0578a9151923861176a565b503d611b8c565b9092949350611bbe91506126ad565b610b1857908b908b85386116e1565b83513d88823e3d90fd5b634e487b7160e01b8c5260118852888cfd5b9092508881813d8311611c11575b611c01818361270c565b810103126105d057519138611644565b503d611bf7565b634e487b7160e01b8a5260118652868afd5b611c33336129c2565b33855260088852858520805460ff1916600117905561155a565b828434610724578160031936011261072457602091549051908152f35b828434610724578160031936011261072457600080516020612dec8339815191525490516001600160a01b039091168152602090f35b8234610216578060031936011261021657611cb96127eb565b600080516020612dec83398151915280546001600160a01b031981169091556000906001600160a01b0316600080516020612e4c8339815191528280a380f35b82843461072457816003193601126107245760015490516001600160a01b039091168152602090f35b82843461072457816003193601126107245760055490516001600160a01b039091168152602090f35b828434610724578060031936011261072457611dc1611d68612671565b8251611d73816126f1565b60038152602095869260603685850137611d9360ff602435921684612ad0565b528260018060a01b03600654169186519586948593849363782d085b60e01b85528401526024830190612ae4565b03915afa9283156114d657926114a7575051908152f35b8284346107245760203660031901126107245760209160ff9082906001600160a01b03611e03612681565b1681526008855220541690519015158152f35b839150346108735782600319360112610873575490516001600160a01b03909116815260209150f35b82843461072457816003193601126107245760209060ff60065460a01c1690519015158152f35b839150346108735760e0366003190112610873576001600160a01b039060643582811691908290036105d057608435918383168093036105d05760a435918483168093036105d05760c4359485168095036105d057600080516020612e8c8339815191529485549460ff86891c16159460018060401b03871696871580612062575b60018099149081612058575b15908161204f575b5061203f576001600160401b03198116881789558a959493928692909188612024575b50611f28612886565b611f30612886565b611f3933612824565b8435835560443560025560243560035560018060a01b03199186836006541617600655828a5416178955818554161784558260055491821617600555161791823b15610b185760448492838a51958694859363a22cb46560e01b85528401528960248401525af1801561201a57612006575b50506006805460ff60a01b1916600160a01b179055611fc8578380f35b815460ff60401b191690915590519081527fc7f505b2f371ae2175ee4913f4499e1f2633a7b5936321eed1cdaeb6115181d290602090a18180808380f35b61200f906126ad565b610bae578486611fab565b86513d84823e3d90fd5b6001600160481b0319166001600160401b01178a558c611f1f565b895163f92ee8a960e01b81528590fd5b9050158c611efc565b303b159150611ef4565b5086611ee8565b839150346108735760203660031901126108735735600754811015610873576007600052600080516020612e0c833981519152015490516001600160a01b03909116815260209150f35b839150346108735782600319360112610873576006546120d860ff8260a01c166128b5565b60ff8160a81c16156125475760ff60019160b01c161b8251916120fa836126d6565b600183526020918236818601378061211185612ac3565b5260018060a01b03806005541681845416906002549388519063856296f760e01b82528a878301526024958683015260448201528681606481855afa80156106c45787918b91612516575b50895163039dd75360e41b8152938491829161217b91908a8401612bd5565b0381845afa91821561061b5789926124e7575b508751627eeac760e11b8152908682806121ab86338b8401612bd5565b0381845afa9182156106c4578a926124b8575b50811561246a5790818a923b15610873576121f193838b51809681958294637921219560e11b8452308d33908601612c93565b03925af1801561065457612457575b508083541690878751966370a0823160e01b9384895230878a015287898781845afa98891561244d57839961241a575b50836005541660025490803b15610bae578492838a6122618f5197889687958694626dc0df60e21b86528501612d94565b03925af18015612410576123f8575b5050835416948651918252308483015284828481895afa80156106545788906123c9575b61229e9250612a5e565b93841561237a57838651809263a9059cbb60e01b8252818a816122c48b338b8401612bd5565b03925af1908115612370578791612353575b50156123145750507f810c0a3d2e7f4765a144ddb7039e632b1abd74268600d3f570c128cb7b6a09b69060ff60065460b01c1693519283523392a380f35b601c9060649386519362461bcd60e51b85528401528201527b1554d110c81d1c985b9cd9995c881d1bc81d5cd95c8819985a5b195960221b6044820152fd5b61236a9150843d86116106bd576106af818361270c565b876122d6565b86513d89823e3d90fd5b5060259060849386519362461bcd60e51b85528401528201527f526564656d7074696f6e206661696c65642c206e6f207061796f757420726563604482015264195a5d995960da1b6064820152fd5b508482813d83116123f1575b6123df818361270c565b810103126105d05761229e9151612294565b503d6123d5565b612401906126ad565b61240c578789612270565b8780fd5b89513d84823e3d90fd5b8880929a508194503d8311612446575b612434818361270c565b810103126105d057899151978b612230565b503d61242a565b8a513d85823e3d90fd5b612463909791976126ad565b9587612200565b885162461bcd60e51b81528087018890526023818701527f4e6f2077696e6e696e67206f7574636f6d6520746f6b656e7320746f2072656460448201526265656d60e81b6064820152608490fd5b9091508681813d83116124e0575b6124d0818361270c565b810103126107145751908a6121be565b503d6124c6565b9091508581813d831161250f575b6124ff818361270c565b81010312610bbc5751908961218e565b503d6124f5565b82819392503d8311612540575b61252d818361270c565b810103126107145751869061217b61215c565b503d612523565b506020606492519162461bcd60e51b8352820152601360248201527213585c9ad95d081b9bdd081c995cdbdb1d9959606a1b6044820152fd5b828434610724576020366003190112610724578060209260ff6125a1612671565b1681526009845220549051908152f35b8284346107245781600319360112610724576020906002549051908152f35b82843461072457816003193601126107245760065490516001600160a01b039091168152602090f35b82843461072457816003193601126107245760209060ff60065460b01c169051908152f35b915034610873576020366003190112610873573563ffffffff60e01b81168091036108735760209250630271189760e51b8114908115612660575b5015158152f35b6301ffc9a760e01b14905083612659565b6004359060ff821682036105d057565b600435906001600160a01b03821682036105d057565b602435906001600160a01b03821682036105d057565b6001600160401b0381116126c057604052565b634e487b7160e01b600052604160045260246000fd5b604081019081106001600160401b038211176126c057604052565b608081019081106001600160401b038211176126c057604052565b601f909101601f19168101906001600160401b038211908210176126c057604052565b9080601f830112156105d0578135906001600160401b0382116126c0578160051b604051936020936127638584018761270c565b855283808601928201019283116105d0578301905b828210612786575050505090565b81358152908301908301612778565b81601f820112156105d0578035906001600160401b0382116126c057604051926127c9601f8401601f19166020018561270c565b828452602083830101116105d057816000926020809301838601378301015290565b600080516020612dec833981519152546001600160a01b0316330361280c57565b60405163118cdaa760e01b8152336004820152602490fd5b6001600160a01b0390811690811561286d57600080516020612dec83398151915280546001600160a01b03198116841790915516600080516020612e4c833981519152600080a3565b604051631e4fbdf760e01b815260006004820152602490fd5b60ff600080516020612e8c8339815191525460401c16156128a357565b604051631afcd79f60e31b8152600490fd5b156128bc57565b60405162461bcd60e51b815260206004820152600f60248201526e139bdd081a5b9a5d1a585b1a5e9959608a1b6044820152606490fd5b156128fa57565b60405162461bcd60e51b815260206004820152601760248201527613585c9ad95d08185b1c9958591e481c995cdbdb1d9959604a1b6044820152606490fd5b1561294057565b60405162461bcd60e51b815260206004820152600f60248201526e496e76616c6964206f7574636f6d6560881b6044820152606490fd5b1561297e57565b606460405162461bcd60e51b815260206004820152602060248201527f416d6f756e74206d7573742062652067726561746572207468616e207a65726f6044820152fd5b600754600160401b8110156126c0576001810180600755811015612a14576007600052600080516020612e0c8339815191520180546001600160a01b0319166001600160a01b03909216919091179055565b634e487b7160e01b600052603260045260246000fd5b60ff1660ff8114612a3b5760010190565b634e487b7160e01b600052601160045260246000fd5b91908201809211612a3b57565b91908203918211612a3b57565b15612a7257565b60405162461bcd60e51b8152602060048201526024808201527f4265742065786365656473206d6178696d756d20616c6c6f7761626c6520616d6044820152631bdd5b9d60e21b6064820152608490fd5b805115612a145760200190565b8051821015612a145760209160051b010190565b90815180825260208080930193019160005b828110612b04575050505090565b835185529381019392810192600101612af6565b15612b1f57565b60405162461bcd60e51b8152602060048201526012602482015271125b9d985b1a59081d1c9859194818dbdcdd60721b6044820152606490fd5b908160209103126105d0575180151581036105d05790565b6001600160a01b03918216815291166020820152604081019190915260600190565b15612b9a57565b60405162461bcd60e51b81526020600482015260136024820152721d1c985b9cd9995c919c9bdb4819985a5b1959606a1b6044820152606490fd5b6001600160a01b039091168152602081019190915260400190565b15612bf757565b60405162461bcd60e51b815260206004820152601d60248201527f617070726f766520746f206d61726b65744d616b6572206661696c65640000006044820152606490fd5b15612c4357565b60405162461bcd60e51b815260206004820152602260248201527f4e6f7420656e6f756768206f7574636f6d6520746f6b656e7320726563656976604482015261195960f21b6064820152608490fd5b929060c0949260018060a01b0380921685521660208401526040830152606082015260a06080820152600060a08201520190565b15612cce57565b60405162461bcd60e51b815260206004820152601f60248201527f417070726f766520746f204c6971756964697479506f6f6c206661696c6564006044820152606490fd5b15612d1a57565b60405162461bcd60e51b815260206004820152602560248201527f417070726f766520746f206f776e65722f4d61726b6574466163746f72792066604482015264185a5b195960da1b6064820152608490fd5b6040919493926060820195825260208201520152565b600160ff1b8114612a3b5760000390565b91608083019160018060a01b0316835260a0602093849260008483015260408201526080606082015285518094520193019160005b828110612dd7575050505090565b835185529381019392810192600101612dc956fe9016d09d72d40fdae2fd8ceac6b6234c7706214fd39c1cd1e609a0528c199300a66cc928b5edb82af9bd49922954155ab7b0942694bea4ce44661d9a8736c688893ac9c513b4380780f867c7b8bd044b0c9868ae211e7b5c6daaa79c936e4dbe8be0079c531659141344cd1fd0a4f28419497f9722a3daafe3b4186f6b6457e058d1b6a27802b679fdc085f457b7699ca7b334df2e9f26f1bf92773f0810a3a2f0c57e16840df040f15088dc2f81fe391c3923bec73e23a9662efc9c229c6a00a164736f6c6343000814000a",
  "linkReferences": {},
  "deployedLinkReferences": {}
}