{
  "_format": "hh-sol-artifact-1",
  "contractName": "PredictionMarket",
  "sourceName": "contracts/PredictionMarket.sol",
  "abi": [
    {
      "inputs": [
        {
          "internalType": "uint256",
          "name": "_matchId",
          "type": "uint256"
        },
        {
          "internalType": "address",
          "name": "_liquidityPool",
          "type": "address"
        },
        {
          "internalType": "address",
          "name": "_usdc",
          "type": "address"
        },
        {
          "internalType": "address",
          "name": "_conditionalTokens",
          "type": "address"
        }
      ],
      "stateMutability": "nonpayable",
      "type": "constructor"
    },
    {
      "inputs": [
        {
          "internalType": "address",
          "name": "owner",
          "type": "address"
        }
      ],
      "name": "OwnableInvalidOwner",
      "type": "error"
    },
    {
      "inputs": [
        {
          "internalType": "address",
          "name": "account",
          "type": "address"
        }
      ],
      "name": "OwnableUnauthorizedAccount",
      "type": "error"
    },
    {
      "anonymous": false,
      "inputs": [
        {
          "indexed": false,
          "internalType": "uint256",
          "name": "matchId",
          "type": "uint256"
        },
        {
          "indexed": false,
          "internalType": "uint256",
          "name": "usdcAmount",
          "type": "uint256"
        }
      ],
      "name": "MarketFinalized",
      "type": "event"
    },
    {
      "anonymous": false,
      "inputs": [
        {
          "indexed": true,
          "internalType": "uint256",
          "name": "matchId",
          "type": "uint256"
        },
        {
          "indexed": true,
          "internalType": "uint8",
          "name": "outcome",
          "type": "uint8"
        }
      ],
      "name": "MarketResolved",
      "type": "event"
    },
    {
      "anonymous": false,
      "inputs": [
        {
          "indexed": true,
          "internalType": "uint256",
          "name": "matchId",
          "type": "uint256"
        },
        {
          "indexed": false,
          "internalType": "uint256",
          "name": "home",
          "type": "uint256"
        },
        {
          "indexed": false,
          "internalType": "uint256",
          "name": "draw",
          "type": "uint256"
        },
        {
          "indexed": false,
          "internalType": "uint256",
          "name": "away",
          "type": "uint256"
        }
      ],
      "name": "OddsUpdated",
      "type": "event"
    },
    {
      "anonymous": false,
      "inputs": [
        {
          "indexed": true,
          "internalType": "address",
          "name": "previousOwner",
          "type": "address"
        },
        {
          "indexed": true,
          "internalType": "address",
          "name": "newOwner",
          "type": "address"
        }
      ],
      "name": "OwnershipTransferred",
      "type": "event"
    },
    {
      "anonymous": false,
      "inputs": [
        {
          "indexed": true,
          "internalType": "address",
          "name": "redeemer",
          "type": "address"
        },
        {
          "indexed": true,
          "internalType": "uint8",
          "name": "outcome",
          "type": "uint8"
        },
        {
          "indexed": false,
          "internalType": "uint256",
          "name": "amount",
          "type": "uint256"
        }
      ],
      "name": "PayoutRedeemed",
      "type": "event"
    },
    {
      "anonymous": false,
      "inputs": [
        {
          "indexed": true,
          "internalType": "address",
          "name": "buyer",
          "type": "address"
        },
        {
          "indexed": true,
          "internalType": "uint8",
          "name": "outcome",
          "type": "uint8"
        },
        {
          "indexed": false,
          "internalType": "uint256",
          "name": "shares",
          "type": "uint256"
        },
        {
          "indexed": false,
          "internalType": "int256",
          "name": "actualCost",
          "type": "int256"
        }
      ],
      "name": "SharesPurchased",
      "type": "event"
    },
    {
      "anonymous": false,
      "inputs": [
        {
          "indexed": true,
          "internalType": "address",
          "name": "seller",
          "type": "address"
        },
        {
          "indexed": true,
          "internalType": "uint8",
          "name": "outcome",
          "type": "uint8"
        },
        {
          "indexed": false,
          "internalType": "uint256",
          "name": "shares",
          "type": "uint256"
        },
        {
          "indexed": false,
          "internalType": "int256",
          "name": "actualGain",
          "type": "int256"
        }
      ],
      "name": "SharesSold",
      "type": "event"
    },
    {
      "inputs": [],
      "name": "FEE_BPS",
      "outputs": [
        {
          "internalType": "uint256",
          "name": "",
          "type": "uint256"
        }
      ],
      "stateMutability": "view",
      "type": "function"
    },
    {
      "inputs": [
        {
          "internalType": "uint256",
          "name": "",
          "type": "uint256"
        }
      ],
      "name": "bettors",
      "outputs": [
        {
          "internalType": "address",
          "name": "",
          "type": "address"
        }
      ],
      "stateMutability": "view",
      "type": "function"
    },
    {
      "inputs": [
        {
          "internalType": "uint8",
          "name": "outcome",
          "type": "uint8"
        },
        {
          "internalType": "uint256",
          "name": "amount",
          "type": "uint256"
        }
      ],
      "name": "buyShares",
      "outputs": [],
      "stateMutability": "nonpayable",
      "type": "function"
    },
    {
      "inputs": [],
      "name": "conditionId",
      "outputs": [
        {
          "internalType": "bytes32",
          "name": "",
          "type": "bytes32"
        }
      ],
      "stateMutability": "view",
      "type": "function"
    },
    {
      "inputs": [],
      "name": "conditionalTokens",
      "outputs": [
        {
          "internalType": "contract ConditionalTokens",
          "name": "",
          "type": "address"
        }
      ],
      "stateMutability": "view",
      "type": "function"
    },
    {
      "inputs": [],
      "name": "finalizeMarket",
      "outputs": [],
      "stateMutability": "nonpayable",
      "type": "function"
    },
    {
      "inputs": [],
      "name": "getBettors",
      "outputs": [
        {
          "internalType": "address[]",
          "name": "",
          "type": "address[]"
        }
      ],
      "stateMutability": "view",
      "type": "function"
    },
    {
      "inputs": [
        {
          "internalType": "uint8",
          "name": "outcome",
          "type": "uint8"
        }
      ],
      "name": "getMarginalPrice",
      "outputs": [
        {
          "internalType": "uint256",
          "name": "",
          "type": "uint256"
        }
      ],
      "stateMutability": "view",
      "type": "function"
    },
    {
      "inputs": [
        {
          "internalType": "uint8",
          "name": "outcome",
          "type": "uint8"
        },
        {
          "internalType": "uint256",
          "name": "amount",
          "type": "uint256"
        }
      ],
      "name": "getNetCost",
      "outputs": [
        {
          "internalType": "int256",
          "name": "",
          "type": "int256"
        }
      ],
      "stateMutability": "view",
      "type": "function"
    },
    {
      "inputs": [
        {
          "internalType": "bytes32",
          "name": "_questionId",
          "type": "bytes32"
        },
        {
          "internalType": "bytes32",
          "name": "_conditionId",
          "type": "bytes32"
        },
        {
          "internalType": "address",
          "name": "_marketMaker",
          "type": "address"
        }
      ],
      "name": "initializeMarket",
      "outputs": [],
      "stateMutability": "nonpayable",
      "type": "function"
    },
    {
      "inputs": [],
      "name": "initialized",
      "outputs": [
        {
          "internalType": "bool",
          "name": "",
          "type": "bool"
        }
      ],
      "stateMutability": "view",
      "type": "function"
    },
    {
      "inputs": [
        {
          "internalType": "address",
          "name": "",
          "type": "address"
        }
      ],
      "name": "isBettor",
      "outputs": [
        {
          "internalType": "bool",
          "name": "",
          "type": "bool"
        }
      ],
      "stateMutability": "view",
      "type": "function"
    },
    {
      "inputs": [],
      "name": "isFinalized",
      "outputs": [
        {
          "internalType": "bool",
          "name": "",
          "type": "bool"
        }
      ],
      "stateMutability": "view",
      "type": "function"
    },
    {
      "inputs": [],
      "name": "isResolved",
      "outputs": [
        {
          "internalType": "bool",
          "name": "",
          "type": "bool"
        }
      ],
      "stateMutability": "view",
      "type": "function"
    },
    {
      "inputs": [],
      "name": "liquidityPool",
      "outputs": [
        {
          "internalType": "contract ILiquidityPool",
          "name": "",
          "type": "address"
        }
      ],
      "stateMutability": "view",
      "type": "function"
    },
    {
      "inputs": [],
      "name": "marketMaker",
      "outputs": [
        {
          "internalType": "contract LMSRMarketMaker",
          "name": "",
          "type": "address"
        }
      ],
      "stateMutability": "view",
      "type": "function"
    },
    {
      "inputs": [],
      "name": "matchId",
      "outputs": [
        {
          "internalType": "uint256",
          "name": "",
          "type": "uint256"
        }
      ],
      "stateMutability": "view",
      "type": "function"
    },
    {
      "inputs": [
        {
          "internalType": "address",
          "name": "",
          "type": "address"
        },
        {
          "internalType": "address",
          "name": "",
          "type": "address"
        },
        {
          "internalType": "uint256[]",
          "name": "",
          "type": "uint256[]"
        },
        {
          "internalType": "uint256[]",
          "name": "",
          "type": "uint256[]"
        },
        {
          "internalType": "bytes",
          "name": "",
          "type": "bytes"
        }
      ],
      "name": "onERC1155BatchReceived",
      "outputs": [
        {
          "internalType": "bytes4",
          "name": "",
          "type": "bytes4"
        }
      ],
      "stateMutability": "nonpayable",
      "type": "function"
    },
    {
      "inputs": [
        {
          "internalType": "address",
          "name": "",
          "type": "address"
        },
        {
          "internalType": "address",
          "name": "",
          "type": "address"
        },
        {
          "internalType": "uint256",
          "name": "",
          "type": "uint256"
        },
        {
          "internalType": "uint256",
          "name": "",
          "type": "uint256"
        },
        {
          "internalType": "bytes",
          "name": "",
          "type": "bytes"
        }
      ],
      "name": "onERC1155Received",
      "outputs": [
        {
          "internalType": "bytes4",
          "name": "",
          "type": "bytes4"
        }
      ],
      "stateMutability": "nonpayable",
      "type": "function"
    },
    {
      "inputs": [],
      "name": "owner",
      "outputs": [
        {
          "internalType": "address",
          "name": "",
          "type": "address"
        }
      ],
      "stateMutability": "view",
      "type": "function"
    },
    {
      "inputs": [],
      "name": "questionId",
      "outputs": [
        {
          "internalType": "bytes32",
          "name": "",
          "type": "bytes32"
        }
      ],
      "stateMutability": "view",
      "type": "function"
    },
    {
      "inputs": [],
      "name": "redeemPayouts",
      "outputs": [],
      "stateMutability": "nonpayable",
      "type": "function"
    },
    {
      "inputs": [],
      "name": "renounceOwnership",
      "outputs": [],
      "stateMutability": "nonpayable",
      "type": "function"
    },
    {
      "inputs": [
        {
          "internalType": "uint8",
          "name": "result",
          "type": "uint8"
        }
      ],
      "name": "resolveMarket",
      "outputs": [],
      "stateMutability": "nonpayable",
      "type": "function"
    },
    {
      "inputs": [],
      "name": "resolvedOutcome",
      "outputs": [
        {
          "internalType": "uint8",
          "name": "",
          "type": "uint8"
        }
      ],
      "stateMutability": "view",
      "type": "function"
    },
    {
      "inputs": [
        {
          "internalType": "uint8",
          "name": "outcome",
          "type": "uint8"
        },
        {
          "internalType": "uint256",
          "name": "amount",
          "type": "uint256"
        }
      ],
      "name": "sellShares",
      "outputs": [],
      "stateMutability": "nonpayable",
      "type": "function"
    },
    {
      "inputs": [
        {
          "internalType": "bytes4",
          "name": "interfaceId",
          "type": "bytes4"
        }
      ],
      "name": "supportsInterface",
      "outputs": [
        {
          "internalType": "bool",
          "name": "",
          "type": "bool"
        }
      ],
      "stateMutability": "view",
      "type": "function"
    },
    {
      "inputs": [
        {
          "internalType": "uint8",
          "name": "",
          "type": "uint8"
        }
      ],
      "name": "totalWageredPerOutcome",
      "outputs": [
        {
          "internalType": "uint256",
          "name": "",
          "type": "uint256"
        }
      ],
      "stateMutability": "view",
      "type": "function"
    },
    {
      "inputs": [
        {
          "internalType": "address",
          "name": "newOwner",
          "type": "address"
        }
      ],
      "name": "transferOwnership",
      "outputs": [],
      "stateMutability": "nonpayable",
      "type": "function"
    },
    {
      "inputs": [],
      "name": "usdc",
      "outputs": [
        {
          "internalType": "contract IERC20",
          "name": "",
          "type": "address"
        }
      ],
      "stateMutability": "view",
      "type": "function"
    }
  ],
  "bytecode": "0x608034620001f957601f620034e538819003918201601f191683019291906001600160401b03841183851017620001fe578160809284926040968752833981010312620001f957805190620000576020820162000214565b6200007260606200006a86850162000214565b930162000214565b903315620001e1576000549060018060a01b031993338584161760005586519260018060a01b03928391823391167f8be0079c531659141344cd1fd0a4f28419497f9722a3daafe3b4186f6b6457e0600080a3169283156200019f575081169283156200015b57169384156200010d576001558260025416176002558160055416176005556006541617600655516132bb90816200022a8239f35b855162461bcd60e51b815260206004820152602160248201527f496e76616c696420436f6e646974696f6e616c546f6b656e73206164647265736044820152607360f81b6064820152608490fd5b865162461bcd60e51b815260206004820152601a60248201527f496e76616c6964205553444320746f6b656e20616464726573730000000000006044820152606490fd5b62461bcd60e51b815260206004820152601d60248201527f496e76616c6964204c6971756964697479506f6f6c20616464726573730000006044820152606490fd5b8451631e4fbdf760e01b815260006004820152602490fd5b600080fd5b634e487b7160e01b600052604160045260246000fd5b51906001600160a01b0382168203620001f95756fe6080604052600436101561001257600080fd5b6000803560e01c8063010f7d8b146128dc57806301ffc9a71461283a578063158ef93e146128145780631c371e2b146127f05780631f21f9af146127c95780632ddc7de7146127ab5780632dfc8ee914612779578063326209b4146123945780633482b644146123515780633e413bee1461232a578063429c2ed7146122ed5780635bd9e299146122c6578063665a11ca1461229f578063715018a6146122385780638d4e4083146122125780638da5cb5b146121ec57806399892e47146121ce578063aaafcf7f14612171578063b06a5c5214612153578063bc197c81146120b1578063bf333f2c14612094578063c98c8b2b14611f36578063dbb3f53714611f10578063dd9089aa146113ad578063e55a2382146112e0578063f21ffa6b146109b0578063f23a6e6114610941578063f2ccb3971461028c578063f2fde38b146101de5763ffd4493c1461016757600080fd5b346101db57806003193601126101db576040519061018f82610188816131e1565b0383612ef2565b604051918291602080840190808552835180925280604086019401925b8281106101bb57505050500390f35b83516001600160a01b0316855286955093810193928101926001016101ac565b80fd5b50346101db5760203660031901126101db576101f8612e64565b610200612fe1565b6001600160a01b0380911690811561025b576000548273ffffffffffffffffffffffffffffffffffffffff19821617600055167f8be0079c531659141344cd1fd0a4f28419497f9722a3daafe3b4186f6b6457e0600080a380f35b602483604051907f1e4fbdf70000000000000000000000000000000000000000000000000000000082526004820152fd5b50346101db5760403660031901126101db576102a6612e07565b602490813560ff600754926102c0828560b01c1615613025565b166102cd60038210613070565b6102d88215156130bb565b6001600160a01b0391826006541693836005541690600354956040519663856296f760e01b8852896004890152888801526001851b60448801526020968781606481855afa80156108575788918b91610910575b5060405163039dd75360e41b81526001600160a01b03909516600486015260248501528380604481015b0381845afa9283156109055789936108d6575b50604051627eeac760e11b8152336004820152602481018490528781604481855afa80156108575785918b916108a5575b50106108625790859291876103f6604051936103b585612ed6565b60038552606036848701376103c9886131b4565b6103d38a87613154565b528b60405197888094819363782d085b60e01b8352876004840152820189613168565b0392165afa938415610857578a94610828575b50898412156107e557808a913b156107e157604051637921219560e11b815233600482015230602482015260448101949094526064840186905260a06084850152600060a48501528190849060c490829084905af19283156107d45788936107b7575b505061049d908660075416908a6040518096819582946315bd761160e01b8452604060048501526044840190613168565b908d83015203925af19081156106ca57879161078a575b50868561050b86600554166104c8856131b4565b6040517fa9059cbb000000000000000000000000000000000000000000000000000000008152336004820152602481019190915293849283919082906044820190565b03925af190811561077f578891610752575b501561070f5761054490838852600a86526040882061053d84825461313a565b90556131b4565b604051918252848201527f59bb1b9bbd3cec3437b204c969642374ba2f0fd9d3b7cfc39b49024d9e60d45460403392a360075416916040519263b20f8e7f60e01b80855285600486015283858481855afa9485156107045786956106d5575b50604051908082526001600483015284828581865afa9384156106ca5785928895610699575b50604051809481938252600260048301525afa92831561068e578593610639575b50507f893ac9c513b4380780f867c7b8bd044b0c9868ae211e7b5c6daaa79c936e4dbe919261063360015494604051938493846040919493926060820195825260208201520152565b0390a280f35b90809350813d8311610687575b6106508183612ef2565b81010312610682577f893ac9c513b4380780f867c7b8bd044b0c9868ae211e7b5c6daaa79c936e4dbe915191386105ea565b600080fd5b503d610646565b6040513d87823e3d90fd5b8381949296503d83116106c3575b6106b18183612ef2565b810103126106825784915193386105c9565b503d6106a7565b6040513d89823e3d90fd5b9094508381813d83116106fd575b6106ed8183612ef2565b81010312610682575193386105a3565b503d6106e3565b6040513d88823e3d90fd5b6064856014886040519262461bcd60e51b845260048401528201527f55534443207472616e73666572206661696c65640000000000000000000000006044820152fd5b6107729150863d8811610778575b61076a8183612ef2565b81019061319c565b3861051d565b503d610760565b6040513d8a823e3d90fd5b90508481813d83116107b0575b6107a18183612ef2565b810103126106825751386104b4565b503d610797565b6107c391929350612e90565b6107d0578590883861046c565b8780fd5b50604051903d90823e3d90fd5b5080fd5b60648860128b6040519262461bcd60e51b845260048401528201527f496e76616c6964207472616465206761696e00000000000000000000000000006044820152fd5b9093508781813d8311610850575b6108408183612ef2565b8101031261068257519238610409565b503d610836565b6040513d8c823e3d90fd5b606487601b8a6040519262461bcd60e51b845260048401528201527f496e73756666696369656e74206f7574636f6d6520746f6b656e7300000000006044820152fd5b809250898092503d83116108cf575b6108be8183612ef2565b81010312610682578490513861039a565b503d6108b4565b9092508681813d83116108fe575b6108ee8183612ef2565b8101031261068257519138610369565b503d6108e4565b6040513d8b823e3d90fd5b82819392503d831161093a575b6109278183612ef2565b810103126106825751879061035661032c565b503d61091d565b50346101db5760a03660031901126101db5761095b612e64565b50610964612e7a565b5060843567ffffffffffffffff81116107e157610985903690600401612f8a565b5060206040517ff23a6e61000000000000000000000000000000000000000000000000000000008152f35b50346101db5760203660031901126101db576109ca612e07565b906109d3612fe1565b6007546109e660ff8260b01c1615613025565b6109f5600360ff851610613070565b816001600160a01b038460b81b9276010000000000000000000000000000000000000000000077ff000000000000000000000000000000000000000000000085167fffffffffffffffff0000ffffffffffffffffffffffffffffffffffffffffffff8316171760075516911617803b156107e1578180916004604051809481937f8456cb590000000000000000000000000000000000000000000000000000000083525af18015610fb8579082916112cc575b5050600754906001600160a01b0360065416926001600160a01b036005541691600354926040519563856296f760e01b8752826004880152846024880152600160ff8760b81c161b6044880152602087606481845afa968715611107578397611297575b5060405163039dd75360e41b81526001600160a01b03831660048201526024810197909752602087604481845afa968715611107578397611263575b50600854610b5581612f14565b97610b63604051998a612ef2565b818952601f19610b7283612f14565b013660208b0137845b8281106112495750505082610bdb959697604051809781927f4e1273f400000000000000000000000000000000000000000000000000000000835260406004840152610bc9604484016131e1565b83810360031901602485015290613168565b0381845afa948515611107578395611194575b50829583965b8651881015610c2157610c15610c1b91610c0e8a8a613154565b519061312d565b97613247565b96610bf4565b929088959650849360405192610c4184610c3a816131e1565b0385612ef2565b86975b600360ff8a161015610f00576040519663856296f760e01b8852886004890152846024890152600160ff8b161b60448901526020886064818a5afa978815610905578998610ecb575b5060405163039dd75360e41b81526001600160a01b038416600482015260248101989098526020886044818a5afa978815610905578998610e97575b50604051627eeac760e11b81526001600160a01b038316600482015260248101899052906020826044818b5afa908115610857578a91610e61575b610d0e925061312d565b604051627eeac760e11b815230600482015260248101899052906020826044818b5afa908115610857578a91610e2b575b610d49925061312d565b9388945b8651861015610e0c57610da060208a6001600160a01b03610d6e8a8c613154565b51166040519384928392627eeac760e11b845260048401602090939291936001600160a01b0360408201951681520152565b03818c5afa908115610e01578b91610dcd575b50610dc190610dc79261312d565b95613247565b94610d4d565b90506020813d602011610df9575b81610de860209383612ef2565b810103126106825751610dc7610db3565b3d9150610ddb565b6040513d8d823e3d90fd5b959a9297509298610e1e919450613106565b9791929893959098610c44565b90506020823d602011610e59575b81610e4660209383612ef2565b8101031261068257610d49915190610d3f565b3d9150610e39565b90506020823d602011610e8f575b81610e7c60209383612ef2565b8101031261068257610d0e915190610d04565b3d9150610e6f565b9097506020813d602011610ec3575b81610eb360209383612ef2565b810103126106825751968b610cc9565b3d9150610ea6565b97506020883d602011610ef8575b81610ee660209383612ef2565b81010312610682579651966020610c8d565b3d9150610ed9565b898389928982811061112a578492610f179161313a565b9081610fc3575b50506001600160a01b0360025416803b156107e1578180916024604051809481937f29527b820000000000000000000000000000000000000000000000000000000083523060048401525af18015610fb857610fa4575b5060ff82166001547f739f283563fb51ab6b89ee95d937b2e63a6cfcb83c385dbebb629f9d97bd43e68380a380f35b610fad90612e90565b6107e1578183610f75565b6040513d84823e3d90fd5b610fcc826131b4565b6001600160a01b0382163b15611126576001600160a01b0391602485928360405195869485937f87f39a5c0000000000000000000000000000000000000000000000000000000085526004850152165af1908115611107578391611112575b505060055460025460405163095ea7b360e01b81526001600160a01b0391821660048201526024810184905291602091839160449183918891165af18015611107576110e8575b506001600160a01b036002541690813b156110e45782916024839260405194859384927f4410462700000000000000000000000000000000000000000000000000000000845260048401525af18015610fb8576110d0575b80610f1e565b6110d990612e90565b6107e15781836110ca565b8280fd5b6111009060203d6020116107785761076a8183612ef2565b5084611072565b6040513d85823e3d90fd5b61111b90612e90565b6107e157818561102b565b8380fd5b608460405162461bcd60e51b815260206004820152602360248201527f496e73756666696369656e7420636f6c6c61746572616c20666f72207061796f60448201527f75747300000000000000000000000000000000000000000000000000000000006064820152fd5b9094503d8084833e6111a68183612ef2565b8101906020818303126111265780519167ffffffffffffffff83116112455780601f8484010112156112455782820151916111e083612f14565b936111ee6040519586612ef2565b838552602085019260208560051b838501010111611241579190602083820101925b60208560051b8284010101841061122d5750505050509338610bee565b602080809486518152019401939250611210565b8680fd5b8480fd5b808261125861125e938d613154565b52613247565b610b7b565b9096506020813d60201161128f575b8161127f60209383612ef2565b8101031261068257519538610b48565b3d9150611272565b96506020873d6020116112c4575b816112b260209383612ef2565b81010312610682579551956020610b0c565b3d91506112a5565b6112d590612e90565b6101db578038610aa8565b50346101db5760403660031901126101db576112fa612e07565b9061135a6040519261130b84612ed6565b6003845260209384916060368484013761132b60ff602435921683613154565b526001600160a01b0360075416604051808095819463782d085b60e01b83528660048401526024830190613168565b03915afa9182156113a15791611374575b50604051908152f35b90508181813d831161139a575b61138b8183612ef2565b8101031261068257513861136b565b503d611381565b604051903d90823e3d90fd5b50346101db5760403660031901126101db576113c7612e07565b9060ff906113dc8260075460b01c1615613025565b60036113eb8184861610613070565b6113f860243515156130bb565b33825260096020528260408320541615611ea4575b8190825b84811682811015611457578587168103611435575b5061143090613106565b611411565b6114309193611450918652600a60205260408620549061312d565b9290611426565b84838789876406fc23ac00908101809111611e90578183168552600a60205260408520546114849161313a565b60243511611e27578181168452600a602052604084206114a7602435825461312d565b90556040516114b581612ed6565b83815260603660208301376024356114cf84841683613154565b526001600160a01b0360075416936020604051809663782d085b60e01b825282600483015281806115036024820188613168565b03915afa948515610704578695611df3575b5085851315611daf5761019091828602928684041486151715611d9b5786602061154361271086048961312d565b60646001600160a01b03600554169160405194859384927f23b872dd00000000000000000000000000000000000000000000000000000000845233600485015230602485015260448401525af190811561077f578891611d7c575b5015611d385760055460075460405163095ea7b360e01b81526001600160a01b0391821660048201526024810189905291602091839160449183918d91165af190811561077f578891611d19575b5015611cd55761162a6020916001600160a01b03600754169089604051809a819582946315bd761160e01b8452604060048501526044840190613168565b90602483015203925af1948515610704578695611ca1575b506001600160a01b0360065416906001600160a01b036005541690546040519063856296f760e01b8252886004830152602482015260018686161b6044820152602081606481865afa90811561077f578891611c6d575b5060405163039dd75360e41b81526001600160a01b039092166004830152602482015260208180604481015b0381855afa9081156106ca578791611c3b575b50604051627eeac760e11b815230600482015260248101829052602081604481865afa90811561077f578891611c09575b5060243511611b9f578187923b156110e457604051637921219560e11b81523060048201523360248083019190915260448201939093529135606483015260a06084830152600060a48301528290829060c490829084905af18015610fb857611b8b575b505060055460025460405163095ea7b360e01b81526001600160a01b03918216600482015261271090930460011c602484018190529291602091839160449183918b91165af1908115610704578691611b6c575b5015611b2857846001600160a01b0360025416803b156107e1578180916024604051809481937fe57483150000000000000000000000000000000000000000000000000000000083528860048401525af18015610fb857611b14575b5050600554855460405163095ea7b360e01b81526001600160a01b0391821660048201526024810184905291602091839160449183918b91165af1908115610704578691611af5575b5015611a8b5784906001600160a01b0382541690813b156110e457829160248392604051948593849263fe80d50960e01b845260048401525af18015610fb857611a77575b5050604051926024358452602084015216907f58d1b6a27802b679fdc085f457b7699ca7b334df2e9f26f1bf92773f0810a3a260403392a36001600160a01b03600754166040519063b20f8e7f60e01b808352836004840152602083602481855afa928315611a03578493611a43575b506040519080825260016004830152602082602481865afa91821561068e578592611a0e575b506020906024604051809581938252600260048301525afa918215611a035784926119af575b507f893ac9c513b4380780f867c7b8bd044b0c9868ae211e7b5c6daaa79c936e4dbe919261063360015494604051938493846040919493926060820195825260208201520152565b91506020823d6020116119fb575b816119ca60209383612ef2565b81010312610682577f893ac9c513b4380780f867c7b8bd044b0c9868ae211e7b5c6daaa79c936e4dbe915191611967565b3d91506119bd565b6040513d86823e3d90fd5b9091506020813d602011611a3b575b81611a2a60209383612ef2565b810103126106825751906020611941565b3d9150611a1d565b9092506020813d602011611a6f575b81611a5f60209383612ef2565b810103126106825751918461191b565b3d9150611a52565b611a8090612e90565b6111265783856118ab565b608460405162461bcd60e51b815260206004820152602560248201527f417070726f766520746f206f776e65722f4d61726b6574466163746f7279206660448201527f61696c65640000000000000000000000000000000000000000000000000000006064820152fd5b611b0e915060203d6020116107785761076a8183612ef2565b86611866565b611b1d90612e90565b61124557848661181d565b606460405162461bcd60e51b815260206004820152601f60248201527f417070726f766520746f204c6971756964697479506f6f6c206661696c6564006044820152fd5b611b85915060203d6020116107785761076a8183612ef2565b866117c1565b611b9490612e90565b61124557848661176d565b608460405162461bcd60e51b815260206004820152602260248201527f4e6f7420656e6f756768206f7574636f6d6520746f6b656e732072656365697660448201527f65640000000000000000000000000000000000000000000000000000000000006064820152fd5b90506020813d602011611c33575b81611c2460209383612ef2565b81010312610682575188611709565b3d9150611c17565b90506020813d602011611c65575b81611c5660209383612ef2565b810103126106825751876116d8565b3d9150611c49565b90506020813d602011611c99575b81611c8860209383612ef2565b8101031261068257516116c5611699565b3d9150611c7b565b9094506020813d602011611ccd575b81611cbd60209383612ef2565b8101031261068257519386611642565b3d9150611cb0565b606460405162461bcd60e51b815260206004820152601d60248201527f617070726f766520746f206d61726b65744d616b6572206661696c65640000006044820152fd5b611d32915060203d6020116107785761076a8183612ef2565b886115ec565b606460405162461bcd60e51b815260206004820152601360248201527f7472616e7366657246726f6d206661696c6564000000000000000000000000006044820152fd5b611d95915060203d6020116107785761076a8183612ef2565b8861159e565b602487634e487b7160e01b81526011600452fd5b606460405162461bcd60e51b815260206004820152601260248201527f496e76616c696420747261646520636f737400000000000000000000000000006044820152fd5b9094506020813d602011611e1f575b81611e0f60209383612ef2565b8101031261068257519386611515565b3d9150611e02565b608460405162461bcd60e51b8152602060048201526024808201527f4265742065786365656473206d6178696d756d20616c6c6f7761626c6520616d60448201527f6f756e74000000000000000000000000000000000000000000000000000000006064820152fd5b602485634e487b7160e01b81526011600452fd5b60085468010000000000000000811015611efc57806001611ec89201600855612e17565b815490831b906001600160a01b0333831b921b1916179055338252600960205260408220600160ff1982541617905561140d565b602483634e487b7160e01b81526041600452fd5b50346101db57806003193601126101db57602060ff60075460b01c166040519015158152f35b50346101db5760603660031901126101db576044356001600160a01b039081811680910361068257611f66612fe1565b6007549160ff8360a01c16612050578173ffffffffffffffffffffffffffffffffffffffff19859460243560035560043560045516176007556006541690813b1561204c5782916044839260405194859384927fa22cb4650000000000000000000000000000000000000000000000000000000084526004840152600160248401525af18015610fb857612038575b50740100000000000000000000000000000000000000007fffffffffffffffffffffff00ffffffffffffffffffffffffffffffffffffffff600754161760075580f35b61204190612e90565b6101db578038611ff5565b5050fd5b606460405162461bcd60e51b815260206004820152601a60248201527f4d61726b657420616c726561647920696e697469616c697a65640000000000006044820152fd5b50346101db57806003193601126101db5760206040516101908152f35b50346101db5760a03660031901126101db576120cb612e64565b506120d4612e7a565b5067ffffffffffffffff6044358181116110e4576120f6903690600401612f2c565b506064358181116110e45761210f903690600401612f2c565b506084359081116107e157612128903690600401612f8a565b5060206040517fbc197c81000000000000000000000000000000000000000000000000000000008152f35b50346101db57806003193601126101db576020600454604051908152f35b50346101db57602090816003193601126101db5761218d612e07565b8260ff60246001600160a01b036007541693604051948593849263b20f8e7f60e01b84521660048301525afa9182156113a157916113745750604051908152f35b50346101db57806003193601126101db576020600154604051908152f35b50346101db57806003193601126101db576001600160a01b036020915416604051908152f35b50346101db57806003193601126101db57602060ff60075460a81c166040519015158152f35b50346101db57806003193601126101db57612251612fe1565b60006001600160a01b03815473ffffffffffffffffffffffffffffffffffffffff1981168355167f8be0079c531659141344cd1fd0a4f28419497f9722a3daafe3b4186f6b6457e08280a380f35b50346101db57806003193601126101db5760206001600160a01b0360025416604051908152f35b50346101db57806003193601126101db5760206001600160a01b0360065416604051908152f35b50346101db5760203660031901126101db5760ff60406020926001600160a01b03612316612e64565b168152600984522054166040519015158152f35b50346101db57806003193601126101db5760206001600160a01b0360055416604051908152f35b50346101db5760203660031901126101db57600435906008548210156101db5760206001600160a01b0361238484612e17565b9190546040519260031b1c168152f35b50346101db57806003193601126101db5760075460ff8160b01c16156127355760ff9060b81c166001811b906040516123cc81612eba565b60018152602090813681830137836123e382613147565b526001600160a01b039081600654169160055416906003928354936040519663856296f760e01b885289600489015260249186838a01526044998a8a01528789606481875afa988915610e01578b99612706575b5060405163039dd75360e41b81526001600160a01b038716600482015260248101999099528789604481875afa988915610e01578b996126d7575b50604051627eeac760e11b815233600482015260248101999099528789604481875afa988915610e01578b996126a8575b50604051996124b18b612ed6565b818b526060368a8d01378b805b8381106126175750505050604051987fdd34de67000000000000000000000000000000000000000000000000000000008a528660048b0152878a8481875afa998a15610e01578b9a6125e4575b509061251691613154565b51968781029781890414901517156125d05787156125bc57509081889493923b156112455761255e9385809460405196879586948593626dc0df60e21b855260048501613256565b03925af18015610fb8576125a8575b50507f810c0a3d2e7f4765a144ddb7039e632b1abd74268600d3f570c128cb7b6a09b69060ff60075460b81c1693604051930483523392a380f35b6125b190612e90565b61112657833861256d565b634e487b7160e01b60005260126004526000fd5b634e487b7160e01b60005260116004526000fd5b919099508782813d8311612610575b6125fd8183612ef2565b810103126106825790519861251661250b565b503d6125f3565b6040517f0504c8140000000000000000000000000000000000000000000000000000000081528a600482015281878201528b8185818b5afa908115611107578e9391612673575b506112588261266c94613154565b8c906124be565b8093508c8092503d83116126a1575b61268c8183612ef2565b810103126106825790518c919061125861265e565b503d612682565b9098508781813d83116126d0575b6126c08183612ef2565b81010312610682575197386124a3565b503d6126b6565b98508789813d83116126ff575b6126ee8183612ef2565b810103126106825797519787612472565b503d6126e4565b98508789813d831161272e575b61271d8183612ef2565b810103126106825797519787612437565b503d612713565b606460405162461bcd60e51b815260206004820152601360248201527f4d61726b6574206e6f74207265736f6c766564000000000000000000000000006044820152fd5b50346101db5760203660031901126101db57604060209160ff61279a612e07565b168152600a83522054604051908152f35b50346101db57806003193601126101db576020600354604051908152f35b50346101db57806003193601126101db5760206001600160a01b0360075416604051908152f35b50346101db57806003193601126101db57602060ff60075460b81c16604051908152f35b50346101db57806003193601126101db57602060ff60075460a01c166040519015158152f35b50346101db5760203660031901126101db576004357fffffffff0000000000000000000000000000000000000000000000000000000081168091036107e157807f4e2312e000000000000000000000000000000000000000000000000000000000602092149081156128b2575b506040519015158152f35b7f01ffc9a700000000000000000000000000000000000000000000000000000000915014826128a7565b50346101db57806003193601126101db576128f5612fe1565b6007549060ff90818360b01c1615612d9d57818360a81c16612d595775010000000000000000000000000000000000000000007fffffffffffffffffffff00ffffffffffffffffffffffffffffffffffffffffff8416176007556001600160a01b03809316803b156107e1578180916004604051809481937f43d726d60000000000000000000000000000000000000000000000000000000083525af18015610fb857612d4a575b50805b828116600380821015612b9257600180921b866006541691876005541690549160405163856296f760e01b81528760048201528360248201528160448201526020908181606481895afa80156109055782908a90612b63575b60405163039dd75360e41b81526001600160a01b0387166004820152602481019190915291508180604481015b0381895afa80156109055782908a90612b34575b604051627eeac760e11b8152306004820152602481019190915291508180604481015b0381895afa908115610905578991612b07575b50612a8a575b505050505050612a8590613106565b6129a0565b60405195612a9787612eba565b86523681870137612aa785613147565b52823b15612b035791612ad4939186809460405196879586948593626dc0df60e21b855260048501613256565b03925af1801561110757908391612aef575b80808080612a76565b612af890612e90565b6107e1578138612ae6565b8580fd5b90508181813d8311612b2d575b612b1e8183612ef2565b81010312610682575138612a70565b503d612b14565b5081813d8311612b5c575b612b498183612ef2565b810103126106825781612a5d9151612a3a565b503d612b3f565b5081813d8311612b8b575b612b788183612ef2565b810103126106825781612a2691516129f9565b503d612b6e565b8386806005541690604051907f70a082310000000000000000000000000000000000000000000000000000000082523060048301526020928383602481845afa92831561068e578593612d1b575b5082612bea578480f35b845460405163095ea7b360e01b81529083166001600160a01b031660048201526024810184905290849082908188816044810103925af190811561068e578591612cfe575b5015612cba578390815416803b156107e15781809160246040518094819363fe80d50960e01b83528860048401525af18015610fb857612ca6575b50507fe8f84ac630e20667c1c92c870928d260a40c35e00757fe28ed744c4f42ba0f9791604091600154918351928352820152a1818080808480f35b612caf90612e90565b6110e4578284612c6a565b6064836040519062461bcd60e51b82526004820152601360248201527f5553444320617070726f7665206661696c6564000000000000000000000000006044820152fd5b612d159150843d86116107785761076a8183612ef2565b85612c2f565b9092508381813d8311612d43575b612d338183612ef2565b8101031261068257519185612be0565b503d612d29565b612d5390612e90565b3861299d565b606460405162461bcd60e51b815260206004820152601860248201527f4d61726b657420616c72656164792066696e616c697a656400000000000000006044820152fd5b608460405162461bcd60e51b815260206004820152602b60248201527f4d61726b6574206d757374206265207265736f6c766564206265666f7265206660448201527f696e616c697a6174696f6e0000000000000000000000000000000000000000006064820152fd5b6004359060ff8216820361068257565b600854811015612e4e5760086000527ff3f7a9fe364faab93b216da50a3214154f22a0a2b415b23a84c8169e8b636ee30190600090565b634e487b7160e01b600052603260045260246000fd5b600435906001600160a01b038216820361068257565b602435906001600160a01b038216820361068257565b67ffffffffffffffff8111612ea457604052565b634e487b7160e01b600052604160045260246000fd5b6040810190811067ffffffffffffffff821117612ea457604052565b6080810190811067ffffffffffffffff821117612ea457604052565b90601f8019910116810190811067ffffffffffffffff821117612ea457604052565b67ffffffffffffffff8111612ea45760051b60200190565b81601f8201121561068257803591612f4383612f14565b92612f516040519485612ef2565b808452602092838086019260051b820101928311610682578301905b828210612f7b575050505090565b81358152908301908301612f6d565b81601f820112156106825780359067ffffffffffffffff8211612ea45760405192612fbf601f8401601f191660200185612ef2565b8284526020838301011161068257816000926020809301838601378301015290565b6001600160a01b03600054163303612ff557565b60246040517f118cdaa7000000000000000000000000000000000000000000000000000000008152336004820152fd5b1561302c57565b606460405162461bcd60e51b815260206004820152601760248201527f4d61726b657420616c7265616479207265736f6c7665640000000000000000006044820152fd5b1561307757565b606460405162461bcd60e51b815260206004820152600f60248201527f496e76616c6964206f7574636f6d6500000000000000000000000000000000006044820152fd5b156130c257565b606460405162461bcd60e51b815260206004820152602060248201527f416d6f756e74206d7573742062652067726561746572207468616e207a65726f6044820152fd5b60ff1660ff81146131175760010190565b634e487b7160e01b600052601160045260246000fd5b9190820180921161311757565b9190820391821161311757565b805115612e4e5760200190565b8051821015612e4e5760209160051b010190565b90815180825260208080930193019160005b828110613188575050505090565b83518552938101939281019260010161317a565b90816020910312610682575180151581036106825790565b7f800000000000000000000000000000000000000000000000000000000000000081146131175760000390565b6008549081815260208091019160086000527ff3f7a9fe364faab93b216da50a3214154f22a0a2b415b23a84c8169e8b636ee3916000905b828210613227575050505090565b83546001600160a01b031685529384019360019384019390910190613219565b60001981146131175760010190565b61328293926001600160a01b036080931682526000602083015260408201528160608201520190613168565b9056fea2646970667358221220cdb292e61fdb0652590958962e6ccdbbbee14fcc57d6db3560502b3a3408c9b264736f6c63430008140033",
  "linkReferences": {},
  "deployedLinkReferences": {}
}